{
	"MyContract.sol": {
		"CarbonCredit": {
			"abi": [
				{
					"anonymous": false,
					"inputs": [
						{
							"indexed": false,
							"internalType": "uint256",
							"name": "creditId",
							"type": "uint256"
						},
						{
							"indexed": false,
							"internalType": "address",
							"name": "owner",
							"type": "address"
						},
						{
							"indexed": false,
							"internalType": "uint256",
							"name": "amount",
							"type": "uint256"
						},
						{
							"indexed": false,
							"internalType": "string",
							"name": "description",
							"type": "string"
						}
					],
					"name": "CreditIssued",
					"type": "event"
				},
				{
					"anonymous": false,
					"inputs": [
						{
							"indexed": false,
							"internalType": "uint256",
							"name": "creditId",
							"type": "uint256"
						},
						{
							"indexed": false,
							"internalType": "address",
							"name": "from",
							"type": "address"
						},
						{
							"indexed": false,
							"internalType": "address",
							"name": "to",
							"type": "address"
						}
					],
					"name": "CreditTransferred",
					"type": "event"
				},
				{
					"inputs": [
						{
							"internalType": "uint256",
							"name": "",
							"type": "uint256"
						}
					],
					"name": "credits",
					"outputs": [
						{
							"internalType": "uint256",
							"name": "id",
							"type": "uint256"
						},
						{
							"internalType": "string",
							"name": "description",
							"type": "string"
						},
						{
							"internalType": "uint256",
							"name": "amount",
							"type": "uint256"
						},
						{
							"internalType": "address",
							"name": "owner",
							"type": "address"
						}
					],
					"stateMutability": "view",
					"type": "function"
				},
				{
					"inputs": [
						{
							"internalType": "uint256",
							"name": "creditId",
							"type": "uint256"
						}
					],
					"name": "getCredit",
					"outputs": [
						{
							"internalType": "string",
							"name": "",
							"type": "string"
						},
						{
							"internalType": "uint256",
							"name": "",
							"type": "uint256"
						},
						{
							"internalType": "address",
							"name": "",
							"type": "address"
						}
					],
					"stateMutability": "view",
					"type": "function"
				},
				{
					"inputs": [
						{
							"internalType": "string",
							"name": "description",
							"type": "string"
						},
						{
							"internalType": "uint256",
							"name": "amount",
							"type": "uint256"
						}
					],
					"name": "issueCredit",
					"outputs": [],
					"stateMutability": "nonpayable",
					"type": "function"
				},
				{
					"inputs": [],
					"name": "nextCreditId",
					"outputs": [
						{
							"internalType": "uint256",
							"name": "",
							"type": "uint256"
						}
					],
					"stateMutability": "view",
					"type": "function"
				},
				{
					"inputs": [
						{
							"internalType": "address",
							"name": "",
							"type": "address"
						},
						{
							"internalType": "uint256",
							"name": "",
							"type": "uint256"
						}
					],
					"name": "ownerCredits",
					"outputs": [
						{
							"internalType": "uint256",
							"name": "",
							"type": "uint256"
						}
					],
					"stateMutability": "view",
					"type": "function"
				},
				{
					"inputs": [
						{
							"internalType": "uint256",
							"name": "creditId",
							"type": "uint256"
						},
						{
							"internalType": "address",
							"name": "to",
							"type": "address"
						}
					],
					"name": "transferCredit",
					"outputs": [],
					"stateMutability": "nonpayable",
					"type": "function"
				}
			],
			"devdoc": {
				"kind": "dev",
				"methods": {},
				"version": 1
			},
			"evm": {
				"assembly": "    /* \"MyContract.sol\":60:2563  contract CarbonCredit {... */\n  mstore(0x40, 0x80)\n  callvalue\n  dup1\n  iszero\n  tag_1\n  jumpi\n  0x00\n  dup1\n  revert\ntag_1:\n  pop\n  dataSize(sub_0)\n  dup1\n  dataOffset(sub_0)\n  0x00\n  codecopy\n  0x00\n  return\nstop\n\nsub_0: assembly {\n        /* \"MyContract.sol\":60:2563  contract CarbonCredit {... */\n      mstore(0x40, 0x80)\n      callvalue\n      dup1\n      iszero\n      tag_1\n      jumpi\n      0x00\n      dup1\n      revert\n    tag_1:\n      pop\n      jumpi(tag_2, lt(calldatasize, 0x04))\n      shr(0xe0, calldataload(0x00))\n      dup1\n      0x036a1c22\n      eq\n      tag_3\n      jumpi\n      dup1\n      0x0df3a1e0\n      eq\n      tag_4\n      jumpi\n      dup1\n      0x29711737\n      eq\n      tag_5\n      jumpi\n      dup1\n      0xd3965ea6\n      eq\n      tag_6\n      jumpi\n      dup1\n      0xda304e4d\n      eq\n      tag_7\n      jumpi\n      dup1\n      0xfc00b798\n      eq\n      tag_8\n      jumpi\n    tag_2:\n      0x00\n      dup1\n      revert\n        /* \"MyContract.sol\":369:410  mapping(uint256 => Credit) public credits */\n    tag_3:\n      tag_9\n      0x04\n      dup1\n      calldatasize\n      sub\n      dup2\n      add\n      swap1\n      tag_10\n      swap2\n      swap1\n      tag_11\n      jump\t// in\n    tag_10:\n      tag_12\n      jump\t// in\n    tag_9:\n      mload(0x40)\n      tag_13\n      swap5\n      swap4\n      swap3\n      swap2\n      swap1\n      tag_14\n      jump\t// in\n    tag_13:\n      mload(0x40)\n      dup1\n      swap2\n      sub\n      swap1\n      return\n        /* \"MyContract.sol\":1288:1834  function transferCredit(uint256 creditId, address to) public {... */\n    tag_4:\n      tag_15\n      0x04\n      dup1\n      calldatasize\n      sub\n      dup2\n      add\n      swap1\n      tag_16\n      swap2\n      swap1\n      tag_17\n      jump\t// in\n    tag_16:\n      tag_18\n      jump\t// in\n    tag_15:\n      stop\n        /* \"MyContract.sol\":694:1230  function issueCredit(string memory description, uint256 amount) public {... */\n    tag_5:\n      tag_19\n      0x04\n      dup1\n      calldatasize\n      sub\n      dup2\n      add\n      swap1\n      tag_20\n      swap2\n      swap1\n      tag_21\n      jump\t// in\n    tag_20:\n      tag_22\n      jump\t// in\n    tag_19:\n      stop\n        /* \"MyContract.sol\":417:466  mapping(address => uint256[]) public ownerCredits */\n    tag_6:\n      tag_23\n      0x04\n      dup1\n      calldatasize\n      sub\n      dup2\n      add\n      swap1\n      tag_24\n      swap2\n      swap1\n      tag_25\n      jump\t// in\n    tag_24:\n      tag_26\n      jump\t// in\n    tag_23:\n      mload(0x40)\n      tag_27\n      swap2\n      swap1\n      tag_28\n      jump\t// in\n    tag_27:\n      mload(0x40)\n      dup1\n      swap2\n      sub\n      swap1\n      return\n        /* \"MyContract.sol\":1869:2087  function getCredit(uint256 creditId) public view returns (string memory, uint256, address) {... */\n    tag_7:\n      tag_29\n      0x04\n      dup1\n      calldatasize\n      sub\n      dup2\n      add\n      swap1\n      tag_30\n      swap2\n      swap1\n      tag_11\n      jump\t// in\n    tag_30:\n      tag_31\n      jump\t// in\n    tag_29:\n      mload(0x40)\n      tag_32\n      swap4\n      swap3\n      swap2\n      swap1\n      tag_33\n      jump\t// in\n    tag_32:\n      mload(0x40)\n      dup1\n      swap2\n      sub\n      swap1\n      return\n        /* \"MyContract.sol\":335:362  uint256 public nextCreditId */\n    tag_8:\n      tag_34\n      tag_35\n      jump\t// in\n    tag_34:\n      mload(0x40)\n      tag_36\n      swap2\n      swap1\n      tag_28\n      jump\t// in\n    tag_36:\n      mload(0x40)\n      dup1\n      swap2\n      sub\n      swap1\n      return\n        /* \"MyContract.sol\":369:410  mapping(uint256 => Credit) public credits */\n    tag_12:\n      mstore(0x20, 0x01)\n      dup1\n      0x00\n      mstore\n      keccak256(0x00, 0x40)\n      0x00\n      swap2\n      pop\n      swap1\n      pop\n      dup1\n      0x00\n      add\n      sload\n      swap1\n      dup1\n      0x01\n      add\n      dup1\n      sload\n      tag_37\n      swap1\n      tag_38\n      jump\t// in\n    tag_37:\n      dup1\n      0x1f\n      add\n      0x20\n      dup1\n      swap2\n      div\n      mul\n      0x20\n      add\n      mload(0x40)\n      swap1\n      dup2\n      add\n      0x40\n      mstore\n      dup1\n      swap3\n      swap2\n      swap1\n      dup2\n      dup2\n      mstore\n      0x20\n      add\n      dup3\n      dup1\n      sload\n      tag_39\n      swap1\n      tag_38\n      jump\t// in\n    tag_39:\n      dup1\n      iszero\n      tag_40\n      jumpi\n      dup1\n      0x1f\n      lt\n      tag_41\n      jumpi\n      0x0100\n      dup1\n      dup4\n      sload\n      div\n      mul\n      dup4\n      mstore\n      swap2\n      0x20\n      add\n      swap2\n      jump(tag_40)\n    tag_41:\n      dup3\n      add\n      swap2\n      swap1\n      0x00\n      mstore\n      keccak256(0x00, 0x20)\n      swap1\n    tag_42:\n      dup2\n      sload\n      dup2\n      mstore\n      swap1\n      0x01\n      add\n      swap1\n      0x20\n      add\n      dup1\n      dup4\n      gt\n      tag_42\n      jumpi\n      dup3\n      swap1\n      sub\n      0x1f\n      and\n      dup3\n      add\n      swap2\n    tag_40:\n      pop\n      pop\n      pop\n      pop\n      pop\n      swap1\n      dup1\n      0x02\n      add\n      sload\n      swap1\n      dup1\n      0x03\n      add\n      0x00\n      swap1\n      sload\n      swap1\n      0x0100\n      exp\n      swap1\n      div\n      0xffffffffffffffffffffffffffffffffffffffff\n      and\n      swap1\n      pop\n      dup5\n      jump\t// out\n        /* \"MyContract.sol\":1288:1834  function transferCredit(uint256 creditId, address to) public {... */\n    tag_18:\n        /* \"MyContract.sol\":1382:1383  0 */\n      0x00\n        /* \"MyContract.sol\":1368:1384  to != address(0) */\n      0xffffffffffffffffffffffffffffffffffffffff\n      and\n        /* \"MyContract.sol\":1368:1370  to */\n      dup2\n        /* \"MyContract.sol\":1368:1384  to != address(0) */\n      0xffffffffffffffffffffffffffffffffffffffff\n      and\n      sub\n        /* \"MyContract.sol\":1360:1404  require(to != address(0), \"Invalid address\") */\n      tag_44\n      jumpi\n      mload(0x40)\n      0x08c379a000000000000000000000000000000000000000000000000000000000\n      dup2\n      mstore\n      0x04\n      add\n      tag_45\n      swap1\n      tag_46\n      jump\t// in\n    tag_45:\n      mload(0x40)\n      dup1\n      swap2\n      sub\n      swap1\n      revert\n    tag_44:\n        /* \"MyContract.sol\":1415:1436  Credit storage credit */\n      0x00\n        /* \"MyContract.sol\":1439:1446  credits */\n      0x01\n        /* \"MyContract.sol\":1439:1456  credits[creditId] */\n      0x00\n        /* \"MyContract.sol\":1447:1455  creditId */\n      dup5\n        /* \"MyContract.sol\":1439:1456  credits[creditId] */\n      dup2\n      mstore\n      0x20\n      add\n      swap1\n      dup2\n      mstore\n      0x20\n      add\n      0x00\n      keccak256\n        /* \"MyContract.sol\":1415:1456  Credit storage credit = credits[creditId] */\n      swap1\n      pop\n        /* \"MyContract.sol\":1491:1501  msg.sender */\n      caller\n        /* \"MyContract.sol\":1475:1501  credit.owner == msg.sender */\n      0xffffffffffffffffffffffffffffffffffffffff\n      and\n        /* \"MyContract.sol\":1475:1481  credit */\n      dup2\n        /* \"MyContract.sol\":1475:1487  credit.owner */\n      0x03\n      add\n      0x00\n      swap1\n      sload\n      swap1\n      0x0100\n      exp\n      swap1\n      div\n      0xffffffffffffffffffffffffffffffffffffffff\n      and\n        /* \"MyContract.sol\":1475:1501  credit.owner == msg.sender */\n      0xffffffffffffffffffffffffffffffffffffffff\n      and\n      eq\n        /* \"MyContract.sol\":1467:1545  require(credit.owner == msg.sender, \"Only the owner can transfer this credit\") */\n      tag_47\n      jumpi\n      mload(0x40)\n      0x08c379a000000000000000000000000000000000000000000000000000000000\n      dup2\n      mstore\n      0x04\n      add\n      tag_48\n      swap1\n      tag_49\n      jump\t// in\n    tag_48:\n      mload(0x40)\n      dup1\n      swap2\n      sub\n      swap1\n      revert\n    tag_47:\n        /* \"MyContract.sol\":1610:1654  _removeCreditFromOwner(creditId, msg.sender) */\n      tag_50\n        /* \"MyContract.sol\":1633:1641  creditId */\n      dup4\n        /* \"MyContract.sol\":1643:1653  msg.sender */\n      caller\n        /* \"MyContract.sol\":1610:1632  _removeCreditFromOwner */\n      tag_51\n        /* \"MyContract.sol\":1610:1654  _removeCreditFromOwner(creditId, msg.sender) */\n      jump\t// in\n    tag_50:\n        /* \"MyContract.sol\":1721:1723  to */\n      dup2\n        /* \"MyContract.sol\":1706:1712  credit */\n      dup2\n        /* \"MyContract.sol\":1706:1718  credit.owner */\n      0x03\n      add\n      0x00\n        /* \"MyContract.sol\":1706:1723  credit.owner = to */\n      0x0100\n      exp\n      dup2\n      sload\n      dup2\n      0xffffffffffffffffffffffffffffffffffffffff\n      mul\n      not\n      and\n      swap1\n      dup4\n      0xffffffffffffffffffffffffffffffffffffffff\n      and\n      mul\n      or\n      swap1\n      sstore\n      pop\n        /* \"MyContract.sol\":1734:1746  ownerCredits */\n      0x02\n        /* \"MyContract.sol\":1734:1750  ownerCredits[to] */\n      0x00\n        /* \"MyContract.sol\":1747:1749  to */\n      dup4\n        /* \"MyContract.sol\":1734:1750  ownerCredits[to] */\n      0xffffffffffffffffffffffffffffffffffffffff\n      and\n      0xffffffffffffffffffffffffffffffffffffffff\n      and\n      dup2\n      mstore\n      0x20\n      add\n      swap1\n      dup2\n      mstore\n      0x20\n      add\n      0x00\n      keccak256\n        /* \"MyContract.sol\":1756:1764  creditId */\n      dup4\n        /* \"MyContract.sol\":1734:1765  ownerCredits[to].push(creditId) */\n      swap1\n      dup1\n      0x01\n      dup2\n      sload\n      add\n      dup1\n      dup3\n      sstore\n      dup1\n      swap2\n      pop\n      pop\n      0x01\n      swap1\n      sub\n      swap1\n      0x00\n      mstore\n      keccak256(0x00, 0x20)\n      add\n      0x00\n      swap1\n      swap2\n      swap1\n      swap2\n      swap1\n      swap2\n      pop\n      sstore\n        /* \"MyContract.sol\":1783:1826  CreditTransferred(creditId, msg.sender, to) */\n      0x7498bf43d4148a03a165d093fcadc813f1a344a5f983812a2777c01f4dc2f0d6\n        /* \"MyContract.sol\":1801:1809  creditId */\n      dup4\n        /* \"MyContract.sol\":1811:1821  msg.sender */\n      caller\n        /* \"MyContract.sol\":1823:1825  to */\n      dup5\n        /* \"MyContract.sol\":1783:1826  CreditTransferred(creditId, msg.sender, to) */\n      mload(0x40)\n      tag_53\n      swap4\n      swap3\n      swap2\n      swap1\n      tag_54\n      jump\t// in\n    tag_53:\n      mload(0x40)\n      dup1\n      swap2\n      sub\n      swap1\n      log1\n        /* \"MyContract.sol\":1349:1834  {... */\n      pop\n        /* \"MyContract.sol\":1288:1834  function transferCredit(uint256 creditId, address to) public {... */\n      pop\n      pop\n      jump\t// out\n        /* \"MyContract.sol\":694:1230  function issueCredit(string memory description, uint256 amount) public {... */\n    tag_22:\n        /* \"MyContract.sol\":793:794  0 */\n      0x00\n        /* \"MyContract.sol\":784:790  amount */\n      dup2\n        /* \"MyContract.sol\":784:794  amount > 0 */\n      gt\n        /* \"MyContract.sol\":776:828  require(amount > 0, \"Amount must be greater than 0\") */\n      tag_56\n      jumpi\n      mload(0x40)\n      0x08c379a000000000000000000000000000000000000000000000000000000000\n      dup2\n      mstore\n      0x04\n      add\n      tag_57\n      swap1\n      tag_58\n      jump\t// in\n    tag_57:\n      mload(0x40)\n      dup1\n      swap2\n      sub\n      swap1\n      revert\n    tag_56:\n        /* \"MyContract.sol\":841:857  uint256 creditId */\n      0x00\n        /* \"MyContract.sol\":860:872  nextCreditId */\n      dup1\n      0x00\n        /* \"MyContract.sol\":860:874  nextCreditId++ */\n      dup2\n      sload\n      dup1\n      swap3\n      swap2\n      swap1\n      tag_59\n      swap1\n      tag_60\n      jump\t// in\n    tag_59:\n      swap2\n      swap1\n      pop\n      sstore\n        /* \"MyContract.sol\":841:874  uint256 creditId = nextCreditId++ */\n      swap1\n      pop\n        /* \"MyContract.sol\":885:908  Credit memory newCredit */\n      0x00\n        /* \"MyContract.sol\":911:1057  Credit({... */\n      mload(0x40)\n      dup1\n      0x80\n      add\n      0x40\n      mstore\n      dup1\n        /* \"MyContract.sol\":937:945  creditId */\n      dup4\n        /* \"MyContract.sol\":911:1057  Credit({... */\n      dup2\n      mstore\n      0x20\n      add\n        /* \"MyContract.sol\":973:984  description */\n      dup6\n        /* \"MyContract.sol\":911:1057  Credit({... */\n      dup2\n      mstore\n      0x20\n      add\n        /* \"MyContract.sol\":1007:1013  amount */\n      dup5\n        /* \"MyContract.sol\":911:1057  Credit({... */\n      dup2\n      mstore\n      0x20\n      add\n        /* \"MyContract.sol\":1035:1045  msg.sender */\n      caller\n        /* \"MyContract.sol\":911:1057  Credit({... */\n      0xffffffffffffffffffffffffffffffffffffffff\n      and\n      dup2\n      mstore\n      pop\n        /* \"MyContract.sol\":885:1057  Credit memory newCredit = Credit({... */\n      swap1\n      pop\n        /* \"MyContract.sol\":1090:1099  newCredit */\n      dup1\n        /* \"MyContract.sol\":1070:1077  credits */\n      0x01\n        /* \"MyContract.sol\":1070:1087  credits[creditId] */\n      0x00\n        /* \"MyContract.sol\":1078:1086  creditId */\n      dup5\n        /* \"MyContract.sol\":1070:1087  credits[creditId] */\n      dup2\n      mstore\n      0x20\n      add\n      swap1\n      dup2\n      mstore\n      0x20\n      add\n      0x00\n      keccak256\n        /* \"MyContract.sol\":1070:1099  credits[creditId] = newCredit */\n      0x00\n      dup3\n      add\n      mload\n      dup2\n      0x00\n      add\n      sstore\n      0x20\n      dup3\n      add\n      mload\n      dup2\n      0x01\n      add\n      swap1\n      dup2\n      tag_61\n      swap2\n      swap1\n      tag_62\n      jump\t// in\n    tag_61:\n      pop\n      0x40\n      dup3\n      add\n      mload\n      dup2\n      0x02\n      add\n      sstore\n      0x60\n      dup3\n      add\n      mload\n      dup2\n      0x03\n      add\n      exp(0x0100, 0x00)\n      dup2\n      sload\n      dup2\n      0xffffffffffffffffffffffffffffffffffffffff\n      mul\n      not\n      and\n      swap1\n      dup4\n      0xffffffffffffffffffffffffffffffffffffffff\n      and\n      mul\n      or\n      swap1\n      sstore\n      pop\n      swap1\n      pop\n      pop\n        /* \"MyContract.sol\":1110:1122  ownerCredits */\n      0x02\n        /* \"MyContract.sol\":1110:1134  ownerCredits[msg.sender] */\n      0x00\n        /* \"MyContract.sol\":1123:1133  msg.sender */\n      caller\n        /* \"MyContract.sol\":1110:1134  ownerCredits[msg.sender] */\n      0xffffffffffffffffffffffffffffffffffffffff\n      and\n      0xffffffffffffffffffffffffffffffffffffffff\n      and\n      dup2\n      mstore\n      0x20\n      add\n      swap1\n      dup2\n      mstore\n      0x20\n      add\n      0x00\n      keccak256\n        /* \"MyContract.sol\":1140:1148  creditId */\n      dup3\n        /* \"MyContract.sol\":1110:1149  ownerCredits[msg.sender].push(creditId) */\n      swap1\n      dup1\n      0x01\n      dup2\n      sload\n      add\n      dup1\n      dup3\n      sstore\n      dup1\n      swap2\n      pop\n      pop\n      0x01\n      swap1\n      sub\n      swap1\n      0x00\n      mstore\n      keccak256(0x00, 0x20)\n      add\n      0x00\n      swap1\n      swap2\n      swap1\n      swap2\n      swap1\n      swap2\n      pop\n      sstore\n        /* \"MyContract.sol\":1167:1222  CreditIssued(creditId, msg.sender, amount, description) */\n      0x81c007c8e8af5438dc71854c32794fc2b320b9d285fc59b2c092fca4e950c199\n        /* \"MyContract.sol\":1180:1188  creditId */\n      dup3\n        /* \"MyContract.sol\":1190:1200  msg.sender */\n      caller\n        /* \"MyContract.sol\":1202:1208  amount */\n      dup6\n        /* \"MyContract.sol\":1210:1221  description */\n      dup8\n        /* \"MyContract.sol\":1167:1222  CreditIssued(creditId, msg.sender, amount, description) */\n      mload(0x40)\n      tag_64\n      swap5\n      swap4\n      swap3\n      swap2\n      swap1\n      tag_65\n      jump\t// in\n    tag_64:\n      mload(0x40)\n      dup1\n      swap2\n      sub\n      swap1\n      log1\n        /* \"MyContract.sol\":765:1230  {... */\n      pop\n      pop\n        /* \"MyContract.sol\":694:1230  function issueCredit(string memory description, uint256 amount) public {... */\n      pop\n      pop\n      jump\t// out\n        /* \"MyContract.sol\":417:466  mapping(address => uint256[]) public ownerCredits */\n    tag_26:\n      mstore(0x20, 0x02)\n      dup2\n      0x00\n      mstore\n      keccak256(0x00, 0x40)\n      dup2\n      dup2\n      sload\n      dup2\n      lt\n      tag_66\n      jumpi\n      0x00\n      dup1\n      revert\n    tag_66:\n      swap1\n      0x00\n      mstore\n      keccak256(0x00, 0x20)\n      add\n      0x00\n      swap2\n      pop\n      swap2\n      pop\n      pop\n      sload\n      dup2\n      jump\t// out\n        /* \"MyContract.sol\":1869:2087  function getCredit(uint256 creditId) public view returns (string memory, uint256, address) {... */\n    tag_31:\n        /* \"MyContract.sol\":1927:1940  string memory */\n      0x60\n        /* \"MyContract.sol\":1942:1949  uint256 */\n      0x00\n        /* \"MyContract.sol\":1951:1958  address */\n      dup1\n        /* \"MyContract.sol\":1971:1992  Credit storage credit */\n      0x00\n        /* \"MyContract.sol\":1995:2002  credits */\n      0x01\n        /* \"MyContract.sol\":1995:2012  credits[creditId] */\n      0x00\n        /* \"MyContract.sol\":2003:2011  creditId */\n      dup7\n        /* \"MyContract.sol\":1995:2012  credits[creditId] */\n      dup2\n      mstore\n      0x20\n      add\n      swap1\n      dup2\n      mstore\n      0x20\n      add\n      0x00\n      keccak256\n        /* \"MyContract.sol\":1971:2012  Credit storage credit = credits[creditId] */\n      swap1\n      pop\n        /* \"MyContract.sol\":2031:2037  credit */\n      dup1\n        /* \"MyContract.sol\":2031:2049  credit.description */\n      0x01\n      add\n        /* \"MyContract.sol\":2051:2057  credit */\n      dup2\n        /* \"MyContract.sol\":2051:2064  credit.amount */\n      0x02\n      add\n      sload\n        /* \"MyContract.sol\":2066:2072  credit */\n      dup3\n        /* \"MyContract.sol\":2066:2078  credit.owner */\n      0x03\n      add\n      0x00\n      swap1\n      sload\n      swap1\n      0x0100\n      exp\n      swap1\n      div\n      0xffffffffffffffffffffffffffffffffffffffff\n      and\n        /* \"MyContract.sol\":2023:2079  return (credit.description, credit.amount, credit.owner) */\n      dup3\n      dup1\n      sload\n      tag_69\n      swap1\n      tag_38\n      jump\t// in\n    tag_69:\n      dup1\n      0x1f\n      add\n      0x20\n      dup1\n      swap2\n      div\n      mul\n      0x20\n      add\n      mload(0x40)\n      swap1\n      dup2\n      add\n      0x40\n      mstore\n      dup1\n      swap3\n      swap2\n      swap1\n      dup2\n      dup2\n      mstore\n      0x20\n      add\n      dup3\n      dup1\n      sload\n      tag_70\n      swap1\n      tag_38\n      jump\t// in\n    tag_70:\n      dup1\n      iszero\n      tag_71\n      jumpi\n      dup1\n      0x1f\n      lt\n      tag_72\n      jumpi\n      0x0100\n      dup1\n      dup4\n      sload\n      div\n      mul\n      dup4\n      mstore\n      swap2\n      0x20\n      add\n      swap2\n      jump(tag_71)\n    tag_72:\n      dup3\n      add\n      swap2\n      swap1\n      0x00\n      mstore\n      keccak256(0x00, 0x20)\n      swap1\n    tag_73:\n      dup2\n      sload\n      dup2\n      mstore\n      swap1\n      0x01\n      add\n      swap1\n      0x20\n      add\n      dup1\n      dup4\n      gt\n      tag_73\n      jumpi\n      dup3\n      swap1\n      sub\n      0x1f\n      and\n      dup3\n      add\n      swap2\n    tag_71:\n      pop\n      pop\n      pop\n      pop\n      pop\n      swap3\n      pop\n      swap4\n      pop\n      swap4\n      pop\n      swap4\n      pop\n      pop\n        /* \"MyContract.sol\":1869:2087  function getCredit(uint256 creditId) public view returns (string memory, uint256, address) {... */\n      swap2\n      swap4\n      swap1\n      swap3\n      pop\n      jump\t// out\n        /* \"MyContract.sol\":335:362  uint256 public nextCreditId */\n    tag_35:\n      sload(0x00)\n      dup2\n      jump\t// out\n        /* \"MyContract.sol\":2159:2560  function _removeCreditFromOwner(uint256 creditId, address owner) internal {... */\n    tag_51:\n        /* \"MyContract.sol\":2244:2272  uint256[] storage creditList */\n      0x00\n        /* \"MyContract.sol\":2275:2287  ownerCredits */\n      0x02\n        /* \"MyContract.sol\":2275:2294  ownerCredits[owner] */\n      0x00\n        /* \"MyContract.sol\":2288:2293  owner */\n      dup4\n        /* \"MyContract.sol\":2275:2294  ownerCredits[owner] */\n      0xffffffffffffffffffffffffffffffffffffffff\n      and\n      0xffffffffffffffffffffffffffffffffffffffff\n      and\n      dup2\n      mstore\n      0x20\n      add\n      swap1\n      dup2\n      mstore\n      0x20\n      add\n      0x00\n      keccak256\n        /* \"MyContract.sol\":2244:2294  uint256[] storage creditList = ownerCredits[owner] */\n      swap1\n      pop\n        /* \"MyContract.sol\":2310:2319  uint256 i */\n      0x00\n        /* \"MyContract.sol\":2305:2553  for (uint256 i = 0; i < creditList.length; i++) {... */\n    tag_75:\n        /* \"MyContract.sol\":2329:2339  creditList */\n      dup2\n        /* \"MyContract.sol\":2329:2346  creditList.length */\n      dup1\n      sload\n      swap1\n      pop\n        /* \"MyContract.sol\":2325:2326  i */\n      dup2\n        /* \"MyContract.sol\":2325:2346  i < creditList.length */\n      lt\n        /* \"MyContract.sol\":2305:2553  for (uint256 i = 0; i < creditList.length; i++) {... */\n      iszero\n      tag_76\n      jumpi\n        /* \"MyContract.sol\":2389:2397  creditId */\n      dup4\n        /* \"MyContract.sol\":2372:2382  creditList */\n      dup3\n        /* \"MyContract.sol\":2383:2384  i */\n      dup3\n        /* \"MyContract.sol\":2372:2385  creditList[i] */\n      dup2\n      sload\n      dup2\n      lt\n      tag_78\n      jumpi\n      tag_79\n      tag_80\n      jump\t// in\n    tag_79:\n    tag_78:\n      swap1\n      0x00\n      mstore\n      keccak256(0x00, 0x20)\n      add\n      sload\n        /* \"MyContract.sol\":2372:2397  creditList[i] == creditId */\n      sub\n        /* \"MyContract.sol\":2368:2542  if (creditList[i] == creditId) {... */\n      tag_82\n      jumpi\n        /* \"MyContract.sol\":2434:2444  creditList */\n      dup2\n        /* \"MyContract.sol\":2465:2466  1 */\n      0x01\n        /* \"MyContract.sol\":2445:2455  creditList */\n      dup4\n        /* \"MyContract.sol\":2445:2462  creditList.length */\n      dup1\n      sload\n      swap1\n      pop\n        /* \"MyContract.sol\":2445:2466  creditList.length - 1 */\n      tag_83\n      swap2\n      swap1\n      tag_84\n      jump\t// in\n    tag_83:\n        /* \"MyContract.sol\":2434:2467  creditList[creditList.length - 1] */\n      dup2\n      sload\n      dup2\n      lt\n      tag_85\n      jumpi\n      tag_86\n      tag_80\n      jump\t// in\n    tag_86:\n    tag_85:\n      swap1\n      0x00\n      mstore\n      keccak256(0x00, 0x20)\n      add\n      sload\n        /* \"MyContract.sol\":2418:2428  creditList */\n      dup3\n        /* \"MyContract.sol\":2429:2430  i */\n      dup3\n        /* \"MyContract.sol\":2418:2431  creditList[i] */\n      dup2\n      sload\n      dup2\n      lt\n      tag_88\n      jumpi\n      tag_89\n      tag_80\n      jump\t// in\n    tag_89:\n    tag_88:\n      swap1\n      0x00\n      mstore\n      keccak256(0x00, 0x20)\n      add\n        /* \"MyContract.sol\":2418:2467  creditList[i] = creditList[creditList.length - 1] */\n      dup2\n      swap1\n      sstore\n      pop\n        /* \"MyContract.sol\":2486:2496  creditList */\n      dup2\n        /* \"MyContract.sol\":2486:2502  creditList.pop() */\n      dup1\n      sload\n      dup1\n      tag_91\n      jumpi\n      tag_92\n      tag_93\n      jump\t// in\n    tag_92:\n    tag_91:\n      0x01\n      swap1\n      sub\n      dup2\n      dup2\n      swap1\n      0x00\n      mstore\n      keccak256(0x00, 0x20)\n      add\n      0x00\n      swap1\n      sstore\n      swap1\n      sstore\n        /* \"MyContract.sol\":2521:2526  break */\n      jump(tag_76)\n        /* \"MyContract.sol\":2368:2542  if (creditList[i] == creditId) {... */\n    tag_82:\n        /* \"MyContract.sol\":2348:2351  i++ */\n      dup1\n      dup1\n      0x01\n      add\n      swap2\n      pop\n      pop\n        /* \"MyContract.sol\":2305:2553  for (uint256 i = 0; i < creditList.length; i++) {... */\n      jump(tag_75)\n    tag_76:\n      pop\n        /* \"MyContract.sol\":2233:2560  {... */\n      pop\n        /* \"MyContract.sol\":2159:2560  function _removeCreditFromOwner(uint256 creditId, address owner) internal {... */\n      pop\n      pop\n      jump\t// out\n        /* \"#utility.yul\":7:82   */\n    tag_95:\n        /* \"#utility.yul\":40:46   */\n      0x00\n        /* \"#utility.yul\":73:75   */\n      0x40\n        /* \"#utility.yul\":67:76   */\n      mload\n        /* \"#utility.yul\":57:76   */\n      swap1\n      pop\n        /* \"#utility.yul\":7:82   */\n      swap1\n      jump\t// out\n        /* \"#utility.yul\":88:205   */\n    tag_96:\n        /* \"#utility.yul\":197:198   */\n      0x00\n        /* \"#utility.yul\":194:195   */\n      dup1\n        /* \"#utility.yul\":187:199   */\n      revert\n        /* \"#utility.yul\":211:328   */\n    tag_97:\n        /* \"#utility.yul\":320:321   */\n      0x00\n        /* \"#utility.yul\":317:318   */\n      dup1\n        /* \"#utility.yul\":310:322   */\n      revert\n        /* \"#utility.yul\":334:411   */\n    tag_98:\n        /* \"#utility.yul\":371:378   */\n      0x00\n        /* \"#utility.yul\":400:405   */\n      dup2\n        /* \"#utility.yul\":389:405   */\n      swap1\n      pop\n        /* \"#utility.yul\":334:411   */\n      swap2\n      swap1\n      pop\n      jump\t// out\n        /* \"#utility.yul\":417:539   */\n    tag_99:\n        /* \"#utility.yul\":490:514   */\n      tag_150\n        /* \"#utility.yul\":508:513   */\n      dup2\n        /* \"#utility.yul\":490:514   */\n      tag_98\n      jump\t// in\n    tag_150:\n        /* \"#utility.yul\":483:488   */\n      dup2\n        /* \"#utility.yul\":480:515   */\n      eq\n        /* \"#utility.yul\":470:533   */\n      tag_151\n      jumpi\n        /* \"#utility.yul\":529:530   */\n      0x00\n        /* \"#utility.yul\":526:527   */\n      dup1\n        /* \"#utility.yul\":519:531   */\n      revert\n        /* \"#utility.yul\":470:533   */\n    tag_151:\n        /* \"#utility.yul\":417:539   */\n      pop\n      jump\t// out\n        /* \"#utility.yul\":545:684   */\n    tag_100:\n        /* \"#utility.yul\":591:596   */\n      0x00\n        /* \"#utility.yul\":629:635   */\n      dup2\n        /* \"#utility.yul\":616:636   */\n      calldataload\n        /* \"#utility.yul\":607:636   */\n      swap1\n      pop\n        /* \"#utility.yul\":645:678   */\n      tag_153\n        /* \"#utility.yul\":672:677   */\n      dup2\n        /* \"#utility.yul\":645:678   */\n      tag_99\n      jump\t// in\n    tag_153:\n        /* \"#utility.yul\":545:684   */\n      swap3\n      swap2\n      pop\n      pop\n      jump\t// out\n        /* \"#utility.yul\":690:1019   */\n    tag_11:\n        /* \"#utility.yul\":749:755   */\n      0x00\n        /* \"#utility.yul\":798:800   */\n      0x20\n        /* \"#utility.yul\":786:795   */\n      dup3\n        /* \"#utility.yul\":777:784   */\n      dup5\n        /* \"#utility.yul\":773:796   */\n      sub\n        /* \"#utility.yul\":769:801   */\n      slt\n        /* \"#utility.yul\":766:885   */\n      iszero\n      tag_155\n      jumpi\n        /* \"#utility.yul\":804:883   */\n      tag_156\n      tag_96\n      jump\t// in\n    tag_156:\n        /* \"#utility.yul\":766:885   */\n    tag_155:\n        /* \"#utility.yul\":924:925   */\n      0x00\n        /* \"#utility.yul\":949:1002   */\n      tag_157\n        /* \"#utility.yul\":994:1001   */\n      dup5\n        /* \"#utility.yul\":985:991   */\n      dup3\n        /* \"#utility.yul\":974:983   */\n      dup6\n        /* \"#utility.yul\":970:992   */\n      add\n        /* \"#utility.yul\":949:1002   */\n      tag_100\n      jump\t// in\n    tag_157:\n        /* \"#utility.yul\":939:1002   */\n      swap2\n      pop\n        /* \"#utility.yul\":895:1012   */\n      pop\n        /* \"#utility.yul\":690:1019   */\n      swap3\n      swap2\n      pop\n      pop\n      jump\t// out\n        /* \"#utility.yul\":1025:1143   */\n    tag_101:\n        /* \"#utility.yul\":1112:1136   */\n      tag_159\n        /* \"#utility.yul\":1130:1135   */\n      dup2\n        /* \"#utility.yul\":1112:1136   */\n      tag_98\n      jump\t// in\n    tag_159:\n        /* \"#utility.yul\":1107:1110   */\n      dup3\n        /* \"#utility.yul\":1100:1137   */\n      mstore\n        /* \"#utility.yul\":1025:1143   */\n      pop\n      pop\n      jump\t// out\n        /* \"#utility.yul\":1149:1248   */\n    tag_102:\n        /* \"#utility.yul\":1201:1207   */\n      0x00\n        /* \"#utility.yul\":1235:1240   */\n      dup2\n        /* \"#utility.yul\":1229:1241   */\n      mload\n        /* \"#utility.yul\":1219:1241   */\n      swap1\n      pop\n        /* \"#utility.yul\":1149:1248   */\n      swap2\n      swap1\n      pop\n      jump\t// out\n        /* \"#utility.yul\":1254:1423   */\n    tag_103:\n        /* \"#utility.yul\":1338:1349   */\n      0x00\n        /* \"#utility.yul\":1372:1378   */\n      dup3\n        /* \"#utility.yul\":1367:1370   */\n      dup3\n        /* \"#utility.yul\":1360:1379   */\n      mstore\n        /* \"#utility.yul\":1412:1416   */\n      0x20\n        /* \"#utility.yul\":1407:1410   */\n      dup3\n        /* \"#utility.yul\":1403:1417   */\n      add\n        /* \"#utility.yul\":1388:1417   */\n      swap1\n      pop\n        /* \"#utility.yul\":1254:1423   */\n      swap3\n      swap2\n      pop\n      pop\n      jump\t// out\n        /* \"#utility.yul\":1429:1568   */\n    tag_104:\n        /* \"#utility.yul\":1518:1524   */\n      dup3\n        /* \"#utility.yul\":1513:1516   */\n      dup2\n        /* \"#utility.yul\":1508:1511   */\n      dup4\n        /* \"#utility.yul\":1502:1525   */\n      mcopy\n        /* \"#utility.yul\":1559:1560   */\n      0x00\n        /* \"#utility.yul\":1550:1556   */\n      dup4\n        /* \"#utility.yul\":1545:1548   */\n      dup4\n        /* \"#utility.yul\":1541:1557   */\n      add\n        /* \"#utility.yul\":1534:1561   */\n      mstore\n        /* \"#utility.yul\":1429:1568   */\n      pop\n      pop\n      pop\n      jump\t// out\n        /* \"#utility.yul\":1574:1676   */\n    tag_105:\n        /* \"#utility.yul\":1615:1621   */\n      0x00\n        /* \"#utility.yul\":1666:1668   */\n      0x1f\n        /* \"#utility.yul\":1662:1669   */\n      not\n        /* \"#utility.yul\":1657:1659   */\n      0x1f\n        /* \"#utility.yul\":1650:1655   */\n      dup4\n        /* \"#utility.yul\":1646:1660   */\n      add\n        /* \"#utility.yul\":1642:1670   */\n      and\n        /* \"#utility.yul\":1632:1670   */\n      swap1\n      pop\n        /* \"#utility.yul\":1574:1676   */\n      swap2\n      swap1\n      pop\n      jump\t// out\n        /* \"#utility.yul\":1682:2059   */\n    tag_106:\n        /* \"#utility.yul\":1770:1773   */\n      0x00\n        /* \"#utility.yul\":1798:1837   */\n      tag_165\n        /* \"#utility.yul\":1831:1836   */\n      dup3\n        /* \"#utility.yul\":1798:1837   */\n      tag_102\n      jump\t// in\n    tag_165:\n        /* \"#utility.yul\":1853:1924   */\n      tag_166\n        /* \"#utility.yul\":1917:1923   */\n      dup2\n        /* \"#utility.yul\":1912:1915   */\n      dup6\n        /* \"#utility.yul\":1853:1924   */\n      tag_103\n      jump\t// in\n    tag_166:\n        /* \"#utility.yul\":1846:1924   */\n      swap4\n      pop\n        /* \"#utility.yul\":1933:1998   */\n      tag_167\n        /* \"#utility.yul\":1991:1997   */\n      dup2\n        /* \"#utility.yul\":1986:1989   */\n      dup6\n        /* \"#utility.yul\":1979:1983   */\n      0x20\n        /* \"#utility.yul\":1972:1977   */\n      dup7\n        /* \"#utility.yul\":1968:1984   */\n      add\n        /* \"#utility.yul\":1933:1998   */\n      tag_104\n      jump\t// in\n    tag_167:\n        /* \"#utility.yul\":2023:2052   */\n      tag_168\n        /* \"#utility.yul\":2045:2051   */\n      dup2\n        /* \"#utility.yul\":2023:2052   */\n      tag_105\n      jump\t// in\n    tag_168:\n        /* \"#utility.yul\":2018:2021   */\n      dup5\n        /* \"#utility.yul\":2014:2053   */\n      add\n        /* \"#utility.yul\":2007:2053   */\n      swap2\n      pop\n        /* \"#utility.yul\":1774:2059   */\n      pop\n        /* \"#utility.yul\":1682:2059   */\n      swap3\n      swap2\n      pop\n      pop\n      jump\t// out\n        /* \"#utility.yul\":2065:2191   */\n    tag_107:\n        /* \"#utility.yul\":2102:2109   */\n      0x00\n        /* \"#utility.yul\":2142:2184   */\n      0xffffffffffffffffffffffffffffffffffffffff\n        /* \"#utility.yul\":2135:2140   */\n      dup3\n        /* \"#utility.yul\":2131:2185   */\n      and\n        /* \"#utility.yul\":2120:2185   */\n      swap1\n      pop\n        /* \"#utility.yul\":2065:2191   */\n      swap2\n      swap1\n      pop\n      jump\t// out\n        /* \"#utility.yul\":2197:2293   */\n    tag_108:\n        /* \"#utility.yul\":2234:2241   */\n      0x00\n        /* \"#utility.yul\":2263:2287   */\n      tag_171\n        /* \"#utility.yul\":2281:2286   */\n      dup3\n        /* \"#utility.yul\":2263:2287   */\n      tag_107\n      jump\t// in\n    tag_171:\n        /* \"#utility.yul\":2252:2287   */\n      swap1\n      pop\n        /* \"#utility.yul\":2197:2293   */\n      swap2\n      swap1\n      pop\n      jump\t// out\n        /* \"#utility.yul\":2299:2417   */\n    tag_109:\n        /* \"#utility.yul\":2386:2410   */\n      tag_173\n        /* \"#utility.yul\":2404:2409   */\n      dup2\n        /* \"#utility.yul\":2386:2410   */\n      tag_108\n      jump\t// in\n    tag_173:\n        /* \"#utility.yul\":2381:2384   */\n      dup3\n        /* \"#utility.yul\":2374:2411   */\n      mstore\n        /* \"#utility.yul\":2299:2417   */\n      pop\n      pop\n      jump\t// out\n        /* \"#utility.yul\":2423:3067   */\n    tag_14:\n        /* \"#utility.yul\":2620:2624   */\n      0x00\n        /* \"#utility.yul\":2658:2661   */\n      0x80\n        /* \"#utility.yul\":2647:2656   */\n      dup3\n        /* \"#utility.yul\":2643:2662   */\n      add\n        /* \"#utility.yul\":2635:2662   */\n      swap1\n      pop\n        /* \"#utility.yul\":2672:2743   */\n      tag_175\n        /* \"#utility.yul\":2740:2741   */\n      0x00\n        /* \"#utility.yul\":2729:2738   */\n      dup4\n        /* \"#utility.yul\":2725:2742   */\n      add\n        /* \"#utility.yul\":2716:2722   */\n      dup8\n        /* \"#utility.yul\":2672:2743   */\n      tag_101\n      jump\t// in\n    tag_175:\n        /* \"#utility.yul\":2790:2799   */\n      dup2\n        /* \"#utility.yul\":2784:2788   */\n      dup2\n        /* \"#utility.yul\":2780:2800   */\n      sub\n        /* \"#utility.yul\":2775:2777   */\n      0x20\n        /* \"#utility.yul\":2764:2773   */\n      dup4\n        /* \"#utility.yul\":2760:2778   */\n      add\n        /* \"#utility.yul\":2753:2801   */\n      mstore\n        /* \"#utility.yul\":2818:2896   */\n      tag_176\n        /* \"#utility.yul\":2891:2895   */\n      dup2\n        /* \"#utility.yul\":2882:2888   */\n      dup7\n        /* \"#utility.yul\":2818:2896   */\n      tag_106\n      jump\t// in\n    tag_176:\n        /* \"#utility.yul\":2810:2896   */\n      swap1\n      pop\n        /* \"#utility.yul\":2906:2978   */\n      tag_177\n        /* \"#utility.yul\":2974:2976   */\n      0x40\n        /* \"#utility.yul\":2963:2972   */\n      dup4\n        /* \"#utility.yul\":2959:2977   */\n      add\n        /* \"#utility.yul\":2950:2956   */\n      dup6\n        /* \"#utility.yul\":2906:2978   */\n      tag_101\n      jump\t// in\n    tag_177:\n        /* \"#utility.yul\":2988:3060   */\n      tag_178\n        /* \"#utility.yul\":3056:3058   */\n      0x60\n        /* \"#utility.yul\":3045:3054   */\n      dup4\n        /* \"#utility.yul\":3041:3059   */\n      add\n        /* \"#utility.yul\":3032:3038   */\n      dup5\n        /* \"#utility.yul\":2988:3060   */\n      tag_109\n      jump\t// in\n    tag_178:\n        /* \"#utility.yul\":2423:3067   */\n      swap6\n      swap5\n      pop\n      pop\n      pop\n      pop\n      pop\n      jump\t// out\n        /* \"#utility.yul\":3073:3195   */\n    tag_110:\n        /* \"#utility.yul\":3146:3170   */\n      tag_180\n        /* \"#utility.yul\":3164:3169   */\n      dup2\n        /* \"#utility.yul\":3146:3170   */\n      tag_108\n      jump\t// in\n    tag_180:\n        /* \"#utility.yul\":3139:3144   */\n      dup2\n        /* \"#utility.yul\":3136:3171   */\n      eq\n        /* \"#utility.yul\":3126:3189   */\n      tag_181\n      jumpi\n        /* \"#utility.yul\":3185:3186   */\n      0x00\n        /* \"#utility.yul\":3182:3183   */\n      dup1\n        /* \"#utility.yul\":3175:3187   */\n      revert\n        /* \"#utility.yul\":3126:3189   */\n    tag_181:\n        /* \"#utility.yul\":3073:3195   */\n      pop\n      jump\t// out\n        /* \"#utility.yul\":3201:3340   */\n    tag_111:\n        /* \"#utility.yul\":3247:3252   */\n      0x00\n        /* \"#utility.yul\":3285:3291   */\n      dup2\n        /* \"#utility.yul\":3272:3292   */\n      calldataload\n        /* \"#utility.yul\":3263:3292   */\n      swap1\n      pop\n        /* \"#utility.yul\":3301:3334   */\n      tag_183\n        /* \"#utility.yul\":3328:3333   */\n      dup2\n        /* \"#utility.yul\":3301:3334   */\n      tag_110\n      jump\t// in\n    tag_183:\n        /* \"#utility.yul\":3201:3340   */\n      swap3\n      swap2\n      pop\n      pop\n      jump\t// out\n        /* \"#utility.yul\":3346:3820   */\n    tag_17:\n        /* \"#utility.yul\":3414:3420   */\n      0x00\n        /* \"#utility.yul\":3422:3428   */\n      dup1\n        /* \"#utility.yul\":3471:3473   */\n      0x40\n        /* \"#utility.yul\":3459:3468   */\n      dup4\n        /* \"#utility.yul\":3450:3457   */\n      dup6\n        /* \"#utility.yul\":3446:3469   */\n      sub\n        /* \"#utility.yul\":3442:3474   */\n      slt\n        /* \"#utility.yul\":3439:3558   */\n      iszero\n      tag_185\n      jumpi\n        /* \"#utility.yul\":3477:3556   */\n      tag_186\n      tag_96\n      jump\t// in\n    tag_186:\n        /* \"#utility.yul\":3439:3558   */\n    tag_185:\n        /* \"#utility.yul\":3597:3598   */\n      0x00\n        /* \"#utility.yul\":3622:3675   */\n      tag_187\n        /* \"#utility.yul\":3667:3674   */\n      dup6\n        /* \"#utility.yul\":3658:3664   */\n      dup3\n        /* \"#utility.yul\":3647:3656   */\n      dup7\n        /* \"#utility.yul\":3643:3665   */\n      add\n        /* \"#utility.yul\":3622:3675   */\n      tag_100\n      jump\t// in\n    tag_187:\n        /* \"#utility.yul\":3612:3675   */\n      swap3\n      pop\n        /* \"#utility.yul\":3568:3685   */\n      pop\n        /* \"#utility.yul\":3724:3726   */\n      0x20\n        /* \"#utility.yul\":3750:3803   */\n      tag_188\n        /* \"#utility.yul\":3795:3802   */\n      dup6\n        /* \"#utility.yul\":3786:3792   */\n      dup3\n        /* \"#utility.yul\":3775:3784   */\n      dup7\n        /* \"#utility.yul\":3771:3793   */\n      add\n        /* \"#utility.yul\":3750:3803   */\n      tag_111\n      jump\t// in\n    tag_188:\n        /* \"#utility.yul\":3740:3803   */\n      swap2\n      pop\n        /* \"#utility.yul\":3695:3813   */\n      pop\n        /* \"#utility.yul\":3346:3820   */\n      swap3\n      pop\n      swap3\n      swap1\n      pop\n      jump\t// out\n        /* \"#utility.yul\":3826:3943   */\n    tag_112:\n        /* \"#utility.yul\":3935:3936   */\n      0x00\n        /* \"#utility.yul\":3932:3933   */\n      dup1\n        /* \"#utility.yul\":3925:3937   */\n      revert\n        /* \"#utility.yul\":3949:4066   */\n    tag_113:\n        /* \"#utility.yul\":4058:4059   */\n      0x00\n        /* \"#utility.yul\":4055:4056   */\n      dup1\n        /* \"#utility.yul\":4048:4060   */\n      revert\n        /* \"#utility.yul\":4072:4252   */\n    tag_114:\n        /* \"#utility.yul\":4120:4197   */\n      0x4e487b7100000000000000000000000000000000000000000000000000000000\n        /* \"#utility.yul\":4117:4118   */\n      0x00\n        /* \"#utility.yul\":4110:4198   */\n      mstore\n        /* \"#utility.yul\":4217:4221   */\n      0x41\n        /* \"#utility.yul\":4214:4215   */\n      0x04\n        /* \"#utility.yul\":4207:4222   */\n      mstore\n        /* \"#utility.yul\":4241:4245   */\n      0x24\n        /* \"#utility.yul\":4238:4239   */\n      0x00\n        /* \"#utility.yul\":4231:4246   */\n      revert\n        /* \"#utility.yul\":4258:4539   */\n    tag_115:\n        /* \"#utility.yul\":4341:4368   */\n      tag_193\n        /* \"#utility.yul\":4363:4367   */\n      dup3\n        /* \"#utility.yul\":4341:4368   */\n      tag_105\n      jump\t// in\n    tag_193:\n        /* \"#utility.yul\":4333:4339   */\n      dup2\n        /* \"#utility.yul\":4329:4369   */\n      add\n        /* \"#utility.yul\":4471:4477   */\n      dup2\n        /* \"#utility.yul\":4459:4469   */\n      dup2\n        /* \"#utility.yul\":4456:4478   */\n      lt\n        /* \"#utility.yul\":4435:4453   */\n      0xffffffffffffffff\n        /* \"#utility.yul\":4423:4433   */\n      dup3\n        /* \"#utility.yul\":4420:4454   */\n      gt\n        /* \"#utility.yul\":4417:4479   */\n      or\n        /* \"#utility.yul\":4414:4502   */\n      iszero\n      tag_194\n      jumpi\n        /* \"#utility.yul\":4482:4500   */\n      tag_195\n      tag_114\n      jump\t// in\n    tag_195:\n        /* \"#utility.yul\":4414:4502   */\n    tag_194:\n        /* \"#utility.yul\":4522:4532   */\n      dup1\n        /* \"#utility.yul\":4518:4520   */\n      0x40\n        /* \"#utility.yul\":4511:4533   */\n      mstore\n        /* \"#utility.yul\":4301:4539   */\n      pop\n        /* \"#utility.yul\":4258:4539   */\n      pop\n      pop\n      jump\t// out\n        /* \"#utility.yul\":4545:4674   */\n    tag_116:\n        /* \"#utility.yul\":4579:4585   */\n      0x00\n        /* \"#utility.yul\":4606:4626   */\n      tag_197\n      tag_95\n      jump\t// in\n    tag_197:\n        /* \"#utility.yul\":4596:4626   */\n      swap1\n      pop\n        /* \"#utility.yul\":4635:4668   */\n      tag_198\n        /* \"#utility.yul\":4663:4667   */\n      dup3\n        /* \"#utility.yul\":4655:4661   */\n      dup3\n        /* \"#utility.yul\":4635:4668   */\n      tag_115\n      jump\t// in\n    tag_198:\n        /* \"#utility.yul\":4545:4674   */\n      swap2\n      swap1\n      pop\n      jump\t// out\n        /* \"#utility.yul\":4680:4988   */\n    tag_117:\n        /* \"#utility.yul\":4742:4746   */\n      0x00\n        /* \"#utility.yul\":4832:4850   */\n      0xffffffffffffffff\n        /* \"#utility.yul\":4824:4830   */\n      dup3\n        /* \"#utility.yul\":4821:4851   */\n      gt\n        /* \"#utility.yul\":4818:4874   */\n      iszero\n      tag_200\n      jumpi\n        /* \"#utility.yul\":4854:4872   */\n      tag_201\n      tag_114\n      jump\t// in\n    tag_201:\n        /* \"#utility.yul\":4818:4874   */\n    tag_200:\n        /* \"#utility.yul\":4892:4921   */\n      tag_202\n        /* \"#utility.yul\":4914:4920   */\n      dup3\n        /* \"#utility.yul\":4892:4921   */\n      tag_105\n      jump\t// in\n    tag_202:\n        /* \"#utility.yul\":4884:4921   */\n      swap1\n      pop\n        /* \"#utility.yul\":4976:4980   */\n      0x20\n        /* \"#utility.yul\":4970:4974   */\n      dup2\n        /* \"#utility.yul\":4966:4981   */\n      add\n        /* \"#utility.yul\":4958:4981   */\n      swap1\n      pop\n        /* \"#utility.yul\":4680:4988   */\n      swap2\n      swap1\n      pop\n      jump\t// out\n        /* \"#utility.yul\":4994:5142   */\n    tag_118:\n        /* \"#utility.yul\":5092:5098   */\n      dup3\n        /* \"#utility.yul\":5087:5090   */\n      dup2\n        /* \"#utility.yul\":5082:5085   */\n      dup4\n        /* \"#utility.yul\":5069:5099   */\n      calldatacopy\n        /* \"#utility.yul\":5133:5134   */\n      0x00\n        /* \"#utility.yul\":5124:5130   */\n      dup4\n        /* \"#utility.yul\":5119:5122   */\n      dup4\n        /* \"#utility.yul\":5115:5131   */\n      add\n        /* \"#utility.yul\":5108:5135   */\n      mstore\n        /* \"#utility.yul\":4994:5142   */\n      pop\n      pop\n      pop\n      jump\t// out\n        /* \"#utility.yul\":5148:5573   */\n    tag_119:\n        /* \"#utility.yul\":5226:5231   */\n      0x00\n        /* \"#utility.yul\":5251:5317   */\n      tag_205\n        /* \"#utility.yul\":5267:5316   */\n      tag_206\n        /* \"#utility.yul\":5309:5315   */\n      dup5\n        /* \"#utility.yul\":5267:5316   */\n      tag_117\n      jump\t// in\n    tag_206:\n        /* \"#utility.yul\":5251:5317   */\n      tag_116\n      jump\t// in\n    tag_205:\n        /* \"#utility.yul\":5242:5317   */\n      swap1\n      pop\n        /* \"#utility.yul\":5340:5346   */\n      dup3\n        /* \"#utility.yul\":5333:5338   */\n      dup2\n        /* \"#utility.yul\":5326:5347   */\n      mstore\n        /* \"#utility.yul\":5378:5382   */\n      0x20\n        /* \"#utility.yul\":5371:5376   */\n      dup2\n        /* \"#utility.yul\":5367:5383   */\n      add\n        /* \"#utility.yul\":5416:5419   */\n      dup5\n        /* \"#utility.yul\":5407:5413   */\n      dup5\n        /* \"#utility.yul\":5402:5405   */\n      dup5\n        /* \"#utility.yul\":5398:5414   */\n      add\n        /* \"#utility.yul\":5395:5420   */\n      gt\n        /* \"#utility.yul\":5392:5504   */\n      iszero\n      tag_207\n      jumpi\n        /* \"#utility.yul\":5423:5502   */\n      tag_208\n      tag_113\n      jump\t// in\n    tag_208:\n        /* \"#utility.yul\":5392:5504   */\n    tag_207:\n        /* \"#utility.yul\":5513:5567   */\n      tag_209\n        /* \"#utility.yul\":5560:5566   */\n      dup5\n        /* \"#utility.yul\":5555:5558   */\n      dup3\n        /* \"#utility.yul\":5550:5553   */\n      dup6\n        /* \"#utility.yul\":5513:5567   */\n      tag_118\n      jump\t// in\n    tag_209:\n        /* \"#utility.yul\":5232:5573   */\n      pop\n        /* \"#utility.yul\":5148:5573   */\n      swap4\n      swap3\n      pop\n      pop\n      pop\n      jump\t// out\n        /* \"#utility.yul\":5593:5933   */\n    tag_120:\n        /* \"#utility.yul\":5649:5654   */\n      0x00\n        /* \"#utility.yul\":5698:5701   */\n      dup3\n        /* \"#utility.yul\":5691:5695   */\n      0x1f\n        /* \"#utility.yul\":5683:5689   */\n      dup4\n        /* \"#utility.yul\":5679:5696   */\n      add\n        /* \"#utility.yul\":5675:5702   */\n      slt\n        /* \"#utility.yul\":5665:5787   */\n      tag_211\n      jumpi\n        /* \"#utility.yul\":5706:5785   */\n      tag_212\n      tag_112\n      jump\t// in\n    tag_212:\n        /* \"#utility.yul\":5665:5787   */\n    tag_211:\n        /* \"#utility.yul\":5823:5829   */\n      dup2\n        /* \"#utility.yul\":5810:5830   */\n      calldataload\n        /* \"#utility.yul\":5848:5927   */\n      tag_213\n        /* \"#utility.yul\":5923:5926   */\n      dup5\n        /* \"#utility.yul\":5915:5921   */\n      dup3\n        /* \"#utility.yul\":5908:5912   */\n      0x20\n        /* \"#utility.yul\":5900:5906   */\n      dup7\n        /* \"#utility.yul\":5896:5913   */\n      add\n        /* \"#utility.yul\":5848:5927   */\n      tag_119\n      jump\t// in\n    tag_213:\n        /* \"#utility.yul\":5839:5927   */\n      swap2\n      pop\n        /* \"#utility.yul\":5655:5933   */\n      pop\n        /* \"#utility.yul\":5593:5933   */\n      swap3\n      swap2\n      pop\n      pop\n      jump\t// out\n        /* \"#utility.yul\":5939:6593   */\n    tag_21:\n        /* \"#utility.yul\":6017:6023   */\n      0x00\n        /* \"#utility.yul\":6025:6031   */\n      dup1\n        /* \"#utility.yul\":6074:6076   */\n      0x40\n        /* \"#utility.yul\":6062:6071   */\n      dup4\n        /* \"#utility.yul\":6053:6060   */\n      dup6\n        /* \"#utility.yul\":6049:6072   */\n      sub\n        /* \"#utility.yul\":6045:6077   */\n      slt\n        /* \"#utility.yul\":6042:6161   */\n      iszero\n      tag_215\n      jumpi\n        /* \"#utility.yul\":6080:6159   */\n      tag_216\n      tag_96\n      jump\t// in\n    tag_216:\n        /* \"#utility.yul\":6042:6161   */\n    tag_215:\n        /* \"#utility.yul\":6228:6229   */\n      0x00\n        /* \"#utility.yul\":6217:6226   */\n      dup4\n        /* \"#utility.yul\":6213:6230   */\n      add\n        /* \"#utility.yul\":6200:6231   */\n      calldataload\n        /* \"#utility.yul\":6258:6276   */\n      0xffffffffffffffff\n        /* \"#utility.yul\":6250:6256   */\n      dup2\n        /* \"#utility.yul\":6247:6277   */\n      gt\n        /* \"#utility.yul\":6244:6361   */\n      iszero\n      tag_217\n      jumpi\n        /* \"#utility.yul\":6280:6359   */\n      tag_218\n      tag_97\n      jump\t// in\n    tag_218:\n        /* \"#utility.yul\":6244:6361   */\n    tag_217:\n        /* \"#utility.yul\":6385:6448   */\n      tag_219\n        /* \"#utility.yul\":6440:6447   */\n      dup6\n        /* \"#utility.yul\":6431:6437   */\n      dup3\n        /* \"#utility.yul\":6420:6429   */\n      dup7\n        /* \"#utility.yul\":6416:6438   */\n      add\n        /* \"#utility.yul\":6385:6448   */\n      tag_120\n      jump\t// in\n    tag_219:\n        /* \"#utility.yul\":6375:6448   */\n      swap3\n      pop\n        /* \"#utility.yul\":6171:6458   */\n      pop\n        /* \"#utility.yul\":6497:6499   */\n      0x20\n        /* \"#utility.yul\":6523:6576   */\n      tag_220\n        /* \"#utility.yul\":6568:6575   */\n      dup6\n        /* \"#utility.yul\":6559:6565   */\n      dup3\n        /* \"#utility.yul\":6548:6557   */\n      dup7\n        /* \"#utility.yul\":6544:6566   */\n      add\n        /* \"#utility.yul\":6523:6576   */\n      tag_100\n      jump\t// in\n    tag_220:\n        /* \"#utility.yul\":6513:6576   */\n      swap2\n      pop\n        /* \"#utility.yul\":6468:6586   */\n      pop\n        /* \"#utility.yul\":5939:6593   */\n      swap3\n      pop\n      swap3\n      swap1\n      pop\n      jump\t// out\n        /* \"#utility.yul\":6599:7073   */\n    tag_25:\n        /* \"#utility.yul\":6667:6673   */\n      0x00\n        /* \"#utility.yul\":6675:6681   */\n      dup1\n        /* \"#utility.yul\":6724:6726   */\n      0x40\n        /* \"#utility.yul\":6712:6721   */\n      dup4\n        /* \"#utility.yul\":6703:6710   */\n      dup6\n        /* \"#utility.yul\":6699:6722   */\n      sub\n        /* \"#utility.yul\":6695:6727   */\n      slt\n        /* \"#utility.yul\":6692:6811   */\n      iszero\n      tag_222\n      jumpi\n        /* \"#utility.yul\":6730:6809   */\n      tag_223\n      tag_96\n      jump\t// in\n    tag_223:\n        /* \"#utility.yul\":6692:6811   */\n    tag_222:\n        /* \"#utility.yul\":6850:6851   */\n      0x00\n        /* \"#utility.yul\":6875:6928   */\n      tag_224\n        /* \"#utility.yul\":6920:6927   */\n      dup6\n        /* \"#utility.yul\":6911:6917   */\n      dup3\n        /* \"#utility.yul\":6900:6909   */\n      dup7\n        /* \"#utility.yul\":6896:6918   */\n      add\n        /* \"#utility.yul\":6875:6928   */\n      tag_111\n      jump\t// in\n    tag_224:\n        /* \"#utility.yul\":6865:6928   */\n      swap3\n      pop\n        /* \"#utility.yul\":6821:6938   */\n      pop\n        /* \"#utility.yul\":6977:6979   */\n      0x20\n        /* \"#utility.yul\":7003:7056   */\n      tag_225\n        /* \"#utility.yul\":7048:7055   */\n      dup6\n        /* \"#utility.yul\":7039:7045   */\n      dup3\n        /* \"#utility.yul\":7028:7037   */\n      dup7\n        /* \"#utility.yul\":7024:7046   */\n      add\n        /* \"#utility.yul\":7003:7056   */\n      tag_100\n      jump\t// in\n    tag_225:\n        /* \"#utility.yul\":6993:7056   */\n      swap2\n      pop\n        /* \"#utility.yul\":6948:7066   */\n      pop\n        /* \"#utility.yul\":6599:7073   */\n      swap3\n      pop\n      swap3\n      swap1\n      pop\n      jump\t// out\n        /* \"#utility.yul\":7079:7301   */\n    tag_28:\n        /* \"#utility.yul\":7172:7176   */\n      0x00\n        /* \"#utility.yul\":7210:7212   */\n      0x20\n        /* \"#utility.yul\":7199:7208   */\n      dup3\n        /* \"#utility.yul\":7195:7213   */\n      add\n        /* \"#utility.yul\":7187:7213   */\n      swap1\n      pop\n        /* \"#utility.yul\":7223:7294   */\n      tag_227\n        /* \"#utility.yul\":7291:7292   */\n      0x00\n        /* \"#utility.yul\":7280:7289   */\n      dup4\n        /* \"#utility.yul\":7276:7293   */\n      add\n        /* \"#utility.yul\":7267:7273   */\n      dup5\n        /* \"#utility.yul\":7223:7294   */\n      tag_101\n      jump\t// in\n    tag_227:\n        /* \"#utility.yul\":7079:7301   */\n      swap3\n      swap2\n      pop\n      pop\n      jump\t// out\n        /* \"#utility.yul\":7307:7840   */\n    tag_33:\n        /* \"#utility.yul\":7476:7480   */\n      0x00\n        /* \"#utility.yul\":7514:7516   */\n      0x60\n        /* \"#utility.yul\":7503:7512   */\n      dup3\n        /* \"#utility.yul\":7499:7517   */\n      add\n        /* \"#utility.yul\":7491:7517   */\n      swap1\n      pop\n        /* \"#utility.yul\":7563:7572   */\n      dup2\n        /* \"#utility.yul\":7557:7561   */\n      dup2\n        /* \"#utility.yul\":7553:7573   */\n      sub\n        /* \"#utility.yul\":7549:7550   */\n      0x00\n        /* \"#utility.yul\":7538:7547   */\n      dup4\n        /* \"#utility.yul\":7534:7551   */\n      add\n        /* \"#utility.yul\":7527:7574   */\n      mstore\n        /* \"#utility.yul\":7591:7669   */\n      tag_229\n        /* \"#utility.yul\":7664:7668   */\n      dup2\n        /* \"#utility.yul\":7655:7661   */\n      dup7\n        /* \"#utility.yul\":7591:7669   */\n      tag_106\n      jump\t// in\n    tag_229:\n        /* \"#utility.yul\":7583:7669   */\n      swap1\n      pop\n        /* \"#utility.yul\":7679:7751   */\n      tag_230\n        /* \"#utility.yul\":7747:7749   */\n      0x20\n        /* \"#utility.yul\":7736:7745   */\n      dup4\n        /* \"#utility.yul\":7732:7750   */\n      add\n        /* \"#utility.yul\":7723:7729   */\n      dup6\n        /* \"#utility.yul\":7679:7751   */\n      tag_101\n      jump\t// in\n    tag_230:\n        /* \"#utility.yul\":7761:7833   */\n      tag_231\n        /* \"#utility.yul\":7829:7831   */\n      0x40\n        /* \"#utility.yul\":7818:7827   */\n      dup4\n        /* \"#utility.yul\":7814:7832   */\n      add\n        /* \"#utility.yul\":7805:7811   */\n      dup5\n        /* \"#utility.yul\":7761:7833   */\n      tag_109\n      jump\t// in\n    tag_231:\n        /* \"#utility.yul\":7307:7840   */\n      swap5\n      swap4\n      pop\n      pop\n      pop\n      pop\n      jump\t// out\n        /* \"#utility.yul\":7846:8026   */\n    tag_121:\n        /* \"#utility.yul\":7894:7971   */\n      0x4e487b7100000000000000000000000000000000000000000000000000000000\n        /* \"#utility.yul\":7891:7892   */\n      0x00\n        /* \"#utility.yul\":7884:7972   */\n      mstore\n        /* \"#utility.yul\":7991:7995   */\n      0x22\n        /* \"#utility.yul\":7988:7989   */\n      0x04\n        /* \"#utility.yul\":7981:7996   */\n      mstore\n        /* \"#utility.yul\":8015:8019   */\n      0x24\n        /* \"#utility.yul\":8012:8013   */\n      0x00\n        /* \"#utility.yul\":8005:8020   */\n      revert\n        /* \"#utility.yul\":8032:8352   */\n    tag_38:\n        /* \"#utility.yul\":8076:8082   */\n      0x00\n        /* \"#utility.yul\":8113:8114   */\n      0x02\n        /* \"#utility.yul\":8107:8111   */\n      dup3\n        /* \"#utility.yul\":8103:8115   */\n      div\n        /* \"#utility.yul\":8093:8115   */\n      swap1\n      pop\n        /* \"#utility.yul\":8160:8161   */\n      0x01\n        /* \"#utility.yul\":8154:8158   */\n      dup3\n        /* \"#utility.yul\":8150:8162   */\n      and\n        /* \"#utility.yul\":8181:8199   */\n      dup1\n        /* \"#utility.yul\":8171:8252   */\n      tag_234\n      jumpi\n        /* \"#utility.yul\":8237:8241   */\n      0x7f\n        /* \"#utility.yul\":8229:8235   */\n      dup3\n        /* \"#utility.yul\":8225:8242   */\n      and\n        /* \"#utility.yul\":8215:8242   */\n      swap2\n      pop\n        /* \"#utility.yul\":8171:8252   */\n    tag_234:\n        /* \"#utility.yul\":8299:8301   */\n      0x20\n        /* \"#utility.yul\":8291:8297   */\n      dup3\n        /* \"#utility.yul\":8288:8302   */\n      lt\n        /* \"#utility.yul\":8268:8286   */\n      dup2\n        /* \"#utility.yul\":8265:8303   */\n      sub\n        /* \"#utility.yul\":8262:8346   */\n      tag_235\n      jumpi\n        /* \"#utility.yul\":8318:8336   */\n      tag_236\n      tag_121\n      jump\t// in\n    tag_236:\n        /* \"#utility.yul\":8262:8346   */\n    tag_235:\n        /* \"#utility.yul\":8083:8352   */\n      pop\n        /* \"#utility.yul\":8032:8352   */\n      swap2\n      swap1\n      pop\n      jump\t// out\n        /* \"#utility.yul\":8358:8523   */\n    tag_122:\n        /* \"#utility.yul\":8498:8515   */\n      0x496e76616c696420616464726573730000000000000000000000000000000000\n        /* \"#utility.yul\":8494:8495   */\n      0x00\n        /* \"#utility.yul\":8486:8492   */\n      dup3\n        /* \"#utility.yul\":8482:8496   */\n      add\n        /* \"#utility.yul\":8475:8516   */\n      mstore\n        /* \"#utility.yul\":8358:8523   */\n      pop\n      jump\t// out\n        /* \"#utility.yul\":8529:8895   */\n    tag_123:\n        /* \"#utility.yul\":8671:8674   */\n      0x00\n        /* \"#utility.yul\":8692:8759   */\n      tag_239\n        /* \"#utility.yul\":8756:8758   */\n      0x0f\n        /* \"#utility.yul\":8751:8754   */\n      dup4\n        /* \"#utility.yul\":8692:8759   */\n      tag_103\n      jump\t// in\n    tag_239:\n        /* \"#utility.yul\":8685:8759   */\n      swap2\n      pop\n        /* \"#utility.yul\":8768:8861   */\n      tag_240\n        /* \"#utility.yul\":8857:8860   */\n      dup3\n        /* \"#utility.yul\":8768:8861   */\n      tag_122\n      jump\t// in\n    tag_240:\n        /* \"#utility.yul\":8886:8888   */\n      0x20\n        /* \"#utility.yul\":8881:8884   */\n      dup3\n        /* \"#utility.yul\":8877:8889   */\n      add\n        /* \"#utility.yul\":8870:8889   */\n      swap1\n      pop\n        /* \"#utility.yul\":8529:8895   */\n      swap2\n      swap1\n      pop\n      jump\t// out\n        /* \"#utility.yul\":8901:9320   */\n    tag_46:\n        /* \"#utility.yul\":9067:9071   */\n      0x00\n        /* \"#utility.yul\":9105:9107   */\n      0x20\n        /* \"#utility.yul\":9094:9103   */\n      dup3\n        /* \"#utility.yul\":9090:9108   */\n      add\n        /* \"#utility.yul\":9082:9108   */\n      swap1\n      pop\n        /* \"#utility.yul\":9154:9163   */\n      dup2\n        /* \"#utility.yul\":9148:9152   */\n      dup2\n        /* \"#utility.yul\":9144:9164   */\n      sub\n        /* \"#utility.yul\":9140:9141   */\n      0x00\n        /* \"#utility.yul\":9129:9138   */\n      dup4\n        /* \"#utility.yul\":9125:9142   */\n      add\n        /* \"#utility.yul\":9118:9165   */\n      mstore\n        /* \"#utility.yul\":9182:9313   */\n      tag_242\n        /* \"#utility.yul\":9308:9312   */\n      dup2\n        /* \"#utility.yul\":9182:9313   */\n      tag_123\n      jump\t// in\n    tag_242:\n        /* \"#utility.yul\":9174:9313   */\n      swap1\n      pop\n        /* \"#utility.yul\":8901:9320   */\n      swap2\n      swap1\n      pop\n      jump\t// out\n        /* \"#utility.yul\":9326:9552   */\n    tag_124:\n        /* \"#utility.yul\":9466:9500   */\n      0x4f6e6c7920746865206f776e65722063616e207472616e736665722074686973\n        /* \"#utility.yul\":9462:9463   */\n      0x00\n        /* \"#utility.yul\":9454:9460   */\n      dup3\n        /* \"#utility.yul\":9450:9464   */\n      add\n        /* \"#utility.yul\":9443:9501   */\n      mstore\n        /* \"#utility.yul\":9535:9544   */\n      0x2063726564697400000000000000000000000000000000000000000000000000\n        /* \"#utility.yul\":9530:9532   */\n      0x20\n        /* \"#utility.yul\":9522:9528   */\n      dup3\n        /* \"#utility.yul\":9518:9533   */\n      add\n        /* \"#utility.yul\":9511:9545   */\n      mstore\n        /* \"#utility.yul\":9326:9552   */\n      pop\n      jump\t// out\n        /* \"#utility.yul\":9558:9924   */\n    tag_125:\n        /* \"#utility.yul\":9700:9703   */\n      0x00\n        /* \"#utility.yul\":9721:9788   */\n      tag_245\n        /* \"#utility.yul\":9785:9787   */\n      0x27\n        /* \"#utility.yul\":9780:9783   */\n      dup4\n        /* \"#utility.yul\":9721:9788   */\n      tag_103\n      jump\t// in\n    tag_245:\n        /* \"#utility.yul\":9714:9788   */\n      swap2\n      pop\n        /* \"#utility.yul\":9797:9890   */\n      tag_246\n        /* \"#utility.yul\":9886:9889   */\n      dup3\n        /* \"#utility.yul\":9797:9890   */\n      tag_124\n      jump\t// in\n    tag_246:\n        /* \"#utility.yul\":9915:9917   */\n      0x40\n        /* \"#utility.yul\":9910:9913   */\n      dup3\n        /* \"#utility.yul\":9906:9918   */\n      add\n        /* \"#utility.yul\":9899:9918   */\n      swap1\n      pop\n        /* \"#utility.yul\":9558:9924   */\n      swap2\n      swap1\n      pop\n      jump\t// out\n        /* \"#utility.yul\":9930:10349   */\n    tag_49:\n        /* \"#utility.yul\":10096:10100   */\n      0x00\n        /* \"#utility.yul\":10134:10136   */\n      0x20\n        /* \"#utility.yul\":10123:10132   */\n      dup3\n        /* \"#utility.yul\":10119:10137   */\n      add\n        /* \"#utility.yul\":10111:10137   */\n      swap1\n      pop\n        /* \"#utility.yul\":10183:10192   */\n      dup2\n        /* \"#utility.yul\":10177:10181   */\n      dup2\n        /* \"#utility.yul\":10173:10193   */\n      sub\n        /* \"#utility.yul\":10169:10170   */\n      0x00\n        /* \"#utility.yul\":10158:10167   */\n      dup4\n        /* \"#utility.yul\":10154:10171   */\n      add\n        /* \"#utility.yul\":10147:10194   */\n      mstore\n        /* \"#utility.yul\":10211:10342   */\n      tag_248\n        /* \"#utility.yul\":10337:10341   */\n      dup2\n        /* \"#utility.yul\":10211:10342   */\n      tag_125\n      jump\t// in\n    tag_248:\n        /* \"#utility.yul\":10203:10342   */\n      swap1\n      pop\n        /* \"#utility.yul\":9930:10349   */\n      swap2\n      swap1\n      pop\n      jump\t// out\n        /* \"#utility.yul\":10355:10797   */\n    tag_54:\n        /* \"#utility.yul\":10504:10508   */\n      0x00\n        /* \"#utility.yul\":10542:10544   */\n      0x60\n        /* \"#utility.yul\":10531:10540   */\n      dup3\n        /* \"#utility.yul\":10527:10545   */\n      add\n        /* \"#utility.yul\":10519:10545   */\n      swap1\n      pop\n        /* \"#utility.yul\":10555:10626   */\n      tag_250\n        /* \"#utility.yul\":10623:10624   */\n      0x00\n        /* \"#utility.yul\":10612:10621   */\n      dup4\n        /* \"#utility.yul\":10608:10625   */\n      add\n        /* \"#utility.yul\":10599:10605   */\n      dup7\n        /* \"#utility.yul\":10555:10626   */\n      tag_101\n      jump\t// in\n    tag_250:\n        /* \"#utility.yul\":10636:10708   */\n      tag_251\n        /* \"#utility.yul\":10704:10706   */\n      0x20\n        /* \"#utility.yul\":10693:10702   */\n      dup4\n        /* \"#utility.yul\":10689:10707   */\n      add\n        /* \"#utility.yul\":10680:10686   */\n      dup6\n        /* \"#utility.yul\":10636:10708   */\n      tag_109\n      jump\t// in\n    tag_251:\n        /* \"#utility.yul\":10718:10790   */\n      tag_252\n        /* \"#utility.yul\":10786:10788   */\n      0x40\n        /* \"#utility.yul\":10775:10784   */\n      dup4\n        /* \"#utility.yul\":10771:10789   */\n      add\n        /* \"#utility.yul\":10762:10768   */\n      dup5\n        /* \"#utility.yul\":10718:10790   */\n      tag_109\n      jump\t// in\n    tag_252:\n        /* \"#utility.yul\":10355:10797   */\n      swap5\n      swap4\n      pop\n      pop\n      pop\n      pop\n      jump\t// out\n        /* \"#utility.yul\":10803:10982   */\n    tag_126:\n        /* \"#utility.yul\":10943:10974   */\n      0x416d6f756e74206d7573742062652067726561746572207468616e2030000000\n        /* \"#utility.yul\":10939:10940   */\n      0x00\n        /* \"#utility.yul\":10931:10937   */\n      dup3\n        /* \"#utility.yul\":10927:10941   */\n      add\n        /* \"#utility.yul\":10920:10975   */\n      mstore\n        /* \"#utility.yul\":10803:10982   */\n      pop\n      jump\t// out\n        /* \"#utility.yul\":10988:11354   */\n    tag_127:\n        /* \"#utility.yul\":11130:11133   */\n      0x00\n        /* \"#utility.yul\":11151:11218   */\n      tag_255\n        /* \"#utility.yul\":11215:11217   */\n      0x1d\n        /* \"#utility.yul\":11210:11213   */\n      dup4\n        /* \"#utility.yul\":11151:11218   */\n      tag_103\n      jump\t// in\n    tag_255:\n        /* \"#utility.yul\":11144:11218   */\n      swap2\n      pop\n        /* \"#utility.yul\":11227:11320   */\n      tag_256\n        /* \"#utility.yul\":11316:11319   */\n      dup3\n        /* \"#utility.yul\":11227:11320   */\n      tag_126\n      jump\t// in\n    tag_256:\n        /* \"#utility.yul\":11345:11347   */\n      0x20\n        /* \"#utility.yul\":11340:11343   */\n      dup3\n        /* \"#utility.yul\":11336:11348   */\n      add\n        /* \"#utility.yul\":11329:11348   */\n      swap1\n      pop\n        /* \"#utility.yul\":10988:11354   */\n      swap2\n      swap1\n      pop\n      jump\t// out\n        /* \"#utility.yul\":11360:11779   */\n    tag_58:\n        /* \"#utility.yul\":11526:11530   */\n      0x00\n        /* \"#utility.yul\":11564:11566   */\n      0x20\n        /* \"#utility.yul\":11553:11562   */\n      dup3\n        /* \"#utility.yul\":11549:11567   */\n      add\n        /* \"#utility.yul\":11541:11567   */\n      swap1\n      pop\n        /* \"#utility.yul\":11613:11622   */\n      dup2\n        /* \"#utility.yul\":11607:11611   */\n      dup2\n        /* \"#utility.yul\":11603:11623   */\n      sub\n        /* \"#utility.yul\":11599:11600   */\n      0x00\n        /* \"#utility.yul\":11588:11597   */\n      dup4\n        /* \"#utility.yul\":11584:11601   */\n      add\n        /* \"#utility.yul\":11577:11624   */\n      mstore\n        /* \"#utility.yul\":11641:11772   */\n      tag_258\n        /* \"#utility.yul\":11767:11771   */\n      dup2\n        /* \"#utility.yul\":11641:11772   */\n      tag_127\n      jump\t// in\n    tag_258:\n        /* \"#utility.yul\":11633:11772   */\n      swap1\n      pop\n        /* \"#utility.yul\":11360:11779   */\n      swap2\n      swap1\n      pop\n      jump\t// out\n        /* \"#utility.yul\":11785:11965   */\n    tag_128:\n        /* \"#utility.yul\":11833:11910   */\n      0x4e487b7100000000000000000000000000000000000000000000000000000000\n        /* \"#utility.yul\":11830:11831   */\n      0x00\n        /* \"#utility.yul\":11823:11911   */\n      mstore\n        /* \"#utility.yul\":11930:11934   */\n      0x11\n        /* \"#utility.yul\":11927:11928   */\n      0x04\n        /* \"#utility.yul\":11920:11935   */\n      mstore\n        /* \"#utility.yul\":11954:11958   */\n      0x24\n        /* \"#utility.yul\":11951:11952   */\n      0x00\n        /* \"#utility.yul\":11944:11959   */\n      revert\n        /* \"#utility.yul\":11971:12204   */\n    tag_60:\n        /* \"#utility.yul\":12010:12013   */\n      0x00\n        /* \"#utility.yul\":12033:12057   */\n      tag_261\n        /* \"#utility.yul\":12051:12056   */\n      dup3\n        /* \"#utility.yul\":12033:12057   */\n      tag_98\n      jump\t// in\n    tag_261:\n        /* \"#utility.yul\":12024:12057   */\n      swap2\n      pop\n        /* \"#utility.yul\":12079:12145   */\n      0xffffffffffffffffffffffffffffffffffffffffffffffffffffffffffffffff\n        /* \"#utility.yul\":12072:12077   */\n      dup3\n        /* \"#utility.yul\":12069:12146   */\n      sub\n        /* \"#utility.yul\":12066:12169   */\n      tag_262\n      jumpi\n        /* \"#utility.yul\":12149:12167   */\n      tag_263\n      tag_128\n      jump\t// in\n    tag_263:\n        /* \"#utility.yul\":12066:12169   */\n    tag_262:\n        /* \"#utility.yul\":12196:12197   */\n      0x01\n        /* \"#utility.yul\":12189:12194   */\n      dup3\n        /* \"#utility.yul\":12185:12198   */\n      add\n        /* \"#utility.yul\":12178:12198   */\n      swap1\n      pop\n        /* \"#utility.yul\":11971:12204   */\n      swap2\n      swap1\n      pop\n      jump\t// out\n        /* \"#utility.yul\":12210:12351   */\n    tag_129:\n        /* \"#utility.yul\":12259:12263   */\n      0x00\n        /* \"#utility.yul\":12282:12285   */\n      dup2\n        /* \"#utility.yul\":12274:12285   */\n      swap1\n      pop\n        /* \"#utility.yul\":12305:12308   */\n      dup2\n        /* \"#utility.yul\":12302:12303   */\n      0x00\n        /* \"#utility.yul\":12295:12309   */\n      mstore\n        /* \"#utility.yul\":12339:12343   */\n      0x20\n        /* \"#utility.yul\":12336:12337   */\n      0x00\n        /* \"#utility.yul\":12326:12344   */\n      keccak256\n        /* \"#utility.yul\":12318:12344   */\n      swap1\n      pop\n        /* \"#utility.yul\":12210:12351   */\n      swap2\n      swap1\n      pop\n      jump\t// out\n        /* \"#utility.yul\":12357:12450   */\n    tag_130:\n        /* \"#utility.yul\":12394:12400   */\n      0x00\n        /* \"#utility.yul\":12441:12443   */\n      0x20\n        /* \"#utility.yul\":12436:12438   */\n      0x1f\n        /* \"#utility.yul\":12429:12434   */\n      dup4\n        /* \"#utility.yul\":12425:12439   */\n      add\n        /* \"#utility.yul\":12421:12444   */\n      div\n        /* \"#utility.yul\":12411:12444   */\n      swap1\n      pop\n        /* \"#utility.yul\":12357:12450   */\n      swap2\n      swap1\n      pop\n      jump\t// out\n        /* \"#utility.yul\":12456:12563   */\n    tag_131:\n        /* \"#utility.yul\":12500:12508   */\n      0x00\n        /* \"#utility.yul\":12550:12555   */\n      dup3\n        /* \"#utility.yul\":12544:12548   */\n      dup3\n        /* \"#utility.yul\":12540:12556   */\n      shl\n        /* \"#utility.yul\":12519:12556   */\n      swap1\n      pop\n        /* \"#utility.yul\":12456:12563   */\n      swap3\n      swap2\n      pop\n      pop\n      jump\t// out\n        /* \"#utility.yul\":12569:12962   */\n    tag_132:\n        /* \"#utility.yul\":12638:12644   */\n      0x00\n        /* \"#utility.yul\":12688:12689   */\n      0x08\n        /* \"#utility.yul\":12676:12686   */\n      dup4\n        /* \"#utility.yul\":12672:12690   */\n      mul\n        /* \"#utility.yul\":12711:12808   */\n      tag_268\n        /* \"#utility.yul\":12741:12807   */\n      0xffffffffffffffffffffffffffffffffffffffffffffffffffffffffffffffff\n        /* \"#utility.yul\":12730:12739   */\n      dup3\n        /* \"#utility.yul\":12711:12808   */\n      tag_131\n      jump\t// in\n    tag_268:\n        /* \"#utility.yul\":12829:12868   */\n      tag_269\n        /* \"#utility.yul\":12859:12867   */\n      dup7\n        /* \"#utility.yul\":12848:12857   */\n      dup4\n        /* \"#utility.yul\":12829:12868   */\n      tag_131\n      jump\t// in\n    tag_269:\n        /* \"#utility.yul\":12817:12868   */\n      swap6\n      pop\n        /* \"#utility.yul\":12901:12905   */\n      dup1\n        /* \"#utility.yul\":12897:12906   */\n      not\n        /* \"#utility.yul\":12890:12895   */\n      dup5\n        /* \"#utility.yul\":12886:12907   */\n      and\n        /* \"#utility.yul\":12877:12907   */\n      swap4\n      pop\n        /* \"#utility.yul\":12950:12954   */\n      dup1\n        /* \"#utility.yul\":12940:12948   */\n      dup7\n        /* \"#utility.yul\":12936:12955   */\n      and\n        /* \"#utility.yul\":12929:12934   */\n      dup5\n        /* \"#utility.yul\":12926:12956   */\n      or\n        /* \"#utility.yul\":12916:12956   */\n      swap3\n      pop\n        /* \"#utility.yul\":12645:12962   */\n      pop\n      pop\n        /* \"#utility.yul\":12569:12962   */\n      swap4\n      swap3\n      pop\n      pop\n      pop\n      jump\t// out\n        /* \"#utility.yul\":12968:13028   */\n    tag_133:\n        /* \"#utility.yul\":12996:12999   */\n      0x00\n        /* \"#utility.yul\":13017:13022   */\n      dup2\n        /* \"#utility.yul\":13010:13022   */\n      swap1\n      pop\n        /* \"#utility.yul\":12968:13028   */\n      swap2\n      swap1\n      pop\n      jump\t// out\n        /* \"#utility.yul\":13034:13176   */\n    tag_134:\n        /* \"#utility.yul\":13084:13093   */\n      0x00\n        /* \"#utility.yul\":13117:13170   */\n      tag_272\n        /* \"#utility.yul\":13135:13169   */\n      tag_273\n        /* \"#utility.yul\":13144:13168   */\n      tag_274\n        /* \"#utility.yul\":13162:13167   */\n      dup5\n        /* \"#utility.yul\":13144:13168   */\n      tag_98\n      jump\t// in\n    tag_274:\n        /* \"#utility.yul\":13135:13169   */\n      tag_133\n      jump\t// in\n    tag_273:\n        /* \"#utility.yul\":13117:13170   */\n      tag_98\n      jump\t// in\n    tag_272:\n        /* \"#utility.yul\":13104:13170   */\n      swap1\n      pop\n        /* \"#utility.yul\":13034:13176   */\n      swap2\n      swap1\n      pop\n      jump\t// out\n        /* \"#utility.yul\":13182:13257   */\n    tag_135:\n        /* \"#utility.yul\":13225:13228   */\n      0x00\n        /* \"#utility.yul\":13246:13251   */\n      dup2\n        /* \"#utility.yul\":13239:13251   */\n      swap1\n      pop\n        /* \"#utility.yul\":13182:13257   */\n      swap2\n      swap1\n      pop\n      jump\t// out\n        /* \"#utility.yul\":13263:13532   */\n    tag_136:\n        /* \"#utility.yul\":13373:13412   */\n      tag_277\n        /* \"#utility.yul\":13404:13411   */\n      dup4\n        /* \"#utility.yul\":13373:13412   */\n      tag_134\n      jump\t// in\n    tag_277:\n        /* \"#utility.yul\":13434:13525   */\n      tag_278\n        /* \"#utility.yul\":13483:13524   */\n      tag_279\n        /* \"#utility.yul\":13507:13523   */\n      dup3\n        /* \"#utility.yul\":13483:13524   */\n      tag_135\n      jump\t// in\n    tag_279:\n        /* \"#utility.yul\":13475:13481   */\n      dup5\n        /* \"#utility.yul\":13468:13472   */\n      dup5\n        /* \"#utility.yul\":13462:13473   */\n      sload\n        /* \"#utility.yul\":13434:13525   */\n      tag_132\n      jump\t// in\n    tag_278:\n        /* \"#utility.yul\":13428:13432   */\n      dup3\n        /* \"#utility.yul\":13421:13526   */\n      sstore\n        /* \"#utility.yul\":13339:13532   */\n      pop\n        /* \"#utility.yul\":13263:13532   */\n      pop\n      pop\n      pop\n      jump\t// out\n        /* \"#utility.yul\":13538:13611   */\n    tag_137:\n        /* \"#utility.yul\":13583:13586   */\n      0x00\n        /* \"#utility.yul\":13538:13611   */\n      swap1\n      jump\t// out\n        /* \"#utility.yul\":13617:13806   */\n    tag_138:\n        /* \"#utility.yul\":13694:13726   */\n      tag_282\n      tag_137\n      jump\t// in\n    tag_282:\n        /* \"#utility.yul\":13735:13800   */\n      tag_283\n        /* \"#utility.yul\":13793:13799   */\n      dup2\n        /* \"#utility.yul\":13785:13791   */\n      dup5\n        /* \"#utility.yul\":13779:13783   */\n      dup5\n        /* \"#utility.yul\":13735:13800   */\n      tag_136\n      jump\t// in\n    tag_283:\n        /* \"#utility.yul\":13670:13806   */\n      pop\n        /* \"#utility.yul\":13617:13806   */\n      pop\n      pop\n      jump\t// out\n        /* \"#utility.yul\":13812:13998   */\n    tag_139:\n        /* \"#utility.yul\":13872:13992   */\n    tag_285:\n        /* \"#utility.yul\":13889:13892   */\n      dup2\n        /* \"#utility.yul\":13882:13887   */\n      dup2\n        /* \"#utility.yul\":13879:13893   */\n      lt\n        /* \"#utility.yul\":13872:13992   */\n      iszero\n      tag_287\n      jumpi\n        /* \"#utility.yul\":13943:13982   */\n      tag_288\n        /* \"#utility.yul\":13980:13981   */\n      0x00\n        /* \"#utility.yul\":13973:13978   */\n      dup3\n        /* \"#utility.yul\":13943:13982   */\n      tag_138\n      jump\t// in\n    tag_288:\n        /* \"#utility.yul\":13916:13917   */\n      0x01\n        /* \"#utility.yul\":13909:13914   */\n      dup2\n        /* \"#utility.yul\":13905:13918   */\n      add\n        /* \"#utility.yul\":13896:13918   */\n      swap1\n      pop\n        /* \"#utility.yul\":13872:13992   */\n      jump(tag_285)\n    tag_287:\n        /* \"#utility.yul\":13812:13998   */\n      pop\n      pop\n      jump\t// out\n        /* \"#utility.yul\":14004:14547   */\n    tag_140:\n        /* \"#utility.yul\":14105:14107   */\n      0x1f\n        /* \"#utility.yul\":14100:14103   */\n      dup3\n        /* \"#utility.yul\":14097:14108   */\n      gt\n        /* \"#utility.yul\":14094:14540   */\n      iszero\n      tag_290\n      jumpi\n        /* \"#utility.yul\":14139:14177   */\n      tag_291\n        /* \"#utility.yul\":14171:14176   */\n      dup2\n        /* \"#utility.yul\":14139:14177   */\n      tag_129\n      jump\t// in\n    tag_291:\n        /* \"#utility.yul\":14223:14252   */\n      tag_292\n        /* \"#utility.yul\":14241:14251   */\n      dup5\n        /* \"#utility.yul\":14223:14252   */\n      tag_130\n      jump\t// in\n    tag_292:\n        /* \"#utility.yul\":14213:14221   */\n      dup2\n        /* \"#utility.yul\":14209:14253   */\n      add\n        /* \"#utility.yul\":14406:14408   */\n      0x20\n        /* \"#utility.yul\":14394:14404   */\n      dup6\n        /* \"#utility.yul\":14391:14409   */\n      lt\n        /* \"#utility.yul\":14388:14437   */\n      iszero\n      tag_293\n      jumpi\n        /* \"#utility.yul\":14427:14435   */\n      dup2\n        /* \"#utility.yul\":14412:14435   */\n      swap1\n      pop\n        /* \"#utility.yul\":14388:14437   */\n    tag_293:\n        /* \"#utility.yul\":14450:14530   */\n      tag_294\n        /* \"#utility.yul\":14506:14528   */\n      tag_295\n        /* \"#utility.yul\":14524:14527   */\n      dup6\n        /* \"#utility.yul\":14506:14528   */\n      tag_130\n      jump\t// in\n    tag_295:\n        /* \"#utility.yul\":14496:14504   */\n      dup4\n        /* \"#utility.yul\":14492:14529   */\n      add\n        /* \"#utility.yul\":14479:14490   */\n      dup3\n        /* \"#utility.yul\":14450:14530   */\n      tag_139\n      jump\t// in\n    tag_294:\n        /* \"#utility.yul\":14109:14540   */\n      pop\n      pop\n        /* \"#utility.yul\":14094:14540   */\n    tag_290:\n        /* \"#utility.yul\":14004:14547   */\n      pop\n      pop\n      pop\n      jump\t// out\n        /* \"#utility.yul\":14553:14670   */\n    tag_141:\n        /* \"#utility.yul\":14607:14615   */\n      0x00\n        /* \"#utility.yul\":14657:14662   */\n      dup3\n        /* \"#utility.yul\":14651:14655   */\n      dup3\n        /* \"#utility.yul\":14647:14663   */\n      shr\n        /* \"#utility.yul\":14626:14663   */\n      swap1\n      pop\n        /* \"#utility.yul\":14553:14670   */\n      swap3\n      swap2\n      pop\n      pop\n      jump\t// out\n        /* \"#utility.yul\":14676:14845   */\n    tag_142:\n        /* \"#utility.yul\":14720:14726   */\n      0x00\n        /* \"#utility.yul\":14753:14804   */\n      tag_298\n        /* \"#utility.yul\":14801:14802   */\n      0x00\n        /* \"#utility.yul\":14797:14803   */\n      not\n        /* \"#utility.yul\":14789:14794   */\n      dup5\n        /* \"#utility.yul\":14786:14787   */\n      0x08\n        /* \"#utility.yul\":14782:14795   */\n      mul\n        /* \"#utility.yul\":14753:14804   */\n      tag_141\n      jump\t// in\n    tag_298:\n        /* \"#utility.yul\":14749:14805   */\n      not\n        /* \"#utility.yul\":14834:14838   */\n      dup1\n        /* \"#utility.yul\":14828:14832   */\n      dup4\n        /* \"#utility.yul\":14824:14839   */\n      and\n        /* \"#utility.yul\":14814:14839   */\n      swap2\n      pop\n        /* \"#utility.yul\":14727:14845   */\n      pop\n        /* \"#utility.yul\":14676:14845   */\n      swap3\n      swap2\n      pop\n      pop\n      jump\t// out\n        /* \"#utility.yul\":14850:15145   */\n    tag_143:\n        /* \"#utility.yul\":14926:14930   */\n      0x00\n        /* \"#utility.yul\":15072:15101   */\n      tag_300\n        /* \"#utility.yul\":15097:15100   */\n      dup4\n        /* \"#utility.yul\":15091:15095   */\n      dup4\n        /* \"#utility.yul\":15072:15101   */\n      tag_142\n      jump\t// in\n    tag_300:\n        /* \"#utility.yul\":15064:15101   */\n      swap2\n      pop\n        /* \"#utility.yul\":15134:15137   */\n      dup3\n        /* \"#utility.yul\":15131:15132   */\n      0x02\n        /* \"#utility.yul\":15127:15138   */\n      mul\n        /* \"#utility.yul\":15121:15125   */\n      dup3\n        /* \"#utility.yul\":15118:15139   */\n      or\n        /* \"#utility.yul\":15110:15139   */\n      swap1\n      pop\n        /* \"#utility.yul\":14850:15145   */\n      swap3\n      swap2\n      pop\n      pop\n      jump\t// out\n        /* \"#utility.yul\":15150:16545   */\n    tag_62:\n        /* \"#utility.yul\":15267:15304   */\n      tag_302\n        /* \"#utility.yul\":15300:15303   */\n      dup3\n        /* \"#utility.yul\":15267:15304   */\n      tag_102\n      jump\t// in\n    tag_302:\n        /* \"#utility.yul\":15369:15387   */\n      0xffffffffffffffff\n        /* \"#utility.yul\":15361:15367   */\n      dup2\n        /* \"#utility.yul\":15358:15388   */\n      gt\n        /* \"#utility.yul\":15355:15411   */\n      iszero\n      tag_303\n      jumpi\n        /* \"#utility.yul\":15391:15409   */\n      tag_304\n      tag_114\n      jump\t// in\n    tag_304:\n        /* \"#utility.yul\":15355:15411   */\n    tag_303:\n        /* \"#utility.yul\":15435:15473   */\n      tag_305\n        /* \"#utility.yul\":15467:15471   */\n      dup3\n        /* \"#utility.yul\":15461:15472   */\n      sload\n        /* \"#utility.yul\":15435:15473   */\n      tag_38\n      jump\t// in\n    tag_305:\n        /* \"#utility.yul\":15520:15587   */\n      tag_306\n        /* \"#utility.yul\":15580:15586   */\n      dup3\n        /* \"#utility.yul\":15572:15578   */\n      dup3\n        /* \"#utility.yul\":15566:15570   */\n      dup6\n        /* \"#utility.yul\":15520:15587   */\n      tag_140\n      jump\t// in\n    tag_306:\n        /* \"#utility.yul\":15614:15615   */\n      0x00\n        /* \"#utility.yul\":15638:15642   */\n      0x20\n        /* \"#utility.yul\":15625:15642   */\n      swap1\n      pop\n        /* \"#utility.yul\":15670:15672   */\n      0x1f\n        /* \"#utility.yul\":15662:15668   */\n      dup4\n        /* \"#utility.yul\":15659:15673   */\n      gt\n        /* \"#utility.yul\":15687:15688   */\n      0x01\n        /* \"#utility.yul\":15682:16300   */\n      dup2\n      eq\n      tag_308\n      jumpi\n        /* \"#utility.yul\":16344:16345   */\n      0x00\n        /* \"#utility.yul\":16361:16367   */\n      dup5\n        /* \"#utility.yul\":16358:16435   */\n      iszero\n      tag_309\n      jumpi\n        /* \"#utility.yul\":16410:16419   */\n      dup3\n        /* \"#utility.yul\":16405:16408   */\n      dup8\n        /* \"#utility.yul\":16401:16420   */\n      add\n        /* \"#utility.yul\":16395:16421   */\n      mload\n        /* \"#utility.yul\":16386:16421   */\n      swap1\n      pop\n        /* \"#utility.yul\":16358:16435   */\n    tag_309:\n        /* \"#utility.yul\":16461:16528   */\n      tag_310\n        /* \"#utility.yul\":16521:16527   */\n      dup6\n        /* \"#utility.yul\":16514:16519   */\n      dup3\n        /* \"#utility.yul\":16461:16528   */\n      tag_143\n      jump\t// in\n    tag_310:\n        /* \"#utility.yul\":16455:16459   */\n      dup7\n        /* \"#utility.yul\":16448:16529   */\n      sstore\n        /* \"#utility.yul\":16317:16539   */\n      pop\n        /* \"#utility.yul\":15652:16539   */\n      jump(tag_307)\n        /* \"#utility.yul\":15682:16300   */\n    tag_308:\n        /* \"#utility.yul\":15734:15738   */\n      0x1f\n        /* \"#utility.yul\":15730:15739   */\n      not\n        /* \"#utility.yul\":15722:15728   */\n      dup5\n        /* \"#utility.yul\":15718:15740   */\n      and\n        /* \"#utility.yul\":15768:15805   */\n      tag_311\n        /* \"#utility.yul\":15800:15804   */\n      dup7\n        /* \"#utility.yul\":15768:15805   */\n      tag_129\n      jump\t// in\n    tag_311:\n        /* \"#utility.yul\":15827:15828   */\n      0x00\n        /* \"#utility.yul\":15841:16049   */\n    tag_312:\n        /* \"#utility.yul\":15855:15862   */\n      dup3\n        /* \"#utility.yul\":15852:15853   */\n      dup2\n        /* \"#utility.yul\":15849:15863   */\n      lt\n        /* \"#utility.yul\":15841:16049   */\n      iszero\n      tag_314\n      jumpi\n        /* \"#utility.yul\":15934:15943   */\n      dup5\n        /* \"#utility.yul\":15929:15932   */\n      dup10\n        /* \"#utility.yul\":15925:15944   */\n      add\n        /* \"#utility.yul\":15919:15945   */\n      mload\n        /* \"#utility.yul\":15911:15917   */\n      dup3\n        /* \"#utility.yul\":15904:15946   */\n      sstore\n        /* \"#utility.yul\":15985:15986   */\n      0x01\n        /* \"#utility.yul\":15977:15983   */\n      dup3\n        /* \"#utility.yul\":15973:15987   */\n      add\n        /* \"#utility.yul\":15963:15987   */\n      swap2\n      pop\n        /* \"#utility.yul\":16032:16034   */\n      0x20\n        /* \"#utility.yul\":16021:16030   */\n      dup6\n        /* \"#utility.yul\":16017:16035   */\n      add\n        /* \"#utility.yul\":16004:16035   */\n      swap5\n      pop\n        /* \"#utility.yul\":15878:15882   */\n      0x20\n        /* \"#utility.yul\":15875:15876   */\n      dup2\n        /* \"#utility.yul\":15871:15883   */\n      add\n        /* \"#utility.yul\":15866:15883   */\n      swap1\n      pop\n        /* \"#utility.yul\":15841:16049   */\n      jump(tag_312)\n    tag_314:\n        /* \"#utility.yul\":16077:16083   */\n      dup7\n        /* \"#utility.yul\":16068:16075   */\n      dup4\n        /* \"#utility.yul\":16065:16084   */\n      lt\n        /* \"#utility.yul\":16062:16241   */\n      iszero\n      tag_315\n      jumpi\n        /* \"#utility.yul\":16135:16144   */\n      dup5\n        /* \"#utility.yul\":16130:16133   */\n      dup10\n        /* \"#utility.yul\":16126:16145   */\n      add\n        /* \"#utility.yul\":16120:16146   */\n      mload\n        /* \"#utility.yul\":16178:16226   */\n      tag_316\n        /* \"#utility.yul\":16220:16224   */\n      0x1f\n        /* \"#utility.yul\":16212:16218   */\n      dup10\n        /* \"#utility.yul\":16208:16225   */\n      and\n        /* \"#utility.yul\":16197:16206   */\n      dup3\n        /* \"#utility.yul\":16178:16226   */\n      tag_142\n      jump\t// in\n    tag_316:\n        /* \"#utility.yul\":16170:16176   */\n      dup4\n        /* \"#utility.yul\":16163:16227   */\n      sstore\n        /* \"#utility.yul\":16085:16241   */\n      pop\n        /* \"#utility.yul\":16062:16241   */\n    tag_315:\n        /* \"#utility.yul\":16287:16288   */\n      0x01\n        /* \"#utility.yul\":16283:16284   */\n      0x02\n        /* \"#utility.yul\":16275:16281   */\n      dup9\n        /* \"#utility.yul\":16271:16285   */\n      mul\n        /* \"#utility.yul\":16267:16289   */\n      add\n        /* \"#utility.yul\":16261:16265   */\n      dup9\n        /* \"#utility.yul\":16254:16290   */\n      sstore\n        /* \"#utility.yul\":15689:16300   */\n      pop\n      pop\n      pop\n        /* \"#utility.yul\":15652:16539   */\n    tag_307:\n      pop\n        /* \"#utility.yul\":15242:16545   */\n      pop\n      pop\n      pop\n        /* \"#utility.yul\":15150:16545   */\n      pop\n      pop\n      jump\t// out\n        /* \"#utility.yul\":16551:17195   */\n    tag_65:\n        /* \"#utility.yul\":16748:16752   */\n      0x00\n        /* \"#utility.yul\":16786:16789   */\n      0x80\n        /* \"#utility.yul\":16775:16784   */\n      dup3\n        /* \"#utility.yul\":16771:16790   */\n      add\n        /* \"#utility.yul\":16763:16790   */\n      swap1\n      pop\n        /* \"#utility.yul\":16800:16871   */\n      tag_318\n        /* \"#utility.yul\":16868:16869   */\n      0x00\n        /* \"#utility.yul\":16857:16866   */\n      dup4\n        /* \"#utility.yul\":16853:16870   */\n      add\n        /* \"#utility.yul\":16844:16850   */\n      dup8\n        /* \"#utility.yul\":16800:16871   */\n      tag_101\n      jump\t// in\n    tag_318:\n        /* \"#utility.yul\":16881:16953   */\n      tag_319\n        /* \"#utility.yul\":16949:16951   */\n      0x20\n        /* \"#utility.yul\":16938:16947   */\n      dup4\n        /* \"#utility.yul\":16934:16952   */\n      add\n        /* \"#utility.yul\":16925:16931   */\n      dup7\n        /* \"#utility.yul\":16881:16953   */\n      tag_109\n      jump\t// in\n    tag_319:\n        /* \"#utility.yul\":16963:17035   */\n      tag_320\n        /* \"#utility.yul\":17031:17033   */\n      0x40\n        /* \"#utility.yul\":17020:17029   */\n      dup4\n        /* \"#utility.yul\":17016:17034   */\n      add\n        /* \"#utility.yul\":17007:17013   */\n      dup6\n        /* \"#utility.yul\":16963:17035   */\n      tag_101\n      jump\t// in\n    tag_320:\n        /* \"#utility.yul\":17082:17091   */\n      dup2\n        /* \"#utility.yul\":17076:17080   */\n      dup2\n        /* \"#utility.yul\":17072:17092   */\n      sub\n        /* \"#utility.yul\":17067:17069   */\n      0x60\n        /* \"#utility.yul\":17056:17065   */\n      dup4\n        /* \"#utility.yul\":17052:17070   */\n      add\n        /* \"#utility.yul\":17045:17093   */\n      mstore\n        /* \"#utility.yul\":17110:17188   */\n      tag_321\n        /* \"#utility.yul\":17183:17187   */\n      dup2\n        /* \"#utility.yul\":17174:17180   */\n      dup5\n        /* \"#utility.yul\":17110:17188   */\n      tag_106\n      jump\t// in\n    tag_321:\n        /* \"#utility.yul\":17102:17188   */\n      swap1\n      pop\n        /* \"#utility.yul\":16551:17195   */\n      swap6\n      swap5\n      pop\n      pop\n      pop\n      pop\n      pop\n      jump\t// out\n        /* \"#utility.yul\":17201:17381   */\n    tag_80:\n        /* \"#utility.yul\":17249:17326   */\n      0x4e487b7100000000000000000000000000000000000000000000000000000000\n        /* \"#utility.yul\":17246:17247   */\n      0x00\n        /* \"#utility.yul\":17239:17327   */\n      mstore\n        /* \"#utility.yul\":17346:17350   */\n      0x32\n        /* \"#utility.yul\":17343:17344   */\n      0x04\n        /* \"#utility.yul\":17336:17351   */\n      mstore\n        /* \"#utility.yul\":17370:17374   */\n      0x24\n        /* \"#utility.yul\":17367:17368   */\n      0x00\n        /* \"#utility.yul\":17360:17375   */\n      revert\n        /* \"#utility.yul\":17387:17581   */\n    tag_84:\n        /* \"#utility.yul\":17427:17431   */\n      0x00\n        /* \"#utility.yul\":17447:17467   */\n      tag_324\n        /* \"#utility.yul\":17465:17466   */\n      dup3\n        /* \"#utility.yul\":17447:17467   */\n      tag_98\n      jump\t// in\n    tag_324:\n        /* \"#utility.yul\":17442:17467   */\n      swap2\n      pop\n        /* \"#utility.yul\":17481:17501   */\n      tag_325\n        /* \"#utility.yul\":17499:17500   */\n      dup4\n        /* \"#utility.yul\":17481:17501   */\n      tag_98\n      jump\t// in\n    tag_325:\n        /* \"#utility.yul\":17476:17501   */\n      swap3\n      pop\n        /* \"#utility.yul\":17525:17526   */\n      dup3\n        /* \"#utility.yul\":17522:17523   */\n      dup3\n        /* \"#utility.yul\":17518:17527   */\n      sub\n        /* \"#utility.yul\":17510:17527   */\n      swap1\n      pop\n        /* \"#utility.yul\":17549:17550   */\n      dup2\n        /* \"#utility.yul\":17543:17547   */\n      dup2\n        /* \"#utility.yul\":17540:17551   */\n      gt\n        /* \"#utility.yul\":17537:17574   */\n      iszero\n      tag_326\n      jumpi\n        /* \"#utility.yul\":17554:17572   */\n      tag_327\n      tag_128\n      jump\t// in\n    tag_327:\n        /* \"#utility.yul\":17537:17574   */\n    tag_326:\n        /* \"#utility.yul\":17387:17581   */\n      swap3\n      swap2\n      pop\n      pop\n      jump\t// out\n        /* \"#utility.yul\":17587:17767   */\n    tag_93:\n        /* \"#utility.yul\":17635:17712   */\n      0x4e487b7100000000000000000000000000000000000000000000000000000000\n        /* \"#utility.yul\":17632:17633   */\n      0x00\n        /* \"#utility.yul\":17625:17713   */\n      mstore\n        /* \"#utility.yul\":17732:17736   */\n      0x31\n        /* \"#utility.yul\":17729:17730   */\n      0x04\n        /* \"#utility.yul\":17722:17737   */\n      mstore\n        /* \"#utility.yul\":17756:17760   */\n      0x24\n        /* \"#utility.yul\":17753:17754   */\n      0x00\n        /* \"#utility.yul\":17746:17761   */\n      revert\n\n    auxdata: 0xa2646970667358221220e31f1499f02fa5e1771a17433db99475fa422b6029e83b730cad735d9704311964736f6c634300081a0033\n}\n",
				"bytecode": {
					"linkReferences": {},
					"object": "6080604052348015600e575f80fd5b506111b48061001c5f395ff3fe608060405234801561000f575f80fd5b5060043610610060575f3560e01c8063036a1c22146100645780630df3a1e01461009757806329711737146100b3578063d3965ea6146100cf578063da304e4d146100ff578063fc00b79814610131575b5f80fd5b61007e60048036038101906100799190610823565b61014f565b60405161008e949392919061090c565b60405180910390f35b6100b160048036038101906100ac9190610980565b610220565b005b6100cd60048036038101906100c89190610aea565b610420565b005b6100e960048036038101906100e49190610b44565b6105db565b6040516100f69190610b82565b60405180910390f35b61011960048036038101906101149190610823565b610606565b60405161012893929190610b9b565b60405180910390f35b6101396106e3565b6040516101469190610b82565b60405180910390f35b6001602052805f5260405f205f91509050805f01549080600101805461017490610c04565b80601f01602080910402602001604051908101604052809291908181526020018280546101a090610c04565b80156101eb5780601f106101c2576101008083540402835291602001916101eb565b820191905f5260205f20905b8154815290600101906020018083116101ce57829003601f168201915b505050505090806002015490806003015f9054906101000a900473ffffffffffffffffffffffffffffffffffffffff16905084565b5f73ffffffffffffffffffffffffffffffffffffffff168173ffffffffffffffffffffffffffffffffffffffff160361028e576040517f08c379a000000000000000000000000000000000000000000000000000000000815260040161028590610c7e565b60405180910390fd5b5f60015f8481526020019081526020015f2090503373ffffffffffffffffffffffffffffffffffffffff16816003015f9054906101000a900473ffffffffffffffffffffffffffffffffffffffff1673ffffffffffffffffffffffffffffffffffffffff1614610333576040517f08c379a000000000000000000000000000000000000000000000000000000000815260040161032a90610d0c565b60405180910390fd5b61033d83336106e8565b81816003015f6101000a81548173ffffffffffffffffffffffffffffffffffffffff021916908373ffffffffffffffffffffffffffffffffffffffff16021790555060025f8373ffffffffffffffffffffffffffffffffffffffff1673ffffffffffffffffffffffffffffffffffffffff1681526020019081526020015f2083908060018154018082558091505060019003905f5260205f20015f90919091909150557f7498bf43d4148a03a165d093fcadc813f1a344a5f983812a2777c01f4dc2f0d683338460405161041393929190610d2a565b60405180910390a1505050565b5f8111610462576040517f08c379a000000000000000000000000000000000000000000000000000000000815260040161045990610da9565b60405180910390fd5b5f805f81548092919061047490610df4565b9190505590505f60405180608001604052808381526020018581526020018481526020013373ffffffffffffffffffffffffffffffffffffffff1681525090508060015f8481526020019081526020015f205f820151815f015560208201518160010190816104e39190610fd8565b50604082015181600201556060820151816003015f6101000a81548173ffffffffffffffffffffffffffffffffffffffff021916908373ffffffffffffffffffffffffffffffffffffffff16021790555090505060025f3373ffffffffffffffffffffffffffffffffffffffff1673ffffffffffffffffffffffffffffffffffffffff1681526020019081526020015f2082908060018154018082558091505060019003905f5260205f20015f90919091909150557f81c007c8e8af5438dc71854c32794fc2b320b9d285fc59b2c092fca4e950c199823385876040516105cd94939291906110a7565b60405180910390a150505050565b6002602052815f5260405f2081815481106105f4575f80fd5b905f5260205f20015f91509150505481565b60605f805f60015f8681526020019081526020015f209050806001018160020154826003015f9054906101000a900473ffffffffffffffffffffffffffffffffffffffff1682805461065790610c04565b80601f016020809104026020016040519081016040528092919081815260200182805461068390610c04565b80156106ce5780601f106106a5576101008083540402835291602001916106ce565b820191905f5260205f20905b8154815290600101906020018083116106b157829003601f168201915b50505050509250935093509350509193909250565b5f5481565b5f60025f8373ffffffffffffffffffffffffffffffffffffffff1673ffffffffffffffffffffffffffffffffffffffff1681526020019081526020015f2090505f5b81805490508110156107d9578382828154811061074a576107496110f1565b5b905f5260205f200154036107cc57816001838054905061076a919061111e565b8154811061077b5761077a6110f1565b5b905f5260205f200154828281548110610797576107966110f1565b5b905f5260205f200181905550818054806107b4576107b3611151565b5b600190038181905f5260205f20015f905590556107d9565b808060010191505061072a565b50505050565b5f604051905090565b5f80fd5b5f80fd5b5f819050919050565b610802816107f0565b811461080c575f80fd5b50565b5f8135905061081d816107f9565b92915050565b5f60208284031215610838576108376107e8565b5b5f6108458482850161080f565b91505092915050565b610857816107f0565b82525050565b5f81519050919050565b5f82825260208201905092915050565b8281835e5f83830152505050565b5f601f19601f8301169050919050565b5f61089f8261085d565b6108a98185610867565b93506108b9818560208601610877565b6108c281610885565b840191505092915050565b5f73ffffffffffffffffffffffffffffffffffffffff82169050919050565b5f6108f6826108cd565b9050919050565b610906816108ec565b82525050565b5f60808201905061091f5f83018761084e565b81810360208301526109318186610895565b9050610940604083018561084e565b61094d60608301846108fd565b95945050505050565b61095f816108ec565b8114610969575f80fd5b50565b5f8135905061097a81610956565b92915050565b5f8060408385031215610996576109956107e8565b5b5f6109a38582860161080f565b92505060206109b48582860161096c565b9150509250929050565b5f80fd5b5f80fd5b7f4e487b71000000000000000000000000000000000000000000000000000000005f52604160045260245ffd5b6109fc82610885565b810181811067ffffffffffffffff82111715610a1b57610a1a6109c6565b5b80604052505050565b5f610a2d6107df565b9050610a3982826109f3565b919050565b5f67ffffffffffffffff821115610a5857610a576109c6565b5b610a6182610885565b9050602081019050919050565b828183375f83830152505050565b5f610a8e610a8984610a3e565b610a24565b905082815260208101848484011115610aaa57610aa96109c2565b5b610ab5848285610a6e565b509392505050565b5f82601f830112610ad157610ad06109be565b5b8135610ae1848260208601610a7c565b91505092915050565b5f8060408385031215610b0057610aff6107e8565b5b5f83013567ffffffffffffffff811115610b1d57610b1c6107ec565b5b610b2985828601610abd565b9250506020610b3a8582860161080f565b9150509250929050565b5f8060408385031215610b5a57610b596107e8565b5b5f610b678582860161096c565b9250506020610b788582860161080f565b9150509250929050565b5f602082019050610b955f83018461084e565b92915050565b5f6060820190508181035f830152610bb38186610895565b9050610bc2602083018561084e565b610bcf60408301846108fd565b949350505050565b7f4e487b71000000000000000000000000000000000000000000000000000000005f52602260045260245ffd5b5f6002820490506001821680610c1b57607f821691505b602082108103610c2e57610c2d610bd7565b5b50919050565b7f496e76616c6964206164647265737300000000000000000000000000000000005f82015250565b5f610c68600f83610867565b9150610c7382610c34565b602082019050919050565b5f6020820190508181035f830152610c9581610c5c565b9050919050565b7f4f6e6c7920746865206f776e65722063616e207472616e7366657220746869735f8201527f2063726564697400000000000000000000000000000000000000000000000000602082015250565b5f610cf6602783610867565b9150610d0182610c9c565b604082019050919050565b5f6020820190508181035f830152610d2381610cea565b9050919050565b5f606082019050610d3d5f83018661084e565b610d4a60208301856108fd565b610d5760408301846108fd565b949350505050565b7f416d6f756e74206d7573742062652067726561746572207468616e20300000005f82015250565b5f610d93601d83610867565b9150610d9e82610d5f565b602082019050919050565b5f6020820190508181035f830152610dc081610d87565b9050919050565b7f4e487b71000000000000000000000000000000000000000000000000000000005f52601160045260245ffd5b5f610dfe826107f0565b91507fffffffffffffffffffffffffffffffffffffffffffffffffffffffffffffffff8203610e3057610e2f610dc7565b5b600182019050919050565b5f819050815f5260205f209050919050565b5f6020601f8301049050919050565b5f82821b905092915050565b5f60088302610e977fffffffffffffffffffffffffffffffffffffffffffffffffffffffffffffffff82610e5c565b610ea18683610e5c565b95508019841693508086168417925050509392505050565b5f819050919050565b5f610edc610ed7610ed2846107f0565b610eb9565b6107f0565b9050919050565b5f819050919050565b610ef583610ec2565b610f09610f0182610ee3565b848454610e68565b825550505050565b5f90565b610f1d610f11565b610f28818484610eec565b505050565b5b81811015610f4b57610f405f82610f15565b600181019050610f2e565b5050565b601f821115610f9057610f6181610e3b565b610f6a84610e4d565b81016020851015610f79578190505b610f8d610f8585610e4d565b830182610f2d565b50505b505050565b5f82821c905092915050565b5f610fb05f1984600802610f95565b1980831691505092915050565b5f610fc88383610fa1565b9150826002028217905092915050565b610fe18261085d565b67ffffffffffffffff811115610ffa57610ff96109c6565b5b6110048254610c04565b61100f828285610f4f565b5f60209050601f831160018114611040575f841561102e578287015190505b6110388582610fbd565b86555061109f565b601f19841661104e86610e3b565b5f5b8281101561107557848901518255600182019150602085019450602081019050611050565b86831015611092578489015161108e601f891682610fa1565b8355505b6001600288020188555050505b505050505050565b5f6080820190506110ba5f83018761084e565b6110c760208301866108fd565b6110d4604083018561084e565b81810360608301526110e68184610895565b905095945050505050565b7f4e487b71000000000000000000000000000000000000000000000000000000005f52603260045260245ffd5b5f611128826107f0565b9150611133836107f0565b925082820390508181111561114b5761114a610dc7565b5b92915050565b7f4e487b71000000000000000000000000000000000000000000000000000000005f52603160045260245ffdfea2646970667358221220e31f1499f02fa5e1771a17433db99475fa422b6029e83b730cad735d9704311964736f6c634300081a0033",
					"opcodes": "PUSH1 0x80 PUSH1 0x40 MSTORE CALLVALUE DUP1 ISZERO PUSH1 0xE JUMPI PUSH0 DUP1 REVERT JUMPDEST POP PUSH2 0x11B4 DUP1 PUSH2 0x1C PUSH0 CODECOPY PUSH0 RETURN INVALID PUSH1 0x80 PUSH1 0x40 MSTORE CALLVALUE DUP1 ISZERO PUSH2 0xF JUMPI PUSH0 DUP1 REVERT JUMPDEST POP PUSH1 0x4 CALLDATASIZE LT PUSH2 0x60 JUMPI PUSH0 CALLDATALOAD PUSH1 0xE0 SHR DUP1 PUSH4 0x36A1C22 EQ PUSH2 0x64 JUMPI DUP1 PUSH4 0xDF3A1E0 EQ PUSH2 0x97 JUMPI DUP1 PUSH4 0x29711737 EQ PUSH2 0xB3 JUMPI DUP1 PUSH4 0xD3965EA6 EQ PUSH2 0xCF JUMPI DUP1 PUSH4 0xDA304E4D EQ PUSH2 0xFF JUMPI DUP1 PUSH4 0xFC00B798 EQ PUSH2 0x131 JUMPI JUMPDEST PUSH0 DUP1 REVERT JUMPDEST PUSH2 0x7E PUSH1 0x4 DUP1 CALLDATASIZE SUB DUP2 ADD SWAP1 PUSH2 0x79 SWAP2 SWAP1 PUSH2 0x823 JUMP JUMPDEST PUSH2 0x14F JUMP JUMPDEST PUSH1 0x40 MLOAD PUSH2 0x8E SWAP5 SWAP4 SWAP3 SWAP2 SWAP1 PUSH2 0x90C JUMP JUMPDEST PUSH1 0x40 MLOAD DUP1 SWAP2 SUB SWAP1 RETURN JUMPDEST PUSH2 0xB1 PUSH1 0x4 DUP1 CALLDATASIZE SUB DUP2 ADD SWAP1 PUSH2 0xAC SWAP2 SWAP1 PUSH2 0x980 JUMP JUMPDEST PUSH2 0x220 JUMP JUMPDEST STOP JUMPDEST PUSH2 0xCD PUSH1 0x4 DUP1 CALLDATASIZE SUB DUP2 ADD SWAP1 PUSH2 0xC8 SWAP2 SWAP1 PUSH2 0xAEA JUMP JUMPDEST PUSH2 0x420 JUMP JUMPDEST STOP JUMPDEST PUSH2 0xE9 PUSH1 0x4 DUP1 CALLDATASIZE SUB DUP2 ADD SWAP1 PUSH2 0xE4 SWAP2 SWAP1 PUSH2 0xB44 JUMP JUMPDEST PUSH2 0x5DB JUMP JUMPDEST PUSH1 0x40 MLOAD PUSH2 0xF6 SWAP2 SWAP1 PUSH2 0xB82 JUMP JUMPDEST PUSH1 0x40 MLOAD DUP1 SWAP2 SUB SWAP1 RETURN JUMPDEST PUSH2 0x119 PUSH1 0x4 DUP1 CALLDATASIZE SUB DUP2 ADD SWAP1 PUSH2 0x114 SWAP2 SWAP1 PUSH2 0x823 JUMP JUMPDEST PUSH2 0x606 JUMP JUMPDEST PUSH1 0x40 MLOAD PUSH2 0x128 SWAP4 SWAP3 SWAP2 SWAP1 PUSH2 0xB9B JUMP JUMPDEST PUSH1 0x40 MLOAD DUP1 SWAP2 SUB SWAP1 RETURN JUMPDEST PUSH2 0x139 PUSH2 0x6E3 JUMP JUMPDEST PUSH1 0x40 MLOAD PUSH2 0x146 SWAP2 SWAP1 PUSH2 0xB82 JUMP JUMPDEST PUSH1 0x40 MLOAD DUP1 SWAP2 SUB SWAP1 RETURN JUMPDEST PUSH1 0x1 PUSH1 0x20 MSTORE DUP1 PUSH0 MSTORE PUSH1 0x40 PUSH0 KECCAK256 PUSH0 SWAP2 POP SWAP1 POP DUP1 PUSH0 ADD SLOAD SWAP1 DUP1 PUSH1 0x1 ADD DUP1 SLOAD PUSH2 0x174 SWAP1 PUSH2 0xC04 JUMP JUMPDEST DUP1 PUSH1 0x1F ADD PUSH1 0x20 DUP1 SWAP2 DIV MUL PUSH1 0x20 ADD PUSH1 0x40 MLOAD SWAP1 DUP2 ADD PUSH1 0x40 MSTORE DUP1 SWAP3 SWAP2 SWAP1 DUP2 DUP2 MSTORE PUSH1 0x20 ADD DUP3 DUP1 SLOAD PUSH2 0x1A0 SWAP1 PUSH2 0xC04 JUMP JUMPDEST DUP1 ISZERO PUSH2 0x1EB JUMPI DUP1 PUSH1 0x1F LT PUSH2 0x1C2 JUMPI PUSH2 0x100 DUP1 DUP4 SLOAD DIV MUL DUP4 MSTORE SWAP2 PUSH1 0x20 ADD SWAP2 PUSH2 0x1EB JUMP JUMPDEST DUP3 ADD SWAP2 SWAP1 PUSH0 MSTORE PUSH1 0x20 PUSH0 KECCAK256 SWAP1 JUMPDEST DUP2 SLOAD DUP2 MSTORE SWAP1 PUSH1 0x1 ADD SWAP1 PUSH1 0x20 ADD DUP1 DUP4 GT PUSH2 0x1CE JUMPI DUP3 SWAP1 SUB PUSH1 0x1F AND DUP3 ADD SWAP2 JUMPDEST POP POP POP POP POP SWAP1 DUP1 PUSH1 0x2 ADD SLOAD SWAP1 DUP1 PUSH1 0x3 ADD PUSH0 SWAP1 SLOAD SWAP1 PUSH2 0x100 EXP SWAP1 DIV PUSH20 0xFFFFFFFFFFFFFFFFFFFFFFFFFFFFFFFFFFFFFFFF AND SWAP1 POP DUP5 JUMP JUMPDEST PUSH0 PUSH20 0xFFFFFFFFFFFFFFFFFFFFFFFFFFFFFFFFFFFFFFFF AND DUP2 PUSH20 0xFFFFFFFFFFFFFFFFFFFFFFFFFFFFFFFFFFFFFFFF AND SUB PUSH2 0x28E JUMPI PUSH1 0x40 MLOAD PUSH32 0x8C379A000000000000000000000000000000000000000000000000000000000 DUP2 MSTORE PUSH1 0x4 ADD PUSH2 0x285 SWAP1 PUSH2 0xC7E JUMP JUMPDEST PUSH1 0x40 MLOAD DUP1 SWAP2 SUB SWAP1 REVERT JUMPDEST PUSH0 PUSH1 0x1 PUSH0 DUP5 DUP2 MSTORE PUSH1 0x20 ADD SWAP1 DUP2 MSTORE PUSH1 0x20 ADD PUSH0 KECCAK256 SWAP1 POP CALLER PUSH20 0xFFFFFFFFFFFFFFFFFFFFFFFFFFFFFFFFFFFFFFFF AND DUP2 PUSH1 0x3 ADD PUSH0 SWAP1 SLOAD SWAP1 PUSH2 0x100 EXP SWAP1 DIV PUSH20 0xFFFFFFFFFFFFFFFFFFFFFFFFFFFFFFFFFFFFFFFF AND PUSH20 0xFFFFFFFFFFFFFFFFFFFFFFFFFFFFFFFFFFFFFFFF AND EQ PUSH2 0x333 JUMPI PUSH1 0x40 MLOAD PUSH32 0x8C379A000000000000000000000000000000000000000000000000000000000 DUP2 MSTORE PUSH1 0x4 ADD PUSH2 0x32A SWAP1 PUSH2 0xD0C JUMP JUMPDEST PUSH1 0x40 MLOAD DUP1 SWAP2 SUB SWAP1 REVERT JUMPDEST PUSH2 0x33D DUP4 CALLER PUSH2 0x6E8 JUMP JUMPDEST DUP2 DUP2 PUSH1 0x3 ADD PUSH0 PUSH2 0x100 EXP DUP2 SLOAD DUP2 PUSH20 0xFFFFFFFFFFFFFFFFFFFFFFFFFFFFFFFFFFFFFFFF MUL NOT AND SWAP1 DUP4 PUSH20 0xFFFFFFFFFFFFFFFFFFFFFFFFFFFFFFFFFFFFFFFF AND MUL OR SWAP1 SSTORE POP PUSH1 0x2 PUSH0 DUP4 PUSH20 0xFFFFFFFFFFFFFFFFFFFFFFFFFFFFFFFFFFFFFFFF AND PUSH20 0xFFFFFFFFFFFFFFFFFFFFFFFFFFFFFFFFFFFFFFFF AND DUP2 MSTORE PUSH1 0x20 ADD SWAP1 DUP2 MSTORE PUSH1 0x20 ADD PUSH0 KECCAK256 DUP4 SWAP1 DUP1 PUSH1 0x1 DUP2 SLOAD ADD DUP1 DUP3 SSTORE DUP1 SWAP2 POP POP PUSH1 0x1 SWAP1 SUB SWAP1 PUSH0 MSTORE PUSH1 0x20 PUSH0 KECCAK256 ADD PUSH0 SWAP1 SWAP2 SWAP1 SWAP2 SWAP1 SWAP2 POP SSTORE PUSH32 0x7498BF43D4148A03A165D093FCADC813F1A344A5F983812A2777C01F4DC2F0D6 DUP4 CALLER DUP5 PUSH1 0x40 MLOAD PUSH2 0x413 SWAP4 SWAP3 SWAP2 SWAP1 PUSH2 0xD2A JUMP JUMPDEST PUSH1 0x40 MLOAD DUP1 SWAP2 SUB SWAP1 LOG1 POP POP POP JUMP JUMPDEST PUSH0 DUP2 GT PUSH2 0x462 JUMPI PUSH1 0x40 MLOAD PUSH32 0x8C379A000000000000000000000000000000000000000000000000000000000 DUP2 MSTORE PUSH1 0x4 ADD PUSH2 0x459 SWAP1 PUSH2 0xDA9 JUMP JUMPDEST PUSH1 0x40 MLOAD DUP1 SWAP2 SUB SWAP1 REVERT JUMPDEST PUSH0 DUP1 PUSH0 DUP2 SLOAD DUP1 SWAP3 SWAP2 SWAP1 PUSH2 0x474 SWAP1 PUSH2 0xDF4 JUMP JUMPDEST SWAP2 SWAP1 POP SSTORE SWAP1 POP PUSH0 PUSH1 0x40 MLOAD DUP1 PUSH1 0x80 ADD PUSH1 0x40 MSTORE DUP1 DUP4 DUP2 MSTORE PUSH1 0x20 ADD DUP6 DUP2 MSTORE PUSH1 0x20 ADD DUP5 DUP2 MSTORE PUSH1 0x20 ADD CALLER PUSH20 0xFFFFFFFFFFFFFFFFFFFFFFFFFFFFFFFFFFFFFFFF AND DUP2 MSTORE POP SWAP1 POP DUP1 PUSH1 0x1 PUSH0 DUP5 DUP2 MSTORE PUSH1 0x20 ADD SWAP1 DUP2 MSTORE PUSH1 0x20 ADD PUSH0 KECCAK256 PUSH0 DUP3 ADD MLOAD DUP2 PUSH0 ADD SSTORE PUSH1 0x20 DUP3 ADD MLOAD DUP2 PUSH1 0x1 ADD SWAP1 DUP2 PUSH2 0x4E3 SWAP2 SWAP1 PUSH2 0xFD8 JUMP JUMPDEST POP PUSH1 0x40 DUP3 ADD MLOAD DUP2 PUSH1 0x2 ADD SSTORE PUSH1 0x60 DUP3 ADD MLOAD DUP2 PUSH1 0x3 ADD PUSH0 PUSH2 0x100 EXP DUP2 SLOAD DUP2 PUSH20 0xFFFFFFFFFFFFFFFFFFFFFFFFFFFFFFFFFFFFFFFF MUL NOT AND SWAP1 DUP4 PUSH20 0xFFFFFFFFFFFFFFFFFFFFFFFFFFFFFFFFFFFFFFFF AND MUL OR SWAP1 SSTORE POP SWAP1 POP POP PUSH1 0x2 PUSH0 CALLER PUSH20 0xFFFFFFFFFFFFFFFFFFFFFFFFFFFFFFFFFFFFFFFF AND PUSH20 0xFFFFFFFFFFFFFFFFFFFFFFFFFFFFFFFFFFFFFFFF AND DUP2 MSTORE PUSH1 0x20 ADD SWAP1 DUP2 MSTORE PUSH1 0x20 ADD PUSH0 KECCAK256 DUP3 SWAP1 DUP1 PUSH1 0x1 DUP2 SLOAD ADD DUP1 DUP3 SSTORE DUP1 SWAP2 POP POP PUSH1 0x1 SWAP1 SUB SWAP1 PUSH0 MSTORE PUSH1 0x20 PUSH0 KECCAK256 ADD PUSH0 SWAP1 SWAP2 SWAP1 SWAP2 SWAP1 SWAP2 POP SSTORE PUSH32 0x81C007C8E8AF5438DC71854C32794FC2B320B9D285FC59B2C092FCA4E950C199 DUP3 CALLER DUP6 DUP8 PUSH1 0x40 MLOAD PUSH2 0x5CD SWAP5 SWAP4 SWAP3 SWAP2 SWAP1 PUSH2 0x10A7 JUMP JUMPDEST PUSH1 0x40 MLOAD DUP1 SWAP2 SUB SWAP1 LOG1 POP POP POP POP JUMP JUMPDEST PUSH1 0x2 PUSH1 0x20 MSTORE DUP2 PUSH0 MSTORE PUSH1 0x40 PUSH0 KECCAK256 DUP2 DUP2 SLOAD DUP2 LT PUSH2 0x5F4 JUMPI PUSH0 DUP1 REVERT JUMPDEST SWAP1 PUSH0 MSTORE PUSH1 0x20 PUSH0 KECCAK256 ADD PUSH0 SWAP2 POP SWAP2 POP POP SLOAD DUP2 JUMP JUMPDEST PUSH1 0x60 PUSH0 DUP1 PUSH0 PUSH1 0x1 PUSH0 DUP7 DUP2 MSTORE PUSH1 0x20 ADD SWAP1 DUP2 MSTORE PUSH1 0x20 ADD PUSH0 KECCAK256 SWAP1 POP DUP1 PUSH1 0x1 ADD DUP2 PUSH1 0x2 ADD SLOAD DUP3 PUSH1 0x3 ADD PUSH0 SWAP1 SLOAD SWAP1 PUSH2 0x100 EXP SWAP1 DIV PUSH20 0xFFFFFFFFFFFFFFFFFFFFFFFFFFFFFFFFFFFFFFFF AND DUP3 DUP1 SLOAD PUSH2 0x657 SWAP1 PUSH2 0xC04 JUMP JUMPDEST DUP1 PUSH1 0x1F ADD PUSH1 0x20 DUP1 SWAP2 DIV MUL PUSH1 0x20 ADD PUSH1 0x40 MLOAD SWAP1 DUP2 ADD PUSH1 0x40 MSTORE DUP1 SWAP3 SWAP2 SWAP1 DUP2 DUP2 MSTORE PUSH1 0x20 ADD DUP3 DUP1 SLOAD PUSH2 0x683 SWAP1 PUSH2 0xC04 JUMP JUMPDEST DUP1 ISZERO PUSH2 0x6CE JUMPI DUP1 PUSH1 0x1F LT PUSH2 0x6A5 JUMPI PUSH2 0x100 DUP1 DUP4 SLOAD DIV MUL DUP4 MSTORE SWAP2 PUSH1 0x20 ADD SWAP2 PUSH2 0x6CE JUMP JUMPDEST DUP3 ADD SWAP2 SWAP1 PUSH0 MSTORE PUSH1 0x20 PUSH0 KECCAK256 SWAP1 JUMPDEST DUP2 SLOAD DUP2 MSTORE SWAP1 PUSH1 0x1 ADD SWAP1 PUSH1 0x20 ADD DUP1 DUP4 GT PUSH2 0x6B1 JUMPI DUP3 SWAP1 SUB PUSH1 0x1F AND DUP3 ADD SWAP2 JUMPDEST POP POP POP POP POP SWAP3 POP SWAP4 POP SWAP4 POP SWAP4 POP POP SWAP2 SWAP4 SWAP1 SWAP3 POP JUMP JUMPDEST PUSH0 SLOAD DUP2 JUMP JUMPDEST PUSH0 PUSH1 0x2 PUSH0 DUP4 PUSH20 0xFFFFFFFFFFFFFFFFFFFFFFFFFFFFFFFFFFFFFFFF AND PUSH20 0xFFFFFFFFFFFFFFFFFFFFFFFFFFFFFFFFFFFFFFFF AND DUP2 MSTORE PUSH1 0x20 ADD SWAP1 DUP2 MSTORE PUSH1 0x20 ADD PUSH0 KECCAK256 SWAP1 POP PUSH0 JUMPDEST DUP2 DUP1 SLOAD SWAP1 POP DUP2 LT ISZERO PUSH2 0x7D9 JUMPI DUP4 DUP3 DUP3 DUP2 SLOAD DUP2 LT PUSH2 0x74A JUMPI PUSH2 0x749 PUSH2 0x10F1 JUMP JUMPDEST JUMPDEST SWAP1 PUSH0 MSTORE PUSH1 0x20 PUSH0 KECCAK256 ADD SLOAD SUB PUSH2 0x7CC JUMPI DUP2 PUSH1 0x1 DUP4 DUP1 SLOAD SWAP1 POP PUSH2 0x76A SWAP2 SWAP1 PUSH2 0x111E JUMP JUMPDEST DUP2 SLOAD DUP2 LT PUSH2 0x77B JUMPI PUSH2 0x77A PUSH2 0x10F1 JUMP JUMPDEST JUMPDEST SWAP1 PUSH0 MSTORE PUSH1 0x20 PUSH0 KECCAK256 ADD SLOAD DUP3 DUP3 DUP2 SLOAD DUP2 LT PUSH2 0x797 JUMPI PUSH2 0x796 PUSH2 0x10F1 JUMP JUMPDEST JUMPDEST SWAP1 PUSH0 MSTORE PUSH1 0x20 PUSH0 KECCAK256 ADD DUP2 SWAP1 SSTORE POP DUP2 DUP1 SLOAD DUP1 PUSH2 0x7B4 JUMPI PUSH2 0x7B3 PUSH2 0x1151 JUMP JUMPDEST JUMPDEST PUSH1 0x1 SWAP1 SUB DUP2 DUP2 SWAP1 PUSH0 MSTORE PUSH1 0x20 PUSH0 KECCAK256 ADD PUSH0 SWAP1 SSTORE SWAP1 SSTORE PUSH2 0x7D9 JUMP JUMPDEST DUP1 DUP1 PUSH1 0x1 ADD SWAP2 POP POP PUSH2 0x72A JUMP JUMPDEST POP POP POP POP JUMP JUMPDEST PUSH0 PUSH1 0x40 MLOAD SWAP1 POP SWAP1 JUMP JUMPDEST PUSH0 DUP1 REVERT JUMPDEST PUSH0 DUP1 REVERT JUMPDEST PUSH0 DUP2 SWAP1 POP SWAP2 SWAP1 POP JUMP JUMPDEST PUSH2 0x802 DUP2 PUSH2 0x7F0 JUMP JUMPDEST DUP2 EQ PUSH2 0x80C JUMPI PUSH0 DUP1 REVERT JUMPDEST POP JUMP JUMPDEST PUSH0 DUP2 CALLDATALOAD SWAP1 POP PUSH2 0x81D DUP2 PUSH2 0x7F9 JUMP JUMPDEST SWAP3 SWAP2 POP POP JUMP JUMPDEST PUSH0 PUSH1 0x20 DUP3 DUP5 SUB SLT ISZERO PUSH2 0x838 JUMPI PUSH2 0x837 PUSH2 0x7E8 JUMP JUMPDEST JUMPDEST PUSH0 PUSH2 0x845 DUP5 DUP3 DUP6 ADD PUSH2 0x80F JUMP JUMPDEST SWAP2 POP POP SWAP3 SWAP2 POP POP JUMP JUMPDEST PUSH2 0x857 DUP2 PUSH2 0x7F0 JUMP JUMPDEST DUP3 MSTORE POP POP JUMP JUMPDEST PUSH0 DUP2 MLOAD SWAP1 POP SWAP2 SWAP1 POP JUMP JUMPDEST PUSH0 DUP3 DUP3 MSTORE PUSH1 0x20 DUP3 ADD SWAP1 POP SWAP3 SWAP2 POP POP JUMP JUMPDEST DUP3 DUP2 DUP4 MCOPY PUSH0 DUP4 DUP4 ADD MSTORE POP POP POP JUMP JUMPDEST PUSH0 PUSH1 0x1F NOT PUSH1 0x1F DUP4 ADD AND SWAP1 POP SWAP2 SWAP1 POP JUMP JUMPDEST PUSH0 PUSH2 0x89F DUP3 PUSH2 0x85D JUMP JUMPDEST PUSH2 0x8A9 DUP2 DUP6 PUSH2 0x867 JUMP JUMPDEST SWAP4 POP PUSH2 0x8B9 DUP2 DUP6 PUSH1 0x20 DUP7 ADD PUSH2 0x877 JUMP JUMPDEST PUSH2 0x8C2 DUP2 PUSH2 0x885 JUMP JUMPDEST DUP5 ADD SWAP2 POP POP SWAP3 SWAP2 POP POP JUMP JUMPDEST PUSH0 PUSH20 0xFFFFFFFFFFFFFFFFFFFFFFFFFFFFFFFFFFFFFFFF DUP3 AND SWAP1 POP SWAP2 SWAP1 POP JUMP JUMPDEST PUSH0 PUSH2 0x8F6 DUP3 PUSH2 0x8CD JUMP JUMPDEST SWAP1 POP SWAP2 SWAP1 POP JUMP JUMPDEST PUSH2 0x906 DUP2 PUSH2 0x8EC JUMP JUMPDEST DUP3 MSTORE POP POP JUMP JUMPDEST PUSH0 PUSH1 0x80 DUP3 ADD SWAP1 POP PUSH2 0x91F PUSH0 DUP4 ADD DUP8 PUSH2 0x84E JUMP JUMPDEST DUP2 DUP2 SUB PUSH1 0x20 DUP4 ADD MSTORE PUSH2 0x931 DUP2 DUP7 PUSH2 0x895 JUMP JUMPDEST SWAP1 POP PUSH2 0x940 PUSH1 0x40 DUP4 ADD DUP6 PUSH2 0x84E JUMP JUMPDEST PUSH2 0x94D PUSH1 0x60 DUP4 ADD DUP5 PUSH2 0x8FD JUMP JUMPDEST SWAP6 SWAP5 POP POP POP POP POP JUMP JUMPDEST PUSH2 0x95F DUP2 PUSH2 0x8EC JUMP JUMPDEST DUP2 EQ PUSH2 0x969 JUMPI PUSH0 DUP1 REVERT JUMPDEST POP JUMP JUMPDEST PUSH0 DUP2 CALLDATALOAD SWAP1 POP PUSH2 0x97A DUP2 PUSH2 0x956 JUMP JUMPDEST SWAP3 SWAP2 POP POP JUMP JUMPDEST PUSH0 DUP1 PUSH1 0x40 DUP4 DUP6 SUB SLT ISZERO PUSH2 0x996 JUMPI PUSH2 0x995 PUSH2 0x7E8 JUMP JUMPDEST JUMPDEST PUSH0 PUSH2 0x9A3 DUP6 DUP3 DUP7 ADD PUSH2 0x80F JUMP JUMPDEST SWAP3 POP POP PUSH1 0x20 PUSH2 0x9B4 DUP6 DUP3 DUP7 ADD PUSH2 0x96C JUMP JUMPDEST SWAP2 POP POP SWAP3 POP SWAP3 SWAP1 POP JUMP JUMPDEST PUSH0 DUP1 REVERT JUMPDEST PUSH0 DUP1 REVERT JUMPDEST PUSH32 0x4E487B7100000000000000000000000000000000000000000000000000000000 PUSH0 MSTORE PUSH1 0x41 PUSH1 0x4 MSTORE PUSH1 0x24 PUSH0 REVERT JUMPDEST PUSH2 0x9FC DUP3 PUSH2 0x885 JUMP JUMPDEST DUP2 ADD DUP2 DUP2 LT PUSH8 0xFFFFFFFFFFFFFFFF DUP3 GT OR ISZERO PUSH2 0xA1B JUMPI PUSH2 0xA1A PUSH2 0x9C6 JUMP JUMPDEST JUMPDEST DUP1 PUSH1 0x40 MSTORE POP POP POP JUMP JUMPDEST PUSH0 PUSH2 0xA2D PUSH2 0x7DF JUMP JUMPDEST SWAP1 POP PUSH2 0xA39 DUP3 DUP3 PUSH2 0x9F3 JUMP JUMPDEST SWAP2 SWAP1 POP JUMP JUMPDEST PUSH0 PUSH8 0xFFFFFFFFFFFFFFFF DUP3 GT ISZERO PUSH2 0xA58 JUMPI PUSH2 0xA57 PUSH2 0x9C6 JUMP JUMPDEST JUMPDEST PUSH2 0xA61 DUP3 PUSH2 0x885 JUMP JUMPDEST SWAP1 POP PUSH1 0x20 DUP2 ADD SWAP1 POP SWAP2 SWAP1 POP JUMP JUMPDEST DUP3 DUP2 DUP4 CALLDATACOPY PUSH0 DUP4 DUP4 ADD MSTORE POP POP POP JUMP JUMPDEST PUSH0 PUSH2 0xA8E PUSH2 0xA89 DUP5 PUSH2 0xA3E JUMP JUMPDEST PUSH2 0xA24 JUMP JUMPDEST SWAP1 POP DUP3 DUP2 MSTORE PUSH1 0x20 DUP2 ADD DUP5 DUP5 DUP5 ADD GT ISZERO PUSH2 0xAAA JUMPI PUSH2 0xAA9 PUSH2 0x9C2 JUMP JUMPDEST JUMPDEST PUSH2 0xAB5 DUP5 DUP3 DUP6 PUSH2 0xA6E JUMP JUMPDEST POP SWAP4 SWAP3 POP POP POP JUMP JUMPDEST PUSH0 DUP3 PUSH1 0x1F DUP4 ADD SLT PUSH2 0xAD1 JUMPI PUSH2 0xAD0 PUSH2 0x9BE JUMP JUMPDEST JUMPDEST DUP2 CALLDATALOAD PUSH2 0xAE1 DUP5 DUP3 PUSH1 0x20 DUP7 ADD PUSH2 0xA7C JUMP JUMPDEST SWAP2 POP POP SWAP3 SWAP2 POP POP JUMP JUMPDEST PUSH0 DUP1 PUSH1 0x40 DUP4 DUP6 SUB SLT ISZERO PUSH2 0xB00 JUMPI PUSH2 0xAFF PUSH2 0x7E8 JUMP JUMPDEST JUMPDEST PUSH0 DUP4 ADD CALLDATALOAD PUSH8 0xFFFFFFFFFFFFFFFF DUP2 GT ISZERO PUSH2 0xB1D JUMPI PUSH2 0xB1C PUSH2 0x7EC JUMP JUMPDEST JUMPDEST PUSH2 0xB29 DUP6 DUP3 DUP7 ADD PUSH2 0xABD JUMP JUMPDEST SWAP3 POP POP PUSH1 0x20 PUSH2 0xB3A DUP6 DUP3 DUP7 ADD PUSH2 0x80F JUMP JUMPDEST SWAP2 POP POP SWAP3 POP SWAP3 SWAP1 POP JUMP JUMPDEST PUSH0 DUP1 PUSH1 0x40 DUP4 DUP6 SUB SLT ISZERO PUSH2 0xB5A JUMPI PUSH2 0xB59 PUSH2 0x7E8 JUMP JUMPDEST JUMPDEST PUSH0 PUSH2 0xB67 DUP6 DUP3 DUP7 ADD PUSH2 0x96C JUMP JUMPDEST SWAP3 POP POP PUSH1 0x20 PUSH2 0xB78 DUP6 DUP3 DUP7 ADD PUSH2 0x80F JUMP JUMPDEST SWAP2 POP POP SWAP3 POP SWAP3 SWAP1 POP JUMP JUMPDEST PUSH0 PUSH1 0x20 DUP3 ADD SWAP1 POP PUSH2 0xB95 PUSH0 DUP4 ADD DUP5 PUSH2 0x84E JUMP JUMPDEST SWAP3 SWAP2 POP POP JUMP JUMPDEST PUSH0 PUSH1 0x60 DUP3 ADD SWAP1 POP DUP2 DUP2 SUB PUSH0 DUP4 ADD MSTORE PUSH2 0xBB3 DUP2 DUP7 PUSH2 0x895 JUMP JUMPDEST SWAP1 POP PUSH2 0xBC2 PUSH1 0x20 DUP4 ADD DUP6 PUSH2 0x84E JUMP JUMPDEST PUSH2 0xBCF PUSH1 0x40 DUP4 ADD DUP5 PUSH2 0x8FD JUMP JUMPDEST SWAP5 SWAP4 POP POP POP POP JUMP JUMPDEST PUSH32 0x4E487B7100000000000000000000000000000000000000000000000000000000 PUSH0 MSTORE PUSH1 0x22 PUSH1 0x4 MSTORE PUSH1 0x24 PUSH0 REVERT JUMPDEST PUSH0 PUSH1 0x2 DUP3 DIV SWAP1 POP PUSH1 0x1 DUP3 AND DUP1 PUSH2 0xC1B JUMPI PUSH1 0x7F DUP3 AND SWAP2 POP JUMPDEST PUSH1 0x20 DUP3 LT DUP2 SUB PUSH2 0xC2E JUMPI PUSH2 0xC2D PUSH2 0xBD7 JUMP JUMPDEST JUMPDEST POP SWAP2 SWAP1 POP JUMP JUMPDEST PUSH32 0x496E76616C696420616464726573730000000000000000000000000000000000 PUSH0 DUP3 ADD MSTORE POP JUMP JUMPDEST PUSH0 PUSH2 0xC68 PUSH1 0xF DUP4 PUSH2 0x867 JUMP JUMPDEST SWAP2 POP PUSH2 0xC73 DUP3 PUSH2 0xC34 JUMP JUMPDEST PUSH1 0x20 DUP3 ADD SWAP1 POP SWAP2 SWAP1 POP JUMP JUMPDEST PUSH0 PUSH1 0x20 DUP3 ADD SWAP1 POP DUP2 DUP2 SUB PUSH0 DUP4 ADD MSTORE PUSH2 0xC95 DUP2 PUSH2 0xC5C JUMP JUMPDEST SWAP1 POP SWAP2 SWAP1 POP JUMP JUMPDEST PUSH32 0x4F6E6C7920746865206F776E65722063616E207472616E736665722074686973 PUSH0 DUP3 ADD MSTORE PUSH32 0x2063726564697400000000000000000000000000000000000000000000000000 PUSH1 0x20 DUP3 ADD MSTORE POP JUMP JUMPDEST PUSH0 PUSH2 0xCF6 PUSH1 0x27 DUP4 PUSH2 0x867 JUMP JUMPDEST SWAP2 POP PUSH2 0xD01 DUP3 PUSH2 0xC9C JUMP JUMPDEST PUSH1 0x40 DUP3 ADD SWAP1 POP SWAP2 SWAP1 POP JUMP JUMPDEST PUSH0 PUSH1 0x20 DUP3 ADD SWAP1 POP DUP2 DUP2 SUB PUSH0 DUP4 ADD MSTORE PUSH2 0xD23 DUP2 PUSH2 0xCEA JUMP JUMPDEST SWAP1 POP SWAP2 SWAP1 POP JUMP JUMPDEST PUSH0 PUSH1 0x60 DUP3 ADD SWAP1 POP PUSH2 0xD3D PUSH0 DUP4 ADD DUP7 PUSH2 0x84E JUMP JUMPDEST PUSH2 0xD4A PUSH1 0x20 DUP4 ADD DUP6 PUSH2 0x8FD JUMP JUMPDEST PUSH2 0xD57 PUSH1 0x40 DUP4 ADD DUP5 PUSH2 0x8FD JUMP JUMPDEST SWAP5 SWAP4 POP POP POP POP JUMP JUMPDEST PUSH32 0x416D6F756E74206D7573742062652067726561746572207468616E2030000000 PUSH0 DUP3 ADD MSTORE POP JUMP JUMPDEST PUSH0 PUSH2 0xD93 PUSH1 0x1D DUP4 PUSH2 0x867 JUMP JUMPDEST SWAP2 POP PUSH2 0xD9E DUP3 PUSH2 0xD5F JUMP JUMPDEST PUSH1 0x20 DUP3 ADD SWAP1 POP SWAP2 SWAP1 POP JUMP JUMPDEST PUSH0 PUSH1 0x20 DUP3 ADD SWAP1 POP DUP2 DUP2 SUB PUSH0 DUP4 ADD MSTORE PUSH2 0xDC0 DUP2 PUSH2 0xD87 JUMP JUMPDEST SWAP1 POP SWAP2 SWAP1 POP JUMP JUMPDEST PUSH32 0x4E487B7100000000000000000000000000000000000000000000000000000000 PUSH0 MSTORE PUSH1 0x11 PUSH1 0x4 MSTORE PUSH1 0x24 PUSH0 REVERT JUMPDEST PUSH0 PUSH2 0xDFE DUP3 PUSH2 0x7F0 JUMP JUMPDEST SWAP2 POP PUSH32 0xFFFFFFFFFFFFFFFFFFFFFFFFFFFFFFFFFFFFFFFFFFFFFFFFFFFFFFFFFFFFFFFF DUP3 SUB PUSH2 0xE30 JUMPI PUSH2 0xE2F PUSH2 0xDC7 JUMP JUMPDEST JUMPDEST PUSH1 0x1 DUP3 ADD SWAP1 POP SWAP2 SWAP1 POP JUMP JUMPDEST PUSH0 DUP2 SWAP1 POP DUP2 PUSH0 MSTORE PUSH1 0x20 PUSH0 KECCAK256 SWAP1 POP SWAP2 SWAP1 POP JUMP JUMPDEST PUSH0 PUSH1 0x20 PUSH1 0x1F DUP4 ADD DIV SWAP1 POP SWAP2 SWAP1 POP JUMP JUMPDEST PUSH0 DUP3 DUP3 SHL SWAP1 POP SWAP3 SWAP2 POP POP JUMP JUMPDEST PUSH0 PUSH1 0x8 DUP4 MUL PUSH2 0xE97 PUSH32 0xFFFFFFFFFFFFFFFFFFFFFFFFFFFFFFFFFFFFFFFFFFFFFFFFFFFFFFFFFFFFFFFF DUP3 PUSH2 0xE5C JUMP JUMPDEST PUSH2 0xEA1 DUP7 DUP4 PUSH2 0xE5C JUMP JUMPDEST SWAP6 POP DUP1 NOT DUP5 AND SWAP4 POP DUP1 DUP7 AND DUP5 OR SWAP3 POP POP POP SWAP4 SWAP3 POP POP POP JUMP JUMPDEST PUSH0 DUP2 SWAP1 POP SWAP2 SWAP1 POP JUMP JUMPDEST PUSH0 PUSH2 0xEDC PUSH2 0xED7 PUSH2 0xED2 DUP5 PUSH2 0x7F0 JUMP JUMPDEST PUSH2 0xEB9 JUMP JUMPDEST PUSH2 0x7F0 JUMP JUMPDEST SWAP1 POP SWAP2 SWAP1 POP JUMP JUMPDEST PUSH0 DUP2 SWAP1 POP SWAP2 SWAP1 POP JUMP JUMPDEST PUSH2 0xEF5 DUP4 PUSH2 0xEC2 JUMP JUMPDEST PUSH2 0xF09 PUSH2 0xF01 DUP3 PUSH2 0xEE3 JUMP JUMPDEST DUP5 DUP5 SLOAD PUSH2 0xE68 JUMP JUMPDEST DUP3 SSTORE POP POP POP POP JUMP JUMPDEST PUSH0 SWAP1 JUMP JUMPDEST PUSH2 0xF1D PUSH2 0xF11 JUMP JUMPDEST PUSH2 0xF28 DUP2 DUP5 DUP5 PUSH2 0xEEC JUMP JUMPDEST POP POP POP JUMP JUMPDEST JUMPDEST DUP2 DUP2 LT ISZERO PUSH2 0xF4B JUMPI PUSH2 0xF40 PUSH0 DUP3 PUSH2 0xF15 JUMP JUMPDEST PUSH1 0x1 DUP2 ADD SWAP1 POP PUSH2 0xF2E JUMP JUMPDEST POP POP JUMP JUMPDEST PUSH1 0x1F DUP3 GT ISZERO PUSH2 0xF90 JUMPI PUSH2 0xF61 DUP2 PUSH2 0xE3B JUMP JUMPDEST PUSH2 0xF6A DUP5 PUSH2 0xE4D JUMP JUMPDEST DUP2 ADD PUSH1 0x20 DUP6 LT ISZERO PUSH2 0xF79 JUMPI DUP2 SWAP1 POP JUMPDEST PUSH2 0xF8D PUSH2 0xF85 DUP6 PUSH2 0xE4D JUMP JUMPDEST DUP4 ADD DUP3 PUSH2 0xF2D JUMP JUMPDEST POP POP JUMPDEST POP POP POP JUMP JUMPDEST PUSH0 DUP3 DUP3 SHR SWAP1 POP SWAP3 SWAP2 POP POP JUMP JUMPDEST PUSH0 PUSH2 0xFB0 PUSH0 NOT DUP5 PUSH1 0x8 MUL PUSH2 0xF95 JUMP JUMPDEST NOT DUP1 DUP4 AND SWAP2 POP POP SWAP3 SWAP2 POP POP JUMP JUMPDEST PUSH0 PUSH2 0xFC8 DUP4 DUP4 PUSH2 0xFA1 JUMP JUMPDEST SWAP2 POP DUP3 PUSH1 0x2 MUL DUP3 OR SWAP1 POP SWAP3 SWAP2 POP POP JUMP JUMPDEST PUSH2 0xFE1 DUP3 PUSH2 0x85D JUMP JUMPDEST PUSH8 0xFFFFFFFFFFFFFFFF DUP2 GT ISZERO PUSH2 0xFFA JUMPI PUSH2 0xFF9 PUSH2 0x9C6 JUMP JUMPDEST JUMPDEST PUSH2 0x1004 DUP3 SLOAD PUSH2 0xC04 JUMP JUMPDEST PUSH2 0x100F DUP3 DUP3 DUP6 PUSH2 0xF4F JUMP JUMPDEST PUSH0 PUSH1 0x20 SWAP1 POP PUSH1 0x1F DUP4 GT PUSH1 0x1 DUP2 EQ PUSH2 0x1040 JUMPI PUSH0 DUP5 ISZERO PUSH2 0x102E JUMPI DUP3 DUP8 ADD MLOAD SWAP1 POP JUMPDEST PUSH2 0x1038 DUP6 DUP3 PUSH2 0xFBD JUMP JUMPDEST DUP7 SSTORE POP PUSH2 0x109F JUMP JUMPDEST PUSH1 0x1F NOT DUP5 AND PUSH2 0x104E DUP7 PUSH2 0xE3B JUMP JUMPDEST PUSH0 JUMPDEST DUP3 DUP2 LT ISZERO PUSH2 0x1075 JUMPI DUP5 DUP10 ADD MLOAD DUP3 SSTORE PUSH1 0x1 DUP3 ADD SWAP2 POP PUSH1 0x20 DUP6 ADD SWAP5 POP PUSH1 0x20 DUP2 ADD SWAP1 POP PUSH2 0x1050 JUMP JUMPDEST DUP7 DUP4 LT ISZERO PUSH2 0x1092 JUMPI DUP5 DUP10 ADD MLOAD PUSH2 0x108E PUSH1 0x1F DUP10 AND DUP3 PUSH2 0xFA1 JUMP JUMPDEST DUP4 SSTORE POP JUMPDEST PUSH1 0x1 PUSH1 0x2 DUP9 MUL ADD DUP9 SSTORE POP POP POP JUMPDEST POP POP POP POP POP POP JUMP JUMPDEST PUSH0 PUSH1 0x80 DUP3 ADD SWAP1 POP PUSH2 0x10BA PUSH0 DUP4 ADD DUP8 PUSH2 0x84E JUMP JUMPDEST PUSH2 0x10C7 PUSH1 0x20 DUP4 ADD DUP7 PUSH2 0x8FD JUMP JUMPDEST PUSH2 0x10D4 PUSH1 0x40 DUP4 ADD DUP6 PUSH2 0x84E JUMP JUMPDEST DUP2 DUP2 SUB PUSH1 0x60 DUP4 ADD MSTORE PUSH2 0x10E6 DUP2 DUP5 PUSH2 0x895 JUMP JUMPDEST SWAP1 POP SWAP6 SWAP5 POP POP POP POP POP JUMP JUMPDEST PUSH32 0x4E487B7100000000000000000000000000000000000000000000000000000000 PUSH0 MSTORE PUSH1 0x32 PUSH1 0x4 MSTORE PUSH1 0x24 PUSH0 REVERT JUMPDEST PUSH0 PUSH2 0x1128 DUP3 PUSH2 0x7F0 JUMP JUMPDEST SWAP2 POP PUSH2 0x1133 DUP4 PUSH2 0x7F0 JUMP JUMPDEST SWAP3 POP DUP3 DUP3 SUB SWAP1 POP DUP2 DUP2 GT ISZERO PUSH2 0x114B JUMPI PUSH2 0x114A PUSH2 0xDC7 JUMP JUMPDEST JUMPDEST SWAP3 SWAP2 POP POP JUMP JUMPDEST PUSH32 0x4E487B7100000000000000000000000000000000000000000000000000000000 PUSH0 MSTORE PUSH1 0x31 PUSH1 0x4 MSTORE PUSH1 0x24 PUSH0 REVERT INVALID LOG2 PUSH5 0x6970667358 0x22 SLT KECCAK256 0xE3 0x1F EQ SWAP10 CREATE 0x2F 0xA5 0xE1 PUSH24 0x1A17433DB99475FA422B6029E83B730CAD735D9704311964 PUSH20 0x6F6C634300081A00330000000000000000000000 "
				},
				"gasEstimates": {
					"creation": {
						"codeDepositCost": "906400",
						"executionCost": "940",
						"totalCost": "907340"
					},
					"external": {
						"credits(uint256)": "infinite",
						"getCredit(uint256)": "infinite",
						"issueCredit(string,uint256)": "infinite",
						"nextCreditId()": "2512",
						"ownerCredits(address,uint256)": "infinite",
						"transferCredit(uint256,address)": "infinite"
					},
					"internal": {
						"_removeCreditFromOwner(uint256,address)": "infinite"
					}
				},
				"methodIdentifiers": {
					"credits(uint256)": "036a1c22",
					"getCredit(uint256)": "da304e4d",
					"issueCredit(string,uint256)": "29711737",
					"nextCreditId()": "fc00b798",
					"ownerCredits(address,uint256)": "d3965ea6",
					"transferCredit(uint256,address)": "0df3a1e0"
				}
			},
			"storageLayout": {
				"storage": [
					{
						"astId": 12,
						"contract": "MyContract.sol:CarbonCredit",
						"label": "nextCreditId",
						"offset": 0,
						"slot": "0",
						"type": "t_uint256"
					},
					{
						"astId": 17,
						"contract": "MyContract.sol:CarbonCredit",
						"label": "credits",
						"offset": 0,
						"slot": "1",
						"type": "t_mapping(t_uint256,t_struct(Credit)10_storage)"
					},
					{
						"astId": 22,
						"contract": "MyContract.sol:CarbonCredit",
						"label": "ownerCredits",
						"offset": 0,
						"slot": "2",
						"type": "t_mapping(t_address,t_array(t_uint256)dyn_storage)"
					}
				],
				"types": {
					"t_address": {
						"encoding": "inplace",
						"label": "address",
						"numberOfBytes": "20"
					},
					"t_array(t_uint256)dyn_storage": {
						"base": "t_uint256",
						"encoding": "dynamic_array",
						"label": "uint256[]",
						"numberOfBytes": "32"
					},
					"t_mapping(t_address,t_array(t_uint256)dyn_storage)": {
						"encoding": "mapping",
						"key": "t_address",
						"label": "mapping(address => uint256[])",
						"numberOfBytes": "32",
						"value": "t_array(t_uint256)dyn_storage"
					},
					"t_mapping(t_uint256,t_struct(Credit)10_storage)": {
						"encoding": "mapping",
						"key": "t_uint256",
						"label": "mapping(uint256 => struct CarbonCredit.Credit)",
						"numberOfBytes": "32",
						"value": "t_struct(Credit)10_storage"
					},
					"t_string_storage": {
						"encoding": "bytes",
						"label": "string",
						"numberOfBytes": "32"
					},
					"t_struct(Credit)10_storage": {
						"encoding": "inplace",
						"label": "struct CarbonCredit.Credit",
						"members": [
							{
								"astId": 3,
								"contract": "MyContract.sol:CarbonCredit",
								"label": "id",
								"offset": 0,
								"slot": "0",
								"type": "t_uint256"
							},
							{
								"astId": 5,
								"contract": "MyContract.sol:CarbonCredit",
								"label": "description",
								"offset": 0,
								"slot": "1",
								"type": "t_string_storage"
							},
							{
								"astId": 7,
								"contract": "MyContract.sol:CarbonCredit",
								"label": "amount",
								"offset": 0,
								"slot": "2",
								"type": "t_uint256"
							},
							{
								"astId": 9,
								"contract": "MyContract.sol:CarbonCredit",
								"label": "owner",
								"offset": 0,
								"slot": "3",
								"type": "t_address"
							}
						],
						"numberOfBytes": "128"
					},
					"t_uint256": {
						"encoding": "inplace",
						"label": "uint256",
						"numberOfBytes": "32"
					}
				}
			},
			"userdoc": {
				"kind": "user",
				"methods": {},
				"version": 1
			}
		}
	}
}