{
	"CarbonCredit.sol": {
		"CarbonCredit": {
			"abi": [
				{
					"anonymous": false,
					"inputs": [
						{
							"indexed": true,
							"internalType": "uint256",
							"name": "creditId",
							"type": "uint256"
						},
						{
							"indexed": false,
							"internalType": "string",
							"name": "description",
							"type": "string"
						},
						{
							"indexed": false,
							"internalType": "uint256",
							"name": "amount",
							"type": "uint256"
						},
						{
							"indexed": true,
							"internalType": "address",
							"name": "owner",
							"type": "address"
						}
					],
					"name": "CreditIssued",
					"type": "event"
				},
				{
					"anonymous": false,
					"inputs": [
						{
							"indexed": true,
							"internalType": "uint256",
							"name": "creditId",
							"type": "uint256"
						},
						{
							"indexed": true,
							"internalType": "address",
							"name": "from",
							"type": "address"
						},
						{
							"indexed": true,
							"internalType": "address",
							"name": "to",
							"type": "address"
						}
					],
					"name": "CreditTransferred",
					"type": "event"
				},
				{
					"inputs": [
						{
							"internalType": "uint256",
							"name": "",
							"type": "uint256"
						}
					],
					"name": "credits",
					"outputs": [
						{
							"internalType": "string",
							"name": "description",
							"type": "string"
						},
						{
							"internalType": "uint256",
							"name": "amount",
							"type": "uint256"
						},
						{
							"internalType": "address",
							"name": "owner",
							"type": "address"
						}
					],
					"stateMutability": "view",
					"type": "function"
				},
				{
					"inputs": [
						{
							"internalType": "uint256",
							"name": "creditId",
							"type": "uint256"
						}
					],
					"name": "getCredit",
					"outputs": [
						{
							"internalType": "string",
							"name": "",
							"type": "string"
						},
						{
							"internalType": "uint256",
							"name": "",
							"type": "uint256"
						},
						{
							"internalType": "address",
							"name": "",
							"type": "address"
						}
					],
					"stateMutability": "view",
					"type": "function"
				},
				{
					"inputs": [
						{
							"internalType": "string",
							"name": "description",
							"type": "string"
						},
						{
							"internalType": "uint256",
							"name": "amount",
							"type": "uint256"
						}
					],
					"name": "issueCredit",
					"outputs": [],
					"stateMutability": "nonpayable",
					"type": "function"
				},
				{
					"inputs": [
						{
							"internalType": "uint256",
							"name": "creditId",
							"type": "uint256"
						},
						{
							"internalType": "address",
							"name": "newOwner",
							"type": "address"
						}
					],
					"name": "transferCredit",
					"outputs": [],
					"stateMutability": "nonpayable",
					"type": "function"
				}
			],
			"devdoc": {
				"kind": "dev",
				"methods": {},
				"version": 1
			},
			"evm": {
				"assembly": "    /* \"CarbonCredit.sol\":60:1547  contract CarbonCredit {\r... */\n  mstore(0x40, 0x80)\n  callvalue\n  dup1\n  iszero\n  tag_1\n  jumpi\n  0x00\n  dup1\n  revert\ntag_1:\n  pop\n  dataSize(sub_0)\n  dup1\n  dataOffset(sub_0)\n  0x00\n  codecopy\n  0x00\n  return\nstop\n\nsub_0: assembly {\n        /* \"CarbonCredit.sol\":60:1547  contract CarbonCredit {\r... */\n      mstore(0x40, 0x80)\n      callvalue\n      dup1\n      iszero\n      tag_1\n      jumpi\n      0x00\n      dup1\n      revert\n    tag_1:\n      pop\n      jumpi(tag_2, lt(calldatasize, 0x04))\n      shr(0xe0, calldataload(0x00))\n      dup1\n      0x036a1c22\n      eq\n      tag_3\n      jumpi\n      dup1\n      0x0df3a1e0\n      eq\n      tag_4\n      jumpi\n      dup1\n      0x29711737\n      eq\n      tag_5\n      jumpi\n      dup1\n      0xda304e4d\n      eq\n      tag_6\n      jumpi\n    tag_2:\n      0x00\n      dup1\n      revert\n        /* \"CarbonCredit.sol\":197:220  Credit[] public credits */\n    tag_3:\n      tag_7\n      0x04\n      dup1\n      calldatasize\n      sub\n      dup2\n      add\n      swap1\n      tag_8\n      swap2\n      swap1\n      tag_9\n      jump\t// in\n    tag_8:\n      tag_10\n      jump\t// in\n    tag_7:\n      mload(0x40)\n      tag_11\n      swap4\n      swap3\n      swap2\n      swap1\n      tag_12\n      jump\t// in\n    tag_11:\n      mload(0x40)\n      dup1\n      swap2\n      sub\n      swap1\n      return\n        /* \"CarbonCredit.sol\":1096:1544  function transferCredit(uint256 creditId, address newOwner) public {\r... */\n    tag_4:\n      tag_13\n      0x04\n      dup1\n      calldatasize\n      sub\n      dup2\n      add\n      swap1\n      tag_14\n      swap2\n      swap1\n      tag_15\n      jump\t// in\n    tag_14:\n      tag_16\n      jump\t// in\n    tag_13:\n      stop\n        /* \"CarbonCredit.sol\":473:697  function issueCredit(string memory description, uint256 amount) public {\r... */\n    tag_5:\n      tag_17\n      0x04\n      dup1\n      calldatasize\n      sub\n      dup2\n      add\n      swap1\n      tag_18\n      swap2\n      swap1\n      tag_19\n      jump\t// in\n    tag_18:\n      tag_20\n      jump\t// in\n    tag_17:\n      stop\n        /* \"CarbonCredit.sol\":753:1040  function getCredit(uint256 creditId) public view returns (string memory, uint256, address) {\r... */\n    tag_6:\n      tag_21\n      0x04\n      dup1\n      calldatasize\n      sub\n      dup2\n      add\n      swap1\n      tag_22\n      swap2\n      swap1\n      tag_9\n      jump\t// in\n    tag_22:\n      tag_23\n      jump\t// in\n    tag_21:\n      mload(0x40)\n      tag_24\n      swap4\n      swap3\n      swap2\n      swap1\n      tag_12\n      jump\t// in\n    tag_24:\n      mload(0x40)\n      dup1\n      swap2\n      sub\n      swap1\n      return\n        /* \"CarbonCredit.sol\":197:220  Credit[] public credits */\n    tag_10:\n      0x00\n      dup2\n      dup2\n      sload\n      dup2\n      lt\n      tag_25\n      jumpi\n      0x00\n      dup1\n      revert\n    tag_25:\n      swap1\n      0x00\n      mstore\n      keccak256(0x00, 0x20)\n      swap1\n      0x03\n      mul\n      add\n      0x00\n      swap2\n      pop\n      swap1\n      pop\n      dup1\n      0x00\n      add\n      dup1\n      sload\n      tag_27\n      swap1\n      tag_28\n      jump\t// in\n    tag_27:\n      dup1\n      0x1f\n      add\n      0x20\n      dup1\n      swap2\n      div\n      mul\n      0x20\n      add\n      mload(0x40)\n      swap1\n      dup2\n      add\n      0x40\n      mstore\n      dup1\n      swap3\n      swap2\n      swap1\n      dup2\n      dup2\n      mstore\n      0x20\n      add\n      dup3\n      dup1\n      sload\n      tag_29\n      swap1\n      tag_28\n      jump\t// in\n    tag_29:\n      dup1\n      iszero\n      tag_30\n      jumpi\n      dup1\n      0x1f\n      lt\n      tag_31\n      jumpi\n      0x0100\n      dup1\n      dup4\n      sload\n      div\n      mul\n      dup4\n      mstore\n      swap2\n      0x20\n      add\n      swap2\n      jump(tag_30)\n    tag_31:\n      dup3\n      add\n      swap2\n      swap1\n      0x00\n      mstore\n      keccak256(0x00, 0x20)\n      swap1\n    tag_32:\n      dup2\n      sload\n      dup2\n      mstore\n      swap1\n      0x01\n      add\n      swap1\n      0x20\n      add\n      dup1\n      dup4\n      gt\n      tag_32\n      jumpi\n      dup3\n      swap1\n      sub\n      0x1f\n      and\n      dup3\n      add\n      swap2\n    tag_30:\n      pop\n      pop\n      pop\n      pop\n      pop\n      swap1\n      dup1\n      0x01\n      add\n      sload\n      swap1\n      dup1\n      0x02\n      add\n      0x00\n      swap1\n      sload\n      swap1\n      0x0100\n      exp\n      swap1\n      div\n      0xffffffffffffffffffffffffffffffffffffffff\n      and\n      swap1\n      pop\n      dup4\n      jump\t// out\n        /* \"CarbonCredit.sol\":1096:1544  function transferCredit(uint256 creditId, address newOwner) public {\r... */\n    tag_16:\n        /* \"CarbonCredit.sol\":1193:1200  credits */\n      0x00\n        /* \"CarbonCredit.sol\":1193:1207  credits.length */\n      dup1\n      sload\n      swap1\n      pop\n        /* \"CarbonCredit.sol\":1182:1190  creditId */\n      dup3\n        /* \"CarbonCredit.sol\":1182:1207  creditId < credits.length */\n      lt\n        /* \"CarbonCredit.sol\":1174:1233  require(creditId < credits.length, \"Credit does not exist\") */\n      tag_34\n      jumpi\n      mload(0x40)\n      0x08c379a000000000000000000000000000000000000000000000000000000000\n      dup2\n      mstore\n      0x04\n      add\n      tag_35\n      swap1\n      tag_36\n      jump\t// in\n    tag_35:\n      mload(0x40)\n      dup1\n      swap2\n      sub\n      swap1\n      revert\n    tag_34:\n        /* \"CarbonCredit.sol\":1272:1273  0 */\n      0x00\n        /* \"CarbonCredit.sol\":1252:1274  newOwner != address(0) */\n      0xffffffffffffffffffffffffffffffffffffffff\n      and\n        /* \"CarbonCredit.sol\":1252:1260  newOwner */\n      dup2\n        /* \"CarbonCredit.sol\":1252:1274  newOwner != address(0) */\n      0xffffffffffffffffffffffffffffffffffffffff\n      and\n      eq\n      iszero\n        /* \"CarbonCredit.sol\":1244:1294  require(newOwner != address(0), \"Invalid address\") */\n      tag_37\n      jumpi\n      mload(0x40)\n      0x08c379a000000000000000000000000000000000000000000000000000000000\n      dup2\n      mstore\n      0x04\n      add\n      tag_38\n      swap1\n      tag_39\n      jump\t// in\n    tag_38:\n      mload(0x40)\n      dup1\n      swap2\n      sub\n      swap1\n      revert\n    tag_37:\n        /* \"CarbonCredit.sol\":1305:1326  Credit storage credit */\n      0x00\n        /* \"CarbonCredit.sol\":1329:1336  credits */\n      dup1\n        /* \"CarbonCredit.sol\":1337:1345  creditId */\n      dup4\n        /* \"CarbonCredit.sol\":1329:1346  credits[creditId] */\n      dup2\n      sload\n      dup2\n      lt\n      tag_40\n      jumpi\n      mstore(0x00, 0x4e487b7100000000000000000000000000000000000000000000000000000000)\n      mstore(0x04, 0x32)\n      revert(0x00, 0x24)\n    tag_40:\n      swap1\n      0x00\n      mstore\n      keccak256(0x00, 0x20)\n      swap1\n      0x03\n      mul\n      add\n        /* \"CarbonCredit.sol\":1305:1346  Credit storage credit = credits[creditId] */\n      swap1\n      pop\n        /* \"CarbonCredit.sol\":1379:1385  credit */\n      dup1\n        /* \"CarbonCredit.sol\":1379:1391  credit.owner */\n      0x02\n      add\n      0x00\n      swap1\n      sload\n      swap1\n      0x0100\n      exp\n      swap1\n      div\n      0xffffffffffffffffffffffffffffffffffffffff\n      and\n        /* \"CarbonCredit.sol\":1365:1391  msg.sender == credit.owner */\n      0xffffffffffffffffffffffffffffffffffffffff\n      and\n        /* \"CarbonCredit.sol\":1365:1375  msg.sender */\n      caller\n        /* \"CarbonCredit.sol\":1365:1391  msg.sender == credit.owner */\n      0xffffffffffffffffffffffffffffffffffffffff\n      and\n      eq\n        /* \"CarbonCredit.sol\":1357:1435  require(msg.sender == credit.owner, \"Only the owner can transfer this credit\") */\n      tag_42\n      jumpi\n      mload(0x40)\n      0x08c379a000000000000000000000000000000000000000000000000000000000\n      dup2\n      mstore\n      0x04\n      add\n      tag_43\n      swap1\n      tag_44\n      jump\t// in\n    tag_43:\n      mload(0x40)\n      dup1\n      swap2\n      sub\n      swap1\n      revert\n    tag_42:\n        /* \"CarbonCredit.sol\":1463:1471  newOwner */\n      dup2\n        /* \"CarbonCredit.sol\":1448:1454  credit */\n      dup2\n        /* \"CarbonCredit.sol\":1448:1460  credit.owner */\n      0x02\n      add\n      0x00\n        /* \"CarbonCredit.sol\":1448:1471  credit.owner = newOwner */\n      0x0100\n      exp\n      dup2\n      sload\n      dup2\n      0xffffffffffffffffffffffffffffffffffffffff\n      mul\n      not\n      and\n      swap1\n      dup4\n      0xffffffffffffffffffffffffffffffffffffffff\n      and\n      mul\n      or\n      swap1\n      sstore\n      pop\n        /* \"CarbonCredit.sol\":1527:1535  newOwner */\n      dup2\n        /* \"CarbonCredit.sol\":1487:1536  CreditTransferred(creditId, msg.sender, newOwner) */\n      0xffffffffffffffffffffffffffffffffffffffff\n      and\n        /* \"CarbonCredit.sol\":1515:1525  msg.sender */\n      caller\n        /* \"CarbonCredit.sol\":1487:1536  CreditTransferred(creditId, msg.sender, newOwner) */\n      0xffffffffffffffffffffffffffffffffffffffff\n      and\n        /* \"CarbonCredit.sol\":1505:1513  creditId */\n      dup5\n        /* \"CarbonCredit.sol\":1487:1536  CreditTransferred(creditId, msg.sender, newOwner) */\n      0x7498bf43d4148a03a165d093fcadc813f1a344a5f983812a2777c01f4dc2f0d6\n      mload(0x40)\n      mload(0x40)\n      dup1\n      swap2\n      sub\n      swap1\n      log4\n        /* \"CarbonCredit.sol\":1096:1544  function transferCredit(uint256 creditId, address newOwner) public {\r... */\n      pop\n      pop\n      pop\n      jump\t// out\n        /* \"CarbonCredit.sol\":473:697  function issueCredit(string memory description, uint256 amount) public {\r... */\n    tag_20:\n        /* \"CarbonCredit.sol\":555:562  credits */\n      0x00\n        /* \"CarbonCredit.sol\":568:607  Credit(description, amount, msg.sender) */\n      mload(0x40)\n      dup1\n      0x60\n      add\n      0x40\n      mstore\n      dup1\n        /* \"CarbonCredit.sol\":575:586  description */\n      dup5\n        /* \"CarbonCredit.sol\":568:607  Credit(description, amount, msg.sender) */\n      dup2\n      mstore\n      0x20\n      add\n        /* \"CarbonCredit.sol\":588:594  amount */\n      dup4\n        /* \"CarbonCredit.sol\":568:607  Credit(description, amount, msg.sender) */\n      dup2\n      mstore\n      0x20\n      add\n        /* \"CarbonCredit.sol\":596:606  msg.sender */\n      caller\n        /* \"CarbonCredit.sol\":568:607  Credit(description, amount, msg.sender) */\n      0xffffffffffffffffffffffffffffffffffffffff\n      and\n      dup2\n      mstore\n      pop\n        /* \"CarbonCredit.sol\":555:608  credits.push(Credit(description, amount, msg.sender)) */\n      swap1\n      dup1\n      0x01\n      dup2\n      sload\n      add\n      dup1\n      dup3\n      sstore\n      dup1\n      swap2\n      pop\n      pop\n      0x01\n      swap1\n      sub\n      swap1\n      0x00\n      mstore\n      keccak256(0x00, 0x20)\n      swap1\n      0x03\n      mul\n      add\n      0x00\n      swap1\n      swap2\n      swap1\n      swap2\n      swap1\n      swap2\n      pop\n      0x00\n      dup3\n      add\n      mload\n      dup2\n      0x00\n      add\n      swap1\n      dup1\n      mload\n      swap1\n      0x20\n      add\n      swap1\n      tag_47\n      swap3\n      swap2\n      swap1\n      tag_48\n      jump\t// in\n    tag_47:\n      pop\n      0x20\n      dup3\n      add\n      mload\n      dup2\n      0x01\n      add\n      sstore\n      0x40\n      dup3\n      add\n      mload\n      dup2\n      0x02\n      add\n      exp(0x0100, 0x00)\n      dup2\n      sload\n      dup2\n      0xffffffffffffffffffffffffffffffffffffffff\n      mul\n      not\n      and\n      swap1\n      dup4\n      0xffffffffffffffffffffffffffffffffffffffff\n      and\n      mul\n      or\n      swap1\n      sstore\n      pop\n      pop\n      pop\n        /* \"CarbonCredit.sol\":678:688  msg.sender */\n      caller\n        /* \"CarbonCredit.sol\":624:689  CreditIssued(credits.length - 1, description, amount, msg.sender) */\n      0xffffffffffffffffffffffffffffffffffffffff\n      and\n        /* \"CarbonCredit.sol\":654:655  1 */\n      0x01\n        /* \"CarbonCredit.sol\":637:644  credits */\n      0x00\n        /* \"CarbonCredit.sol\":637:651  credits.length */\n      dup1\n      sload\n      swap1\n      pop\n        /* \"CarbonCredit.sol\":637:655  credits.length - 1 */\n      tag_49\n      swap2\n      swap1\n      tag_50\n      jump\t// in\n    tag_49:\n        /* \"CarbonCredit.sol\":624:689  CreditIssued(credits.length - 1, description, amount, msg.sender) */\n      0x8d43f7b657997330e62fa2b4c76560f9a652ad99a59702bc1c9858a077d67393\n        /* \"CarbonCredit.sol\":657:668  description */\n      dup5\n        /* \"CarbonCredit.sol\":670:676  amount */\n      dup5\n        /* \"CarbonCredit.sol\":624:689  CreditIssued(credits.length - 1, description, amount, msg.sender) */\n      mload(0x40)\n      tag_51\n      swap3\n      swap2\n      swap1\n      tag_52\n      jump\t// in\n    tag_51:\n      mload(0x40)\n      dup1\n      swap2\n      sub\n      swap1\n      log3\n        /* \"CarbonCredit.sol\":473:697  function issueCredit(string memory description, uint256 amount) public {\r... */\n      pop\n      pop\n      jump\t// out\n        /* \"CarbonCredit.sol\":753:1040  function getCredit(uint256 creditId) public view returns (string memory, uint256, address) {\r... */\n    tag_23:\n        /* \"CarbonCredit.sol\":811:824  string memory */\n      0x60\n        /* \"CarbonCredit.sol\":826:833  uint256 */\n      0x00\n        /* \"CarbonCredit.sol\":835:842  address */\n      dup1\n        /* \"CarbonCredit.sol\":874:881  credits */\n      0x00\n        /* \"CarbonCredit.sol\":874:888  credits.length */\n      dup1\n      sload\n      swap1\n      pop\n        /* \"CarbonCredit.sol\":863:871  creditId */\n      dup5\n        /* \"CarbonCredit.sol\":863:888  creditId < credits.length */\n      lt\n        /* \"CarbonCredit.sol\":855:914  require(creditId < credits.length, \"Credit does not exist\") */\n      tag_54\n      jumpi\n      mload(0x40)\n      0x08c379a000000000000000000000000000000000000000000000000000000000\n      dup2\n      mstore\n      0x04\n      add\n      tag_55\n      swap1\n      tag_36\n      jump\t// in\n    tag_55:\n      mload(0x40)\n      dup1\n      swap2\n      sub\n      swap1\n      revert\n    tag_54:\n        /* \"CarbonCredit.sol\":925:945  Credit memory credit */\n      0x00\n        /* \"CarbonCredit.sol\":948:955  credits */\n      dup1\n        /* \"CarbonCredit.sol\":956:964  creditId */\n      dup6\n        /* \"CarbonCredit.sol\":948:965  credits[creditId] */\n      dup2\n      sload\n      dup2\n      lt\n      tag_56\n      jumpi\n      mstore(0x00, 0x4e487b7100000000000000000000000000000000000000000000000000000000)\n      mstore(0x04, 0x32)\n      revert(0x00, 0x24)\n    tag_56:\n      swap1\n      0x00\n      mstore\n      keccak256(0x00, 0x20)\n      swap1\n      0x03\n      mul\n      add\n        /* \"CarbonCredit.sol\":925:965  Credit memory credit = credits[creditId] */\n      mload(0x40)\n      dup1\n      0x60\n      add\n      0x40\n      mstore\n      swap1\n      dup2\n      0x00\n      dup3\n      add\n      dup1\n      sload\n      tag_58\n      swap1\n      tag_28\n      jump\t// in\n    tag_58:\n      dup1\n      0x1f\n      add\n      0x20\n      dup1\n      swap2\n      div\n      mul\n      0x20\n      add\n      mload(0x40)\n      swap1\n      dup2\n      add\n      0x40\n      mstore\n      dup1\n      swap3\n      swap2\n      swap1\n      dup2\n      dup2\n      mstore\n      0x20\n      add\n      dup3\n      dup1\n      sload\n      tag_59\n      swap1\n      tag_28\n      jump\t// in\n    tag_59:\n      dup1\n      iszero\n      tag_60\n      jumpi\n      dup1\n      0x1f\n      lt\n      tag_61\n      jumpi\n      0x0100\n      dup1\n      dup4\n      sload\n      div\n      mul\n      dup4\n      mstore\n      swap2\n      0x20\n      add\n      swap2\n      jump(tag_60)\n    tag_61:\n      dup3\n      add\n      swap2\n      swap1\n      0x00\n      mstore\n      keccak256(0x00, 0x20)\n      swap1\n    tag_62:\n      dup2\n      sload\n      dup2\n      mstore\n      swap1\n      0x01\n      add\n      swap1\n      0x20\n      add\n      dup1\n      dup4\n      gt\n      tag_62\n      jumpi\n      dup3\n      swap1\n      sub\n      0x1f\n      and\n      dup3\n      add\n      swap2\n    tag_60:\n      pop\n      pop\n      pop\n      pop\n      pop\n      dup2\n      mstore\n      0x20\n      add\n      0x01\n      dup3\n      add\n      sload\n      dup2\n      mstore\n      0x20\n      add\n      0x02\n      dup3\n      add\n      0x00\n      swap1\n      sload\n      swap1\n      0x0100\n      exp\n      swap1\n      div\n      0xffffffffffffffffffffffffffffffffffffffff\n      and\n      0xffffffffffffffffffffffffffffffffffffffff\n      and\n      0xffffffffffffffffffffffffffffffffffffffff\n      and\n      dup2\n      mstore\n      pop\n      pop\n      swap1\n      pop\n        /* \"CarbonCredit.sol\":984:990  credit */\n      dup1\n        /* \"CarbonCredit.sol\":984:1002  credit.description */\n      0x00\n      add\n      mload\n        /* \"CarbonCredit.sol\":1004:1010  credit */\n      dup2\n        /* \"CarbonCredit.sol\":1004:1017  credit.amount */\n      0x20\n      add\n      mload\n        /* \"CarbonCredit.sol\":1019:1025  credit */\n      dup3\n        /* \"CarbonCredit.sol\":1019:1031  credit.owner */\n      0x40\n      add\n      mload\n        /* \"CarbonCredit.sol\":976:1032  return (credit.description, credit.amount, credit.owner) */\n      swap4\n      pop\n      swap4\n      pop\n      swap4\n      pop\n      pop\n        /* \"CarbonCredit.sol\":753:1040  function getCredit(uint256 creditId) public view returns (string memory, uint256, address) {\r... */\n      swap2\n      swap4\n      swap1\n      swap3\n      pop\n      jump\t// out\n    tag_48:\n      dup3\n      dup1\n      sload\n      tag_63\n      swap1\n      tag_28\n      jump\t// in\n    tag_63:\n      swap1\n      0x00\n      mstore\n      keccak256(0x00, 0x20)\n      swap1\n      0x1f\n      add\n      0x20\n      swap1\n      div\n      dup2\n      add\n      swap3\n      dup3\n      tag_65\n      jumpi\n      0x00\n      dup6\n      sstore\n      jump(tag_64)\n    tag_65:\n      dup3\n      0x1f\n      lt\n      tag_66\n      jumpi\n      dup1\n      mload\n      not(0xff)\n      and\n      dup4\n      dup1\n      add\n      or\n      dup6\n      sstore\n      jump(tag_64)\n    tag_66:\n      dup3\n      dup1\n      add\n      0x01\n      add\n      dup6\n      sstore\n      dup3\n      iszero\n      tag_64\n      jumpi\n      swap2\n      dup3\n      add\n    tag_67:\n      dup3\n      dup2\n      gt\n      iszero\n      tag_68\n      jumpi\n      dup3\n      mload\n      dup3\n      sstore\n      swap2\n      0x20\n      add\n      swap2\n      swap1\n      0x01\n      add\n      swap1\n      jump(tag_67)\n    tag_68:\n    tag_64:\n      pop\n      swap1\n      pop\n      tag_69\n      swap2\n      swap1\n      tag_70\n      jump\t// in\n    tag_69:\n      pop\n      swap1\n      jump\t// out\n    tag_70:\n    tag_71:\n      dup1\n      dup3\n      gt\n      iszero\n      tag_72\n      jumpi\n      0x00\n      dup2\n      0x00\n      swap1\n      sstore\n      pop\n      0x01\n      add\n      jump(tag_71)\n    tag_72:\n      pop\n      swap1\n      jump\t// out\n        /* \"#utility.yul\":7:351   */\n    tag_74:\n      0x00\n        /* \"#utility.yul\":110:175   */\n      tag_76\n        /* \"#utility.yul\":125:174   */\n      tag_77\n        /* \"#utility.yul\":167:173   */\n      dup5\n        /* \"#utility.yul\":125:174   */\n      tag_78\n      jump\t// in\n    tag_77:\n        /* \"#utility.yul\":110:175   */\n      tag_79\n      jump\t// in\n    tag_76:\n        /* \"#utility.yul\":101:175   */\n      swap1\n      pop\n        /* \"#utility.yul\":198:204   */\n      dup3\n        /* \"#utility.yul\":191:196   */\n      dup2\n        /* \"#utility.yul\":184:205   */\n      mstore\n        /* \"#utility.yul\":236:240   */\n      0x20\n        /* \"#utility.yul\":229:234   */\n      dup2\n        /* \"#utility.yul\":225:241   */\n      add\n        /* \"#utility.yul\":274:277   */\n      dup5\n        /* \"#utility.yul\":265:271   */\n      dup5\n        /* \"#utility.yul\":260:263   */\n      dup5\n        /* \"#utility.yul\":256:272   */\n      add\n        /* \"#utility.yul\":253:278   */\n      gt\n        /* \"#utility.yul\":250:252   */\n      iszero\n      tag_80\n      jumpi\n        /* \"#utility.yul\":291:292   */\n      0x00\n        /* \"#utility.yul\":288:289   */\n      dup1\n        /* \"#utility.yul\":281:293   */\n      revert\n        /* \"#utility.yul\":250:252   */\n    tag_80:\n        /* \"#utility.yul\":304:345   */\n      tag_81\n        /* \"#utility.yul\":338:344   */\n      dup5\n        /* \"#utility.yul\":333:336   */\n      dup3\n        /* \"#utility.yul\":328:331   */\n      dup6\n        /* \"#utility.yul\":304:345   */\n      tag_82\n      jump\t// in\n    tag_81:\n        /* \"#utility.yul\":91:351   */\n      pop\n      swap4\n      swap3\n      pop\n      pop\n      pop\n      jump\t// out\n        /* \"#utility.yul\":357:496   */\n    tag_83:\n      0x00\n        /* \"#utility.yul\":441:447   */\n      dup2\n        /* \"#utility.yul\":428:448   */\n      calldataload\n        /* \"#utility.yul\":419:448   */\n      swap1\n      pop\n        /* \"#utility.yul\":457:490   */\n      tag_85\n        /* \"#utility.yul\":484:489   */\n      dup2\n        /* \"#utility.yul\":457:490   */\n      tag_86\n      jump\t// in\n    tag_85:\n        /* \"#utility.yul\":409:496   */\n      swap3\n      swap2\n      pop\n      pop\n      jump\t// out\n        /* \"#utility.yul\":516:789   */\n    tag_87:\n      0x00\n        /* \"#utility.yul\":621:624   */\n      dup3\n        /* \"#utility.yul\":614:618   */\n      0x1f\n        /* \"#utility.yul\":606:612   */\n      dup4\n        /* \"#utility.yul\":602:619   */\n      add\n        /* \"#utility.yul\":598:625   */\n      slt\n        /* \"#utility.yul\":588:590   */\n      tag_89\n      jumpi\n        /* \"#utility.yul\":639:640   */\n      0x00\n        /* \"#utility.yul\":636:637   */\n      dup1\n        /* \"#utility.yul\":629:641   */\n      revert\n        /* \"#utility.yul\":588:590   */\n    tag_89:\n        /* \"#utility.yul\":679:685   */\n      dup2\n        /* \"#utility.yul\":666:686   */\n      calldataload\n        /* \"#utility.yul\":704:783   */\n      tag_90\n        /* \"#utility.yul\":779:782   */\n      dup5\n        /* \"#utility.yul\":771:777   */\n      dup3\n        /* \"#utility.yul\":764:768   */\n      0x20\n        /* \"#utility.yul\":756:762   */\n      dup7\n        /* \"#utility.yul\":752:769   */\n      add\n        /* \"#utility.yul\":704:783   */\n      tag_74\n      jump\t// in\n    tag_90:\n        /* \"#utility.yul\":695:783   */\n      swap2\n      pop\n        /* \"#utility.yul\":578:789   */\n      pop\n      swap3\n      swap2\n      pop\n      pop\n      jump\t// out\n        /* \"#utility.yul\":795:934   */\n    tag_91:\n      0x00\n        /* \"#utility.yul\":879:885   */\n      dup2\n        /* \"#utility.yul\":866:886   */\n      calldataload\n        /* \"#utility.yul\":857:886   */\n      swap1\n      pop\n        /* \"#utility.yul\":895:928   */\n      tag_93\n        /* \"#utility.yul\":922:927   */\n      dup2\n        /* \"#utility.yul\":895:928   */\n      tag_94\n      jump\t// in\n    tag_93:\n        /* \"#utility.yul\":847:934   */\n      swap3\n      swap2\n      pop\n      pop\n      jump\t// out\n        /* \"#utility.yul\":940:1460   */\n    tag_19:\n      0x00\n      dup1\n        /* \"#utility.yul\":1075:1077   */\n      0x40\n        /* \"#utility.yul\":1063:1072   */\n      dup4\n        /* \"#utility.yul\":1054:1061   */\n      dup6\n        /* \"#utility.yul\":1050:1073   */\n      sub\n        /* \"#utility.yul\":1046:1078   */\n      slt\n        /* \"#utility.yul\":1043:1045   */\n      iszero\n      tag_96\n      jumpi\n        /* \"#utility.yul\":1091:1092   */\n      0x00\n        /* \"#utility.yul\":1088:1089   */\n      dup1\n        /* \"#utility.yul\":1081:1093   */\n      revert\n        /* \"#utility.yul\":1043:1045   */\n    tag_96:\n        /* \"#utility.yul\":1162:1163   */\n      0x00\n        /* \"#utility.yul\":1151:1160   */\n      dup4\n        /* \"#utility.yul\":1147:1164   */\n      add\n        /* \"#utility.yul\":1134:1165   */\n      calldataload\n        /* \"#utility.yul\":1192:1210   */\n      0xffffffffffffffff\n        /* \"#utility.yul\":1184:1190   */\n      dup2\n        /* \"#utility.yul\":1181:1211   */\n      gt\n        /* \"#utility.yul\":1178:1180   */\n      iszero\n      tag_97\n      jumpi\n        /* \"#utility.yul\":1224:1225   */\n      0x00\n        /* \"#utility.yul\":1221:1222   */\n      dup1\n        /* \"#utility.yul\":1214:1226   */\n      revert\n        /* \"#utility.yul\":1178:1180   */\n    tag_97:\n        /* \"#utility.yul\":1252:1315   */\n      tag_98\n        /* \"#utility.yul\":1307:1314   */\n      dup6\n        /* \"#utility.yul\":1298:1304   */\n      dup3\n        /* \"#utility.yul\":1287:1296   */\n      dup7\n        /* \"#utility.yul\":1283:1305   */\n      add\n        /* \"#utility.yul\":1252:1315   */\n      tag_87\n      jump\t// in\n    tag_98:\n        /* \"#utility.yul\":1242:1315   */\n      swap3\n      pop\n        /* \"#utility.yul\":1105:1325   */\n      pop\n        /* \"#utility.yul\":1364:1366   */\n      0x20\n        /* \"#utility.yul\":1390:1443   */\n      tag_99\n        /* \"#utility.yul\":1435:1442   */\n      dup6\n        /* \"#utility.yul\":1426:1432   */\n      dup3\n        /* \"#utility.yul\":1415:1424   */\n      dup7\n        /* \"#utility.yul\":1411:1433   */\n      add\n        /* \"#utility.yul\":1390:1443   */\n      tag_91\n      jump\t// in\n    tag_99:\n        /* \"#utility.yul\":1380:1443   */\n      swap2\n      pop\n        /* \"#utility.yul\":1335:1453   */\n      pop\n        /* \"#utility.yul\":1033:1460   */\n      swap3\n      pop\n      swap3\n      swap1\n      pop\n      jump\t// out\n        /* \"#utility.yul\":1466:1728   */\n    tag_9:\n      0x00\n        /* \"#utility.yul\":1574:1576   */\n      0x20\n        /* \"#utility.yul\":1562:1571   */\n      dup3\n        /* \"#utility.yul\":1553:1560   */\n      dup5\n        /* \"#utility.yul\":1549:1572   */\n      sub\n        /* \"#utility.yul\":1545:1577   */\n      slt\n        /* \"#utility.yul\":1542:1544   */\n      iszero\n      tag_101\n      jumpi\n        /* \"#utility.yul\":1590:1591   */\n      0x00\n        /* \"#utility.yul\":1587:1588   */\n      dup1\n        /* \"#utility.yul\":1580:1592   */\n      revert\n        /* \"#utility.yul\":1542:1544   */\n    tag_101:\n        /* \"#utility.yul\":1633:1634   */\n      0x00\n        /* \"#utility.yul\":1658:1711   */\n      tag_102\n        /* \"#utility.yul\":1703:1710   */\n      dup5\n        /* \"#utility.yul\":1694:1700   */\n      dup3\n        /* \"#utility.yul\":1683:1692   */\n      dup6\n        /* \"#utility.yul\":1679:1701   */\n      add\n        /* \"#utility.yul\":1658:1711   */\n      tag_91\n      jump\t// in\n    tag_102:\n        /* \"#utility.yul\":1648:1711   */\n      swap2\n      pop\n        /* \"#utility.yul\":1604:1721   */\n      pop\n        /* \"#utility.yul\":1532:1728   */\n      swap3\n      swap2\n      pop\n      pop\n      jump\t// out\n        /* \"#utility.yul\":1734:2141   */\n    tag_15:\n      0x00\n      dup1\n        /* \"#utility.yul\":1859:1861   */\n      0x40\n        /* \"#utility.yul\":1847:1856   */\n      dup4\n        /* \"#utility.yul\":1838:1845   */\n      dup6\n        /* \"#utility.yul\":1834:1857   */\n      sub\n        /* \"#utility.yul\":1830:1862   */\n      slt\n        /* \"#utility.yul\":1827:1829   */\n      iszero\n      tag_104\n      jumpi\n        /* \"#utility.yul\":1875:1876   */\n      0x00\n        /* \"#utility.yul\":1872:1873   */\n      dup1\n        /* \"#utility.yul\":1865:1877   */\n      revert\n        /* \"#utility.yul\":1827:1829   */\n    tag_104:\n        /* \"#utility.yul\":1918:1919   */\n      0x00\n        /* \"#utility.yul\":1943:1996   */\n      tag_105\n        /* \"#utility.yul\":1988:1995   */\n      dup6\n        /* \"#utility.yul\":1979:1985   */\n      dup3\n        /* \"#utility.yul\":1968:1977   */\n      dup7\n        /* \"#utility.yul\":1964:1986   */\n      add\n        /* \"#utility.yul\":1943:1996   */\n      tag_91\n      jump\t// in\n    tag_105:\n        /* \"#utility.yul\":1933:1996   */\n      swap3\n      pop\n        /* \"#utility.yul\":1889:2006   */\n      pop\n        /* \"#utility.yul\":2045:2047   */\n      0x20\n        /* \"#utility.yul\":2071:2124   */\n      tag_106\n        /* \"#utility.yul\":2116:2123   */\n      dup6\n        /* \"#utility.yul\":2107:2113   */\n      dup3\n        /* \"#utility.yul\":2096:2105   */\n      dup7\n        /* \"#utility.yul\":2092:2114   */\n      add\n        /* \"#utility.yul\":2071:2124   */\n      tag_83\n      jump\t// in\n    tag_106:\n        /* \"#utility.yul\":2061:2124   */\n      swap2\n      pop\n        /* \"#utility.yul\":2016:2134   */\n      pop\n        /* \"#utility.yul\":1817:2141   */\n      swap3\n      pop\n      swap3\n      swap1\n      pop\n      jump\t// out\n        /* \"#utility.yul\":2147:2265   */\n    tag_107:\n        /* \"#utility.yul\":2234:2258   */\n      tag_109\n        /* \"#utility.yul\":2252:2257   */\n      dup2\n        /* \"#utility.yul\":2234:2258   */\n      tag_110\n      jump\t// in\n    tag_109:\n        /* \"#utility.yul\":2229:2232   */\n      dup3\n        /* \"#utility.yul\":2222:2259   */\n      mstore\n        /* \"#utility.yul\":2212:2265   */\n      pop\n      pop\n      jump\t// out\n        /* \"#utility.yul\":2271:2635   */\n    tag_111:\n      0x00\n        /* \"#utility.yul\":2387:2426   */\n      tag_113\n        /* \"#utility.yul\":2420:2425   */\n      dup3\n        /* \"#utility.yul\":2387:2426   */\n      tag_114\n      jump\t// in\n    tag_113:\n        /* \"#utility.yul\":2442:2513   */\n      tag_115\n        /* \"#utility.yul\":2506:2512   */\n      dup2\n        /* \"#utility.yul\":2501:2504   */\n      dup6\n        /* \"#utility.yul\":2442:2513   */\n      tag_116\n      jump\t// in\n    tag_115:\n        /* \"#utility.yul\":2435:2513   */\n      swap4\n      pop\n        /* \"#utility.yul\":2522:2574   */\n      tag_117\n        /* \"#utility.yul\":2567:2573   */\n      dup2\n        /* \"#utility.yul\":2562:2565   */\n      dup6\n        /* \"#utility.yul\":2555:2559   */\n      0x20\n        /* \"#utility.yul\":2548:2553   */\n      dup7\n        /* \"#utility.yul\":2544:2560   */\n      add\n        /* \"#utility.yul\":2522:2574   */\n      tag_118\n      jump\t// in\n    tag_117:\n        /* \"#utility.yul\":2599:2628   */\n      tag_119\n        /* \"#utility.yul\":2621:2627   */\n      dup2\n        /* \"#utility.yul\":2599:2628   */\n      tag_120\n      jump\t// in\n    tag_119:\n        /* \"#utility.yul\":2594:2597   */\n      dup5\n        /* \"#utility.yul\":2590:2629   */\n      add\n        /* \"#utility.yul\":2583:2629   */\n      swap2\n      pop\n        /* \"#utility.yul\":2363:2635   */\n      pop\n      swap3\n      swap2\n      pop\n      pop\n      jump\t// out\n        /* \"#utility.yul\":2641:2954   */\n    tag_121:\n      0x00\n        /* \"#utility.yul\":2804:2871   */\n      tag_123\n        /* \"#utility.yul\":2868:2870   */\n      0x0f\n        /* \"#utility.yul\":2863:2866   */\n      dup4\n        /* \"#utility.yul\":2804:2871   */\n      tag_116\n      jump\t// in\n    tag_123:\n        /* \"#utility.yul\":2797:2871   */\n      swap2\n      pop\n        /* \"#utility.yul\":2901:2918   */\n      0x496e76616c696420616464726573730000000000000000000000000000000000\n        /* \"#utility.yul\":2897:2898   */\n      0x00\n        /* \"#utility.yul\":2892:2895   */\n      dup4\n        /* \"#utility.yul\":2888:2899   */\n      add\n        /* \"#utility.yul\":2881:2919   */\n      mstore\n        /* \"#utility.yul\":2945:2947   */\n      0x20\n        /* \"#utility.yul\":2940:2943   */\n      dup3\n        /* \"#utility.yul\":2936:2948   */\n      add\n        /* \"#utility.yul\":2929:2948   */\n      swap1\n      pop\n        /* \"#utility.yul\":2787:2954   */\n      swap2\n      swap1\n      pop\n      jump\t// out\n        /* \"#utility.yul\":2960:3279   */\n    tag_124:\n      0x00\n        /* \"#utility.yul\":3123:3190   */\n      tag_126\n        /* \"#utility.yul\":3187:3189   */\n      0x15\n        /* \"#utility.yul\":3182:3185   */\n      dup4\n        /* \"#utility.yul\":3123:3190   */\n      tag_116\n      jump\t// in\n    tag_126:\n        /* \"#utility.yul\":3116:3190   */\n      swap2\n      pop\n        /* \"#utility.yul\":3220:3243   */\n      0x43726564697420646f6573206e6f742065786973740000000000000000000000\n        /* \"#utility.yul\":3216:3217   */\n      0x00\n        /* \"#utility.yul\":3211:3214   */\n      dup4\n        /* \"#utility.yul\":3207:3218   */\n      add\n        /* \"#utility.yul\":3200:3244   */\n      mstore\n        /* \"#utility.yul\":3270:3272   */\n      0x20\n        /* \"#utility.yul\":3265:3268   */\n      dup3\n        /* \"#utility.yul\":3261:3273   */\n      add\n        /* \"#utility.yul\":3254:3273   */\n      swap1\n      pop\n        /* \"#utility.yul\":3106:3279   */\n      swap2\n      swap1\n      pop\n      jump\t// out\n        /* \"#utility.yul\":3285:3656   */\n    tag_127:\n      0x00\n        /* \"#utility.yul\":3448:3515   */\n      tag_129\n        /* \"#utility.yul\":3512:3514   */\n      0x27\n        /* \"#utility.yul\":3507:3510   */\n      dup4\n        /* \"#utility.yul\":3448:3515   */\n      tag_116\n      jump\t// in\n    tag_129:\n        /* \"#utility.yul\":3441:3515   */\n      swap2\n      pop\n        /* \"#utility.yul\":3545:3579   */\n      0x4f6e6c7920746865206f776e65722063616e207472616e736665722074686973\n        /* \"#utility.yul\":3541:3542   */\n      0x00\n        /* \"#utility.yul\":3536:3539   */\n      dup4\n        /* \"#utility.yul\":3532:3543   */\n      add\n        /* \"#utility.yul\":3525:3580   */\n      mstore\n        /* \"#utility.yul\":3611:3620   */\n      0x2063726564697400000000000000000000000000000000000000000000000000\n        /* \"#utility.yul\":3606:3608   */\n      0x20\n        /* \"#utility.yul\":3601:3604   */\n      dup4\n        /* \"#utility.yul\":3597:3609   */\n      add\n        /* \"#utility.yul\":3590:3621   */\n      mstore\n        /* \"#utility.yul\":3647:3649   */\n      0x40\n        /* \"#utility.yul\":3642:3645   */\n      dup3\n        /* \"#utility.yul\":3638:3650   */\n      add\n        /* \"#utility.yul\":3631:3650   */\n      swap1\n      pop\n        /* \"#utility.yul\":3431:3656   */\n      swap2\n      swap1\n      pop\n      jump\t// out\n        /* \"#utility.yul\":3662:3780   */\n    tag_130:\n        /* \"#utility.yul\":3749:3773   */\n      tag_132\n        /* \"#utility.yul\":3767:3772   */\n      dup2\n        /* \"#utility.yul\":3749:3773   */\n      tag_133\n      jump\t// in\n    tag_132:\n        /* \"#utility.yul\":3744:3747   */\n      dup3\n        /* \"#utility.yul\":3737:3774   */\n      mstore\n        /* \"#utility.yul\":3727:3780   */\n      pop\n      pop\n      jump\t// out\n        /* \"#utility.yul\":3786:4209   */\n    tag_52:\n      0x00\n        /* \"#utility.yul\":3965:3967   */\n      0x40\n        /* \"#utility.yul\":3954:3963   */\n      dup3\n        /* \"#utility.yul\":3950:3968   */\n      add\n        /* \"#utility.yul\":3942:3968   */\n      swap1\n      pop\n        /* \"#utility.yul\":4014:4023   */\n      dup2\n        /* \"#utility.yul\":4008:4012   */\n      dup2\n        /* \"#utility.yul\":4004:4024   */\n      sub\n        /* \"#utility.yul\":4000:4001   */\n      0x00\n        /* \"#utility.yul\":3989:3998   */\n      dup4\n        /* \"#utility.yul\":3985:4002   */\n      add\n        /* \"#utility.yul\":3978:4025   */\n      mstore\n        /* \"#utility.yul\":4042:4120   */\n      tag_135\n        /* \"#utility.yul\":4115:4119   */\n      dup2\n        /* \"#utility.yul\":4106:4112   */\n      dup6\n        /* \"#utility.yul\":4042:4120   */\n      tag_111\n      jump\t// in\n    tag_135:\n        /* \"#utility.yul\":4034:4120   */\n      swap1\n      pop\n        /* \"#utility.yul\":4130:4202   */\n      tag_136\n        /* \"#utility.yul\":4198:4200   */\n      0x20\n        /* \"#utility.yul\":4187:4196   */\n      dup4\n        /* \"#utility.yul\":4183:4201   */\n      add\n        /* \"#utility.yul\":4174:4180   */\n      dup5\n        /* \"#utility.yul\":4130:4202   */\n      tag_130\n      jump\t// in\n    tag_136:\n        /* \"#utility.yul\":3932:4209   */\n      swap4\n      swap3\n      pop\n      pop\n      pop\n      jump\t// out\n        /* \"#utility.yul\":4215:4748   */\n    tag_12:\n      0x00\n        /* \"#utility.yul\":4422:4424   */\n      0x60\n        /* \"#utility.yul\":4411:4420   */\n      dup3\n        /* \"#utility.yul\":4407:4425   */\n      add\n        /* \"#utility.yul\":4399:4425   */\n      swap1\n      pop\n        /* \"#utility.yul\":4471:4480   */\n      dup2\n        /* \"#utility.yul\":4465:4469   */\n      dup2\n        /* \"#utility.yul\":4461:4481   */\n      sub\n        /* \"#utility.yul\":4457:4458   */\n      0x00\n        /* \"#utility.yul\":4446:4455   */\n      dup4\n        /* \"#utility.yul\":4442:4459   */\n      add\n        /* \"#utility.yul\":4435:4482   */\n      mstore\n        /* \"#utility.yul\":4499:4577   */\n      tag_138\n        /* \"#utility.yul\":4572:4576   */\n      dup2\n        /* \"#utility.yul\":4563:4569   */\n      dup7\n        /* \"#utility.yul\":4499:4577   */\n      tag_111\n      jump\t// in\n    tag_138:\n        /* \"#utility.yul\":4491:4577   */\n      swap1\n      pop\n        /* \"#utility.yul\":4587:4659   */\n      tag_139\n        /* \"#utility.yul\":4655:4657   */\n      0x20\n        /* \"#utility.yul\":4644:4653   */\n      dup4\n        /* \"#utility.yul\":4640:4658   */\n      add\n        /* \"#utility.yul\":4631:4637   */\n      dup6\n        /* \"#utility.yul\":4587:4659   */\n      tag_130\n      jump\t// in\n    tag_139:\n        /* \"#utility.yul\":4669:4741   */\n      tag_140\n        /* \"#utility.yul\":4737:4739   */\n      0x40\n        /* \"#utility.yul\":4726:4735   */\n      dup4\n        /* \"#utility.yul\":4722:4740   */\n      add\n        /* \"#utility.yul\":4713:4719   */\n      dup5\n        /* \"#utility.yul\":4669:4741   */\n      tag_107\n      jump\t// in\n    tag_140:\n        /* \"#utility.yul\":4389:4748   */\n      swap5\n      swap4\n      pop\n      pop\n      pop\n      pop\n      jump\t// out\n        /* \"#utility.yul\":4754:5173   */\n    tag_39:\n      0x00\n        /* \"#utility.yul\":4958:4960   */\n      0x20\n        /* \"#utility.yul\":4947:4956   */\n      dup3\n        /* \"#utility.yul\":4943:4961   */\n      add\n        /* \"#utility.yul\":4935:4961   */\n      swap1\n      pop\n        /* \"#utility.yul\":5007:5016   */\n      dup2\n        /* \"#utility.yul\":5001:5005   */\n      dup2\n        /* \"#utility.yul\":4997:5017   */\n      sub\n        /* \"#utility.yul\":4993:4994   */\n      0x00\n        /* \"#utility.yul\":4982:4991   */\n      dup4\n        /* \"#utility.yul\":4978:4995   */\n      add\n        /* \"#utility.yul\":4971:5018   */\n      mstore\n        /* \"#utility.yul\":5035:5166   */\n      tag_142\n        /* \"#utility.yul\":5161:5165   */\n      dup2\n        /* \"#utility.yul\":5035:5166   */\n      tag_121\n      jump\t// in\n    tag_142:\n        /* \"#utility.yul\":5027:5166   */\n      swap1\n      pop\n        /* \"#utility.yul\":4925:5173   */\n      swap2\n      swap1\n      pop\n      jump\t// out\n        /* \"#utility.yul\":5179:5598   */\n    tag_36:\n      0x00\n        /* \"#utility.yul\":5383:5385   */\n      0x20\n        /* \"#utility.yul\":5372:5381   */\n      dup3\n        /* \"#utility.yul\":5368:5386   */\n      add\n        /* \"#utility.yul\":5360:5386   */\n      swap1\n      pop\n        /* \"#utility.yul\":5432:5441   */\n      dup2\n        /* \"#utility.yul\":5426:5430   */\n      dup2\n        /* \"#utility.yul\":5422:5442   */\n      sub\n        /* \"#utility.yul\":5418:5419   */\n      0x00\n        /* \"#utility.yul\":5407:5416   */\n      dup4\n        /* \"#utility.yul\":5403:5420   */\n      add\n        /* \"#utility.yul\":5396:5443   */\n      mstore\n        /* \"#utility.yul\":5460:5591   */\n      tag_144\n        /* \"#utility.yul\":5586:5590   */\n      dup2\n        /* \"#utility.yul\":5460:5591   */\n      tag_124\n      jump\t// in\n    tag_144:\n        /* \"#utility.yul\":5452:5591   */\n      swap1\n      pop\n        /* \"#utility.yul\":5350:5598   */\n      swap2\n      swap1\n      pop\n      jump\t// out\n        /* \"#utility.yul\":5604:6023   */\n    tag_44:\n      0x00\n        /* \"#utility.yul\":5808:5810   */\n      0x20\n        /* \"#utility.yul\":5797:5806   */\n      dup3\n        /* \"#utility.yul\":5793:5811   */\n      add\n        /* \"#utility.yul\":5785:5811   */\n      swap1\n      pop\n        /* \"#utility.yul\":5857:5866   */\n      dup2\n        /* \"#utility.yul\":5851:5855   */\n      dup2\n        /* \"#utility.yul\":5847:5867   */\n      sub\n        /* \"#utility.yul\":5843:5844   */\n      0x00\n        /* \"#utility.yul\":5832:5841   */\n      dup4\n        /* \"#utility.yul\":5828:5845   */\n      add\n        /* \"#utility.yul\":5821:5868   */\n      mstore\n        /* \"#utility.yul\":5885:6016   */\n      tag_146\n        /* \"#utility.yul\":6011:6015   */\n      dup2\n        /* \"#utility.yul\":5885:6016   */\n      tag_127\n      jump\t// in\n    tag_146:\n        /* \"#utility.yul\":5877:6016   */\n      swap1\n      pop\n        /* \"#utility.yul\":5775:6023   */\n      swap2\n      swap1\n      pop\n      jump\t// out\n        /* \"#utility.yul\":6029:6312   */\n    tag_79:\n      0x00\n        /* \"#utility.yul\":6095:6097   */\n      0x40\n        /* \"#utility.yul\":6089:6098   */\n      mload\n        /* \"#utility.yul\":6079:6098   */\n      swap1\n      pop\n        /* \"#utility.yul\":6137:6141   */\n      dup2\n        /* \"#utility.yul\":6129:6135   */\n      dup2\n        /* \"#utility.yul\":6125:6142   */\n      add\n        /* \"#utility.yul\":6244:6250   */\n      dup2\n        /* \"#utility.yul\":6232:6242   */\n      dup2\n        /* \"#utility.yul\":6229:6251   */\n      lt\n        /* \"#utility.yul\":6208:6226   */\n      0xffffffffffffffff\n        /* \"#utility.yul\":6196:6206   */\n      dup3\n        /* \"#utility.yul\":6193:6227   */\n      gt\n        /* \"#utility.yul\":6190:6252   */\n      or\n        /* \"#utility.yul\":6187:6189   */\n      iszero\n      tag_148\n      jumpi\n        /* \"#utility.yul\":6255:6273   */\n      tag_149\n      tag_150\n      jump\t// in\n    tag_149:\n        /* \"#utility.yul\":6187:6189   */\n    tag_148:\n        /* \"#utility.yul\":6295:6305   */\n      dup1\n        /* \"#utility.yul\":6291:6293   */\n      0x40\n        /* \"#utility.yul\":6284:6306   */\n      mstore\n        /* \"#utility.yul\":6069:6312   */\n      pop\n      swap2\n      swap1\n      pop\n      jump\t// out\n        /* \"#utility.yul\":6318:6650   */\n    tag_78:\n      0x00\n        /* \"#utility.yul\":6470:6488   */\n      0xffffffffffffffff\n        /* \"#utility.yul\":6462:6468   */\n      dup3\n        /* \"#utility.yul\":6459:6489   */\n      gt\n        /* \"#utility.yul\":6456:6458   */\n      iszero\n      tag_152\n      jumpi\n        /* \"#utility.yul\":6492:6510   */\n      tag_153\n      tag_150\n      jump\t// in\n    tag_153:\n        /* \"#utility.yul\":6456:6458   */\n    tag_152:\n        /* \"#utility.yul\":6577:6581   */\n      0x1f\n        /* \"#utility.yul\":6573:6582   */\n      not\n        /* \"#utility.yul\":6566:6570   */\n      0x1f\n        /* \"#utility.yul\":6558:6564   */\n      dup4\n        /* \"#utility.yul\":6554:6571   */\n      add\n        /* \"#utility.yul\":6550:6583   */\n      and\n        /* \"#utility.yul\":6542:6583   */\n      swap1\n      pop\n        /* \"#utility.yul\":6638:6642   */\n      0x20\n        /* \"#utility.yul\":6632:6636   */\n      dup2\n        /* \"#utility.yul\":6628:6643   */\n      add\n        /* \"#utility.yul\":6620:6643   */\n      swap1\n      pop\n        /* \"#utility.yul\":6385:6650   */\n      swap2\n      swap1\n      pop\n      jump\t// out\n        /* \"#utility.yul\":6656:6755   */\n    tag_114:\n      0x00\n        /* \"#utility.yul\":6742:6747   */\n      dup2\n        /* \"#utility.yul\":6736:6748   */\n      mload\n        /* \"#utility.yul\":6726:6748   */\n      swap1\n      pop\n        /* \"#utility.yul\":6715:6755   */\n      swap2\n      swap1\n      pop\n      jump\t// out\n        /* \"#utility.yul\":6761:6930   */\n    tag_116:\n      0x00\n        /* \"#utility.yul\":6879:6885   */\n      dup3\n        /* \"#utility.yul\":6874:6877   */\n      dup3\n        /* \"#utility.yul\":6867:6886   */\n      mstore\n        /* \"#utility.yul\":6919:6923   */\n      0x20\n        /* \"#utility.yul\":6914:6917   */\n      dup3\n        /* \"#utility.yul\":6910:6924   */\n      add\n        /* \"#utility.yul\":6895:6924   */\n      swap1\n      pop\n        /* \"#utility.yul\":6857:6930   */\n      swap3\n      swap2\n      pop\n      pop\n      jump\t// out\n        /* \"#utility.yul\":6936:7127   */\n    tag_50:\n      0x00\n        /* \"#utility.yul\":6996:7016   */\n      tag_157\n        /* \"#utility.yul\":7014:7015   */\n      dup3\n        /* \"#utility.yul\":6996:7016   */\n      tag_133\n      jump\t// in\n    tag_157:\n        /* \"#utility.yul\":6991:7016   */\n      swap2\n      pop\n        /* \"#utility.yul\":7030:7050   */\n      tag_158\n        /* \"#utility.yul\":7048:7049   */\n      dup4\n        /* \"#utility.yul\":7030:7050   */\n      tag_133\n      jump\t// in\n    tag_158:\n        /* \"#utility.yul\":7025:7050   */\n      swap3\n      pop\n        /* \"#utility.yul\":7069:7070   */\n      dup3\n        /* \"#utility.yul\":7066:7067   */\n      dup3\n        /* \"#utility.yul\":7063:7071   */\n      lt\n        /* \"#utility.yul\":7060:7062   */\n      iszero\n      tag_159\n      jumpi\n        /* \"#utility.yul\":7074:7092   */\n      tag_160\n      tag_161\n      jump\t// in\n    tag_160:\n        /* \"#utility.yul\":7060:7062   */\n    tag_159:\n        /* \"#utility.yul\":7119:7120   */\n      dup3\n        /* \"#utility.yul\":7116:7117   */\n      dup3\n        /* \"#utility.yul\":7112:7121   */\n      sub\n        /* \"#utility.yul\":7104:7121   */\n      swap1\n      pop\n        /* \"#utility.yul\":6981:7127   */\n      swap3\n      swap2\n      pop\n      pop\n      jump\t// out\n        /* \"#utility.yul\":7133:7229   */\n    tag_110:\n      0x00\n        /* \"#utility.yul\":7199:7223   */\n      tag_163\n        /* \"#utility.yul\":7217:7222   */\n      dup3\n        /* \"#utility.yul\":7199:7223   */\n      tag_164\n      jump\t// in\n    tag_163:\n        /* \"#utility.yul\":7188:7223   */\n      swap1\n      pop\n        /* \"#utility.yul\":7178:7229   */\n      swap2\n      swap1\n      pop\n      jump\t// out\n        /* \"#utility.yul\":7235:7361   */\n    tag_164:\n      0x00\n        /* \"#utility.yul\":7312:7354   */\n      0xffffffffffffffffffffffffffffffffffffffff\n        /* \"#utility.yul\":7305:7310   */\n      dup3\n        /* \"#utility.yul\":7301:7355   */\n      and\n        /* \"#utility.yul\":7290:7355   */\n      swap1\n      pop\n        /* \"#utility.yul\":7280:7361   */\n      swap2\n      swap1\n      pop\n      jump\t// out\n        /* \"#utility.yul\":7367:7444   */\n    tag_133:\n      0x00\n        /* \"#utility.yul\":7433:7438   */\n      dup2\n        /* \"#utility.yul\":7422:7438   */\n      swap1\n      pop\n        /* \"#utility.yul\":7412:7444   */\n      swap2\n      swap1\n      pop\n      jump\t// out\n        /* \"#utility.yul\":7450:7604   */\n    tag_82:\n        /* \"#utility.yul\":7534:7540   */\n      dup3\n        /* \"#utility.yul\":7529:7532   */\n      dup2\n        /* \"#utility.yul\":7524:7527   */\n      dup4\n        /* \"#utility.yul\":7511:7541   */\n      calldatacopy\n        /* \"#utility.yul\":7596:7597   */\n      0x00\n        /* \"#utility.yul\":7587:7593   */\n      dup4\n        /* \"#utility.yul\":7582:7585   */\n      dup4\n        /* \"#utility.yul\":7578:7594   */\n      add\n        /* \"#utility.yul\":7571:7598   */\n      mstore\n        /* \"#utility.yul\":7501:7604   */\n      pop\n      pop\n      pop\n      jump\t// out\n        /* \"#utility.yul\":7610:7917   */\n    tag_118:\n        /* \"#utility.yul\":7678:7679   */\n      0x00\n        /* \"#utility.yul\":7688:7801   */\n    tag_169:\n        /* \"#utility.yul\":7702:7708   */\n      dup4\n        /* \"#utility.yul\":7699:7700   */\n      dup2\n        /* \"#utility.yul\":7696:7709   */\n      lt\n        /* \"#utility.yul\":7688:7801   */\n      iszero\n      tag_171\n      jumpi\n        /* \"#utility.yul\":7787:7788   */\n      dup1\n        /* \"#utility.yul\":7782:7785   */\n      dup3\n        /* \"#utility.yul\":7778:7789   */\n      add\n        /* \"#utility.yul\":7772:7790   */\n      mload\n        /* \"#utility.yul\":7768:7769   */\n      dup2\n        /* \"#utility.yul\":7763:7766   */\n      dup5\n        /* \"#utility.yul\":7759:7770   */\n      add\n        /* \"#utility.yul\":7752:7791   */\n      mstore\n        /* \"#utility.yul\":7724:7726   */\n      0x20\n        /* \"#utility.yul\":7721:7722   */\n      dup2\n        /* \"#utility.yul\":7717:7727   */\n      add\n        /* \"#utility.yul\":7712:7727   */\n      swap1\n      pop\n        /* \"#utility.yul\":7688:7801   */\n      jump(tag_169)\n    tag_171:\n        /* \"#utility.yul\":7819:7825   */\n      dup4\n        /* \"#utility.yul\":7816:7817   */\n      dup2\n        /* \"#utility.yul\":7813:7826   */\n      gt\n        /* \"#utility.yul\":7810:7812   */\n      iszero\n      tag_172\n      jumpi\n        /* \"#utility.yul\":7899:7900   */\n      0x00\n        /* \"#utility.yul\":7890:7896   */\n      dup5\n        /* \"#utility.yul\":7885:7888   */\n      dup5\n        /* \"#utility.yul\":7881:7897   */\n      add\n        /* \"#utility.yul\":7874:7901   */\n      mstore\n        /* \"#utility.yul\":7810:7812   */\n    tag_172:\n        /* \"#utility.yul\":7659:7917   */\n      pop\n      pop\n      pop\n      pop\n      jump\t// out\n        /* \"#utility.yul\":7923:8243   */\n    tag_28:\n      0x00\n        /* \"#utility.yul\":8004:8005   */\n      0x02\n        /* \"#utility.yul\":7998:8002   */\n      dup3\n        /* \"#utility.yul\":7994:8006   */\n      div\n        /* \"#utility.yul\":7984:8006   */\n      swap1\n      pop\n        /* \"#utility.yul\":8051:8052   */\n      0x01\n        /* \"#utility.yul\":8045:8049   */\n      dup3\n        /* \"#utility.yul\":8041:8053   */\n      and\n        /* \"#utility.yul\":8072:8090   */\n      dup1\n        /* \"#utility.yul\":8062:8064   */\n      tag_174\n      jumpi\n        /* \"#utility.yul\":8128:8132   */\n      0x7f\n        /* \"#utility.yul\":8120:8126   */\n      dup3\n        /* \"#utility.yul\":8116:8133   */\n      and\n        /* \"#utility.yul\":8106:8133   */\n      swap2\n      pop\n        /* \"#utility.yul\":8062:8064   */\n    tag_174:\n        /* \"#utility.yul\":8190:8192   */\n      0x20\n        /* \"#utility.yul\":8182:8188   */\n      dup3\n        /* \"#utility.yul\":8179:8193   */\n      lt\n        /* \"#utility.yul\":8159:8177   */\n      dup2\n        /* \"#utility.yul\":8156:8194   */\n      eq\n        /* \"#utility.yul\":8153:8155   */\n      iszero\n      tag_175\n      jumpi\n        /* \"#utility.yul\":8209:8227   */\n      tag_176\n      tag_177\n      jump\t// in\n    tag_176:\n        /* \"#utility.yul\":8153:8155   */\n    tag_175:\n        /* \"#utility.yul\":7974:8243   */\n      pop\n      swap2\n      swap1\n      pop\n      jump\t// out\n        /* \"#utility.yul\":8249:8429   */\n    tag_161:\n        /* \"#utility.yul\":8297:8374   */\n      0x4e487b7100000000000000000000000000000000000000000000000000000000\n        /* \"#utility.yul\":8294:8295   */\n      0x00\n        /* \"#utility.yul\":8287:8375   */\n      mstore\n        /* \"#utility.yul\":8394:8398   */\n      0x11\n        /* \"#utility.yul\":8391:8392   */\n      0x04\n        /* \"#utility.yul\":8384:8399   */\n      mstore\n        /* \"#utility.yul\":8418:8422   */\n      0x24\n        /* \"#utility.yul\":8415:8416   */\n      0x00\n        /* \"#utility.yul\":8408:8423   */\n      revert\n        /* \"#utility.yul\":8435:8615   */\n    tag_177:\n        /* \"#utility.yul\":8483:8560   */\n      0x4e487b7100000000000000000000000000000000000000000000000000000000\n        /* \"#utility.yul\":8480:8481   */\n      0x00\n        /* \"#utility.yul\":8473:8561   */\n      mstore\n        /* \"#utility.yul\":8580:8584   */\n      0x22\n        /* \"#utility.yul\":8577:8578   */\n      0x04\n        /* \"#utility.yul\":8570:8585   */\n      mstore\n        /* \"#utility.yul\":8604:8608   */\n      0x24\n        /* \"#utility.yul\":8601:8602   */\n      0x00\n        /* \"#utility.yul\":8594:8609   */\n      revert\n        /* \"#utility.yul\":8621:8801   */\n    tag_150:\n        /* \"#utility.yul\":8669:8746   */\n      0x4e487b7100000000000000000000000000000000000000000000000000000000\n        /* \"#utility.yul\":8666:8667   */\n      0x00\n        /* \"#utility.yul\":8659:8747   */\n      mstore\n        /* \"#utility.yul\":8766:8770   */\n      0x41\n        /* \"#utility.yul\":8763:8764   */\n      0x04\n        /* \"#utility.yul\":8756:8771   */\n      mstore\n        /* \"#utility.yul\":8790:8794   */\n      0x24\n        /* \"#utility.yul\":8787:8788   */\n      0x00\n        /* \"#utility.yul\":8780:8795   */\n      revert\n        /* \"#utility.yul\":8807:8909   */\n    tag_120:\n      0x00\n        /* \"#utility.yul\":8899:8901   */\n      0x1f\n        /* \"#utility.yul\":8895:8902   */\n      not\n        /* \"#utility.yul\":8890:8892   */\n      0x1f\n        /* \"#utility.yul\":8883:8888   */\n      dup4\n        /* \"#utility.yul\":8879:8893   */\n      add\n        /* \"#utility.yul\":8875:8903   */\n      and\n        /* \"#utility.yul\":8865:8903   */\n      swap1\n      pop\n        /* \"#utility.yul\":8855:8909   */\n      swap2\n      swap1\n      pop\n      jump\t// out\n        /* \"#utility.yul\":8915:9037   */\n    tag_86:\n        /* \"#utility.yul\":8988:9012   */\n      tag_183\n        /* \"#utility.yul\":9006:9011   */\n      dup2\n        /* \"#utility.yul\":8988:9012   */\n      tag_110\n      jump\t// in\n    tag_183:\n        /* \"#utility.yul\":8981:8986   */\n      dup2\n        /* \"#utility.yul\":8978:9013   */\n      eq\n        /* \"#utility.yul\":8968:8970   */\n      tag_184\n      jumpi\n        /* \"#utility.yul\":9027:9028   */\n      0x00\n        /* \"#utility.yul\":9024:9025   */\n      dup1\n        /* \"#utility.yul\":9017:9029   */\n      revert\n        /* \"#utility.yul\":8968:8970   */\n    tag_184:\n        /* \"#utility.yul\":8958:9037   */\n      pop\n      jump\t// out\n        /* \"#utility.yul\":9043:9165   */\n    tag_94:\n        /* \"#utility.yul\":9116:9140   */\n      tag_186\n        /* \"#utility.yul\":9134:9139   */\n      dup2\n        /* \"#utility.yul\":9116:9140   */\n      tag_133\n      jump\t// in\n    tag_186:\n        /* \"#utility.yul\":9109:9114   */\n      dup2\n        /* \"#utility.yul\":9106:9141   */\n      eq\n        /* \"#utility.yul\":9096:9098   */\n      tag_187\n      jumpi\n        /* \"#utility.yul\":9155:9156   */\n      0x00\n        /* \"#utility.yul\":9152:9153   */\n      dup1\n        /* \"#utility.yul\":9145:9157   */\n      revert\n        /* \"#utility.yul\":9096:9098   */\n    tag_187:\n        /* \"#utility.yul\":9086:9165   */\n      pop\n      jump\t// out\n\n    auxdata: 0xa2646970667358221220558c7d58ce38a019cec6de7ab0a182b3a09529661db3229d09944c0e592deb9d64736f6c63430008000033\n}\n",
				"bytecode": {
					"linkReferences": {},
					"object": "608060405234801561001057600080fd5b50610d45806100206000396000f3fe608060405234801561001057600080fd5b506004361061004c5760003560e01c8063036a1c22146100515780630df3a1e014610083578063297117371461009f578063da304e4d146100bb575b600080fd5b61006b60048036038101906100669190610872565b6100ed565b60405161007a93929190610a44565b60405180910390f35b61009d6004803603810190610098919061089b565b6101cf565b005b6100b960048036038101906100b4919061081e565b610406565b005b6100d560048036038101906100d09190610872565b610538565b6040516100e493929190610a44565b60405180910390f35b600081815481106100fd57600080fd5b906000526020600020906003020160009150905080600001805461012090610c11565b80601f016020809104026020016040519081016040528092919081815260200182805461014c90610c11565b80156101995780601f1061016e57610100808354040283529160200191610199565b820191906000526020600020905b81548152906001019060200180831161017c57829003601f168201915b5050505050908060010154908060020160009054906101000a900473ffffffffffffffffffffffffffffffffffffffff16905083565b6000805490508210610216576040517f08c379a000000000000000000000000000000000000000000000000000000000815260040161020d90610aa2565b60405180910390fd5b600073ffffffffffffffffffffffffffffffffffffffff168173ffffffffffffffffffffffffffffffffffffffff161415610286576040517f08c379a000000000000000000000000000000000000000000000000000000000815260040161027d90610a82565b60405180910390fd5b60008083815481106102c1577f4e487b7100000000000000000000000000000000000000000000000000000000600052603260045260246000fd5b906000526020600020906003020190508060020160009054906101000a900473ffffffffffffffffffffffffffffffffffffffff1673ffffffffffffffffffffffffffffffffffffffff163373ffffffffffffffffffffffffffffffffffffffff1614610363576040517f08c379a000000000000000000000000000000000000000000000000000000000815260040161035a90610ac2565b60405180910390fd5b818160020160006101000a81548173ffffffffffffffffffffffffffffffffffffffff021916908373ffffffffffffffffffffffffffffffffffffffff1602179055508173ffffffffffffffffffffffffffffffffffffffff163373ffffffffffffffffffffffffffffffffffffffff16847f7498bf43d4148a03a165d093fcadc813f1a344a5f983812a2777c01f4dc2f0d660405160405180910390a4505050565b600060405180606001604052808481526020018381526020013373ffffffffffffffffffffffffffffffffffffffff168152509080600181540180825580915050600190039060005260206000209060030201600090919091909150600082015181600001908051906020019061047e9291906106e9565b506020820151816001015560408201518160020160006101000a81548173ffffffffffffffffffffffffffffffffffffffff021916908373ffffffffffffffffffffffffffffffffffffffff16021790555050503373ffffffffffffffffffffffffffffffffffffffff1660016000805490506104fb9190610b5f565b7f8d43f7b657997330e62fa2b4c76560f9a652ad99a59702bc1c9858a077d67393848460405161052c929190610a14565b60405180910390a35050565b60606000806000805490508410610584576040517f08c379a000000000000000000000000000000000000000000000000000000000815260040161057b90610aa2565b60405180910390fd5b60008085815481106105bf577f4e487b7100000000000000000000000000000000000000000000000000000000600052603260045260246000fd5b90600052602060002090600302016040518060600160405290816000820180546105e890610c11565b80601f016020809104026020016040519081016040528092919081815260200182805461061490610c11565b80156106615780601f1061063657610100808354040283529160200191610661565b820191906000526020600020905b81548152906001019060200180831161064457829003601f168201915b50505050508152602001600182015481526020016002820160009054906101000a900473ffffffffffffffffffffffffffffffffffffffff1673ffffffffffffffffffffffffffffffffffffffff1673ffffffffffffffffffffffffffffffffffffffff16815250509050806000015181602001518260400151935093509350509193909250565b8280546106f590610c11565b90600052602060002090601f016020900481019282610717576000855561075e565b82601f1061073057805160ff191683800117855561075e565b8280016001018555821561075e579182015b8281111561075d578251825591602001919060010190610742565b5b50905061076b919061076f565b5090565b5b80821115610788576000816000905550600101610770565b5090565b600061079f61079a84610b13565b610ae2565b9050828152602081018484840111156107b757600080fd5b6107c2848285610bcf565b509392505050565b6000813590506107d981610ce1565b92915050565b600082601f8301126107f057600080fd5b813561080084826020860161078c565b91505092915050565b60008135905061081881610cf8565b92915050565b6000806040838503121561083157600080fd5b600083013567ffffffffffffffff81111561084b57600080fd5b610857858286016107df565b925050602061086885828601610809565b9150509250929050565b60006020828403121561088457600080fd5b600061089284828501610809565b91505092915050565b600080604083850312156108ae57600080fd5b60006108bc85828601610809565b92505060206108cd858286016107ca565b9150509250929050565b6108e081610b93565b82525050565b60006108f182610b43565b6108fb8185610b4e565b935061090b818560208601610bde565b61091481610cd0565b840191505092915050565b600061092c600f83610b4e565b91507f496e76616c6964206164647265737300000000000000000000000000000000006000830152602082019050919050565b600061096c601583610b4e565b91507f43726564697420646f6573206e6f7420657869737400000000000000000000006000830152602082019050919050565b60006109ac602783610b4e565b91507f4f6e6c7920746865206f776e65722063616e207472616e73666572207468697360008301527f20637265646974000000000000000000000000000000000000000000000000006020830152604082019050919050565b610a0e81610bc5565b82525050565b60006040820190508181036000830152610a2e81856108e6565b9050610a3d6020830184610a05565b9392505050565b60006060820190508181036000830152610a5e81866108e6565b9050610a6d6020830185610a05565b610a7a60408301846108d7565b949350505050565b60006020820190508181036000830152610a9b8161091f565b9050919050565b60006020820190508181036000830152610abb8161095f565b9050919050565b60006020820190508181036000830152610adb8161099f565b9050919050565b6000604051905081810181811067ffffffffffffffff82111715610b0957610b08610ca1565b5b8060405250919050565b600067ffffffffffffffff821115610b2e57610b2d610ca1565b5b601f19601f8301169050602081019050919050565b600081519050919050565b600082825260208201905092915050565b6000610b6a82610bc5565b9150610b7583610bc5565b925082821015610b8857610b87610c43565b5b828203905092915050565b6000610b9e82610ba5565b9050919050565b600073ffffffffffffffffffffffffffffffffffffffff82169050919050565b6000819050919050565b82818337600083830152505050565b60005b83811015610bfc578082015181840152602081019050610be1565b83811115610c0b576000848401525b50505050565b60006002820490506001821680610c2957607f821691505b60208210811415610c3d57610c3c610c72565b5b50919050565b7f4e487b7100000000000000000000000000000000000000000000000000000000600052601160045260246000fd5b7f4e487b7100000000000000000000000000000000000000000000000000000000600052602260045260246000fd5b7f4e487b7100000000000000000000000000000000000000000000000000000000600052604160045260246000fd5b6000601f19601f8301169050919050565b610cea81610b93565b8114610cf557600080fd5b50565b610d0181610bc5565b8114610d0c57600080fd5b5056fea2646970667358221220558c7d58ce38a019cec6de7ab0a182b3a09529661db3229d09944c0e592deb9d64736f6c63430008000033",
					"opcodes": "PUSH1 0x80 PUSH1 0x40 MSTORE CALLVALUE DUP1 ISZERO PUSH2 0x10 JUMPI PUSH1 0x0 DUP1 REVERT JUMPDEST POP PUSH2 0xD45 DUP1 PUSH2 0x20 PUSH1 0x0 CODECOPY PUSH1 0x0 RETURN INVALID PUSH1 0x80 PUSH1 0x40 MSTORE CALLVALUE DUP1 ISZERO PUSH2 0x10 JUMPI PUSH1 0x0 DUP1 REVERT JUMPDEST POP PUSH1 0x4 CALLDATASIZE LT PUSH2 0x4C JUMPI PUSH1 0x0 CALLDATALOAD PUSH1 0xE0 SHR DUP1 PUSH4 0x36A1C22 EQ PUSH2 0x51 JUMPI DUP1 PUSH4 0xDF3A1E0 EQ PUSH2 0x83 JUMPI DUP1 PUSH4 0x29711737 EQ PUSH2 0x9F JUMPI DUP1 PUSH4 0xDA304E4D EQ PUSH2 0xBB JUMPI JUMPDEST PUSH1 0x0 DUP1 REVERT JUMPDEST PUSH2 0x6B PUSH1 0x4 DUP1 CALLDATASIZE SUB DUP2 ADD SWAP1 PUSH2 0x66 SWAP2 SWAP1 PUSH2 0x872 JUMP JUMPDEST PUSH2 0xED JUMP JUMPDEST PUSH1 0x40 MLOAD PUSH2 0x7A SWAP4 SWAP3 SWAP2 SWAP1 PUSH2 0xA44 JUMP JUMPDEST PUSH1 0x40 MLOAD DUP1 SWAP2 SUB SWAP1 RETURN JUMPDEST PUSH2 0x9D PUSH1 0x4 DUP1 CALLDATASIZE SUB DUP2 ADD SWAP1 PUSH2 0x98 SWAP2 SWAP1 PUSH2 0x89B JUMP JUMPDEST PUSH2 0x1CF JUMP JUMPDEST STOP JUMPDEST PUSH2 0xB9 PUSH1 0x4 DUP1 CALLDATASIZE SUB DUP2 ADD SWAP1 PUSH2 0xB4 SWAP2 SWAP1 PUSH2 0x81E JUMP JUMPDEST PUSH2 0x406 JUMP JUMPDEST STOP JUMPDEST PUSH2 0xD5 PUSH1 0x4 DUP1 CALLDATASIZE SUB DUP2 ADD SWAP1 PUSH2 0xD0 SWAP2 SWAP1 PUSH2 0x872 JUMP JUMPDEST PUSH2 0x538 JUMP JUMPDEST PUSH1 0x40 MLOAD PUSH2 0xE4 SWAP4 SWAP3 SWAP2 SWAP1 PUSH2 0xA44 JUMP JUMPDEST PUSH1 0x40 MLOAD DUP1 SWAP2 SUB SWAP1 RETURN JUMPDEST PUSH1 0x0 DUP2 DUP2 SLOAD DUP2 LT PUSH2 0xFD JUMPI PUSH1 0x0 DUP1 REVERT JUMPDEST SWAP1 PUSH1 0x0 MSTORE PUSH1 0x20 PUSH1 0x0 KECCAK256 SWAP1 PUSH1 0x3 MUL ADD PUSH1 0x0 SWAP2 POP SWAP1 POP DUP1 PUSH1 0x0 ADD DUP1 SLOAD PUSH2 0x120 SWAP1 PUSH2 0xC11 JUMP JUMPDEST DUP1 PUSH1 0x1F ADD PUSH1 0x20 DUP1 SWAP2 DIV MUL PUSH1 0x20 ADD PUSH1 0x40 MLOAD SWAP1 DUP2 ADD PUSH1 0x40 MSTORE DUP1 SWAP3 SWAP2 SWAP1 DUP2 DUP2 MSTORE PUSH1 0x20 ADD DUP3 DUP1 SLOAD PUSH2 0x14C SWAP1 PUSH2 0xC11 JUMP JUMPDEST DUP1 ISZERO PUSH2 0x199 JUMPI DUP1 PUSH1 0x1F LT PUSH2 0x16E JUMPI PUSH2 0x100 DUP1 DUP4 SLOAD DIV MUL DUP4 MSTORE SWAP2 PUSH1 0x20 ADD SWAP2 PUSH2 0x199 JUMP JUMPDEST DUP3 ADD SWAP2 SWAP1 PUSH1 0x0 MSTORE PUSH1 0x20 PUSH1 0x0 KECCAK256 SWAP1 JUMPDEST DUP2 SLOAD DUP2 MSTORE SWAP1 PUSH1 0x1 ADD SWAP1 PUSH1 0x20 ADD DUP1 DUP4 GT PUSH2 0x17C JUMPI DUP3 SWAP1 SUB PUSH1 0x1F AND DUP3 ADD SWAP2 JUMPDEST POP POP POP POP POP SWAP1 DUP1 PUSH1 0x1 ADD SLOAD SWAP1 DUP1 PUSH1 0x2 ADD PUSH1 0x0 SWAP1 SLOAD SWAP1 PUSH2 0x100 EXP SWAP1 DIV PUSH20 0xFFFFFFFFFFFFFFFFFFFFFFFFFFFFFFFFFFFFFFFF AND SWAP1 POP DUP4 JUMP JUMPDEST PUSH1 0x0 DUP1 SLOAD SWAP1 POP DUP3 LT PUSH2 0x216 JUMPI PUSH1 0x40 MLOAD PUSH32 0x8C379A000000000000000000000000000000000000000000000000000000000 DUP2 MSTORE PUSH1 0x4 ADD PUSH2 0x20D SWAP1 PUSH2 0xAA2 JUMP JUMPDEST PUSH1 0x40 MLOAD DUP1 SWAP2 SUB SWAP1 REVERT JUMPDEST PUSH1 0x0 PUSH20 0xFFFFFFFFFFFFFFFFFFFFFFFFFFFFFFFFFFFFFFFF AND DUP2 PUSH20 0xFFFFFFFFFFFFFFFFFFFFFFFFFFFFFFFFFFFFFFFF AND EQ ISZERO PUSH2 0x286 JUMPI PUSH1 0x40 MLOAD PUSH32 0x8C379A000000000000000000000000000000000000000000000000000000000 DUP2 MSTORE PUSH1 0x4 ADD PUSH2 0x27D SWAP1 PUSH2 0xA82 JUMP JUMPDEST PUSH1 0x40 MLOAD DUP1 SWAP2 SUB SWAP1 REVERT JUMPDEST PUSH1 0x0 DUP1 DUP4 DUP2 SLOAD DUP2 LT PUSH2 0x2C1 JUMPI PUSH32 0x4E487B7100000000000000000000000000000000000000000000000000000000 PUSH1 0x0 MSTORE PUSH1 0x32 PUSH1 0x4 MSTORE PUSH1 0x24 PUSH1 0x0 REVERT JUMPDEST SWAP1 PUSH1 0x0 MSTORE PUSH1 0x20 PUSH1 0x0 KECCAK256 SWAP1 PUSH1 0x3 MUL ADD SWAP1 POP DUP1 PUSH1 0x2 ADD PUSH1 0x0 SWAP1 SLOAD SWAP1 PUSH2 0x100 EXP SWAP1 DIV PUSH20 0xFFFFFFFFFFFFFFFFFFFFFFFFFFFFFFFFFFFFFFFF AND PUSH20 0xFFFFFFFFFFFFFFFFFFFFFFFFFFFFFFFFFFFFFFFF AND CALLER PUSH20 0xFFFFFFFFFFFFFFFFFFFFFFFFFFFFFFFFFFFFFFFF AND EQ PUSH2 0x363 JUMPI PUSH1 0x40 MLOAD PUSH32 0x8C379A000000000000000000000000000000000000000000000000000000000 DUP2 MSTORE PUSH1 0x4 ADD PUSH2 0x35A SWAP1 PUSH2 0xAC2 JUMP JUMPDEST PUSH1 0x40 MLOAD DUP1 SWAP2 SUB SWAP1 REVERT JUMPDEST DUP2 DUP2 PUSH1 0x2 ADD PUSH1 0x0 PUSH2 0x100 EXP DUP2 SLOAD DUP2 PUSH20 0xFFFFFFFFFFFFFFFFFFFFFFFFFFFFFFFFFFFFFFFF MUL NOT AND SWAP1 DUP4 PUSH20 0xFFFFFFFFFFFFFFFFFFFFFFFFFFFFFFFFFFFFFFFF AND MUL OR SWAP1 SSTORE POP DUP2 PUSH20 0xFFFFFFFFFFFFFFFFFFFFFFFFFFFFFFFFFFFFFFFF AND CALLER PUSH20 0xFFFFFFFFFFFFFFFFFFFFFFFFFFFFFFFFFFFFFFFF AND DUP5 PUSH32 0x7498BF43D4148A03A165D093FCADC813F1A344A5F983812A2777C01F4DC2F0D6 PUSH1 0x40 MLOAD PUSH1 0x40 MLOAD DUP1 SWAP2 SUB SWAP1 LOG4 POP POP POP JUMP JUMPDEST PUSH1 0x0 PUSH1 0x40 MLOAD DUP1 PUSH1 0x60 ADD PUSH1 0x40 MSTORE DUP1 DUP5 DUP2 MSTORE PUSH1 0x20 ADD DUP4 DUP2 MSTORE PUSH1 0x20 ADD CALLER PUSH20 0xFFFFFFFFFFFFFFFFFFFFFFFFFFFFFFFFFFFFFFFF AND DUP2 MSTORE POP SWAP1 DUP1 PUSH1 0x1 DUP2 SLOAD ADD DUP1 DUP3 SSTORE DUP1 SWAP2 POP POP PUSH1 0x1 SWAP1 SUB SWAP1 PUSH1 0x0 MSTORE PUSH1 0x20 PUSH1 0x0 KECCAK256 SWAP1 PUSH1 0x3 MUL ADD PUSH1 0x0 SWAP1 SWAP2 SWAP1 SWAP2 SWAP1 SWAP2 POP PUSH1 0x0 DUP3 ADD MLOAD DUP2 PUSH1 0x0 ADD SWAP1 DUP1 MLOAD SWAP1 PUSH1 0x20 ADD SWAP1 PUSH2 0x47E SWAP3 SWAP2 SWAP1 PUSH2 0x6E9 JUMP JUMPDEST POP PUSH1 0x20 DUP3 ADD MLOAD DUP2 PUSH1 0x1 ADD SSTORE PUSH1 0x40 DUP3 ADD MLOAD DUP2 PUSH1 0x2 ADD PUSH1 0x0 PUSH2 0x100 EXP DUP2 SLOAD DUP2 PUSH20 0xFFFFFFFFFFFFFFFFFFFFFFFFFFFFFFFFFFFFFFFF MUL NOT AND SWAP1 DUP4 PUSH20 0xFFFFFFFFFFFFFFFFFFFFFFFFFFFFFFFFFFFFFFFF AND MUL OR SWAP1 SSTORE POP POP POP CALLER PUSH20 0xFFFFFFFFFFFFFFFFFFFFFFFFFFFFFFFFFFFFFFFF AND PUSH1 0x1 PUSH1 0x0 DUP1 SLOAD SWAP1 POP PUSH2 0x4FB SWAP2 SWAP1 PUSH2 0xB5F JUMP JUMPDEST PUSH32 0x8D43F7B657997330E62FA2B4C76560F9A652AD99A59702BC1C9858A077D67393 DUP5 DUP5 PUSH1 0x40 MLOAD PUSH2 0x52C SWAP3 SWAP2 SWAP1 PUSH2 0xA14 JUMP JUMPDEST PUSH1 0x40 MLOAD DUP1 SWAP2 SUB SWAP1 LOG3 POP POP JUMP JUMPDEST PUSH1 0x60 PUSH1 0x0 DUP1 PUSH1 0x0 DUP1 SLOAD SWAP1 POP DUP5 LT PUSH2 0x584 JUMPI PUSH1 0x40 MLOAD PUSH32 0x8C379A000000000000000000000000000000000000000000000000000000000 DUP2 MSTORE PUSH1 0x4 ADD PUSH2 0x57B SWAP1 PUSH2 0xAA2 JUMP JUMPDEST PUSH1 0x40 MLOAD DUP1 SWAP2 SUB SWAP1 REVERT JUMPDEST PUSH1 0x0 DUP1 DUP6 DUP2 SLOAD DUP2 LT PUSH2 0x5BF JUMPI PUSH32 0x4E487B7100000000000000000000000000000000000000000000000000000000 PUSH1 0x0 MSTORE PUSH1 0x32 PUSH1 0x4 MSTORE PUSH1 0x24 PUSH1 0x0 REVERT JUMPDEST SWAP1 PUSH1 0x0 MSTORE PUSH1 0x20 PUSH1 0x0 KECCAK256 SWAP1 PUSH1 0x3 MUL ADD PUSH1 0x40 MLOAD DUP1 PUSH1 0x60 ADD PUSH1 0x40 MSTORE SWAP1 DUP2 PUSH1 0x0 DUP3 ADD DUP1 SLOAD PUSH2 0x5E8 SWAP1 PUSH2 0xC11 JUMP JUMPDEST DUP1 PUSH1 0x1F ADD PUSH1 0x20 DUP1 SWAP2 DIV MUL PUSH1 0x20 ADD PUSH1 0x40 MLOAD SWAP1 DUP2 ADD PUSH1 0x40 MSTORE DUP1 SWAP3 SWAP2 SWAP1 DUP2 DUP2 MSTORE PUSH1 0x20 ADD DUP3 DUP1 SLOAD PUSH2 0x614 SWAP1 PUSH2 0xC11 JUMP JUMPDEST DUP1 ISZERO PUSH2 0x661 JUMPI DUP1 PUSH1 0x1F LT PUSH2 0x636 JUMPI PUSH2 0x100 DUP1 DUP4 SLOAD DIV MUL DUP4 MSTORE SWAP2 PUSH1 0x20 ADD SWAP2 PUSH2 0x661 JUMP JUMPDEST DUP3 ADD SWAP2 SWAP1 PUSH1 0x0 MSTORE PUSH1 0x20 PUSH1 0x0 KECCAK256 SWAP1 JUMPDEST DUP2 SLOAD DUP2 MSTORE SWAP1 PUSH1 0x1 ADD SWAP1 PUSH1 0x20 ADD DUP1 DUP4 GT PUSH2 0x644 JUMPI DUP3 SWAP1 SUB PUSH1 0x1F AND DUP3 ADD SWAP2 JUMPDEST POP POP POP POP POP DUP2 MSTORE PUSH1 0x20 ADD PUSH1 0x1 DUP3 ADD SLOAD DUP2 MSTORE PUSH1 0x20 ADD PUSH1 0x2 DUP3 ADD PUSH1 0x0 SWAP1 SLOAD SWAP1 PUSH2 0x100 EXP SWAP1 DIV PUSH20 0xFFFFFFFFFFFFFFFFFFFFFFFFFFFFFFFFFFFFFFFF AND PUSH20 0xFFFFFFFFFFFFFFFFFFFFFFFFFFFFFFFFFFFFFFFF AND PUSH20 0xFFFFFFFFFFFFFFFFFFFFFFFFFFFFFFFFFFFFFFFF AND DUP2 MSTORE POP POP SWAP1 POP DUP1 PUSH1 0x0 ADD MLOAD DUP2 PUSH1 0x20 ADD MLOAD DUP3 PUSH1 0x40 ADD MLOAD SWAP4 POP SWAP4 POP SWAP4 POP POP SWAP2 SWAP4 SWAP1 SWAP3 POP JUMP JUMPDEST DUP3 DUP1 SLOAD PUSH2 0x6F5 SWAP1 PUSH2 0xC11 JUMP JUMPDEST SWAP1 PUSH1 0x0 MSTORE PUSH1 0x20 PUSH1 0x0 KECCAK256 SWAP1 PUSH1 0x1F ADD PUSH1 0x20 SWAP1 DIV DUP2 ADD SWAP3 DUP3 PUSH2 0x717 JUMPI PUSH1 0x0 DUP6 SSTORE PUSH2 0x75E JUMP JUMPDEST DUP3 PUSH1 0x1F LT PUSH2 0x730 JUMPI DUP1 MLOAD PUSH1 0xFF NOT AND DUP4 DUP1 ADD OR DUP6 SSTORE PUSH2 0x75E JUMP JUMPDEST DUP3 DUP1 ADD PUSH1 0x1 ADD DUP6 SSTORE DUP3 ISZERO PUSH2 0x75E JUMPI SWAP2 DUP3 ADD JUMPDEST DUP3 DUP2 GT ISZERO PUSH2 0x75D JUMPI DUP3 MLOAD DUP3 SSTORE SWAP2 PUSH1 0x20 ADD SWAP2 SWAP1 PUSH1 0x1 ADD SWAP1 PUSH2 0x742 JUMP JUMPDEST JUMPDEST POP SWAP1 POP PUSH2 0x76B SWAP2 SWAP1 PUSH2 0x76F JUMP JUMPDEST POP SWAP1 JUMP JUMPDEST JUMPDEST DUP1 DUP3 GT ISZERO PUSH2 0x788 JUMPI PUSH1 0x0 DUP2 PUSH1 0x0 SWAP1 SSTORE POP PUSH1 0x1 ADD PUSH2 0x770 JUMP JUMPDEST POP SWAP1 JUMP JUMPDEST PUSH1 0x0 PUSH2 0x79F PUSH2 0x79A DUP5 PUSH2 0xB13 JUMP JUMPDEST PUSH2 0xAE2 JUMP JUMPDEST SWAP1 POP DUP3 DUP2 MSTORE PUSH1 0x20 DUP2 ADD DUP5 DUP5 DUP5 ADD GT ISZERO PUSH2 0x7B7 JUMPI PUSH1 0x0 DUP1 REVERT JUMPDEST PUSH2 0x7C2 DUP5 DUP3 DUP6 PUSH2 0xBCF JUMP JUMPDEST POP SWAP4 SWAP3 POP POP POP JUMP JUMPDEST PUSH1 0x0 DUP2 CALLDATALOAD SWAP1 POP PUSH2 0x7D9 DUP2 PUSH2 0xCE1 JUMP JUMPDEST SWAP3 SWAP2 POP POP JUMP JUMPDEST PUSH1 0x0 DUP3 PUSH1 0x1F DUP4 ADD SLT PUSH2 0x7F0 JUMPI PUSH1 0x0 DUP1 REVERT JUMPDEST DUP2 CALLDATALOAD PUSH2 0x800 DUP5 DUP3 PUSH1 0x20 DUP7 ADD PUSH2 0x78C JUMP JUMPDEST SWAP2 POP POP SWAP3 SWAP2 POP POP JUMP JUMPDEST PUSH1 0x0 DUP2 CALLDATALOAD SWAP1 POP PUSH2 0x818 DUP2 PUSH2 0xCF8 JUMP JUMPDEST SWAP3 SWAP2 POP POP JUMP JUMPDEST PUSH1 0x0 DUP1 PUSH1 0x40 DUP4 DUP6 SUB SLT ISZERO PUSH2 0x831 JUMPI PUSH1 0x0 DUP1 REVERT JUMPDEST PUSH1 0x0 DUP4 ADD CALLDATALOAD PUSH8 0xFFFFFFFFFFFFFFFF DUP2 GT ISZERO PUSH2 0x84B JUMPI PUSH1 0x0 DUP1 REVERT JUMPDEST PUSH2 0x857 DUP6 DUP3 DUP7 ADD PUSH2 0x7DF JUMP JUMPDEST SWAP3 POP POP PUSH1 0x20 PUSH2 0x868 DUP6 DUP3 DUP7 ADD PUSH2 0x809 JUMP JUMPDEST SWAP2 POP POP SWAP3 POP SWAP3 SWAP1 POP JUMP JUMPDEST PUSH1 0x0 PUSH1 0x20 DUP3 DUP5 SUB SLT ISZERO PUSH2 0x884 JUMPI PUSH1 0x0 DUP1 REVERT JUMPDEST PUSH1 0x0 PUSH2 0x892 DUP5 DUP3 DUP6 ADD PUSH2 0x809 JUMP JUMPDEST SWAP2 POP POP SWAP3 SWAP2 POP POP JUMP JUMPDEST PUSH1 0x0 DUP1 PUSH1 0x40 DUP4 DUP6 SUB SLT ISZERO PUSH2 0x8AE JUMPI PUSH1 0x0 DUP1 REVERT JUMPDEST PUSH1 0x0 PUSH2 0x8BC DUP6 DUP3 DUP7 ADD PUSH2 0x809 JUMP JUMPDEST SWAP3 POP POP PUSH1 0x20 PUSH2 0x8CD DUP6 DUP3 DUP7 ADD PUSH2 0x7CA JUMP JUMPDEST SWAP2 POP POP SWAP3 POP SWAP3 SWAP1 POP JUMP JUMPDEST PUSH2 0x8E0 DUP2 PUSH2 0xB93 JUMP JUMPDEST DUP3 MSTORE POP POP JUMP JUMPDEST PUSH1 0x0 PUSH2 0x8F1 DUP3 PUSH2 0xB43 JUMP JUMPDEST PUSH2 0x8FB DUP2 DUP6 PUSH2 0xB4E JUMP JUMPDEST SWAP4 POP PUSH2 0x90B DUP2 DUP6 PUSH1 0x20 DUP7 ADD PUSH2 0xBDE JUMP JUMPDEST PUSH2 0x914 DUP2 PUSH2 0xCD0 JUMP JUMPDEST DUP5 ADD SWAP2 POP POP SWAP3 SWAP2 POP POP JUMP JUMPDEST PUSH1 0x0 PUSH2 0x92C PUSH1 0xF DUP4 PUSH2 0xB4E JUMP JUMPDEST SWAP2 POP PUSH32 0x496E76616C696420616464726573730000000000000000000000000000000000 PUSH1 0x0 DUP4 ADD MSTORE PUSH1 0x20 DUP3 ADD SWAP1 POP SWAP2 SWAP1 POP JUMP JUMPDEST PUSH1 0x0 PUSH2 0x96C PUSH1 0x15 DUP4 PUSH2 0xB4E JUMP JUMPDEST SWAP2 POP PUSH32 0x43726564697420646F6573206E6F742065786973740000000000000000000000 PUSH1 0x0 DUP4 ADD MSTORE PUSH1 0x20 DUP3 ADD SWAP1 POP SWAP2 SWAP1 POP JUMP JUMPDEST PUSH1 0x0 PUSH2 0x9AC PUSH1 0x27 DUP4 PUSH2 0xB4E JUMP JUMPDEST SWAP2 POP PUSH32 0x4F6E6C7920746865206F776E65722063616E207472616E736665722074686973 PUSH1 0x0 DUP4 ADD MSTORE PUSH32 0x2063726564697400000000000000000000000000000000000000000000000000 PUSH1 0x20 DUP4 ADD MSTORE PUSH1 0x40 DUP3 ADD SWAP1 POP SWAP2 SWAP1 POP JUMP JUMPDEST PUSH2 0xA0E DUP2 PUSH2 0xBC5 JUMP JUMPDEST DUP3 MSTORE POP POP JUMP JUMPDEST PUSH1 0x0 PUSH1 0x40 DUP3 ADD SWAP1 POP DUP2 DUP2 SUB PUSH1 0x0 DUP4 ADD MSTORE PUSH2 0xA2E DUP2 DUP6 PUSH2 0x8E6 JUMP JUMPDEST SWAP1 POP PUSH2 0xA3D PUSH1 0x20 DUP4 ADD DUP5 PUSH2 0xA05 JUMP JUMPDEST SWAP4 SWAP3 POP POP POP JUMP JUMPDEST PUSH1 0x0 PUSH1 0x60 DUP3 ADD SWAP1 POP DUP2 DUP2 SUB PUSH1 0x0 DUP4 ADD MSTORE PUSH2 0xA5E DUP2 DUP7 PUSH2 0x8E6 JUMP JUMPDEST SWAP1 POP PUSH2 0xA6D PUSH1 0x20 DUP4 ADD DUP6 PUSH2 0xA05 JUMP JUMPDEST PUSH2 0xA7A PUSH1 0x40 DUP4 ADD DUP5 PUSH2 0x8D7 JUMP JUMPDEST SWAP5 SWAP4 POP POP POP POP JUMP JUMPDEST PUSH1 0x0 PUSH1 0x20 DUP3 ADD SWAP1 POP DUP2 DUP2 SUB PUSH1 0x0 DUP4 ADD MSTORE PUSH2 0xA9B DUP2 PUSH2 0x91F JUMP JUMPDEST SWAP1 POP SWAP2 SWAP1 POP JUMP JUMPDEST PUSH1 0x0 PUSH1 0x20 DUP3 ADD SWAP1 POP DUP2 DUP2 SUB PUSH1 0x0 DUP4 ADD MSTORE PUSH2 0xABB DUP2 PUSH2 0x95F JUMP JUMPDEST SWAP1 POP SWAP2 SWAP1 POP JUMP JUMPDEST PUSH1 0x0 PUSH1 0x20 DUP3 ADD SWAP1 POP DUP2 DUP2 SUB PUSH1 0x0 DUP4 ADD MSTORE PUSH2 0xADB DUP2 PUSH2 0x99F JUMP JUMPDEST SWAP1 POP SWAP2 SWAP1 POP JUMP JUMPDEST PUSH1 0x0 PUSH1 0x40 MLOAD SWAP1 POP DUP2 DUP2 ADD DUP2 DUP2 LT PUSH8 0xFFFFFFFFFFFFFFFF DUP3 GT OR ISZERO PUSH2 0xB09 JUMPI PUSH2 0xB08 PUSH2 0xCA1 JUMP JUMPDEST JUMPDEST DUP1 PUSH1 0x40 MSTORE POP SWAP2 SWAP1 POP JUMP JUMPDEST PUSH1 0x0 PUSH8 0xFFFFFFFFFFFFFFFF DUP3 GT ISZERO PUSH2 0xB2E JUMPI PUSH2 0xB2D PUSH2 0xCA1 JUMP JUMPDEST JUMPDEST PUSH1 0x1F NOT PUSH1 0x1F DUP4 ADD AND SWAP1 POP PUSH1 0x20 DUP2 ADD SWAP1 POP SWAP2 SWAP1 POP JUMP JUMPDEST PUSH1 0x0 DUP2 MLOAD SWAP1 POP SWAP2 SWAP1 POP JUMP JUMPDEST PUSH1 0x0 DUP3 DUP3 MSTORE PUSH1 0x20 DUP3 ADD SWAP1 POP SWAP3 SWAP2 POP POP JUMP JUMPDEST PUSH1 0x0 PUSH2 0xB6A DUP3 PUSH2 0xBC5 JUMP JUMPDEST SWAP2 POP PUSH2 0xB75 DUP4 PUSH2 0xBC5 JUMP JUMPDEST SWAP3 POP DUP3 DUP3 LT ISZERO PUSH2 0xB88 JUMPI PUSH2 0xB87 PUSH2 0xC43 JUMP JUMPDEST JUMPDEST DUP3 DUP3 SUB SWAP1 POP SWAP3 SWAP2 POP POP JUMP JUMPDEST PUSH1 0x0 PUSH2 0xB9E DUP3 PUSH2 0xBA5 JUMP JUMPDEST SWAP1 POP SWAP2 SWAP1 POP JUMP JUMPDEST PUSH1 0x0 PUSH20 0xFFFFFFFFFFFFFFFFFFFFFFFFFFFFFFFFFFFFFFFF DUP3 AND SWAP1 POP SWAP2 SWAP1 POP JUMP JUMPDEST PUSH1 0x0 DUP2 SWAP1 POP SWAP2 SWAP1 POP JUMP JUMPDEST DUP3 DUP2 DUP4 CALLDATACOPY PUSH1 0x0 DUP4 DUP4 ADD MSTORE POP POP POP JUMP JUMPDEST PUSH1 0x0 JUMPDEST DUP4 DUP2 LT ISZERO PUSH2 0xBFC JUMPI DUP1 DUP3 ADD MLOAD DUP2 DUP5 ADD MSTORE PUSH1 0x20 DUP2 ADD SWAP1 POP PUSH2 0xBE1 JUMP JUMPDEST DUP4 DUP2 GT ISZERO PUSH2 0xC0B JUMPI PUSH1 0x0 DUP5 DUP5 ADD MSTORE JUMPDEST POP POP POP POP JUMP JUMPDEST PUSH1 0x0 PUSH1 0x2 DUP3 DIV SWAP1 POP PUSH1 0x1 DUP3 AND DUP1 PUSH2 0xC29 JUMPI PUSH1 0x7F DUP3 AND SWAP2 POP JUMPDEST PUSH1 0x20 DUP3 LT DUP2 EQ ISZERO PUSH2 0xC3D JUMPI PUSH2 0xC3C PUSH2 0xC72 JUMP JUMPDEST JUMPDEST POP SWAP2 SWAP1 POP JUMP JUMPDEST PUSH32 0x4E487B7100000000000000000000000000000000000000000000000000000000 PUSH1 0x0 MSTORE PUSH1 0x11 PUSH1 0x4 MSTORE PUSH1 0x24 PUSH1 0x0 REVERT JUMPDEST PUSH32 0x4E487B7100000000000000000000000000000000000000000000000000000000 PUSH1 0x0 MSTORE PUSH1 0x22 PUSH1 0x4 MSTORE PUSH1 0x24 PUSH1 0x0 REVERT JUMPDEST PUSH32 0x4E487B7100000000000000000000000000000000000000000000000000000000 PUSH1 0x0 MSTORE PUSH1 0x41 PUSH1 0x4 MSTORE PUSH1 0x24 PUSH1 0x0 REVERT JUMPDEST PUSH1 0x0 PUSH1 0x1F NOT PUSH1 0x1F DUP4 ADD AND SWAP1 POP SWAP2 SWAP1 POP JUMP JUMPDEST PUSH2 0xCEA DUP2 PUSH2 0xB93 JUMP JUMPDEST DUP2 EQ PUSH2 0xCF5 JUMPI PUSH1 0x0 DUP1 REVERT JUMPDEST POP JUMP JUMPDEST PUSH2 0xD01 DUP2 PUSH2 0xBC5 JUMP JUMPDEST DUP2 EQ PUSH2 0xD0C JUMPI PUSH1 0x0 DUP1 REVERT JUMPDEST POP JUMP INVALID LOG2 PUSH5 0x6970667358 0x22 SLT KECCAK256 SSTORE DUP13 PUSH30 0x58CE38A019CEC6DE7AB0A182B3A09529661DB3229D09944C0E592DEB9D64 PUSH20 0x6F6C634300080000330000000000000000000000 "
				},
				"gasEstimates": {
					"creation": {
						"codeDepositCost": "679400",
						"executionCost": "715",
						"totalCost": "680115"
					},
					"external": {
						"credits(uint256)": "infinite",
						"getCredit(uint256)": "infinite",
						"issueCredit(string,uint256)": "infinite",
						"transferCredit(uint256,address)": "26072"
					}
				},
				"methodIdentifiers": {
					"credits(uint256)": "036a1c22",
					"getCredit(uint256)": "da304e4d",
					"issueCredit(string,uint256)": "29711737",
					"transferCredit(uint256,address)": "0df3a1e0"
				}
			},
			"storageLayout": {
				"storage": [
					{
						"astId": 12,
						"contract": "CarbonCredit.sol:CarbonCredit",
						"label": "credits",
						"offset": 0,
						"slot": "0",
						"type": "t_array(t_struct(Credit)8_storage)dyn_storage"
					}
				],
				"types": {
					"t_address": {
						"encoding": "inplace",
						"label": "address",
						"numberOfBytes": "20"
					},
					"t_array(t_struct(Credit)8_storage)dyn_storage": {
						"base": "t_struct(Credit)8_storage",
						"encoding": "dynamic_array",
						"label": "struct CarbonCredit.Credit[]",
						"numberOfBytes": "32"
					},
					"t_string_storage": {
						"encoding": "bytes",
						"label": "string",
						"numberOfBytes": "32"
					},
					"t_struct(Credit)8_storage": {
						"encoding": "inplace",
						"label": "struct CarbonCredit.Credit",
						"members": [
							{
								"astId": 3,
								"contract": "CarbonCredit.sol:CarbonCredit",
								"label": "description",
								"offset": 0,
								"slot": "0",
								"type": "t_string_storage"
							},
							{
								"astId": 5,
								"contract": "CarbonCredit.sol:CarbonCredit",
								"label": "amount",
								"offset": 0,
								"slot": "1",
								"type": "t_uint256"
							},
							{
								"astId": 7,
								"contract": "CarbonCredit.sol:CarbonCredit",
								"label": "owner",
								"offset": 0,
								"slot": "2",
								"type": "t_address"
							}
						],
						"numberOfBytes": "96"
					},
					"t_uint256": {
						"encoding": "inplace",
						"label": "uint256",
						"numberOfBytes": "32"
					}
				}
			},
			"userdoc": {
				"kind": "user",
				"methods": {},
				"version": 1
			}
		}
	}
}