{
	"contracts/CarbonCredit.sol": {
		"CarbonCredit": {
			"abi": [
				{
					"anonymous": false,
					"inputs": [
						{
							"indexed": true,
							"internalType": "uint256",
							"name": "creditId",
							"type": "uint256"
						},
						{
							"indexed": false,
							"internalType": "string",
							"name": "description",
							"type": "string"
						},
						{
							"indexed": false,
							"internalType": "uint256",
							"name": "amount",
							"type": "uint256"
						},
						{
							"indexed": true,
							"internalType": "address",
							"name": "owner",
							"type": "address"
						}
					],
					"name": "CreditIssued",
					"type": "event"
				},
				{
					"anonymous": false,
					"inputs": [
						{
							"indexed": true,
							"internalType": "uint256",
							"name": "creditId",
							"type": "uint256"
						},
						{
							"indexed": true,
							"internalType": "address",
							"name": "from",
							"type": "address"
						},
						{
							"indexed": true,
							"internalType": "address",
							"name": "to",
							"type": "address"
						}
					],
					"name": "CreditTransferred",
					"type": "event"
				},
				{
					"inputs": [
						{
							"internalType": "uint256",
							"name": "",
							"type": "uint256"
						}
					],
					"name": "credits",
					"outputs": [
						{
							"internalType": "string",
							"name": "description",
							"type": "string"
						},
						{
							"internalType": "uint256",
							"name": "amount",
							"type": "uint256"
						},
						{
							"internalType": "address",
							"name": "owner",
							"type": "address"
						}
					],
					"stateMutability": "view",
					"type": "function"
				},
				{
					"inputs": [
						{
							"internalType": "uint256",
							"name": "creditId",
							"type": "uint256"
						}
					],
					"name": "getCredit",
					"outputs": [
						{
							"internalType": "string",
							"name": "",
							"type": "string"
						},
						{
							"internalType": "uint256",
							"name": "",
							"type": "uint256"
						},
						{
							"internalType": "address",
							"name": "",
							"type": "address"
						}
					],
					"stateMutability": "view",
					"type": "function"
				},
				{
					"inputs": [
						{
							"internalType": "string",
							"name": "description",
							"type": "string"
						},
						{
							"internalType": "uint256",
							"name": "amount",
							"type": "uint256"
						}
					],
					"name": "issueCredit",
					"outputs": [],
					"stateMutability": "nonpayable",
					"type": "function"
				},
				{
					"inputs": [
						{
							"internalType": "uint256",
							"name": "creditId",
							"type": "uint256"
						},
						{
							"internalType": "address",
							"name": "newOwner",
							"type": "address"
						}
					],
					"name": "transferCredit",
					"outputs": [],
					"stateMutability": "nonpayable",
					"type": "function"
				}
			],
			"devdoc": {
				"kind": "dev",
				"methods": {},
				"version": 1
			},
			"evm": {
				"assembly": "    /* \"contracts/CarbonCredit.sol\":60:1547  contract CarbonCredit {... */\n  mstore(0x40, 0x80)\n  callvalue\n  dup1\n  iszero\n  tag_1\n  jumpi\n  0x00\n  dup1\n  revert\ntag_1:\n  pop\n  dataSize(sub_0)\n  dup1\n  dataOffset(sub_0)\n  0x00\n  codecopy\n  0x00\n  return\nstop\n\nsub_0: assembly {\n        /* \"contracts/CarbonCredit.sol\":60:1547  contract CarbonCredit {... */\n      mstore(0x40, 0x80)\n      callvalue\n      dup1\n      iszero\n      tag_1\n      jumpi\n      0x00\n      dup1\n      revert\n    tag_1:\n      pop\n      jumpi(tag_2, lt(calldatasize, 0x04))\n      shr(0xe0, calldataload(0x00))\n      dup1\n      0x036a1c22\n      eq\n      tag_3\n      jumpi\n      dup1\n      0x0df3a1e0\n      eq\n      tag_4\n      jumpi\n      dup1\n      0x29711737\n      eq\n      tag_5\n      jumpi\n      dup1\n      0xda304e4d\n      eq\n      tag_6\n      jumpi\n    tag_2:\n      0x00\n      dup1\n      revert\n        /* \"contracts/CarbonCredit.sol\":197:220  Credit[] public credits */\n    tag_3:\n      tag_7\n      0x04\n      dup1\n      calldatasize\n      sub\n      dup2\n      add\n      swap1\n      tag_8\n      swap2\n      swap1\n      tag_9\n      jump\t// in\n    tag_8:\n      tag_10\n      jump\t// in\n    tag_7:\n      mload(0x40)\n      tag_11\n      swap4\n      swap3\n      swap2\n      swap1\n      tag_12\n      jump\t// in\n    tag_11:\n      mload(0x40)\n      dup1\n      swap2\n      sub\n      swap1\n      return\n        /* \"contracts/CarbonCredit.sol\":1096:1544  function transferCredit(uint256 creditId, address newOwner) public {... */\n    tag_4:\n      tag_13\n      0x04\n      dup1\n      calldatasize\n      sub\n      dup2\n      add\n      swap1\n      tag_14\n      swap2\n      swap1\n      tag_15\n      jump\t// in\n    tag_14:\n      tag_16\n      jump\t// in\n    tag_13:\n      stop\n        /* \"contracts/CarbonCredit.sol\":473:697  function issueCredit(string memory description, uint256 amount) public {... */\n    tag_5:\n      tag_17\n      0x04\n      dup1\n      calldatasize\n      sub\n      dup2\n      add\n      swap1\n      tag_18\n      swap2\n      swap1\n      tag_19\n      jump\t// in\n    tag_18:\n      tag_20\n      jump\t// in\n    tag_17:\n      stop\n        /* \"contracts/CarbonCredit.sol\":753:1040  function getCredit(uint256 creditId) public view returns (string memory, uint256, address) {... */\n    tag_6:\n      tag_21\n      0x04\n      dup1\n      calldatasize\n      sub\n      dup2\n      add\n      swap1\n      tag_22\n      swap2\n      swap1\n      tag_9\n      jump\t// in\n    tag_22:\n      tag_23\n      jump\t// in\n    tag_21:\n      mload(0x40)\n      tag_24\n      swap4\n      swap3\n      swap2\n      swap1\n      tag_12\n      jump\t// in\n    tag_24:\n      mload(0x40)\n      dup1\n      swap2\n      sub\n      swap1\n      return\n        /* \"contracts/CarbonCredit.sol\":197:220  Credit[] public credits */\n    tag_10:\n      0x00\n      dup2\n      dup2\n      sload\n      dup2\n      lt\n      tag_25\n      jumpi\n      0x00\n      dup1\n      revert\n    tag_25:\n      swap1\n      0x00\n      mstore\n      keccak256(0x00, 0x20)\n      swap1\n      0x03\n      mul\n      add\n      0x00\n      swap2\n      pop\n      swap1\n      pop\n      dup1\n      0x00\n      add\n      dup1\n      sload\n      tag_27\n      swap1\n      tag_28\n      jump\t// in\n    tag_27:\n      dup1\n      0x1f\n      add\n      0x20\n      dup1\n      swap2\n      div\n      mul\n      0x20\n      add\n      mload(0x40)\n      swap1\n      dup2\n      add\n      0x40\n      mstore\n      dup1\n      swap3\n      swap2\n      swap1\n      dup2\n      dup2\n      mstore\n      0x20\n      add\n      dup3\n      dup1\n      sload\n      tag_29\n      swap1\n      tag_28\n      jump\t// in\n    tag_29:\n      dup1\n      iszero\n      tag_30\n      jumpi\n      dup1\n      0x1f\n      lt\n      tag_31\n      jumpi\n      0x0100\n      dup1\n      dup4\n      sload\n      div\n      mul\n      dup4\n      mstore\n      swap2\n      0x20\n      add\n      swap2\n      jump(tag_30)\n    tag_31:\n      dup3\n      add\n      swap2\n      swap1\n      0x00\n      mstore\n      keccak256(0x00, 0x20)\n      swap1\n    tag_32:\n      dup2\n      sload\n      dup2\n      mstore\n      swap1\n      0x01\n      add\n      swap1\n      0x20\n      add\n      dup1\n      dup4\n      gt\n      tag_32\n      jumpi\n      dup3\n      swap1\n      sub\n      0x1f\n      and\n      dup3\n      add\n      swap2\n    tag_30:\n      pop\n      pop\n      pop\n      pop\n      pop\n      swap1\n      dup1\n      0x01\n      add\n      sload\n      swap1\n      dup1\n      0x02\n      add\n      0x00\n      swap1\n      sload\n      swap1\n      0x0100\n      exp\n      swap1\n      div\n      0xffffffffffffffffffffffffffffffffffffffff\n      and\n      swap1\n      pop\n      dup4\n      jump\t// out\n        /* \"contracts/CarbonCredit.sol\":1096:1544  function transferCredit(uint256 creditId, address newOwner) public {... */\n    tag_16:\n        /* \"contracts/CarbonCredit.sol\":1193:1200  credits */\n      0x00\n        /* \"contracts/CarbonCredit.sol\":1193:1207  credits.length */\n      dup1\n      sload\n      swap1\n      pop\n        /* \"contracts/CarbonCredit.sol\":1182:1190  creditId */\n      dup3\n        /* \"contracts/CarbonCredit.sol\":1182:1207  creditId < credits.length */\n      lt\n        /* \"contracts/CarbonCredit.sol\":1174:1233  require(creditId < credits.length, \"Credit does not exist\") */\n      tag_34\n      jumpi\n      mload(0x40)\n      0x08c379a000000000000000000000000000000000000000000000000000000000\n      dup2\n      mstore\n      0x04\n      add\n      tag_35\n      swap1\n      tag_36\n      jump\t// in\n    tag_35:\n      mload(0x40)\n      dup1\n      swap2\n      sub\n      swap1\n      revert\n    tag_34:\n        /* \"contracts/CarbonCredit.sol\":1272:1273  0 */\n      0x00\n        /* \"contracts/CarbonCredit.sol\":1252:1274  newOwner != address(0) */\n      0xffffffffffffffffffffffffffffffffffffffff\n      and\n        /* \"contracts/CarbonCredit.sol\":1252:1260  newOwner */\n      dup2\n        /* \"contracts/CarbonCredit.sol\":1252:1274  newOwner != address(0) */\n      0xffffffffffffffffffffffffffffffffffffffff\n      and\n      sub\n        /* \"contracts/CarbonCredit.sol\":1244:1294  require(newOwner != address(0), \"Invalid address\") */\n      tag_37\n      jumpi\n      mload(0x40)\n      0x08c379a000000000000000000000000000000000000000000000000000000000\n      dup2\n      mstore\n      0x04\n      add\n      tag_38\n      swap1\n      tag_39\n      jump\t// in\n    tag_38:\n      mload(0x40)\n      dup1\n      swap2\n      sub\n      swap1\n      revert\n    tag_37:\n        /* \"contracts/CarbonCredit.sol\":1305:1326  Credit storage credit */\n      0x00\n        /* \"contracts/CarbonCredit.sol\":1329:1336  credits */\n      dup1\n        /* \"contracts/CarbonCredit.sol\":1337:1345  creditId */\n      dup4\n        /* \"contracts/CarbonCredit.sol\":1329:1346  credits[creditId] */\n      dup2\n      sload\n      dup2\n      lt\n      tag_40\n      jumpi\n      tag_41\n      tag_42\n      jump\t// in\n    tag_41:\n    tag_40:\n      swap1\n      0x00\n      mstore\n      keccak256(0x00, 0x20)\n      swap1\n      0x03\n      mul\n      add\n        /* \"contracts/CarbonCredit.sol\":1305:1346  Credit storage credit = credits[creditId] */\n      swap1\n      pop\n        /* \"contracts/CarbonCredit.sol\":1379:1385  credit */\n      dup1\n        /* \"contracts/CarbonCredit.sol\":1379:1391  credit.owner */\n      0x02\n      add\n      0x00\n      swap1\n      sload\n      swap1\n      0x0100\n      exp\n      swap1\n      div\n      0xffffffffffffffffffffffffffffffffffffffff\n      and\n        /* \"contracts/CarbonCredit.sol\":1365:1391  msg.sender == credit.owner */\n      0xffffffffffffffffffffffffffffffffffffffff\n      and\n        /* \"contracts/CarbonCredit.sol\":1365:1375  msg.sender */\n      caller\n        /* \"contracts/CarbonCredit.sol\":1365:1391  msg.sender == credit.owner */\n      0xffffffffffffffffffffffffffffffffffffffff\n      and\n      eq\n        /* \"contracts/CarbonCredit.sol\":1357:1435  require(msg.sender == credit.owner, \"Only the owner can transfer this credit\") */\n      tag_44\n      jumpi\n      mload(0x40)\n      0x08c379a000000000000000000000000000000000000000000000000000000000\n      dup2\n      mstore\n      0x04\n      add\n      tag_45\n      swap1\n      tag_46\n      jump\t// in\n    tag_45:\n      mload(0x40)\n      dup1\n      swap2\n      sub\n      swap1\n      revert\n    tag_44:\n        /* \"contracts/CarbonCredit.sol\":1463:1471  newOwner */\n      dup2\n        /* \"contracts/CarbonCredit.sol\":1448:1454  credit */\n      dup2\n        /* \"contracts/CarbonCredit.sol\":1448:1460  credit.owner */\n      0x02\n      add\n      0x00\n        /* \"contracts/CarbonCredit.sol\":1448:1471  credit.owner = newOwner */\n      0x0100\n      exp\n      dup2\n      sload\n      dup2\n      0xffffffffffffffffffffffffffffffffffffffff\n      mul\n      not\n      and\n      swap1\n      dup4\n      0xffffffffffffffffffffffffffffffffffffffff\n      and\n      mul\n      or\n      swap1\n      sstore\n      pop\n        /* \"contracts/CarbonCredit.sol\":1527:1535  newOwner */\n      dup2\n        /* \"contracts/CarbonCredit.sol\":1487:1536  CreditTransferred(creditId, msg.sender, newOwner) */\n      0xffffffffffffffffffffffffffffffffffffffff\n      and\n        /* \"contracts/CarbonCredit.sol\":1515:1525  msg.sender */\n      caller\n        /* \"contracts/CarbonCredit.sol\":1487:1536  CreditTransferred(creditId, msg.sender, newOwner) */\n      0xffffffffffffffffffffffffffffffffffffffff\n      and\n        /* \"contracts/CarbonCredit.sol\":1505:1513  creditId */\n      dup5\n        /* \"contracts/CarbonCredit.sol\":1487:1536  CreditTransferred(creditId, msg.sender, newOwner) */\n      0x7498bf43d4148a03a165d093fcadc813f1a344a5f983812a2777c01f4dc2f0d6\n      mload(0x40)\n      mload(0x40)\n      dup1\n      swap2\n      sub\n      swap1\n      log4\n        /* \"contracts/CarbonCredit.sol\":1163:1544  {... */\n      pop\n        /* \"contracts/CarbonCredit.sol\":1096:1544  function transferCredit(uint256 creditId, address newOwner) public {... */\n      pop\n      pop\n      jump\t// out\n        /* \"contracts/CarbonCredit.sol\":473:697  function issueCredit(string memory description, uint256 amount) public {... */\n    tag_20:\n        /* \"contracts/CarbonCredit.sol\":555:562  credits */\n      0x00\n        /* \"contracts/CarbonCredit.sol\":568:607  Credit(description, amount, msg.sender) */\n      mload(0x40)\n      dup1\n      0x60\n      add\n      0x40\n      mstore\n      dup1\n        /* \"contracts/CarbonCredit.sol\":575:586  description */\n      dup5\n        /* \"contracts/CarbonCredit.sol\":568:607  Credit(description, amount, msg.sender) */\n      dup2\n      mstore\n      0x20\n      add\n        /* \"contracts/CarbonCredit.sol\":588:594  amount */\n      dup4\n        /* \"contracts/CarbonCredit.sol\":568:607  Credit(description, amount, msg.sender) */\n      dup2\n      mstore\n      0x20\n      add\n        /* \"contracts/CarbonCredit.sol\":596:606  msg.sender */\n      caller\n        /* \"contracts/CarbonCredit.sol\":568:607  Credit(description, amount, msg.sender) */\n      0xffffffffffffffffffffffffffffffffffffffff\n      and\n      dup2\n      mstore\n      pop\n        /* \"contracts/CarbonCredit.sol\":555:608  credits.push(Credit(description, amount, msg.sender)) */\n      swap1\n      dup1\n      0x01\n      dup2\n      sload\n      add\n      dup1\n      dup3\n      sstore\n      dup1\n      swap2\n      pop\n      pop\n      0x01\n      swap1\n      sub\n      swap1\n      0x00\n      mstore\n      keccak256(0x00, 0x20)\n      swap1\n      0x03\n      mul\n      add\n      0x00\n      swap1\n      swap2\n      swap1\n      swap2\n      swap1\n      swap2\n      pop\n      0x00\n      dup3\n      add\n      mload\n      dup2\n      0x00\n      add\n      swap1\n      dup2\n      tag_49\n      swap2\n      swap1\n      tag_50\n      jump\t// in\n    tag_49:\n      pop\n      0x20\n      dup3\n      add\n      mload\n      dup2\n      0x01\n      add\n      sstore\n      0x40\n      dup3\n      add\n      mload\n      dup2\n      0x02\n      add\n      exp(0x0100, 0x00)\n      dup2\n      sload\n      dup2\n      0xffffffffffffffffffffffffffffffffffffffff\n      mul\n      not\n      and\n      swap1\n      dup4\n      0xffffffffffffffffffffffffffffffffffffffff\n      and\n      mul\n      or\n      swap1\n      sstore\n      pop\n      pop\n      pop\n        /* \"contracts/CarbonCredit.sol\":678:688  msg.sender */\n      caller\n        /* \"contracts/CarbonCredit.sol\":624:689  CreditIssued(credits.length - 1, description, amount, msg.sender) */\n      0xffffffffffffffffffffffffffffffffffffffff\n      and\n        /* \"contracts/CarbonCredit.sol\":654:655  1 */\n      0x01\n        /* \"contracts/CarbonCredit.sol\":637:644  credits */\n      0x00\n        /* \"contracts/CarbonCredit.sol\":637:651  credits.length */\n      dup1\n      sload\n      swap1\n      pop\n        /* \"contracts/CarbonCredit.sol\":637:655  credits.length - 1 */\n      tag_51\n      swap2\n      swap1\n      tag_52\n      jump\t// in\n    tag_51:\n        /* \"contracts/CarbonCredit.sol\":624:689  CreditIssued(credits.length - 1, description, amount, msg.sender) */\n      0x8d43f7b657997330e62fa2b4c76560f9a652ad99a59702bc1c9858a077d67393\n        /* \"contracts/CarbonCredit.sol\":657:668  description */\n      dup5\n        /* \"contracts/CarbonCredit.sol\":670:676  amount */\n      dup5\n        /* \"contracts/CarbonCredit.sol\":624:689  CreditIssued(credits.length - 1, description, amount, msg.sender) */\n      mload(0x40)\n      tag_53\n      swap3\n      swap2\n      swap1\n      tag_54\n      jump\t// in\n    tag_53:\n      mload(0x40)\n      dup1\n      swap2\n      sub\n      swap1\n      log3\n        /* \"contracts/CarbonCredit.sol\":473:697  function issueCredit(string memory description, uint256 amount) public {... */\n      pop\n      pop\n      jump\t// out\n        /* \"contracts/CarbonCredit.sol\":753:1040  function getCredit(uint256 creditId) public view returns (string memory, uint256, address) {... */\n    tag_23:\n        /* \"contracts/CarbonCredit.sol\":811:824  string memory */\n      0x60\n        /* \"contracts/CarbonCredit.sol\":826:833  uint256 */\n      0x00\n        /* \"contracts/CarbonCredit.sol\":835:842  address */\n      dup1\n        /* \"contracts/CarbonCredit.sol\":874:881  credits */\n      0x00\n        /* \"contracts/CarbonCredit.sol\":874:888  credits.length */\n      dup1\n      sload\n      swap1\n      pop\n        /* \"contracts/CarbonCredit.sol\":863:871  creditId */\n      dup5\n        /* \"contracts/CarbonCredit.sol\":863:888  creditId < credits.length */\n      lt\n        /* \"contracts/CarbonCredit.sol\":855:914  require(creditId < credits.length, \"Credit does not exist\") */\n      tag_56\n      jumpi\n      mload(0x40)\n      0x08c379a000000000000000000000000000000000000000000000000000000000\n      dup2\n      mstore\n      0x04\n      add\n      tag_57\n      swap1\n      tag_36\n      jump\t// in\n    tag_57:\n      mload(0x40)\n      dup1\n      swap2\n      sub\n      swap1\n      revert\n    tag_56:\n        /* \"contracts/CarbonCredit.sol\":925:945  Credit memory credit */\n      0x00\n        /* \"contracts/CarbonCredit.sol\":948:955  credits */\n      dup1\n        /* \"contracts/CarbonCredit.sol\":956:964  creditId */\n      dup6\n        /* \"contracts/CarbonCredit.sol\":948:965  credits[creditId] */\n      dup2\n      sload\n      dup2\n      lt\n      tag_58\n      jumpi\n      tag_59\n      tag_42\n      jump\t// in\n    tag_59:\n    tag_58:\n      swap1\n      0x00\n      mstore\n      keccak256(0x00, 0x20)\n      swap1\n      0x03\n      mul\n      add\n        /* \"contracts/CarbonCredit.sol\":925:965  Credit memory credit = credits[creditId] */\n      mload(0x40)\n      dup1\n      0x60\n      add\n      0x40\n      mstore\n      swap1\n      dup2\n      0x00\n      dup3\n      add\n      dup1\n      sload\n      tag_61\n      swap1\n      tag_28\n      jump\t// in\n    tag_61:\n      dup1\n      0x1f\n      add\n      0x20\n      dup1\n      swap2\n      div\n      mul\n      0x20\n      add\n      mload(0x40)\n      swap1\n      dup2\n      add\n      0x40\n      mstore\n      dup1\n      swap3\n      swap2\n      swap1\n      dup2\n      dup2\n      mstore\n      0x20\n      add\n      dup3\n      dup1\n      sload\n      tag_62\n      swap1\n      tag_28\n      jump\t// in\n    tag_62:\n      dup1\n      iszero\n      tag_63\n      jumpi\n      dup1\n      0x1f\n      lt\n      tag_64\n      jumpi\n      0x0100\n      dup1\n      dup4\n      sload\n      div\n      mul\n      dup4\n      mstore\n      swap2\n      0x20\n      add\n      swap2\n      jump(tag_63)\n    tag_64:\n      dup3\n      add\n      swap2\n      swap1\n      0x00\n      mstore\n      keccak256(0x00, 0x20)\n      swap1\n    tag_65:\n      dup2\n      sload\n      dup2\n      mstore\n      swap1\n      0x01\n      add\n      swap1\n      0x20\n      add\n      dup1\n      dup4\n      gt\n      tag_65\n      jumpi\n      dup3\n      swap1\n      sub\n      0x1f\n      and\n      dup3\n      add\n      swap2\n    tag_63:\n      pop\n      pop\n      pop\n      pop\n      pop\n      dup2\n      mstore\n      0x20\n      add\n      0x01\n      dup3\n      add\n      sload\n      dup2\n      mstore\n      0x20\n      add\n      0x02\n      dup3\n      add\n      0x00\n      swap1\n      sload\n      swap1\n      0x0100\n      exp\n      swap1\n      div\n      0xffffffffffffffffffffffffffffffffffffffff\n      and\n      0xffffffffffffffffffffffffffffffffffffffff\n      and\n      0xffffffffffffffffffffffffffffffffffffffff\n      and\n      dup2\n      mstore\n      pop\n      pop\n      swap1\n      pop\n        /* \"contracts/CarbonCredit.sol\":984:990  credit */\n      dup1\n        /* \"contracts/CarbonCredit.sol\":984:1002  credit.description */\n      0x00\n      add\n      mload\n        /* \"contracts/CarbonCredit.sol\":1004:1010  credit */\n      dup2\n        /* \"contracts/CarbonCredit.sol\":1004:1017  credit.amount */\n      0x20\n      add\n      mload\n        /* \"contracts/CarbonCredit.sol\":1019:1025  credit */\n      dup3\n        /* \"contracts/CarbonCredit.sol\":1019:1031  credit.owner */\n      0x40\n      add\n      mload\n        /* \"contracts/CarbonCredit.sol\":976:1032  return (credit.description, credit.amount, credit.owner) */\n      swap4\n      pop\n      swap4\n      pop\n      swap4\n      pop\n      pop\n        /* \"contracts/CarbonCredit.sol\":753:1040  function getCredit(uint256 creditId) public view returns (string memory, uint256, address) {... */\n      swap2\n      swap4\n      swap1\n      swap3\n      pop\n      jump\t// out\n        /* \"#utility.yul\":7:82   */\n    tag_66:\n        /* \"#utility.yul\":40:46   */\n      0x00\n        /* \"#utility.yul\":73:75   */\n      0x40\n        /* \"#utility.yul\":67:76   */\n      mload\n        /* \"#utility.yul\":57:76   */\n      swap1\n      pop\n        /* \"#utility.yul\":7:82   */\n      swap1\n      jump\t// out\n        /* \"#utility.yul\":88:205   */\n    tag_67:\n        /* \"#utility.yul\":197:198   */\n      0x00\n        /* \"#utility.yul\":194:195   */\n      dup1\n        /* \"#utility.yul\":187:199   */\n      revert\n        /* \"#utility.yul\":211:328   */\n    tag_68:\n        /* \"#utility.yul\":320:321   */\n      0x00\n        /* \"#utility.yul\":317:318   */\n      dup1\n        /* \"#utility.yul\":310:322   */\n      revert\n        /* \"#utility.yul\":334:411   */\n    tag_69:\n        /* \"#utility.yul\":371:378   */\n      0x00\n        /* \"#utility.yul\":400:405   */\n      dup2\n        /* \"#utility.yul\":389:405   */\n      swap1\n      pop\n        /* \"#utility.yul\":334:411   */\n      swap2\n      swap1\n      pop\n      jump\t// out\n        /* \"#utility.yul\":417:539   */\n    tag_70:\n        /* \"#utility.yul\":490:514   */\n      tag_121\n        /* \"#utility.yul\":508:513   */\n      dup2\n        /* \"#utility.yul\":490:514   */\n      tag_69\n      jump\t// in\n    tag_121:\n        /* \"#utility.yul\":483:488   */\n      dup2\n        /* \"#utility.yul\":480:515   */\n      eq\n        /* \"#utility.yul\":470:533   */\n      tag_122\n      jumpi\n        /* \"#utility.yul\":529:530   */\n      0x00\n        /* \"#utility.yul\":526:527   */\n      dup1\n        /* \"#utility.yul\":519:531   */\n      revert\n        /* \"#utility.yul\":470:533   */\n    tag_122:\n        /* \"#utility.yul\":417:539   */\n      pop\n      jump\t// out\n        /* \"#utility.yul\":545:684   */\n    tag_71:\n        /* \"#utility.yul\":591:596   */\n      0x00\n        /* \"#utility.yul\":629:635   */\n      dup2\n        /* \"#utility.yul\":616:636   */\n      calldataload\n        /* \"#utility.yul\":607:636   */\n      swap1\n      pop\n        /* \"#utility.yul\":645:678   */\n      tag_124\n        /* \"#utility.yul\":672:677   */\n      dup2\n        /* \"#utility.yul\":645:678   */\n      tag_70\n      jump\t// in\n    tag_124:\n        /* \"#utility.yul\":545:684   */\n      swap3\n      swap2\n      pop\n      pop\n      jump\t// out\n        /* \"#utility.yul\":690:1019   */\n    tag_9:\n        /* \"#utility.yul\":749:755   */\n      0x00\n        /* \"#utility.yul\":798:800   */\n      0x20\n        /* \"#utility.yul\":786:795   */\n      dup3\n        /* \"#utility.yul\":777:784   */\n      dup5\n        /* \"#utility.yul\":773:796   */\n      sub\n        /* \"#utility.yul\":769:801   */\n      slt\n        /* \"#utility.yul\":766:885   */\n      iszero\n      tag_126\n      jumpi\n        /* \"#utility.yul\":804:883   */\n      tag_127\n      tag_67\n      jump\t// in\n    tag_127:\n        /* \"#utility.yul\":766:885   */\n    tag_126:\n        /* \"#utility.yul\":924:925   */\n      0x00\n        /* \"#utility.yul\":949:1002   */\n      tag_128\n        /* \"#utility.yul\":994:1001   */\n      dup5\n        /* \"#utility.yul\":985:991   */\n      dup3\n        /* \"#utility.yul\":974:983   */\n      dup6\n        /* \"#utility.yul\":970:992   */\n      add\n        /* \"#utility.yul\":949:1002   */\n      tag_71\n      jump\t// in\n    tag_128:\n        /* \"#utility.yul\":939:1002   */\n      swap2\n      pop\n        /* \"#utility.yul\":895:1012   */\n      pop\n        /* \"#utility.yul\":690:1019   */\n      swap3\n      swap2\n      pop\n      pop\n      jump\t// out\n        /* \"#utility.yul\":1025:1124   */\n    tag_72:\n        /* \"#utility.yul\":1077:1083   */\n      0x00\n        /* \"#utility.yul\":1111:1116   */\n      dup2\n        /* \"#utility.yul\":1105:1117   */\n      mload\n        /* \"#utility.yul\":1095:1117   */\n      swap1\n      pop\n        /* \"#utility.yul\":1025:1124   */\n      swap2\n      swap1\n      pop\n      jump\t// out\n        /* \"#utility.yul\":1130:1299   */\n    tag_73:\n        /* \"#utility.yul\":1214:1225   */\n      0x00\n        /* \"#utility.yul\":1248:1254   */\n      dup3\n        /* \"#utility.yul\":1243:1246   */\n      dup3\n        /* \"#utility.yul\":1236:1255   */\n      mstore\n        /* \"#utility.yul\":1288:1292   */\n      0x20\n        /* \"#utility.yul\":1283:1286   */\n      dup3\n        /* \"#utility.yul\":1279:1293   */\n      add\n        /* \"#utility.yul\":1264:1293   */\n      swap1\n      pop\n        /* \"#utility.yul\":1130:1299   */\n      swap3\n      swap2\n      pop\n      pop\n      jump\t// out\n        /* \"#utility.yul\":1305:1444   */\n    tag_74:\n        /* \"#utility.yul\":1394:1400   */\n      dup3\n        /* \"#utility.yul\":1389:1392   */\n      dup2\n        /* \"#utility.yul\":1384:1387   */\n      dup4\n        /* \"#utility.yul\":1378:1401   */\n      mcopy\n        /* \"#utility.yul\":1435:1436   */\n      0x00\n        /* \"#utility.yul\":1426:1432   */\n      dup4\n        /* \"#utility.yul\":1421:1424   */\n      dup4\n        /* \"#utility.yul\":1417:1433   */\n      add\n        /* \"#utility.yul\":1410:1437   */\n      mstore\n        /* \"#utility.yul\":1305:1444   */\n      pop\n      pop\n      pop\n      jump\t// out\n        /* \"#utility.yul\":1450:1552   */\n    tag_75:\n        /* \"#utility.yul\":1491:1497   */\n      0x00\n        /* \"#utility.yul\":1542:1544   */\n      0x1f\n        /* \"#utility.yul\":1538:1545   */\n      not\n        /* \"#utility.yul\":1533:1535   */\n      0x1f\n        /* \"#utility.yul\":1526:1531   */\n      dup4\n        /* \"#utility.yul\":1522:1536   */\n      add\n        /* \"#utility.yul\":1518:1546   */\n      and\n        /* \"#utility.yul\":1508:1546   */\n      swap1\n      pop\n        /* \"#utility.yul\":1450:1552   */\n      swap2\n      swap1\n      pop\n      jump\t// out\n        /* \"#utility.yul\":1558:1935   */\n    tag_76:\n        /* \"#utility.yul\":1646:1649   */\n      0x00\n        /* \"#utility.yul\":1674:1713   */\n      tag_134\n        /* \"#utility.yul\":1707:1712   */\n      dup3\n        /* \"#utility.yul\":1674:1713   */\n      tag_72\n      jump\t// in\n    tag_134:\n        /* \"#utility.yul\":1729:1800   */\n      tag_135\n        /* \"#utility.yul\":1793:1799   */\n      dup2\n        /* \"#utility.yul\":1788:1791   */\n      dup6\n        /* \"#utility.yul\":1729:1800   */\n      tag_73\n      jump\t// in\n    tag_135:\n        /* \"#utility.yul\":1722:1800   */\n      swap4\n      pop\n        /* \"#utility.yul\":1809:1874   */\n      tag_136\n        /* \"#utility.yul\":1867:1873   */\n      dup2\n        /* \"#utility.yul\":1862:1865   */\n      dup6\n        /* \"#utility.yul\":1855:1859   */\n      0x20\n        /* \"#utility.yul\":1848:1853   */\n      dup7\n        /* \"#utility.yul\":1844:1860   */\n      add\n        /* \"#utility.yul\":1809:1874   */\n      tag_74\n      jump\t// in\n    tag_136:\n        /* \"#utility.yul\":1899:1928   */\n      tag_137\n        /* \"#utility.yul\":1921:1927   */\n      dup2\n        /* \"#utility.yul\":1899:1928   */\n      tag_75\n      jump\t// in\n    tag_137:\n        /* \"#utility.yul\":1894:1897   */\n      dup5\n        /* \"#utility.yul\":1890:1929   */\n      add\n        /* \"#utility.yul\":1883:1929   */\n      swap2\n      pop\n        /* \"#utility.yul\":1650:1935   */\n      pop\n        /* \"#utility.yul\":1558:1935   */\n      swap3\n      swap2\n      pop\n      pop\n      jump\t// out\n        /* \"#utility.yul\":1941:2059   */\n    tag_77:\n        /* \"#utility.yul\":2028:2052   */\n      tag_139\n        /* \"#utility.yul\":2046:2051   */\n      dup2\n        /* \"#utility.yul\":2028:2052   */\n      tag_69\n      jump\t// in\n    tag_139:\n        /* \"#utility.yul\":2023:2026   */\n      dup3\n        /* \"#utility.yul\":2016:2053   */\n      mstore\n        /* \"#utility.yul\":1941:2059   */\n      pop\n      pop\n      jump\t// out\n        /* \"#utility.yul\":2065:2191   */\n    tag_78:\n        /* \"#utility.yul\":2102:2109   */\n      0x00\n        /* \"#utility.yul\":2142:2184   */\n      0xffffffffffffffffffffffffffffffffffffffff\n        /* \"#utility.yul\":2135:2140   */\n      dup3\n        /* \"#utility.yul\":2131:2185   */\n      and\n        /* \"#utility.yul\":2120:2185   */\n      swap1\n      pop\n        /* \"#utility.yul\":2065:2191   */\n      swap2\n      swap1\n      pop\n      jump\t// out\n        /* \"#utility.yul\":2197:2293   */\n    tag_79:\n        /* \"#utility.yul\":2234:2241   */\n      0x00\n        /* \"#utility.yul\":2263:2287   */\n      tag_142\n        /* \"#utility.yul\":2281:2286   */\n      dup3\n        /* \"#utility.yul\":2263:2287   */\n      tag_78\n      jump\t// in\n    tag_142:\n        /* \"#utility.yul\":2252:2287   */\n      swap1\n      pop\n        /* \"#utility.yul\":2197:2293   */\n      swap2\n      swap1\n      pop\n      jump\t// out\n        /* \"#utility.yul\":2299:2417   */\n    tag_80:\n        /* \"#utility.yul\":2386:2410   */\n      tag_144\n        /* \"#utility.yul\":2404:2409   */\n      dup2\n        /* \"#utility.yul\":2386:2410   */\n      tag_79\n      jump\t// in\n    tag_144:\n        /* \"#utility.yul\":2381:2384   */\n      dup3\n        /* \"#utility.yul\":2374:2411   */\n      mstore\n        /* \"#utility.yul\":2299:2417   */\n      pop\n      pop\n      jump\t// out\n        /* \"#utility.yul\":2423:2956   */\n    tag_12:\n        /* \"#utility.yul\":2592:2596   */\n      0x00\n        /* \"#utility.yul\":2630:2632   */\n      0x60\n        /* \"#utility.yul\":2619:2628   */\n      dup3\n        /* \"#utility.yul\":2615:2633   */\n      add\n        /* \"#utility.yul\":2607:2633   */\n      swap1\n      pop\n        /* \"#utility.yul\":2679:2688   */\n      dup2\n        /* \"#utility.yul\":2673:2677   */\n      dup2\n        /* \"#utility.yul\":2669:2689   */\n      sub\n        /* \"#utility.yul\":2665:2666   */\n      0x00\n        /* \"#utility.yul\":2654:2663   */\n      dup4\n        /* \"#utility.yul\":2650:2667   */\n      add\n        /* \"#utility.yul\":2643:2690   */\n      mstore\n        /* \"#utility.yul\":2707:2785   */\n      tag_146\n        /* \"#utility.yul\":2780:2784   */\n      dup2\n        /* \"#utility.yul\":2771:2777   */\n      dup7\n        /* \"#utility.yul\":2707:2785   */\n      tag_76\n      jump\t// in\n    tag_146:\n        /* \"#utility.yul\":2699:2785   */\n      swap1\n      pop\n        /* \"#utility.yul\":2795:2867   */\n      tag_147\n        /* \"#utility.yul\":2863:2865   */\n      0x20\n        /* \"#utility.yul\":2852:2861   */\n      dup4\n        /* \"#utility.yul\":2848:2866   */\n      add\n        /* \"#utility.yul\":2839:2845   */\n      dup6\n        /* \"#utility.yul\":2795:2867   */\n      tag_77\n      jump\t// in\n    tag_147:\n        /* \"#utility.yul\":2877:2949   */\n      tag_148\n        /* \"#utility.yul\":2945:2947   */\n      0x40\n        /* \"#utility.yul\":2934:2943   */\n      dup4\n        /* \"#utility.yul\":2930:2948   */\n      add\n        /* \"#utility.yul\":2921:2927   */\n      dup5\n        /* \"#utility.yul\":2877:2949   */\n      tag_80\n      jump\t// in\n    tag_148:\n        /* \"#utility.yul\":2423:2956   */\n      swap5\n      swap4\n      pop\n      pop\n      pop\n      pop\n      jump\t// out\n        /* \"#utility.yul\":2962:3084   */\n    tag_81:\n        /* \"#utility.yul\":3035:3059   */\n      tag_150\n        /* \"#utility.yul\":3053:3058   */\n      dup2\n        /* \"#utility.yul\":3035:3059   */\n      tag_79\n      jump\t// in\n    tag_150:\n        /* \"#utility.yul\":3028:3033   */\n      dup2\n        /* \"#utility.yul\":3025:3060   */\n      eq\n        /* \"#utility.yul\":3015:3078   */\n      tag_151\n      jumpi\n        /* \"#utility.yul\":3074:3075   */\n      0x00\n        /* \"#utility.yul\":3071:3072   */\n      dup1\n        /* \"#utility.yul\":3064:3076   */\n      revert\n        /* \"#utility.yul\":3015:3078   */\n    tag_151:\n        /* \"#utility.yul\":2962:3084   */\n      pop\n      jump\t// out\n        /* \"#utility.yul\":3090:3229   */\n    tag_82:\n        /* \"#utility.yul\":3136:3141   */\n      0x00\n        /* \"#utility.yul\":3174:3180   */\n      dup2\n        /* \"#utility.yul\":3161:3181   */\n      calldataload\n        /* \"#utility.yul\":3152:3181   */\n      swap1\n      pop\n        /* \"#utility.yul\":3190:3223   */\n      tag_153\n        /* \"#utility.yul\":3217:3222   */\n      dup2\n        /* \"#utility.yul\":3190:3223   */\n      tag_81\n      jump\t// in\n    tag_153:\n        /* \"#utility.yul\":3090:3229   */\n      swap3\n      swap2\n      pop\n      pop\n      jump\t// out\n        /* \"#utility.yul\":3235:3709   */\n    tag_15:\n        /* \"#utility.yul\":3303:3309   */\n      0x00\n        /* \"#utility.yul\":3311:3317   */\n      dup1\n        /* \"#utility.yul\":3360:3362   */\n      0x40\n        /* \"#utility.yul\":3348:3357   */\n      dup4\n        /* \"#utility.yul\":3339:3346   */\n      dup6\n        /* \"#utility.yul\":3335:3358   */\n      sub\n        /* \"#utility.yul\":3331:3363   */\n      slt\n        /* \"#utility.yul\":3328:3447   */\n      iszero\n      tag_155\n      jumpi\n        /* \"#utility.yul\":3366:3445   */\n      tag_156\n      tag_67\n      jump\t// in\n    tag_156:\n        /* \"#utility.yul\":3328:3447   */\n    tag_155:\n        /* \"#utility.yul\":3486:3487   */\n      0x00\n        /* \"#utility.yul\":3511:3564   */\n      tag_157\n        /* \"#utility.yul\":3556:3563   */\n      dup6\n        /* \"#utility.yul\":3547:3553   */\n      dup3\n        /* \"#utility.yul\":3536:3545   */\n      dup7\n        /* \"#utility.yul\":3532:3554   */\n      add\n        /* \"#utility.yul\":3511:3564   */\n      tag_71\n      jump\t// in\n    tag_157:\n        /* \"#utility.yul\":3501:3564   */\n      swap3\n      pop\n        /* \"#utility.yul\":3457:3574   */\n      pop\n        /* \"#utility.yul\":3613:3615   */\n      0x20\n        /* \"#utility.yul\":3639:3692   */\n      tag_158\n        /* \"#utility.yul\":3684:3691   */\n      dup6\n        /* \"#utility.yul\":3675:3681   */\n      dup3\n        /* \"#utility.yul\":3664:3673   */\n      dup7\n        /* \"#utility.yul\":3660:3682   */\n      add\n        /* \"#utility.yul\":3639:3692   */\n      tag_82\n      jump\t// in\n    tag_158:\n        /* \"#utility.yul\":3629:3692   */\n      swap2\n      pop\n        /* \"#utility.yul\":3584:3702   */\n      pop\n        /* \"#utility.yul\":3235:3709   */\n      swap3\n      pop\n      swap3\n      swap1\n      pop\n      jump\t// out\n        /* \"#utility.yul\":3715:3832   */\n    tag_83:\n        /* \"#utility.yul\":3824:3825   */\n      0x00\n        /* \"#utility.yul\":3821:3822   */\n      dup1\n        /* \"#utility.yul\":3814:3826   */\n      revert\n        /* \"#utility.yul\":3838:3955   */\n    tag_84:\n        /* \"#utility.yul\":3947:3948   */\n      0x00\n        /* \"#utility.yul\":3944:3945   */\n      dup1\n        /* \"#utility.yul\":3937:3949   */\n      revert\n        /* \"#utility.yul\":3961:4141   */\n    tag_85:\n        /* \"#utility.yul\":4009:4086   */\n      0x4e487b7100000000000000000000000000000000000000000000000000000000\n        /* \"#utility.yul\":4006:4007   */\n      0x00\n        /* \"#utility.yul\":3999:4087   */\n      mstore\n        /* \"#utility.yul\":4106:4110   */\n      0x41\n        /* \"#utility.yul\":4103:4104   */\n      0x04\n        /* \"#utility.yul\":4096:4111   */\n      mstore\n        /* \"#utility.yul\":4130:4134   */\n      0x24\n        /* \"#utility.yul\":4127:4128   */\n      0x00\n        /* \"#utility.yul\":4120:4135   */\n      revert\n        /* \"#utility.yul\":4147:4428   */\n    tag_86:\n        /* \"#utility.yul\":4230:4257   */\n      tag_163\n        /* \"#utility.yul\":4252:4256   */\n      dup3\n        /* \"#utility.yul\":4230:4257   */\n      tag_75\n      jump\t// in\n    tag_163:\n        /* \"#utility.yul\":4222:4228   */\n      dup2\n        /* \"#utility.yul\":4218:4258   */\n      add\n        /* \"#utility.yul\":4360:4366   */\n      dup2\n        /* \"#utility.yul\":4348:4358   */\n      dup2\n        /* \"#utility.yul\":4345:4367   */\n      lt\n        /* \"#utility.yul\":4324:4342   */\n      0xffffffffffffffff\n        /* \"#utility.yul\":4312:4322   */\n      dup3\n        /* \"#utility.yul\":4309:4343   */\n      gt\n        /* \"#utility.yul\":4306:4368   */\n      or\n        /* \"#utility.yul\":4303:4391   */\n      iszero\n      tag_164\n      jumpi\n        /* \"#utility.yul\":4371:4389   */\n      tag_165\n      tag_85\n      jump\t// in\n    tag_165:\n        /* \"#utility.yul\":4303:4391   */\n    tag_164:\n        /* \"#utility.yul\":4411:4421   */\n      dup1\n        /* \"#utility.yul\":4407:4409   */\n      0x40\n        /* \"#utility.yul\":4400:4422   */\n      mstore\n        /* \"#utility.yul\":4190:4428   */\n      pop\n        /* \"#utility.yul\":4147:4428   */\n      pop\n      pop\n      jump\t// out\n        /* \"#utility.yul\":4434:4563   */\n    tag_87:\n        /* \"#utility.yul\":4468:4474   */\n      0x00\n        /* \"#utility.yul\":4495:4515   */\n      tag_167\n      tag_66\n      jump\t// in\n    tag_167:\n        /* \"#utility.yul\":4485:4515   */\n      swap1\n      pop\n        /* \"#utility.yul\":4524:4557   */\n      tag_168\n        /* \"#utility.yul\":4552:4556   */\n      dup3\n        /* \"#utility.yul\":4544:4550   */\n      dup3\n        /* \"#utility.yul\":4524:4557   */\n      tag_86\n      jump\t// in\n    tag_168:\n        /* \"#utility.yul\":4434:4563   */\n      swap2\n      swap1\n      pop\n      jump\t// out\n        /* \"#utility.yul\":4569:4877   */\n    tag_88:\n        /* \"#utility.yul\":4631:4635   */\n      0x00\n        /* \"#utility.yul\":4721:4739   */\n      0xffffffffffffffff\n        /* \"#utility.yul\":4713:4719   */\n      dup3\n        /* \"#utility.yul\":4710:4740   */\n      gt\n        /* \"#utility.yul\":4707:4763   */\n      iszero\n      tag_170\n      jumpi\n        /* \"#utility.yul\":4743:4761   */\n      tag_171\n      tag_85\n      jump\t// in\n    tag_171:\n        /* \"#utility.yul\":4707:4763   */\n    tag_170:\n        /* \"#utility.yul\":4781:4810   */\n      tag_172\n        /* \"#utility.yul\":4803:4809   */\n      dup3\n        /* \"#utility.yul\":4781:4810   */\n      tag_75\n      jump\t// in\n    tag_172:\n        /* \"#utility.yul\":4773:4810   */\n      swap1\n      pop\n        /* \"#utility.yul\":4865:4869   */\n      0x20\n        /* \"#utility.yul\":4859:4863   */\n      dup2\n        /* \"#utility.yul\":4855:4870   */\n      add\n        /* \"#utility.yul\":4847:4870   */\n      swap1\n      pop\n        /* \"#utility.yul\":4569:4877   */\n      swap2\n      swap1\n      pop\n      jump\t// out\n        /* \"#utility.yul\":4883:5031   */\n    tag_89:\n        /* \"#utility.yul\":4981:4987   */\n      dup3\n        /* \"#utility.yul\":4976:4979   */\n      dup2\n        /* \"#utility.yul\":4971:4974   */\n      dup4\n        /* \"#utility.yul\":4958:4988   */\n      calldatacopy\n        /* \"#utility.yul\":5022:5023   */\n      0x00\n        /* \"#utility.yul\":5013:5019   */\n      dup4\n        /* \"#utility.yul\":5008:5011   */\n      dup4\n        /* \"#utility.yul\":5004:5020   */\n      add\n        /* \"#utility.yul\":4997:5024   */\n      mstore\n        /* \"#utility.yul\":4883:5031   */\n      pop\n      pop\n      pop\n      jump\t// out\n        /* \"#utility.yul\":5037:5462   */\n    tag_90:\n        /* \"#utility.yul\":5115:5120   */\n      0x00\n        /* \"#utility.yul\":5140:5206   */\n      tag_175\n        /* \"#utility.yul\":5156:5205   */\n      tag_176\n        /* \"#utility.yul\":5198:5204   */\n      dup5\n        /* \"#utility.yul\":5156:5205   */\n      tag_88\n      jump\t// in\n    tag_176:\n        /* \"#utility.yul\":5140:5206   */\n      tag_87\n      jump\t// in\n    tag_175:\n        /* \"#utility.yul\":5131:5206   */\n      swap1\n      pop\n        /* \"#utility.yul\":5229:5235   */\n      dup3\n        /* \"#utility.yul\":5222:5227   */\n      dup2\n        /* \"#utility.yul\":5215:5236   */\n      mstore\n        /* \"#utility.yul\":5267:5271   */\n      0x20\n        /* \"#utility.yul\":5260:5265   */\n      dup2\n        /* \"#utility.yul\":5256:5272   */\n      add\n        /* \"#utility.yul\":5305:5308   */\n      dup5\n        /* \"#utility.yul\":5296:5302   */\n      dup5\n        /* \"#utility.yul\":5291:5294   */\n      dup5\n        /* \"#utility.yul\":5287:5303   */\n      add\n        /* \"#utility.yul\":5284:5309   */\n      gt\n        /* \"#utility.yul\":5281:5393   */\n      iszero\n      tag_177\n      jumpi\n        /* \"#utility.yul\":5312:5391   */\n      tag_178\n      tag_84\n      jump\t// in\n    tag_178:\n        /* \"#utility.yul\":5281:5393   */\n    tag_177:\n        /* \"#utility.yul\":5402:5456   */\n      tag_179\n        /* \"#utility.yul\":5449:5455   */\n      dup5\n        /* \"#utility.yul\":5444:5447   */\n      dup3\n        /* \"#utility.yul\":5439:5442   */\n      dup6\n        /* \"#utility.yul\":5402:5456   */\n      tag_89\n      jump\t// in\n    tag_179:\n        /* \"#utility.yul\":5121:5462   */\n      pop\n        /* \"#utility.yul\":5037:5462   */\n      swap4\n      swap3\n      pop\n      pop\n      pop\n      jump\t// out\n        /* \"#utility.yul\":5482:5822   */\n    tag_91:\n        /* \"#utility.yul\":5538:5543   */\n      0x00\n        /* \"#utility.yul\":5587:5590   */\n      dup3\n        /* \"#utility.yul\":5580:5584   */\n      0x1f\n        /* \"#utility.yul\":5572:5578   */\n      dup4\n        /* \"#utility.yul\":5568:5585   */\n      add\n        /* \"#utility.yul\":5564:5591   */\n      slt\n        /* \"#utility.yul\":5554:5676   */\n      tag_181\n      jumpi\n        /* \"#utility.yul\":5595:5674   */\n      tag_182\n      tag_83\n      jump\t// in\n    tag_182:\n        /* \"#utility.yul\":5554:5676   */\n    tag_181:\n        /* \"#utility.yul\":5712:5718   */\n      dup2\n        /* \"#utility.yul\":5699:5719   */\n      calldataload\n        /* \"#utility.yul\":5737:5816   */\n      tag_183\n        /* \"#utility.yul\":5812:5815   */\n      dup5\n        /* \"#utility.yul\":5804:5810   */\n      dup3\n        /* \"#utility.yul\":5797:5801   */\n      0x20\n        /* \"#utility.yul\":5789:5795   */\n      dup7\n        /* \"#utility.yul\":5785:5802   */\n      add\n        /* \"#utility.yul\":5737:5816   */\n      tag_90\n      jump\t// in\n    tag_183:\n        /* \"#utility.yul\":5728:5816   */\n      swap2\n      pop\n        /* \"#utility.yul\":5544:5822   */\n      pop\n        /* \"#utility.yul\":5482:5822   */\n      swap3\n      swap2\n      pop\n      pop\n      jump\t// out\n        /* \"#utility.yul\":5828:6482   */\n    tag_19:\n        /* \"#utility.yul\":5906:5912   */\n      0x00\n        /* \"#utility.yul\":5914:5920   */\n      dup1\n        /* \"#utility.yul\":5963:5965   */\n      0x40\n        /* \"#utility.yul\":5951:5960   */\n      dup4\n        /* \"#utility.yul\":5942:5949   */\n      dup6\n        /* \"#utility.yul\":5938:5961   */\n      sub\n        /* \"#utility.yul\":5934:5966   */\n      slt\n        /* \"#utility.yul\":5931:6050   */\n      iszero\n      tag_185\n      jumpi\n        /* \"#utility.yul\":5969:6048   */\n      tag_186\n      tag_67\n      jump\t// in\n    tag_186:\n        /* \"#utility.yul\":5931:6050   */\n    tag_185:\n        /* \"#utility.yul\":6117:6118   */\n      0x00\n        /* \"#utility.yul\":6106:6115   */\n      dup4\n        /* \"#utility.yul\":6102:6119   */\n      add\n        /* \"#utility.yul\":6089:6120   */\n      calldataload\n        /* \"#utility.yul\":6147:6165   */\n      0xffffffffffffffff\n        /* \"#utility.yul\":6139:6145   */\n      dup2\n        /* \"#utility.yul\":6136:6166   */\n      gt\n        /* \"#utility.yul\":6133:6250   */\n      iszero\n      tag_187\n      jumpi\n        /* \"#utility.yul\":6169:6248   */\n      tag_188\n      tag_68\n      jump\t// in\n    tag_188:\n        /* \"#utility.yul\":6133:6250   */\n    tag_187:\n        /* \"#utility.yul\":6274:6337   */\n      tag_189\n        /* \"#utility.yul\":6329:6336   */\n      dup6\n        /* \"#utility.yul\":6320:6326   */\n      dup3\n        /* \"#utility.yul\":6309:6318   */\n      dup7\n        /* \"#utility.yul\":6305:6327   */\n      add\n        /* \"#utility.yul\":6274:6337   */\n      tag_91\n      jump\t// in\n    tag_189:\n        /* \"#utility.yul\":6264:6337   */\n      swap3\n      pop\n        /* \"#utility.yul\":6060:6347   */\n      pop\n        /* \"#utility.yul\":6386:6388   */\n      0x20\n        /* \"#utility.yul\":6412:6465   */\n      tag_190\n        /* \"#utility.yul\":6457:6464   */\n      dup6\n        /* \"#utility.yul\":6448:6454   */\n      dup3\n        /* \"#utility.yul\":6437:6446   */\n      dup7\n        /* \"#utility.yul\":6433:6455   */\n      add\n        /* \"#utility.yul\":6412:6465   */\n      tag_71\n      jump\t// in\n    tag_190:\n        /* \"#utility.yul\":6402:6465   */\n      swap2\n      pop\n        /* \"#utility.yul\":6357:6475   */\n      pop\n        /* \"#utility.yul\":5828:6482   */\n      swap3\n      pop\n      swap3\n      swap1\n      pop\n      jump\t// out\n        /* \"#utility.yul\":6488:6668   */\n    tag_92:\n        /* \"#utility.yul\":6536:6613   */\n      0x4e487b7100000000000000000000000000000000000000000000000000000000\n        /* \"#utility.yul\":6533:6534   */\n      0x00\n        /* \"#utility.yul\":6526:6614   */\n      mstore\n        /* \"#utility.yul\":6633:6637   */\n      0x22\n        /* \"#utility.yul\":6630:6631   */\n      0x04\n        /* \"#utility.yul\":6623:6638   */\n      mstore\n        /* \"#utility.yul\":6657:6661   */\n      0x24\n        /* \"#utility.yul\":6654:6655   */\n      0x00\n        /* \"#utility.yul\":6647:6662   */\n      revert\n        /* \"#utility.yul\":6674:6994   */\n    tag_28:\n        /* \"#utility.yul\":6718:6724   */\n      0x00\n        /* \"#utility.yul\":6755:6756   */\n      0x02\n        /* \"#utility.yul\":6749:6753   */\n      dup3\n        /* \"#utility.yul\":6745:6757   */\n      div\n        /* \"#utility.yul\":6735:6757   */\n      swap1\n      pop\n        /* \"#utility.yul\":6802:6803   */\n      0x01\n        /* \"#utility.yul\":6796:6800   */\n      dup3\n        /* \"#utility.yul\":6792:6804   */\n      and\n        /* \"#utility.yul\":6823:6841   */\n      dup1\n        /* \"#utility.yul\":6813:6894   */\n      tag_193\n      jumpi\n        /* \"#utility.yul\":6879:6883   */\n      0x7f\n        /* \"#utility.yul\":6871:6877   */\n      dup3\n        /* \"#utility.yul\":6867:6884   */\n      and\n        /* \"#utility.yul\":6857:6884   */\n      swap2\n      pop\n        /* \"#utility.yul\":6813:6894   */\n    tag_193:\n        /* \"#utility.yul\":6941:6943   */\n      0x20\n        /* \"#utility.yul\":6933:6939   */\n      dup3\n        /* \"#utility.yul\":6930:6944   */\n      lt\n        /* \"#utility.yul\":6910:6928   */\n      dup2\n        /* \"#utility.yul\":6907:6945   */\n      sub\n        /* \"#utility.yul\":6904:6988   */\n      tag_194\n      jumpi\n        /* \"#utility.yul\":6960:6978   */\n      tag_195\n      tag_92\n      jump\t// in\n    tag_195:\n        /* \"#utility.yul\":6904:6988   */\n    tag_194:\n        /* \"#utility.yul\":6725:6994   */\n      pop\n        /* \"#utility.yul\":6674:6994   */\n      swap2\n      swap1\n      pop\n      jump\t// out\n        /* \"#utility.yul\":7000:7171   */\n    tag_93:\n        /* \"#utility.yul\":7140:7163   */\n      0x43726564697420646f6573206e6f742065786973740000000000000000000000\n        /* \"#utility.yul\":7136:7137   */\n      0x00\n        /* \"#utility.yul\":7128:7134   */\n      dup3\n        /* \"#utility.yul\":7124:7138   */\n      add\n        /* \"#utility.yul\":7117:7164   */\n      mstore\n        /* \"#utility.yul\":7000:7171   */\n      pop\n      jump\t// out\n        /* \"#utility.yul\":7177:7543   */\n    tag_94:\n        /* \"#utility.yul\":7319:7322   */\n      0x00\n        /* \"#utility.yul\":7340:7407   */\n      tag_198\n        /* \"#utility.yul\":7404:7406   */\n      0x15\n        /* \"#utility.yul\":7399:7402   */\n      dup4\n        /* \"#utility.yul\":7340:7407   */\n      tag_73\n      jump\t// in\n    tag_198:\n        /* \"#utility.yul\":7333:7407   */\n      swap2\n      pop\n        /* \"#utility.yul\":7416:7509   */\n      tag_199\n        /* \"#utility.yul\":7505:7508   */\n      dup3\n        /* \"#utility.yul\":7416:7509   */\n      tag_93\n      jump\t// in\n    tag_199:\n        /* \"#utility.yul\":7534:7536   */\n      0x20\n        /* \"#utility.yul\":7529:7532   */\n      dup3\n        /* \"#utility.yul\":7525:7537   */\n      add\n        /* \"#utility.yul\":7518:7537   */\n      swap1\n      pop\n        /* \"#utility.yul\":7177:7543   */\n      swap2\n      swap1\n      pop\n      jump\t// out\n        /* \"#utility.yul\":7549:7968   */\n    tag_36:\n        /* \"#utility.yul\":7715:7719   */\n      0x00\n        /* \"#utility.yul\":7753:7755   */\n      0x20\n        /* \"#utility.yul\":7742:7751   */\n      dup3\n        /* \"#utility.yul\":7738:7756   */\n      add\n        /* \"#utility.yul\":7730:7756   */\n      swap1\n      pop\n        /* \"#utility.yul\":7802:7811   */\n      dup2\n        /* \"#utility.yul\":7796:7800   */\n      dup2\n        /* \"#utility.yul\":7792:7812   */\n      sub\n        /* \"#utility.yul\":7788:7789   */\n      0x00\n        /* \"#utility.yul\":7777:7786   */\n      dup4\n        /* \"#utility.yul\":7773:7790   */\n      add\n        /* \"#utility.yul\":7766:7813   */\n      mstore\n        /* \"#utility.yul\":7830:7961   */\n      tag_201\n        /* \"#utility.yul\":7956:7960   */\n      dup2\n        /* \"#utility.yul\":7830:7961   */\n      tag_94\n      jump\t// in\n    tag_201:\n        /* \"#utility.yul\":7822:7961   */\n      swap1\n      pop\n        /* \"#utility.yul\":7549:7968   */\n      swap2\n      swap1\n      pop\n      jump\t// out\n        /* \"#utility.yul\":7974:8139   */\n    tag_95:\n        /* \"#utility.yul\":8114:8131   */\n      0x496e76616c696420616464726573730000000000000000000000000000000000\n        /* \"#utility.yul\":8110:8111   */\n      0x00\n        /* \"#utility.yul\":8102:8108   */\n      dup3\n        /* \"#utility.yul\":8098:8112   */\n      add\n        /* \"#utility.yul\":8091:8132   */\n      mstore\n        /* \"#utility.yul\":7974:8139   */\n      pop\n      jump\t// out\n        /* \"#utility.yul\":8145:8511   */\n    tag_96:\n        /* \"#utility.yul\":8287:8290   */\n      0x00\n        /* \"#utility.yul\":8308:8375   */\n      tag_204\n        /* \"#utility.yul\":8372:8374   */\n      0x0f\n        /* \"#utility.yul\":8367:8370   */\n      dup4\n        /* \"#utility.yul\":8308:8375   */\n      tag_73\n      jump\t// in\n    tag_204:\n        /* \"#utility.yul\":8301:8375   */\n      swap2\n      pop\n        /* \"#utility.yul\":8384:8477   */\n      tag_205\n        /* \"#utility.yul\":8473:8476   */\n      dup3\n        /* \"#utility.yul\":8384:8477   */\n      tag_95\n      jump\t// in\n    tag_205:\n        /* \"#utility.yul\":8502:8504   */\n      0x20\n        /* \"#utility.yul\":8497:8500   */\n      dup3\n        /* \"#utility.yul\":8493:8505   */\n      add\n        /* \"#utility.yul\":8486:8505   */\n      swap1\n      pop\n        /* \"#utility.yul\":8145:8511   */\n      swap2\n      swap1\n      pop\n      jump\t// out\n        /* \"#utility.yul\":8517:8936   */\n    tag_39:\n        /* \"#utility.yul\":8683:8687   */\n      0x00\n        /* \"#utility.yul\":8721:8723   */\n      0x20\n        /* \"#utility.yul\":8710:8719   */\n      dup3\n        /* \"#utility.yul\":8706:8724   */\n      add\n        /* \"#utility.yul\":8698:8724   */\n      swap1\n      pop\n        /* \"#utility.yul\":8770:8779   */\n      dup2\n        /* \"#utility.yul\":8764:8768   */\n      dup2\n        /* \"#utility.yul\":8760:8780   */\n      sub\n        /* \"#utility.yul\":8756:8757   */\n      0x00\n        /* \"#utility.yul\":8745:8754   */\n      dup4\n        /* \"#utility.yul\":8741:8758   */\n      add\n        /* \"#utility.yul\":8734:8781   */\n      mstore\n        /* \"#utility.yul\":8798:8929   */\n      tag_207\n        /* \"#utility.yul\":8924:8928   */\n      dup2\n        /* \"#utility.yul\":8798:8929   */\n      tag_96\n      jump\t// in\n    tag_207:\n        /* \"#utility.yul\":8790:8929   */\n      swap1\n      pop\n        /* \"#utility.yul\":8517:8936   */\n      swap2\n      swap1\n      pop\n      jump\t// out\n        /* \"#utility.yul\":8942:9122   */\n    tag_42:\n        /* \"#utility.yul\":8990:9067   */\n      0x4e487b7100000000000000000000000000000000000000000000000000000000\n        /* \"#utility.yul\":8987:8988   */\n      0x00\n        /* \"#utility.yul\":8980:9068   */\n      mstore\n        /* \"#utility.yul\":9087:9091   */\n      0x32\n        /* \"#utility.yul\":9084:9085   */\n      0x04\n        /* \"#utility.yul\":9077:9092   */\n      mstore\n        /* \"#utility.yul\":9111:9115   */\n      0x24\n        /* \"#utility.yul\":9108:9109   */\n      0x00\n        /* \"#utility.yul\":9101:9116   */\n      revert\n        /* \"#utility.yul\":9128:9354   */\n    tag_97:\n        /* \"#utility.yul\":9268:9302   */\n      0x4f6e6c7920746865206f776e65722063616e207472616e736665722074686973\n        /* \"#utility.yul\":9264:9265   */\n      0x00\n        /* \"#utility.yul\":9256:9262   */\n      dup3\n        /* \"#utility.yul\":9252:9266   */\n      add\n        /* \"#utility.yul\":9245:9303   */\n      mstore\n        /* \"#utility.yul\":9337:9346   */\n      0x2063726564697400000000000000000000000000000000000000000000000000\n        /* \"#utility.yul\":9332:9334   */\n      0x20\n        /* \"#utility.yul\":9324:9330   */\n      dup3\n        /* \"#utility.yul\":9320:9335   */\n      add\n        /* \"#utility.yul\":9313:9347   */\n      mstore\n        /* \"#utility.yul\":9128:9354   */\n      pop\n      jump\t// out\n        /* \"#utility.yul\":9360:9726   */\n    tag_98:\n        /* \"#utility.yul\":9502:9505   */\n      0x00\n        /* \"#utility.yul\":9523:9590   */\n      tag_211\n        /* \"#utility.yul\":9587:9589   */\n      0x27\n        /* \"#utility.yul\":9582:9585   */\n      dup4\n        /* \"#utility.yul\":9523:9590   */\n      tag_73\n      jump\t// in\n    tag_211:\n        /* \"#utility.yul\":9516:9590   */\n      swap2\n      pop\n        /* \"#utility.yul\":9599:9692   */\n      tag_212\n        /* \"#utility.yul\":9688:9691   */\n      dup3\n        /* \"#utility.yul\":9599:9692   */\n      tag_97\n      jump\t// in\n    tag_212:\n        /* \"#utility.yul\":9717:9719   */\n      0x40\n        /* \"#utility.yul\":9712:9715   */\n      dup3\n        /* \"#utility.yul\":9708:9720   */\n      add\n        /* \"#utility.yul\":9701:9720   */\n      swap1\n      pop\n        /* \"#utility.yul\":9360:9726   */\n      swap2\n      swap1\n      pop\n      jump\t// out\n        /* \"#utility.yul\":9732:10151   */\n    tag_46:\n        /* \"#utility.yul\":9898:9902   */\n      0x00\n        /* \"#utility.yul\":9936:9938   */\n      0x20\n        /* \"#utility.yul\":9925:9934   */\n      dup3\n        /* \"#utility.yul\":9921:9939   */\n      add\n        /* \"#utility.yul\":9913:9939   */\n      swap1\n      pop\n        /* \"#utility.yul\":9985:9994   */\n      dup2\n        /* \"#utility.yul\":9979:9983   */\n      dup2\n        /* \"#utility.yul\":9975:9995   */\n      sub\n        /* \"#utility.yul\":9971:9972   */\n      0x00\n        /* \"#utility.yul\":9960:9969   */\n      dup4\n        /* \"#utility.yul\":9956:9973   */\n      add\n        /* \"#utility.yul\":9949:9996   */\n      mstore\n        /* \"#utility.yul\":10013:10144   */\n      tag_214\n        /* \"#utility.yul\":10139:10143   */\n      dup2\n        /* \"#utility.yul\":10013:10144   */\n      tag_98\n      jump\t// in\n    tag_214:\n        /* \"#utility.yul\":10005:10144   */\n      swap1\n      pop\n        /* \"#utility.yul\":9732:10151   */\n      swap2\n      swap1\n      pop\n      jump\t// out\n        /* \"#utility.yul\":10157:10298   */\n    tag_99:\n        /* \"#utility.yul\":10206:10210   */\n      0x00\n        /* \"#utility.yul\":10229:10232   */\n      dup2\n        /* \"#utility.yul\":10221:10232   */\n      swap1\n      pop\n        /* \"#utility.yul\":10252:10255   */\n      dup2\n        /* \"#utility.yul\":10249:10250   */\n      0x00\n        /* \"#utility.yul\":10242:10256   */\n      mstore\n        /* \"#utility.yul\":10286:10290   */\n      0x20\n        /* \"#utility.yul\":10283:10284   */\n      0x00\n        /* \"#utility.yul\":10273:10291   */\n      keccak256\n        /* \"#utility.yul\":10265:10291   */\n      swap1\n      pop\n        /* \"#utility.yul\":10157:10298   */\n      swap2\n      swap1\n      pop\n      jump\t// out\n        /* \"#utility.yul\":10304:10397   */\n    tag_100:\n        /* \"#utility.yul\":10341:10347   */\n      0x00\n        /* \"#utility.yul\":10388:10390   */\n      0x20\n        /* \"#utility.yul\":10383:10385   */\n      0x1f\n        /* \"#utility.yul\":10376:10381   */\n      dup4\n        /* \"#utility.yul\":10372:10386   */\n      add\n        /* \"#utility.yul\":10368:10391   */\n      div\n        /* \"#utility.yul\":10358:10391   */\n      swap1\n      pop\n        /* \"#utility.yul\":10304:10397   */\n      swap2\n      swap1\n      pop\n      jump\t// out\n        /* \"#utility.yul\":10403:10510   */\n    tag_101:\n        /* \"#utility.yul\":10447:10455   */\n      0x00\n        /* \"#utility.yul\":10497:10502   */\n      dup3\n        /* \"#utility.yul\":10491:10495   */\n      dup3\n        /* \"#utility.yul\":10487:10503   */\n      shl\n        /* \"#utility.yul\":10466:10503   */\n      swap1\n      pop\n        /* \"#utility.yul\":10403:10510   */\n      swap3\n      swap2\n      pop\n      pop\n      jump\t// out\n        /* \"#utility.yul\":10516:10909   */\n    tag_102:\n        /* \"#utility.yul\":10585:10591   */\n      0x00\n        /* \"#utility.yul\":10635:10636   */\n      0x08\n        /* \"#utility.yul\":10623:10633   */\n      dup4\n        /* \"#utility.yul\":10619:10637   */\n      mul\n        /* \"#utility.yul\":10658:10755   */\n      tag_219\n        /* \"#utility.yul\":10688:10754   */\n      0xffffffffffffffffffffffffffffffffffffffffffffffffffffffffffffffff\n        /* \"#utility.yul\":10677:10686   */\n      dup3\n        /* \"#utility.yul\":10658:10755   */\n      tag_101\n      jump\t// in\n    tag_219:\n        /* \"#utility.yul\":10776:10815   */\n      tag_220\n        /* \"#utility.yul\":10806:10814   */\n      dup7\n        /* \"#utility.yul\":10795:10804   */\n      dup4\n        /* \"#utility.yul\":10776:10815   */\n      tag_101\n      jump\t// in\n    tag_220:\n        /* \"#utility.yul\":10764:10815   */\n      swap6\n      pop\n        /* \"#utility.yul\":10848:10852   */\n      dup1\n        /* \"#utility.yul\":10844:10853   */\n      not\n        /* \"#utility.yul\":10837:10842   */\n      dup5\n        /* \"#utility.yul\":10833:10854   */\n      and\n        /* \"#utility.yul\":10824:10854   */\n      swap4\n      pop\n        /* \"#utility.yul\":10897:10901   */\n      dup1\n        /* \"#utility.yul\":10887:10895   */\n      dup7\n        /* \"#utility.yul\":10883:10902   */\n      and\n        /* \"#utility.yul\":10876:10881   */\n      dup5\n        /* \"#utility.yul\":10873:10903   */\n      or\n        /* \"#utility.yul\":10863:10903   */\n      swap3\n      pop\n        /* \"#utility.yul\":10592:10909   */\n      pop\n      pop\n        /* \"#utility.yul\":10516:10909   */\n      swap4\n      swap3\n      pop\n      pop\n      pop\n      jump\t// out\n        /* \"#utility.yul\":10915:10975   */\n    tag_103:\n        /* \"#utility.yul\":10943:10946   */\n      0x00\n        /* \"#utility.yul\":10964:10969   */\n      dup2\n        /* \"#utility.yul\":10957:10969   */\n      swap1\n      pop\n        /* \"#utility.yul\":10915:10975   */\n      swap2\n      swap1\n      pop\n      jump\t// out\n        /* \"#utility.yul\":10981:11123   */\n    tag_104:\n        /* \"#utility.yul\":11031:11040   */\n      0x00\n        /* \"#utility.yul\":11064:11117   */\n      tag_223\n        /* \"#utility.yul\":11082:11116   */\n      tag_224\n        /* \"#utility.yul\":11091:11115   */\n      tag_225\n        /* \"#utility.yul\":11109:11114   */\n      dup5\n        /* \"#utility.yul\":11091:11115   */\n      tag_69\n      jump\t// in\n    tag_225:\n        /* \"#utility.yul\":11082:11116   */\n      tag_103\n      jump\t// in\n    tag_224:\n        /* \"#utility.yul\":11064:11117   */\n      tag_69\n      jump\t// in\n    tag_223:\n        /* \"#utility.yul\":11051:11117   */\n      swap1\n      pop\n        /* \"#utility.yul\":10981:11123   */\n      swap2\n      swap1\n      pop\n      jump\t// out\n        /* \"#utility.yul\":11129:11204   */\n    tag_105:\n        /* \"#utility.yul\":11172:11175   */\n      0x00\n        /* \"#utility.yul\":11193:11198   */\n      dup2\n        /* \"#utility.yul\":11186:11198   */\n      swap1\n      pop\n        /* \"#utility.yul\":11129:11204   */\n      swap2\n      swap1\n      pop\n      jump\t// out\n        /* \"#utility.yul\":11210:11479   */\n    tag_106:\n        /* \"#utility.yul\":11320:11359   */\n      tag_228\n        /* \"#utility.yul\":11351:11358   */\n      dup4\n        /* \"#utility.yul\":11320:11359   */\n      tag_104\n      jump\t// in\n    tag_228:\n        /* \"#utility.yul\":11381:11472   */\n      tag_229\n        /* \"#utility.yul\":11430:11471   */\n      tag_230\n        /* \"#utility.yul\":11454:11470   */\n      dup3\n        /* \"#utility.yul\":11430:11471   */\n      tag_105\n      jump\t// in\n    tag_230:\n        /* \"#utility.yul\":11422:11428   */\n      dup5\n        /* \"#utility.yul\":11415:11419   */\n      dup5\n        /* \"#utility.yul\":11409:11420   */\n      sload\n        /* \"#utility.yul\":11381:11472   */\n      tag_102\n      jump\t// in\n    tag_229:\n        /* \"#utility.yul\":11375:11379   */\n      dup3\n        /* \"#utility.yul\":11368:11473   */\n      sstore\n        /* \"#utility.yul\":11286:11479   */\n      pop\n        /* \"#utility.yul\":11210:11479   */\n      pop\n      pop\n      pop\n      jump\t// out\n        /* \"#utility.yul\":11485:11558   */\n    tag_107:\n        /* \"#utility.yul\":11530:11533   */\n      0x00\n        /* \"#utility.yul\":11485:11558   */\n      swap1\n      jump\t// out\n        /* \"#utility.yul\":11564:11753   */\n    tag_108:\n        /* \"#utility.yul\":11641:11673   */\n      tag_233\n      tag_107\n      jump\t// in\n    tag_233:\n        /* \"#utility.yul\":11682:11747   */\n      tag_234\n        /* \"#utility.yul\":11740:11746   */\n      dup2\n        /* \"#utility.yul\":11732:11738   */\n      dup5\n        /* \"#utility.yul\":11726:11730   */\n      dup5\n        /* \"#utility.yul\":11682:11747   */\n      tag_106\n      jump\t// in\n    tag_234:\n        /* \"#utility.yul\":11617:11753   */\n      pop\n        /* \"#utility.yul\":11564:11753   */\n      pop\n      pop\n      jump\t// out\n        /* \"#utility.yul\":11759:11945   */\n    tag_109:\n        /* \"#utility.yul\":11819:11939   */\n    tag_236:\n        /* \"#utility.yul\":11836:11839   */\n      dup2\n        /* \"#utility.yul\":11829:11834   */\n      dup2\n        /* \"#utility.yul\":11826:11840   */\n      lt\n        /* \"#utility.yul\":11819:11939   */\n      iszero\n      tag_238\n      jumpi\n        /* \"#utility.yul\":11890:11929   */\n      tag_239\n        /* \"#utility.yul\":11927:11928   */\n      0x00\n        /* \"#utility.yul\":11920:11925   */\n      dup3\n        /* \"#utility.yul\":11890:11929   */\n      tag_108\n      jump\t// in\n    tag_239:\n        /* \"#utility.yul\":11863:11864   */\n      0x01\n        /* \"#utility.yul\":11856:11861   */\n      dup2\n        /* \"#utility.yul\":11852:11865   */\n      add\n        /* \"#utility.yul\":11843:11865   */\n      swap1\n      pop\n        /* \"#utility.yul\":11819:11939   */\n      jump(tag_236)\n    tag_238:\n        /* \"#utility.yul\":11759:11945   */\n      pop\n      pop\n      jump\t// out\n        /* \"#utility.yul\":11951:12494   */\n    tag_110:\n        /* \"#utility.yul\":12052:12054   */\n      0x1f\n        /* \"#utility.yul\":12047:12050   */\n      dup3\n        /* \"#utility.yul\":12044:12055   */\n      gt\n        /* \"#utility.yul\":12041:12487   */\n      iszero\n      tag_241\n      jumpi\n        /* \"#utility.yul\":12086:12124   */\n      tag_242\n        /* \"#utility.yul\":12118:12123   */\n      dup2\n        /* \"#utility.yul\":12086:12124   */\n      tag_99\n      jump\t// in\n    tag_242:\n        /* \"#utility.yul\":12170:12199   */\n      tag_243\n        /* \"#utility.yul\":12188:12198   */\n      dup5\n        /* \"#utility.yul\":12170:12199   */\n      tag_100\n      jump\t// in\n    tag_243:\n        /* \"#utility.yul\":12160:12168   */\n      dup2\n        /* \"#utility.yul\":12156:12200   */\n      add\n        /* \"#utility.yul\":12353:12355   */\n      0x20\n        /* \"#utility.yul\":12341:12351   */\n      dup6\n        /* \"#utility.yul\":12338:12356   */\n      lt\n        /* \"#utility.yul\":12335:12384   */\n      iszero\n      tag_244\n      jumpi\n        /* \"#utility.yul\":12374:12382   */\n      dup2\n        /* \"#utility.yul\":12359:12382   */\n      swap1\n      pop\n        /* \"#utility.yul\":12335:12384   */\n    tag_244:\n        /* \"#utility.yul\":12397:12477   */\n      tag_245\n        /* \"#utility.yul\":12453:12475   */\n      tag_246\n        /* \"#utility.yul\":12471:12474   */\n      dup6\n        /* \"#utility.yul\":12453:12475   */\n      tag_100\n      jump\t// in\n    tag_246:\n        /* \"#utility.yul\":12443:12451   */\n      dup4\n        /* \"#utility.yul\":12439:12476   */\n      add\n        /* \"#utility.yul\":12426:12437   */\n      dup3\n        /* \"#utility.yul\":12397:12477   */\n      tag_109\n      jump\t// in\n    tag_245:\n        /* \"#utility.yul\":12056:12487   */\n      pop\n      pop\n        /* \"#utility.yul\":12041:12487   */\n    tag_241:\n        /* \"#utility.yul\":11951:12494   */\n      pop\n      pop\n      pop\n      jump\t// out\n        /* \"#utility.yul\":12500:12617   */\n    tag_111:\n        /* \"#utility.yul\":12554:12562   */\n      0x00\n        /* \"#utility.yul\":12604:12609   */\n      dup3\n        /* \"#utility.yul\":12598:12602   */\n      dup3\n        /* \"#utility.yul\":12594:12610   */\n      shr\n        /* \"#utility.yul\":12573:12610   */\n      swap1\n      pop\n        /* \"#utility.yul\":12500:12617   */\n      swap3\n      swap2\n      pop\n      pop\n      jump\t// out\n        /* \"#utility.yul\":12623:12792   */\n    tag_112:\n        /* \"#utility.yul\":12667:12673   */\n      0x00\n        /* \"#utility.yul\":12700:12751   */\n      tag_249\n        /* \"#utility.yul\":12748:12749   */\n      0x00\n        /* \"#utility.yul\":12744:12750   */\n      not\n        /* \"#utility.yul\":12736:12741   */\n      dup5\n        /* \"#utility.yul\":12733:12734   */\n      0x08\n        /* \"#utility.yul\":12729:12742   */\n      mul\n        /* \"#utility.yul\":12700:12751   */\n      tag_111\n      jump\t// in\n    tag_249:\n        /* \"#utility.yul\":12696:12752   */\n      not\n        /* \"#utility.yul\":12781:12785   */\n      dup1\n        /* \"#utility.yul\":12775:12779   */\n      dup4\n        /* \"#utility.yul\":12771:12786   */\n      and\n        /* \"#utility.yul\":12761:12786   */\n      swap2\n      pop\n        /* \"#utility.yul\":12674:12792   */\n      pop\n        /* \"#utility.yul\":12623:12792   */\n      swap3\n      swap2\n      pop\n      pop\n      jump\t// out\n        /* \"#utility.yul\":12797:13092   */\n    tag_113:\n        /* \"#utility.yul\":12873:12877   */\n      0x00\n        /* \"#utility.yul\":13019:13048   */\n      tag_251\n        /* \"#utility.yul\":13044:13047   */\n      dup4\n        /* \"#utility.yul\":13038:13042   */\n      dup4\n        /* \"#utility.yul\":13019:13048   */\n      tag_112\n      jump\t// in\n    tag_251:\n        /* \"#utility.yul\":13011:13048   */\n      swap2\n      pop\n        /* \"#utility.yul\":13081:13084   */\n      dup3\n        /* \"#utility.yul\":13078:13079   */\n      0x02\n        /* \"#utility.yul\":13074:13085   */\n      mul\n        /* \"#utility.yul\":13068:13072   */\n      dup3\n        /* \"#utility.yul\":13065:13086   */\n      or\n        /* \"#utility.yul\":13057:13086   */\n      swap1\n      pop\n        /* \"#utility.yul\":12797:13092   */\n      swap3\n      swap2\n      pop\n      pop\n      jump\t// out\n        /* \"#utility.yul\":13097:14492   */\n    tag_50:\n        /* \"#utility.yul\":13214:13251   */\n      tag_253\n        /* \"#utility.yul\":13247:13250   */\n      dup3\n        /* \"#utility.yul\":13214:13251   */\n      tag_72\n      jump\t// in\n    tag_253:\n        /* \"#utility.yul\":13316:13334   */\n      0xffffffffffffffff\n        /* \"#utility.yul\":13308:13314   */\n      dup2\n        /* \"#utility.yul\":13305:13335   */\n      gt\n        /* \"#utility.yul\":13302:13358   */\n      iszero\n      tag_254\n      jumpi\n        /* \"#utility.yul\":13338:13356   */\n      tag_255\n      tag_85\n      jump\t// in\n    tag_255:\n        /* \"#utility.yul\":13302:13358   */\n    tag_254:\n        /* \"#utility.yul\":13382:13420   */\n      tag_256\n        /* \"#utility.yul\":13414:13418   */\n      dup3\n        /* \"#utility.yul\":13408:13419   */\n      sload\n        /* \"#utility.yul\":13382:13420   */\n      tag_28\n      jump\t// in\n    tag_256:\n        /* \"#utility.yul\":13467:13534   */\n      tag_257\n        /* \"#utility.yul\":13527:13533   */\n      dup3\n        /* \"#utility.yul\":13519:13525   */\n      dup3\n        /* \"#utility.yul\":13513:13517   */\n      dup6\n        /* \"#utility.yul\":13467:13534   */\n      tag_110\n      jump\t// in\n    tag_257:\n        /* \"#utility.yul\":13561:13562   */\n      0x00\n        /* \"#utility.yul\":13585:13589   */\n      0x20\n        /* \"#utility.yul\":13572:13589   */\n      swap1\n      pop\n        /* \"#utility.yul\":13617:13619   */\n      0x1f\n        /* \"#utility.yul\":13609:13615   */\n      dup4\n        /* \"#utility.yul\":13606:13620   */\n      gt\n        /* \"#utility.yul\":13634:13635   */\n      0x01\n        /* \"#utility.yul\":13629:14247   */\n      dup2\n      eq\n      tag_259\n      jumpi\n        /* \"#utility.yul\":14291:14292   */\n      0x00\n        /* \"#utility.yul\":14308:14314   */\n      dup5\n        /* \"#utility.yul\":14305:14382   */\n      iszero\n      tag_260\n      jumpi\n        /* \"#utility.yul\":14357:14366   */\n      dup3\n        /* \"#utility.yul\":14352:14355   */\n      dup8\n        /* \"#utility.yul\":14348:14367   */\n      add\n        /* \"#utility.yul\":14342:14368   */\n      mload\n        /* \"#utility.yul\":14333:14368   */\n      swap1\n      pop\n        /* \"#utility.yul\":14305:14382   */\n    tag_260:\n        /* \"#utility.yul\":14408:14475   */\n      tag_261\n        /* \"#utility.yul\":14468:14474   */\n      dup6\n        /* \"#utility.yul\":14461:14466   */\n      dup3\n        /* \"#utility.yul\":14408:14475   */\n      tag_113\n      jump\t// in\n    tag_261:\n        /* \"#utility.yul\":14402:14406   */\n      dup7\n        /* \"#utility.yul\":14395:14476   */\n      sstore\n        /* \"#utility.yul\":14264:14486   */\n      pop\n        /* \"#utility.yul\":13599:14486   */\n      jump(tag_258)\n        /* \"#utility.yul\":13629:14247   */\n    tag_259:\n        /* \"#utility.yul\":13681:13685   */\n      0x1f\n        /* \"#utility.yul\":13677:13686   */\n      not\n        /* \"#utility.yul\":13669:13675   */\n      dup5\n        /* \"#utility.yul\":13665:13687   */\n      and\n        /* \"#utility.yul\":13715:13752   */\n      tag_262\n        /* \"#utility.yul\":13747:13751   */\n      dup7\n        /* \"#utility.yul\":13715:13752   */\n      tag_99\n      jump\t// in\n    tag_262:\n        /* \"#utility.yul\":13774:13775   */\n      0x00\n        /* \"#utility.yul\":13788:13996   */\n    tag_263:\n        /* \"#utility.yul\":13802:13809   */\n      dup3\n        /* \"#utility.yul\":13799:13800   */\n      dup2\n        /* \"#utility.yul\":13796:13810   */\n      lt\n        /* \"#utility.yul\":13788:13996   */\n      iszero\n      tag_265\n      jumpi\n        /* \"#utility.yul\":13881:13890   */\n      dup5\n        /* \"#utility.yul\":13876:13879   */\n      dup10\n        /* \"#utility.yul\":13872:13891   */\n      add\n        /* \"#utility.yul\":13866:13892   */\n      mload\n        /* \"#utility.yul\":13858:13864   */\n      dup3\n        /* \"#utility.yul\":13851:13893   */\n      sstore\n        /* \"#utility.yul\":13932:13933   */\n      0x01\n        /* \"#utility.yul\":13924:13930   */\n      dup3\n        /* \"#utility.yul\":13920:13934   */\n      add\n        /* \"#utility.yul\":13910:13934   */\n      swap2\n      pop\n        /* \"#utility.yul\":13979:13981   */\n      0x20\n        /* \"#utility.yul\":13968:13977   */\n      dup6\n        /* \"#utility.yul\":13964:13982   */\n      add\n        /* \"#utility.yul\":13951:13982   */\n      swap5\n      pop\n        /* \"#utility.yul\":13825:13829   */\n      0x20\n        /* \"#utility.yul\":13822:13823   */\n      dup2\n        /* \"#utility.yul\":13818:13830   */\n      add\n        /* \"#utility.yul\":13813:13830   */\n      swap1\n      pop\n        /* \"#utility.yul\":13788:13996   */\n      jump(tag_263)\n    tag_265:\n        /* \"#utility.yul\":14024:14030   */\n      dup7\n        /* \"#utility.yul\":14015:14022   */\n      dup4\n        /* \"#utility.yul\":14012:14031   */\n      lt\n        /* \"#utility.yul\":14009:14188   */\n      iszero\n      tag_266\n      jumpi\n        /* \"#utility.yul\":14082:14091   */\n      dup5\n        /* \"#utility.yul\":14077:14080   */\n      dup10\n        /* \"#utility.yul\":14073:14092   */\n      add\n        /* \"#utility.yul\":14067:14093   */\n      mload\n        /* \"#utility.yul\":14125:14173   */\n      tag_267\n        /* \"#utility.yul\":14167:14171   */\n      0x1f\n        /* \"#utility.yul\":14159:14165   */\n      dup10\n        /* \"#utility.yul\":14155:14172   */\n      and\n        /* \"#utility.yul\":14144:14153   */\n      dup3\n        /* \"#utility.yul\":14125:14173   */\n      tag_112\n      jump\t// in\n    tag_267:\n        /* \"#utility.yul\":14117:14123   */\n      dup4\n        /* \"#utility.yul\":14110:14174   */\n      sstore\n        /* \"#utility.yul\":14032:14188   */\n      pop\n        /* \"#utility.yul\":14009:14188   */\n    tag_266:\n        /* \"#utility.yul\":14234:14235   */\n      0x01\n        /* \"#utility.yul\":14230:14231   */\n      0x02\n        /* \"#utility.yul\":14222:14228   */\n      dup9\n        /* \"#utility.yul\":14218:14232   */\n      mul\n        /* \"#utility.yul\":14214:14236   */\n      add\n        /* \"#utility.yul\":14208:14212   */\n      dup9\n        /* \"#utility.yul\":14201:14237   */\n      sstore\n        /* \"#utility.yul\":13636:14247   */\n      pop\n      pop\n      pop\n        /* \"#utility.yul\":13599:14486   */\n    tag_258:\n      pop\n        /* \"#utility.yul\":13189:14492   */\n      pop\n      pop\n      pop\n        /* \"#utility.yul\":13097:14492   */\n      pop\n      pop\n      jump\t// out\n        /* \"#utility.yul\":14498:14678   */\n    tag_114:\n        /* \"#utility.yul\":14546:14623   */\n      0x4e487b7100000000000000000000000000000000000000000000000000000000\n        /* \"#utility.yul\":14543:14544   */\n      0x00\n        /* \"#utility.yul\":14536:14624   */\n      mstore\n        /* \"#utility.yul\":14643:14647   */\n      0x11\n        /* \"#utility.yul\":14640:14641   */\n      0x04\n        /* \"#utility.yul\":14633:14648   */\n      mstore\n        /* \"#utility.yul\":14667:14671   */\n      0x24\n        /* \"#utility.yul\":14664:14665   */\n      0x00\n        /* \"#utility.yul\":14657:14672   */\n      revert\n        /* \"#utility.yul\":14684:14878   */\n    tag_52:\n        /* \"#utility.yul\":14724:14728   */\n      0x00\n        /* \"#utility.yul\":14744:14764   */\n      tag_270\n        /* \"#utility.yul\":14762:14763   */\n      dup3\n        /* \"#utility.yul\":14744:14764   */\n      tag_69\n      jump\t// in\n    tag_270:\n        /* \"#utility.yul\":14739:14764   */\n      swap2\n      pop\n        /* \"#utility.yul\":14778:14798   */\n      tag_271\n        /* \"#utility.yul\":14796:14797   */\n      dup4\n        /* \"#utility.yul\":14778:14798   */\n      tag_69\n      jump\t// in\n    tag_271:\n        /* \"#utility.yul\":14773:14798   */\n      swap3\n      pop\n        /* \"#utility.yul\":14822:14823   */\n      dup3\n        /* \"#utility.yul\":14819:14820   */\n      dup3\n        /* \"#utility.yul\":14815:14824   */\n      sub\n        /* \"#utility.yul\":14807:14824   */\n      swap1\n      pop\n        /* \"#utility.yul\":14846:14847   */\n      dup2\n        /* \"#utility.yul\":14840:14844   */\n      dup2\n        /* \"#utility.yul\":14837:14848   */\n      gt\n        /* \"#utility.yul\":14834:14871   */\n      iszero\n      tag_272\n      jumpi\n        /* \"#utility.yul\":14851:14869   */\n      tag_273\n      tag_114\n      jump\t// in\n    tag_273:\n        /* \"#utility.yul\":14834:14871   */\n    tag_272:\n        /* \"#utility.yul\":14684:14878   */\n      swap3\n      swap2\n      pop\n      pop\n      jump\t// out\n        /* \"#utility.yul\":14884:15307   */\n    tag_54:\n        /* \"#utility.yul\":15025:15029   */\n      0x00\n        /* \"#utility.yul\":15063:15065   */\n      0x40\n        /* \"#utility.yul\":15052:15061   */\n      dup3\n        /* \"#utility.yul\":15048:15066   */\n      add\n        /* \"#utility.yul\":15040:15066   */\n      swap1\n      pop\n        /* \"#utility.yul\":15112:15121   */\n      dup2\n        /* \"#utility.yul\":15106:15110   */\n      dup2\n        /* \"#utility.yul\":15102:15122   */\n      sub\n        /* \"#utility.yul\":15098:15099   */\n      0x00\n        /* \"#utility.yul\":15087:15096   */\n      dup4\n        /* \"#utility.yul\":15083:15100   */\n      add\n        /* \"#utility.yul\":15076:15123   */\n      mstore\n        /* \"#utility.yul\":15140:15218   */\n      tag_275\n        /* \"#utility.yul\":15213:15217   */\n      dup2\n        /* \"#utility.yul\":15204:15210   */\n      dup6\n        /* \"#utility.yul\":15140:15218   */\n      tag_76\n      jump\t// in\n    tag_275:\n        /* \"#utility.yul\":15132:15218   */\n      swap1\n      pop\n        /* \"#utility.yul\":15228:15300   */\n      tag_276\n        /* \"#utility.yul\":15296:15298   */\n      0x20\n        /* \"#utility.yul\":15285:15294   */\n      dup4\n        /* \"#utility.yul\":15281:15299   */\n      add\n        /* \"#utility.yul\":15272:15278   */\n      dup5\n        /* \"#utility.yul\":15228:15300   */\n      tag_77\n      jump\t// in\n    tag_276:\n        /* \"#utility.yul\":14884:15307   */\n      swap4\n      swap3\n      pop\n      pop\n      pop\n      jump\t// out\n\n    auxdata: 0xa2646970667358221220b223d3e6b643e17325576b5a4d14a5a01bc760b02630967dcbe9d4458b5a1fbe64736f6c634300081a0033\n}\n",
				"bytecode": {
					"linkReferences": {},
					"object": "6080604052348015600e575f80fd5b50610edf8061001c5f395ff3fe608060405234801561000f575f80fd5b506004361061004a575f3560e01c8063036a1c221461004e5780630df3a1e014610080578063297117371461009c578063da304e4d146100b8575b5f80fd5b610068600480360381019061006391906106b4565b6100ea565b6040516100779392919061079d565b60405180910390f35b61009a60048036038101906100959190610803565b6101c3565b005b6100b660048036038101906100b1919061096d565b6103cc565b005b6100d260048036038101906100cd91906106b4565b6104ef565b6040516100e19392919061079d565b60405180910390f35b5f81815481106100f8575f80fd5b905f5260205f2090600302015f91509050805f018054610117906109f4565b80601f0160208091040260200160405190810160405280929190818152602001828054610143906109f4565b801561018e5780601f106101655761010080835404028352916020019161018e565b820191905f5260205f20905b81548152906001019060200180831161017157829003601f168201915b505050505090806001015490806002015f9054906101000a900473ffffffffffffffffffffffffffffffffffffffff16905083565b5f805490508210610209576040517f08c379a000000000000000000000000000000000000000000000000000000000815260040161020090610a6e565b60405180910390fd5b5f73ffffffffffffffffffffffffffffffffffffffff168173ffffffffffffffffffffffffffffffffffffffff1603610277576040517f08c379a000000000000000000000000000000000000000000000000000000000815260040161026e90610ad6565b60405180910390fd5b5f80838154811061028b5761028a610af4565b5b905f5260205f2090600302019050806002015f9054906101000a900473ffffffffffffffffffffffffffffffffffffffff1673ffffffffffffffffffffffffffffffffffffffff163373ffffffffffffffffffffffffffffffffffffffff161461032a576040517f08c379a000000000000000000000000000000000000000000000000000000000815260040161032190610b91565b60405180910390fd5b81816002015f6101000a81548173ffffffffffffffffffffffffffffffffffffffff021916908373ffffffffffffffffffffffffffffffffffffffff1602179055508173ffffffffffffffffffffffffffffffffffffffff163373ffffffffffffffffffffffffffffffffffffffff16847f7498bf43d4148a03a165d093fcadc813f1a344a5f983812a2777c01f4dc2f0d660405160405180910390a4505050565b5f60405180606001604052808481526020018381526020013373ffffffffffffffffffffffffffffffffffffffff16815250908060018154018082558091505060019003905f5260205f2090600302015f909190919091505f820151815f0190816104379190610d4c565b50602082015181600101556040820151816002015f6101000a81548173ffffffffffffffffffffffffffffffffffffffff021916908373ffffffffffffffffffffffffffffffffffffffff16021790555050503373ffffffffffffffffffffffffffffffffffffffff1660015f805490506104b29190610e48565b7f8d43f7b657997330e62fa2b4c76560f9a652ad99a59702bc1c9858a077d6739384846040516104e3929190610e7b565b60405180910390a35050565b60605f805f805490508410610539576040517f08c379a000000000000000000000000000000000000000000000000000000000815260040161053090610a6e565b60405180910390fd5b5f80858154811061054d5761054c610af4565b5b905f5260205f2090600302016040518060600160405290815f82018054610573906109f4565b80601f016020809104026020016040519081016040528092919081815260200182805461059f906109f4565b80156105ea5780601f106105c1576101008083540402835291602001916105ea565b820191905f5260205f20905b8154815290600101906020018083116105cd57829003601f168201915b5050505050815260200160018201548152602001600282015f9054906101000a900473ffffffffffffffffffffffffffffffffffffffff1673ffffffffffffffffffffffffffffffffffffffff1673ffffffffffffffffffffffffffffffffffffffff16815250509050805f015181602001518260400151935093509350509193909250565b5f604051905090565b5f80fd5b5f80fd5b5f819050919050565b61069381610681565b811461069d575f80fd5b50565b5f813590506106ae8161068a565b92915050565b5f602082840312156106c9576106c8610679565b5b5f6106d6848285016106a0565b91505092915050565b5f81519050919050565b5f82825260208201905092915050565b8281835e5f83830152505050565b5f601f19601f8301169050919050565b5f610721826106df565b61072b81856106e9565b935061073b8185602086016106f9565b61074481610707565b840191505092915050565b61075881610681565b82525050565b5f73ffffffffffffffffffffffffffffffffffffffff82169050919050565b5f6107878261075e565b9050919050565b6107978161077d565b82525050565b5f6060820190508181035f8301526107b58186610717565b90506107c4602083018561074f565b6107d1604083018461078e565b949350505050565b6107e28161077d565b81146107ec575f80fd5b50565b5f813590506107fd816107d9565b92915050565b5f806040838503121561081957610818610679565b5b5f610826858286016106a0565b9250506020610837858286016107ef565b9150509250929050565b5f80fd5b5f80fd5b7f4e487b71000000000000000000000000000000000000000000000000000000005f52604160045260245ffd5b61087f82610707565b810181811067ffffffffffffffff8211171561089e5761089d610849565b5b80604052505050565b5f6108b0610670565b90506108bc8282610876565b919050565b5f67ffffffffffffffff8211156108db576108da610849565b5b6108e482610707565b9050602081019050919050565b828183375f83830152505050565b5f61091161090c846108c1565b6108a7565b90508281526020810184848401111561092d5761092c610845565b5b6109388482856108f1565b509392505050565b5f82601f83011261095457610953610841565b5b81356109648482602086016108ff565b91505092915050565b5f806040838503121561098357610982610679565b5b5f83013567ffffffffffffffff8111156109a05761099f61067d565b5b6109ac85828601610940565b92505060206109bd858286016106a0565b9150509250929050565b7f4e487b71000000000000000000000000000000000000000000000000000000005f52602260045260245ffd5b5f6002820490506001821680610a0b57607f821691505b602082108103610a1e57610a1d6109c7565b5b50919050565b7f43726564697420646f6573206e6f7420657869737400000000000000000000005f82015250565b5f610a586015836106e9565b9150610a6382610a24565b602082019050919050565b5f6020820190508181035f830152610a8581610a4c565b9050919050565b7f496e76616c6964206164647265737300000000000000000000000000000000005f82015250565b5f610ac0600f836106e9565b9150610acb82610a8c565b602082019050919050565b5f6020820190508181035f830152610aed81610ab4565b9050919050565b7f4e487b71000000000000000000000000000000000000000000000000000000005f52603260045260245ffd5b7f4f6e6c7920746865206f776e65722063616e207472616e7366657220746869735f8201527f2063726564697400000000000000000000000000000000000000000000000000602082015250565b5f610b7b6027836106e9565b9150610b8682610b21565b604082019050919050565b5f6020820190508181035f830152610ba881610b6f565b9050919050565b5f819050815f5260205f209050919050565b5f6020601f8301049050919050565b5f82821b905092915050565b5f60088302610c0b7fffffffffffffffffffffffffffffffffffffffffffffffffffffffffffffffff82610bd0565b610c158683610bd0565b95508019841693508086168417925050509392505050565b5f819050919050565b5f610c50610c4b610c4684610681565b610c2d565b610681565b9050919050565b5f819050919050565b610c6983610c36565b610c7d610c7582610c57565b848454610bdc565b825550505050565b5f90565b610c91610c85565b610c9c818484610c60565b505050565b5b81811015610cbf57610cb45f82610c89565b600181019050610ca2565b5050565b601f821115610d0457610cd581610baf565b610cde84610bc1565b81016020851015610ced578190505b610d01610cf985610bc1565b830182610ca1565b50505b505050565b5f82821c905092915050565b5f610d245f1984600802610d09565b1980831691505092915050565b5f610d3c8383610d15565b9150826002028217905092915050565b610d55826106df565b67ffffffffffffffff811115610d6e57610d6d610849565b5b610d7882546109f4565b610d83828285610cc3565b5f60209050601f831160018114610db4575f8415610da2578287015190505b610dac8582610d31565b865550610e13565b601f198416610dc286610baf565b5f5b82811015610de957848901518255600182019150602085019450602081019050610dc4565b86831015610e065784890151610e02601f891682610d15565b8355505b6001600288020188555050505b505050505050565b7f4e487b71000000000000000000000000000000000000000000000000000000005f52601160045260245ffd5b5f610e5282610681565b9150610e5d83610681565b9250828203905081811115610e7557610e74610e1b565b5b92915050565b5f6040820190508181035f830152610e938185610717565b9050610ea2602083018461074f565b939250505056fea2646970667358221220b223d3e6b643e17325576b5a4d14a5a01bc760b02630967dcbe9d4458b5a1fbe64736f6c634300081a0033",
					"opcodes": "PUSH1 0x80 PUSH1 0x40 MSTORE CALLVALUE DUP1 ISZERO PUSH1 0xE JUMPI PUSH0 DUP1 REVERT JUMPDEST POP PUSH2 0xEDF DUP1 PUSH2 0x1C PUSH0 CODECOPY PUSH0 RETURN INVALID PUSH1 0x80 PUSH1 0x40 MSTORE CALLVALUE DUP1 ISZERO PUSH2 0xF JUMPI PUSH0 DUP1 REVERT JUMPDEST POP PUSH1 0x4 CALLDATASIZE LT PUSH2 0x4A JUMPI PUSH0 CALLDATALOAD PUSH1 0xE0 SHR DUP1 PUSH4 0x36A1C22 EQ PUSH2 0x4E JUMPI DUP1 PUSH4 0xDF3A1E0 EQ PUSH2 0x80 JUMPI DUP1 PUSH4 0x29711737 EQ PUSH2 0x9C JUMPI DUP1 PUSH4 0xDA304E4D EQ PUSH2 0xB8 JUMPI JUMPDEST PUSH0 DUP1 REVERT JUMPDEST PUSH2 0x68 PUSH1 0x4 DUP1 CALLDATASIZE SUB DUP2 ADD SWAP1 PUSH2 0x63 SWAP2 SWAP1 PUSH2 0x6B4 JUMP JUMPDEST PUSH2 0xEA JUMP JUMPDEST PUSH1 0x40 MLOAD PUSH2 0x77 SWAP4 SWAP3 SWAP2 SWAP1 PUSH2 0x79D JUMP JUMPDEST PUSH1 0x40 MLOAD DUP1 SWAP2 SUB SWAP1 RETURN JUMPDEST PUSH2 0x9A PUSH1 0x4 DUP1 CALLDATASIZE SUB DUP2 ADD SWAP1 PUSH2 0x95 SWAP2 SWAP1 PUSH2 0x803 JUMP JUMPDEST PUSH2 0x1C3 JUMP JUMPDEST STOP JUMPDEST PUSH2 0xB6 PUSH1 0x4 DUP1 CALLDATASIZE SUB DUP2 ADD SWAP1 PUSH2 0xB1 SWAP2 SWAP1 PUSH2 0x96D JUMP JUMPDEST PUSH2 0x3CC JUMP JUMPDEST STOP JUMPDEST PUSH2 0xD2 PUSH1 0x4 DUP1 CALLDATASIZE SUB DUP2 ADD SWAP1 PUSH2 0xCD SWAP2 SWAP1 PUSH2 0x6B4 JUMP JUMPDEST PUSH2 0x4EF JUMP JUMPDEST PUSH1 0x40 MLOAD PUSH2 0xE1 SWAP4 SWAP3 SWAP2 SWAP1 PUSH2 0x79D JUMP JUMPDEST PUSH1 0x40 MLOAD DUP1 SWAP2 SUB SWAP1 RETURN JUMPDEST PUSH0 DUP2 DUP2 SLOAD DUP2 LT PUSH2 0xF8 JUMPI PUSH0 DUP1 REVERT JUMPDEST SWAP1 PUSH0 MSTORE PUSH1 0x20 PUSH0 KECCAK256 SWAP1 PUSH1 0x3 MUL ADD PUSH0 SWAP2 POP SWAP1 POP DUP1 PUSH0 ADD DUP1 SLOAD PUSH2 0x117 SWAP1 PUSH2 0x9F4 JUMP JUMPDEST DUP1 PUSH1 0x1F ADD PUSH1 0x20 DUP1 SWAP2 DIV MUL PUSH1 0x20 ADD PUSH1 0x40 MLOAD SWAP1 DUP2 ADD PUSH1 0x40 MSTORE DUP1 SWAP3 SWAP2 SWAP1 DUP2 DUP2 MSTORE PUSH1 0x20 ADD DUP3 DUP1 SLOAD PUSH2 0x143 SWAP1 PUSH2 0x9F4 JUMP JUMPDEST DUP1 ISZERO PUSH2 0x18E JUMPI DUP1 PUSH1 0x1F LT PUSH2 0x165 JUMPI PUSH2 0x100 DUP1 DUP4 SLOAD DIV MUL DUP4 MSTORE SWAP2 PUSH1 0x20 ADD SWAP2 PUSH2 0x18E JUMP JUMPDEST DUP3 ADD SWAP2 SWAP1 PUSH0 MSTORE PUSH1 0x20 PUSH0 KECCAK256 SWAP1 JUMPDEST DUP2 SLOAD DUP2 MSTORE SWAP1 PUSH1 0x1 ADD SWAP1 PUSH1 0x20 ADD DUP1 DUP4 GT PUSH2 0x171 JUMPI DUP3 SWAP1 SUB PUSH1 0x1F AND DUP3 ADD SWAP2 JUMPDEST POP POP POP POP POP SWAP1 DUP1 PUSH1 0x1 ADD SLOAD SWAP1 DUP1 PUSH1 0x2 ADD PUSH0 SWAP1 SLOAD SWAP1 PUSH2 0x100 EXP SWAP1 DIV PUSH20 0xFFFFFFFFFFFFFFFFFFFFFFFFFFFFFFFFFFFFFFFF AND SWAP1 POP DUP4 JUMP JUMPDEST PUSH0 DUP1 SLOAD SWAP1 POP DUP3 LT PUSH2 0x209 JUMPI PUSH1 0x40 MLOAD PUSH32 0x8C379A000000000000000000000000000000000000000000000000000000000 DUP2 MSTORE PUSH1 0x4 ADD PUSH2 0x200 SWAP1 PUSH2 0xA6E JUMP JUMPDEST PUSH1 0x40 MLOAD DUP1 SWAP2 SUB SWAP1 REVERT JUMPDEST PUSH0 PUSH20 0xFFFFFFFFFFFFFFFFFFFFFFFFFFFFFFFFFFFFFFFF AND DUP2 PUSH20 0xFFFFFFFFFFFFFFFFFFFFFFFFFFFFFFFFFFFFFFFF AND SUB PUSH2 0x277 JUMPI PUSH1 0x40 MLOAD PUSH32 0x8C379A000000000000000000000000000000000000000000000000000000000 DUP2 MSTORE PUSH1 0x4 ADD PUSH2 0x26E SWAP1 PUSH2 0xAD6 JUMP JUMPDEST PUSH1 0x40 MLOAD DUP1 SWAP2 SUB SWAP1 REVERT JUMPDEST PUSH0 DUP1 DUP4 DUP2 SLOAD DUP2 LT PUSH2 0x28B JUMPI PUSH2 0x28A PUSH2 0xAF4 JUMP JUMPDEST JUMPDEST SWAP1 PUSH0 MSTORE PUSH1 0x20 PUSH0 KECCAK256 SWAP1 PUSH1 0x3 MUL ADD SWAP1 POP DUP1 PUSH1 0x2 ADD PUSH0 SWAP1 SLOAD SWAP1 PUSH2 0x100 EXP SWAP1 DIV PUSH20 0xFFFFFFFFFFFFFFFFFFFFFFFFFFFFFFFFFFFFFFFF AND PUSH20 0xFFFFFFFFFFFFFFFFFFFFFFFFFFFFFFFFFFFFFFFF AND CALLER PUSH20 0xFFFFFFFFFFFFFFFFFFFFFFFFFFFFFFFFFFFFFFFF AND EQ PUSH2 0x32A JUMPI PUSH1 0x40 MLOAD PUSH32 0x8C379A000000000000000000000000000000000000000000000000000000000 DUP2 MSTORE PUSH1 0x4 ADD PUSH2 0x321 SWAP1 PUSH2 0xB91 JUMP JUMPDEST PUSH1 0x40 MLOAD DUP1 SWAP2 SUB SWAP1 REVERT JUMPDEST DUP2 DUP2 PUSH1 0x2 ADD PUSH0 PUSH2 0x100 EXP DUP2 SLOAD DUP2 PUSH20 0xFFFFFFFFFFFFFFFFFFFFFFFFFFFFFFFFFFFFFFFF MUL NOT AND SWAP1 DUP4 PUSH20 0xFFFFFFFFFFFFFFFFFFFFFFFFFFFFFFFFFFFFFFFF AND MUL OR SWAP1 SSTORE POP DUP2 PUSH20 0xFFFFFFFFFFFFFFFFFFFFFFFFFFFFFFFFFFFFFFFF AND CALLER PUSH20 0xFFFFFFFFFFFFFFFFFFFFFFFFFFFFFFFFFFFFFFFF AND DUP5 PUSH32 0x7498BF43D4148A03A165D093FCADC813F1A344A5F983812A2777C01F4DC2F0D6 PUSH1 0x40 MLOAD PUSH1 0x40 MLOAD DUP1 SWAP2 SUB SWAP1 LOG4 POP POP POP JUMP JUMPDEST PUSH0 PUSH1 0x40 MLOAD DUP1 PUSH1 0x60 ADD PUSH1 0x40 MSTORE DUP1 DUP5 DUP2 MSTORE PUSH1 0x20 ADD DUP4 DUP2 MSTORE PUSH1 0x20 ADD CALLER PUSH20 0xFFFFFFFFFFFFFFFFFFFFFFFFFFFFFFFFFFFFFFFF AND DUP2 MSTORE POP SWAP1 DUP1 PUSH1 0x1 DUP2 SLOAD ADD DUP1 DUP3 SSTORE DUP1 SWAP2 POP POP PUSH1 0x1 SWAP1 SUB SWAP1 PUSH0 MSTORE PUSH1 0x20 PUSH0 KECCAK256 SWAP1 PUSH1 0x3 MUL ADD PUSH0 SWAP1 SWAP2 SWAP1 SWAP2 SWAP1 SWAP2 POP PUSH0 DUP3 ADD MLOAD DUP2 PUSH0 ADD SWAP1 DUP2 PUSH2 0x437 SWAP2 SWAP1 PUSH2 0xD4C JUMP JUMPDEST POP PUSH1 0x20 DUP3 ADD MLOAD DUP2 PUSH1 0x1 ADD SSTORE PUSH1 0x40 DUP3 ADD MLOAD DUP2 PUSH1 0x2 ADD PUSH0 PUSH2 0x100 EXP DUP2 SLOAD DUP2 PUSH20 0xFFFFFFFFFFFFFFFFFFFFFFFFFFFFFFFFFFFFFFFF MUL NOT AND SWAP1 DUP4 PUSH20 0xFFFFFFFFFFFFFFFFFFFFFFFFFFFFFFFFFFFFFFFF AND MUL OR SWAP1 SSTORE POP POP POP CALLER PUSH20 0xFFFFFFFFFFFFFFFFFFFFFFFFFFFFFFFFFFFFFFFF AND PUSH1 0x1 PUSH0 DUP1 SLOAD SWAP1 POP PUSH2 0x4B2 SWAP2 SWAP1 PUSH2 0xE48 JUMP JUMPDEST PUSH32 0x8D43F7B657997330E62FA2B4C76560F9A652AD99A59702BC1C9858A077D67393 DUP5 DUP5 PUSH1 0x40 MLOAD PUSH2 0x4E3 SWAP3 SWAP2 SWAP1 PUSH2 0xE7B JUMP JUMPDEST PUSH1 0x40 MLOAD DUP1 SWAP2 SUB SWAP1 LOG3 POP POP JUMP JUMPDEST PUSH1 0x60 PUSH0 DUP1 PUSH0 DUP1 SLOAD SWAP1 POP DUP5 LT PUSH2 0x539 JUMPI PUSH1 0x40 MLOAD PUSH32 0x8C379A000000000000000000000000000000000000000000000000000000000 DUP2 MSTORE PUSH1 0x4 ADD PUSH2 0x530 SWAP1 PUSH2 0xA6E JUMP JUMPDEST PUSH1 0x40 MLOAD DUP1 SWAP2 SUB SWAP1 REVERT JUMPDEST PUSH0 DUP1 DUP6 DUP2 SLOAD DUP2 LT PUSH2 0x54D JUMPI PUSH2 0x54C PUSH2 0xAF4 JUMP JUMPDEST JUMPDEST SWAP1 PUSH0 MSTORE PUSH1 0x20 PUSH0 KECCAK256 SWAP1 PUSH1 0x3 MUL ADD PUSH1 0x40 MLOAD DUP1 PUSH1 0x60 ADD PUSH1 0x40 MSTORE SWAP1 DUP2 PUSH0 DUP3 ADD DUP1 SLOAD PUSH2 0x573 SWAP1 PUSH2 0x9F4 JUMP JUMPDEST DUP1 PUSH1 0x1F ADD PUSH1 0x20 DUP1 SWAP2 DIV MUL PUSH1 0x20 ADD PUSH1 0x40 MLOAD SWAP1 DUP2 ADD PUSH1 0x40 MSTORE DUP1 SWAP3 SWAP2 SWAP1 DUP2 DUP2 MSTORE PUSH1 0x20 ADD DUP3 DUP1 SLOAD PUSH2 0x59F SWAP1 PUSH2 0x9F4 JUMP JUMPDEST DUP1 ISZERO PUSH2 0x5EA JUMPI DUP1 PUSH1 0x1F LT PUSH2 0x5C1 JUMPI PUSH2 0x100 DUP1 DUP4 SLOAD DIV MUL DUP4 MSTORE SWAP2 PUSH1 0x20 ADD SWAP2 PUSH2 0x5EA JUMP JUMPDEST DUP3 ADD SWAP2 SWAP1 PUSH0 MSTORE PUSH1 0x20 PUSH0 KECCAK256 SWAP1 JUMPDEST DUP2 SLOAD DUP2 MSTORE SWAP1 PUSH1 0x1 ADD SWAP1 PUSH1 0x20 ADD DUP1 DUP4 GT PUSH2 0x5CD JUMPI DUP3 SWAP1 SUB PUSH1 0x1F AND DUP3 ADD SWAP2 JUMPDEST POP POP POP POP POP DUP2 MSTORE PUSH1 0x20 ADD PUSH1 0x1 DUP3 ADD SLOAD DUP2 MSTORE PUSH1 0x20 ADD PUSH1 0x2 DUP3 ADD PUSH0 SWAP1 SLOAD SWAP1 PUSH2 0x100 EXP SWAP1 DIV PUSH20 0xFFFFFFFFFFFFFFFFFFFFFFFFFFFFFFFFFFFFFFFF AND PUSH20 0xFFFFFFFFFFFFFFFFFFFFFFFFFFFFFFFFFFFFFFFF AND PUSH20 0xFFFFFFFFFFFFFFFFFFFFFFFFFFFFFFFFFFFFFFFF AND DUP2 MSTORE POP POP SWAP1 POP DUP1 PUSH0 ADD MLOAD DUP2 PUSH1 0x20 ADD MLOAD DUP3 PUSH1 0x40 ADD MLOAD SWAP4 POP SWAP4 POP SWAP4 POP POP SWAP2 SWAP4 SWAP1 SWAP3 POP JUMP JUMPDEST PUSH0 PUSH1 0x40 MLOAD SWAP1 POP SWAP1 JUMP JUMPDEST PUSH0 DUP1 REVERT JUMPDEST PUSH0 DUP1 REVERT JUMPDEST PUSH0 DUP2 SWAP1 POP SWAP2 SWAP1 POP JUMP JUMPDEST PUSH2 0x693 DUP2 PUSH2 0x681 JUMP JUMPDEST DUP2 EQ PUSH2 0x69D JUMPI PUSH0 DUP1 REVERT JUMPDEST POP JUMP JUMPDEST PUSH0 DUP2 CALLDATALOAD SWAP1 POP PUSH2 0x6AE DUP2 PUSH2 0x68A JUMP JUMPDEST SWAP3 SWAP2 POP POP JUMP JUMPDEST PUSH0 PUSH1 0x20 DUP3 DUP5 SUB SLT ISZERO PUSH2 0x6C9 JUMPI PUSH2 0x6C8 PUSH2 0x679 JUMP JUMPDEST JUMPDEST PUSH0 PUSH2 0x6D6 DUP5 DUP3 DUP6 ADD PUSH2 0x6A0 JUMP JUMPDEST SWAP2 POP POP SWAP3 SWAP2 POP POP JUMP JUMPDEST PUSH0 DUP2 MLOAD SWAP1 POP SWAP2 SWAP1 POP JUMP JUMPDEST PUSH0 DUP3 DUP3 MSTORE PUSH1 0x20 DUP3 ADD SWAP1 POP SWAP3 SWAP2 POP POP JUMP JUMPDEST DUP3 DUP2 DUP4 MCOPY PUSH0 DUP4 DUP4 ADD MSTORE POP POP POP JUMP JUMPDEST PUSH0 PUSH1 0x1F NOT PUSH1 0x1F DUP4 ADD AND SWAP1 POP SWAP2 SWAP1 POP JUMP JUMPDEST PUSH0 PUSH2 0x721 DUP3 PUSH2 0x6DF JUMP JUMPDEST PUSH2 0x72B DUP2 DUP6 PUSH2 0x6E9 JUMP JUMPDEST SWAP4 POP PUSH2 0x73B DUP2 DUP6 PUSH1 0x20 DUP7 ADD PUSH2 0x6F9 JUMP JUMPDEST PUSH2 0x744 DUP2 PUSH2 0x707 JUMP JUMPDEST DUP5 ADD SWAP2 POP POP SWAP3 SWAP2 POP POP JUMP JUMPDEST PUSH2 0x758 DUP2 PUSH2 0x681 JUMP JUMPDEST DUP3 MSTORE POP POP JUMP JUMPDEST PUSH0 PUSH20 0xFFFFFFFFFFFFFFFFFFFFFFFFFFFFFFFFFFFFFFFF DUP3 AND SWAP1 POP SWAP2 SWAP1 POP JUMP JUMPDEST PUSH0 PUSH2 0x787 DUP3 PUSH2 0x75E JUMP JUMPDEST SWAP1 POP SWAP2 SWAP1 POP JUMP JUMPDEST PUSH2 0x797 DUP2 PUSH2 0x77D JUMP JUMPDEST DUP3 MSTORE POP POP JUMP JUMPDEST PUSH0 PUSH1 0x60 DUP3 ADD SWAP1 POP DUP2 DUP2 SUB PUSH0 DUP4 ADD MSTORE PUSH2 0x7B5 DUP2 DUP7 PUSH2 0x717 JUMP JUMPDEST SWAP1 POP PUSH2 0x7C4 PUSH1 0x20 DUP4 ADD DUP6 PUSH2 0x74F JUMP JUMPDEST PUSH2 0x7D1 PUSH1 0x40 DUP4 ADD DUP5 PUSH2 0x78E JUMP JUMPDEST SWAP5 SWAP4 POP POP POP POP JUMP JUMPDEST PUSH2 0x7E2 DUP2 PUSH2 0x77D JUMP JUMPDEST DUP2 EQ PUSH2 0x7EC JUMPI PUSH0 DUP1 REVERT JUMPDEST POP JUMP JUMPDEST PUSH0 DUP2 CALLDATALOAD SWAP1 POP PUSH2 0x7FD DUP2 PUSH2 0x7D9 JUMP JUMPDEST SWAP3 SWAP2 POP POP JUMP JUMPDEST PUSH0 DUP1 PUSH1 0x40 DUP4 DUP6 SUB SLT ISZERO PUSH2 0x819 JUMPI PUSH2 0x818 PUSH2 0x679 JUMP JUMPDEST JUMPDEST PUSH0 PUSH2 0x826 DUP6 DUP3 DUP7 ADD PUSH2 0x6A0 JUMP JUMPDEST SWAP3 POP POP PUSH1 0x20 PUSH2 0x837 DUP6 DUP3 DUP7 ADD PUSH2 0x7EF JUMP JUMPDEST SWAP2 POP POP SWAP3 POP SWAP3 SWAP1 POP JUMP JUMPDEST PUSH0 DUP1 REVERT JUMPDEST PUSH0 DUP1 REVERT JUMPDEST PUSH32 0x4E487B7100000000000000000000000000000000000000000000000000000000 PUSH0 MSTORE PUSH1 0x41 PUSH1 0x4 MSTORE PUSH1 0x24 PUSH0 REVERT JUMPDEST PUSH2 0x87F DUP3 PUSH2 0x707 JUMP JUMPDEST DUP2 ADD DUP2 DUP2 LT PUSH8 0xFFFFFFFFFFFFFFFF DUP3 GT OR ISZERO PUSH2 0x89E JUMPI PUSH2 0x89D PUSH2 0x849 JUMP JUMPDEST JUMPDEST DUP1 PUSH1 0x40 MSTORE POP POP POP JUMP JUMPDEST PUSH0 PUSH2 0x8B0 PUSH2 0x670 JUMP JUMPDEST SWAP1 POP PUSH2 0x8BC DUP3 DUP3 PUSH2 0x876 JUMP JUMPDEST SWAP2 SWAP1 POP JUMP JUMPDEST PUSH0 PUSH8 0xFFFFFFFFFFFFFFFF DUP3 GT ISZERO PUSH2 0x8DB JUMPI PUSH2 0x8DA PUSH2 0x849 JUMP JUMPDEST JUMPDEST PUSH2 0x8E4 DUP3 PUSH2 0x707 JUMP JUMPDEST SWAP1 POP PUSH1 0x20 DUP2 ADD SWAP1 POP SWAP2 SWAP1 POP JUMP JUMPDEST DUP3 DUP2 DUP4 CALLDATACOPY PUSH0 DUP4 DUP4 ADD MSTORE POP POP POP JUMP JUMPDEST PUSH0 PUSH2 0x911 PUSH2 0x90C DUP5 PUSH2 0x8C1 JUMP JUMPDEST PUSH2 0x8A7 JUMP JUMPDEST SWAP1 POP DUP3 DUP2 MSTORE PUSH1 0x20 DUP2 ADD DUP5 DUP5 DUP5 ADD GT ISZERO PUSH2 0x92D JUMPI PUSH2 0x92C PUSH2 0x845 JUMP JUMPDEST JUMPDEST PUSH2 0x938 DUP5 DUP3 DUP6 PUSH2 0x8F1 JUMP JUMPDEST POP SWAP4 SWAP3 POP POP POP JUMP JUMPDEST PUSH0 DUP3 PUSH1 0x1F DUP4 ADD SLT PUSH2 0x954 JUMPI PUSH2 0x953 PUSH2 0x841 JUMP JUMPDEST JUMPDEST DUP2 CALLDATALOAD PUSH2 0x964 DUP5 DUP3 PUSH1 0x20 DUP7 ADD PUSH2 0x8FF JUMP JUMPDEST SWAP2 POP POP SWAP3 SWAP2 POP POP JUMP JUMPDEST PUSH0 DUP1 PUSH1 0x40 DUP4 DUP6 SUB SLT ISZERO PUSH2 0x983 JUMPI PUSH2 0x982 PUSH2 0x679 JUMP JUMPDEST JUMPDEST PUSH0 DUP4 ADD CALLDATALOAD PUSH8 0xFFFFFFFFFFFFFFFF DUP2 GT ISZERO PUSH2 0x9A0 JUMPI PUSH2 0x99F PUSH2 0x67D JUMP JUMPDEST JUMPDEST PUSH2 0x9AC DUP6 DUP3 DUP7 ADD PUSH2 0x940 JUMP JUMPDEST SWAP3 POP POP PUSH1 0x20 PUSH2 0x9BD DUP6 DUP3 DUP7 ADD PUSH2 0x6A0 JUMP JUMPDEST SWAP2 POP POP SWAP3 POP SWAP3 SWAP1 POP JUMP JUMPDEST PUSH32 0x4E487B7100000000000000000000000000000000000000000000000000000000 PUSH0 MSTORE PUSH1 0x22 PUSH1 0x4 MSTORE PUSH1 0x24 PUSH0 REVERT JUMPDEST PUSH0 PUSH1 0x2 DUP3 DIV SWAP1 POP PUSH1 0x1 DUP3 AND DUP1 PUSH2 0xA0B JUMPI PUSH1 0x7F DUP3 AND SWAP2 POP JUMPDEST PUSH1 0x20 DUP3 LT DUP2 SUB PUSH2 0xA1E JUMPI PUSH2 0xA1D PUSH2 0x9C7 JUMP JUMPDEST JUMPDEST POP SWAP2 SWAP1 POP JUMP JUMPDEST PUSH32 0x43726564697420646F6573206E6F742065786973740000000000000000000000 PUSH0 DUP3 ADD MSTORE POP JUMP JUMPDEST PUSH0 PUSH2 0xA58 PUSH1 0x15 DUP4 PUSH2 0x6E9 JUMP JUMPDEST SWAP2 POP PUSH2 0xA63 DUP3 PUSH2 0xA24 JUMP JUMPDEST PUSH1 0x20 DUP3 ADD SWAP1 POP SWAP2 SWAP1 POP JUMP JUMPDEST PUSH0 PUSH1 0x20 DUP3 ADD SWAP1 POP DUP2 DUP2 SUB PUSH0 DUP4 ADD MSTORE PUSH2 0xA85 DUP2 PUSH2 0xA4C JUMP JUMPDEST SWAP1 POP SWAP2 SWAP1 POP JUMP JUMPDEST PUSH32 0x496E76616C696420616464726573730000000000000000000000000000000000 PUSH0 DUP3 ADD MSTORE POP JUMP JUMPDEST PUSH0 PUSH2 0xAC0 PUSH1 0xF DUP4 PUSH2 0x6E9 JUMP JUMPDEST SWAP2 POP PUSH2 0xACB DUP3 PUSH2 0xA8C JUMP JUMPDEST PUSH1 0x20 DUP3 ADD SWAP1 POP SWAP2 SWAP1 POP JUMP JUMPDEST PUSH0 PUSH1 0x20 DUP3 ADD SWAP1 POP DUP2 DUP2 SUB PUSH0 DUP4 ADD MSTORE PUSH2 0xAED DUP2 PUSH2 0xAB4 JUMP JUMPDEST SWAP1 POP SWAP2 SWAP1 POP JUMP JUMPDEST PUSH32 0x4E487B7100000000000000000000000000000000000000000000000000000000 PUSH0 MSTORE PUSH1 0x32 PUSH1 0x4 MSTORE PUSH1 0x24 PUSH0 REVERT JUMPDEST PUSH32 0x4F6E6C7920746865206F776E65722063616E207472616E736665722074686973 PUSH0 DUP3 ADD MSTORE PUSH32 0x2063726564697400000000000000000000000000000000000000000000000000 PUSH1 0x20 DUP3 ADD MSTORE POP JUMP JUMPDEST PUSH0 PUSH2 0xB7B PUSH1 0x27 DUP4 PUSH2 0x6E9 JUMP JUMPDEST SWAP2 POP PUSH2 0xB86 DUP3 PUSH2 0xB21 JUMP JUMPDEST PUSH1 0x40 DUP3 ADD SWAP1 POP SWAP2 SWAP1 POP JUMP JUMPDEST PUSH0 PUSH1 0x20 DUP3 ADD SWAP1 POP DUP2 DUP2 SUB PUSH0 DUP4 ADD MSTORE PUSH2 0xBA8 DUP2 PUSH2 0xB6F JUMP JUMPDEST SWAP1 POP SWAP2 SWAP1 POP JUMP JUMPDEST PUSH0 DUP2 SWAP1 POP DUP2 PUSH0 MSTORE PUSH1 0x20 PUSH0 KECCAK256 SWAP1 POP SWAP2 SWAP1 POP JUMP JUMPDEST PUSH0 PUSH1 0x20 PUSH1 0x1F DUP4 ADD DIV SWAP1 POP SWAP2 SWAP1 POP JUMP JUMPDEST PUSH0 DUP3 DUP3 SHL SWAP1 POP SWAP3 SWAP2 POP POP JUMP JUMPDEST PUSH0 PUSH1 0x8 DUP4 MUL PUSH2 0xC0B PUSH32 0xFFFFFFFFFFFFFFFFFFFFFFFFFFFFFFFFFFFFFFFFFFFFFFFFFFFFFFFFFFFFFFFF DUP3 PUSH2 0xBD0 JUMP JUMPDEST PUSH2 0xC15 DUP7 DUP4 PUSH2 0xBD0 JUMP JUMPDEST SWAP6 POP DUP1 NOT DUP5 AND SWAP4 POP DUP1 DUP7 AND DUP5 OR SWAP3 POP POP POP SWAP4 SWAP3 POP POP POP JUMP JUMPDEST PUSH0 DUP2 SWAP1 POP SWAP2 SWAP1 POP JUMP JUMPDEST PUSH0 PUSH2 0xC50 PUSH2 0xC4B PUSH2 0xC46 DUP5 PUSH2 0x681 JUMP JUMPDEST PUSH2 0xC2D JUMP JUMPDEST PUSH2 0x681 JUMP JUMPDEST SWAP1 POP SWAP2 SWAP1 POP JUMP JUMPDEST PUSH0 DUP2 SWAP1 POP SWAP2 SWAP1 POP JUMP JUMPDEST PUSH2 0xC69 DUP4 PUSH2 0xC36 JUMP JUMPDEST PUSH2 0xC7D PUSH2 0xC75 DUP3 PUSH2 0xC57 JUMP JUMPDEST DUP5 DUP5 SLOAD PUSH2 0xBDC JUMP JUMPDEST DUP3 SSTORE POP POP POP POP JUMP JUMPDEST PUSH0 SWAP1 JUMP JUMPDEST PUSH2 0xC91 PUSH2 0xC85 JUMP JUMPDEST PUSH2 0xC9C DUP2 DUP5 DUP5 PUSH2 0xC60 JUMP JUMPDEST POP POP POP JUMP JUMPDEST JUMPDEST DUP2 DUP2 LT ISZERO PUSH2 0xCBF JUMPI PUSH2 0xCB4 PUSH0 DUP3 PUSH2 0xC89 JUMP JUMPDEST PUSH1 0x1 DUP2 ADD SWAP1 POP PUSH2 0xCA2 JUMP JUMPDEST POP POP JUMP JUMPDEST PUSH1 0x1F DUP3 GT ISZERO PUSH2 0xD04 JUMPI PUSH2 0xCD5 DUP2 PUSH2 0xBAF JUMP JUMPDEST PUSH2 0xCDE DUP5 PUSH2 0xBC1 JUMP JUMPDEST DUP2 ADD PUSH1 0x20 DUP6 LT ISZERO PUSH2 0xCED JUMPI DUP2 SWAP1 POP JUMPDEST PUSH2 0xD01 PUSH2 0xCF9 DUP6 PUSH2 0xBC1 JUMP JUMPDEST DUP4 ADD DUP3 PUSH2 0xCA1 JUMP JUMPDEST POP POP JUMPDEST POP POP POP JUMP JUMPDEST PUSH0 DUP3 DUP3 SHR SWAP1 POP SWAP3 SWAP2 POP POP JUMP JUMPDEST PUSH0 PUSH2 0xD24 PUSH0 NOT DUP5 PUSH1 0x8 MUL PUSH2 0xD09 JUMP JUMPDEST NOT DUP1 DUP4 AND SWAP2 POP POP SWAP3 SWAP2 POP POP JUMP JUMPDEST PUSH0 PUSH2 0xD3C DUP4 DUP4 PUSH2 0xD15 JUMP JUMPDEST SWAP2 POP DUP3 PUSH1 0x2 MUL DUP3 OR SWAP1 POP SWAP3 SWAP2 POP POP JUMP JUMPDEST PUSH2 0xD55 DUP3 PUSH2 0x6DF JUMP JUMPDEST PUSH8 0xFFFFFFFFFFFFFFFF DUP2 GT ISZERO PUSH2 0xD6E JUMPI PUSH2 0xD6D PUSH2 0x849 JUMP JUMPDEST JUMPDEST PUSH2 0xD78 DUP3 SLOAD PUSH2 0x9F4 JUMP JUMPDEST PUSH2 0xD83 DUP3 DUP3 DUP6 PUSH2 0xCC3 JUMP JUMPDEST PUSH0 PUSH1 0x20 SWAP1 POP PUSH1 0x1F DUP4 GT PUSH1 0x1 DUP2 EQ PUSH2 0xDB4 JUMPI PUSH0 DUP5 ISZERO PUSH2 0xDA2 JUMPI DUP3 DUP8 ADD MLOAD SWAP1 POP JUMPDEST PUSH2 0xDAC DUP6 DUP3 PUSH2 0xD31 JUMP JUMPDEST DUP7 SSTORE POP PUSH2 0xE13 JUMP JUMPDEST PUSH1 0x1F NOT DUP5 AND PUSH2 0xDC2 DUP7 PUSH2 0xBAF JUMP JUMPDEST PUSH0 JUMPDEST DUP3 DUP2 LT ISZERO PUSH2 0xDE9 JUMPI DUP5 DUP10 ADD MLOAD DUP3 SSTORE PUSH1 0x1 DUP3 ADD SWAP2 POP PUSH1 0x20 DUP6 ADD SWAP5 POP PUSH1 0x20 DUP2 ADD SWAP1 POP PUSH2 0xDC4 JUMP JUMPDEST DUP7 DUP4 LT ISZERO PUSH2 0xE06 JUMPI DUP5 DUP10 ADD MLOAD PUSH2 0xE02 PUSH1 0x1F DUP10 AND DUP3 PUSH2 0xD15 JUMP JUMPDEST DUP4 SSTORE POP JUMPDEST PUSH1 0x1 PUSH1 0x2 DUP9 MUL ADD DUP9 SSTORE POP POP POP JUMPDEST POP POP POP POP POP POP JUMP JUMPDEST PUSH32 0x4E487B7100000000000000000000000000000000000000000000000000000000 PUSH0 MSTORE PUSH1 0x11 PUSH1 0x4 MSTORE PUSH1 0x24 PUSH0 REVERT JUMPDEST PUSH0 PUSH2 0xE52 DUP3 PUSH2 0x681 JUMP JUMPDEST SWAP2 POP PUSH2 0xE5D DUP4 PUSH2 0x681 JUMP JUMPDEST SWAP3 POP DUP3 DUP3 SUB SWAP1 POP DUP2 DUP2 GT ISZERO PUSH2 0xE75 JUMPI PUSH2 0xE74 PUSH2 0xE1B JUMP JUMPDEST JUMPDEST SWAP3 SWAP2 POP POP JUMP JUMPDEST PUSH0 PUSH1 0x40 DUP3 ADD SWAP1 POP DUP2 DUP2 SUB PUSH0 DUP4 ADD MSTORE PUSH2 0xE93 DUP2 DUP6 PUSH2 0x717 JUMP JUMPDEST SWAP1 POP PUSH2 0xEA2 PUSH1 0x20 DUP4 ADD DUP5 PUSH2 0x74F JUMP JUMPDEST SWAP4 SWAP3 POP POP POP JUMP INVALID LOG2 PUSH5 0x6970667358 0x22 SLT KECCAK256 0xB2 0x23 0xD3 0xE6 0xB6 NUMBER 0xE1 PUSH20 0x25576B5A4D14A5A01BC760B02630967DCBE9D445 DUP12 GAS 0x1F 0xBE PUSH5 0x736F6C6343 STOP ADDMOD BYTE STOP CALLER "
				},
				"gasEstimates": {
					"creation": {
						"codeDepositCost": "761400",
						"executionCost": "790",
						"totalCost": "762190"
					},
					"external": {
						"credits(uint256)": "infinite",
						"getCredit(uint256)": "infinite",
						"issueCredit(string,uint256)": "infinite",
						"transferCredit(uint256,address)": "33354"
					}
				},
				"methodIdentifiers": {
					"credits(uint256)": "036a1c22",
					"getCredit(uint256)": "da304e4d",
					"issueCredit(string,uint256)": "29711737",
					"transferCredit(uint256,address)": "0df3a1e0"
				}
			},
			"storageLayout": {
				"storage": [
					{
						"astId": 12,
						"contract": "contracts/CarbonCredit.sol:CarbonCredit",
						"label": "credits",
						"offset": 0,
						"slot": "0",
						"type": "t_array(t_struct(Credit)8_storage)dyn_storage"
					}
				],
				"types": {
					"t_address": {
						"encoding": "inplace",
						"label": "address",
						"numberOfBytes": "20"
					},
					"t_array(t_struct(Credit)8_storage)dyn_storage": {
						"base": "t_struct(Credit)8_storage",
						"encoding": "dynamic_array",
						"label": "struct CarbonCredit.Credit[]",
						"numberOfBytes": "32"
					},
					"t_string_storage": {
						"encoding": "bytes",
						"label": "string",
						"numberOfBytes": "32"
					},
					"t_struct(Credit)8_storage": {
						"encoding": "inplace",
						"label": "struct CarbonCredit.Credit",
						"members": [
							{
								"astId": 3,
								"contract": "contracts/CarbonCredit.sol:CarbonCredit",
								"label": "description",
								"offset": 0,
								"slot": "0",
								"type": "t_string_storage"
							},
							{
								"astId": 5,
								"contract": "contracts/CarbonCredit.sol:CarbonCredit",
								"label": "amount",
								"offset": 0,
								"slot": "1",
								"type": "t_uint256"
							},
							{
								"astId": 7,
								"contract": "contracts/CarbonCredit.sol:CarbonCredit",
								"label": "owner",
								"offset": 0,
								"slot": "2",
								"type": "t_address"
							}
						],
						"numberOfBytes": "96"
					},
					"t_uint256": {
						"encoding": "inplace",
						"label": "uint256",
						"numberOfBytes": "32"
					}
				}
			},
			"userdoc": {
				"kind": "user",
				"methods": {},
				"version": 1
			}
		}
	}
}